:020000040800F2
:100000007007002091010008A9050008A10500085B
:10001000A505000849040008070E000800000000BC
:100020000000000000000000000000004907000878
:100030004D04000800000000310600085D080008BB
:10004000AB010008AB010008AB010008AB010008E0
:10005000AB010008AB010008AB010008AB010008D0
:10006000AB010008AB010008AB010008AB010008C0
:10007000AB010008AB010008AB010008AB010008B0
:10008000AB010008AB010008AB010008AB010008A0
:10009000AB010008AB010008AB010008AB01000890
:1000A000AB010008AB010008AB010008AB01000880
:1000B000AB010008AB010008C1080008AB01000853
:1000C000AB010008AB010008AB010008AB01000860
:1000D000AB010008E50B0008AB010008AB0100080C
:1000E000AB010008AB010008AB01000800F002F80A
:1000F00000F03FF80AA090E8000C82448344AAF183
:100100000107DA4501D100F034F8AFF2090EBAE880
:100110000F0013F0010F18BFFB1A43F0010318473B
:100120005812000078120000103A24BF78C878C135
:10013000FAD8520724BF30C830C144BF04680C60ED
:10014000704700000023002400250026103A28BF35
:1001500078C1FBD8520728BF30C148BF0B60704739
:10016000642900F07780002070471FB51FBD10B5CF
:1001700010BD00F037F91146FFF7F7FF00F092FECF
:1001800000F055F903B4FFF7F2FF03BC00F03DFEA9
:100190000948804709480047FEE7FEE7FEE7FEE71B
:1001A000FEE7FEE7FEE7FEE7FEE7FEE70448054957
:1001B000054A064B7047000061080008ED00000882
:1001C00070010020700700207003002070030020E1
:1001D000704700000FB4044910B503AA029800F05C
:1001E000D3F810BC5DF814FB3C0000202DE9F04171
:1001F0000E460446002020622046E168884730B35E
:10020000252805D0D4E901219047206A401CF2E757
:10021000E168204600278847050018D0A5F1410075
:10022000192802D820354FF4006732462946204667
:100230002760FFF795FF40B1012804D0F61D26F096
:1002400007060836D8E7361DD6E72846DAE7206ADB
:10025000BDE8F0812DE9F0410646002410687529BB
:10026000314616A510D0AFF30080002802DA4042D4
:1002700013A507E031688A0701D512A502E04907F6
:1002800004D511A5012401E0AFF3008000210A226A
:1002900006F1240709E0B0FBF2FCB0FBF2F302FB2D
:1002A0001C00303078541846491C0028F3D12346EE
:1002B0002A463046BDE8F04100F00CB800000000CE
:1002C0002D0000002B000000200000007047704748
:1002D000704770472DE9F0470D469946924604460F
:1002E00000F124080168880604D5E06921F01001B6
:1002F000216000E00120A84201DD471B00E000274B
:10030000A1697A1902EB0900081AA0612078C006D9
:1003100002D42046AFF30080002608E0D4E9012192
:100320001AF806009047206A401C761C20624E4551
:10033000F4DB2078C0060AD52046AFF3008006E043
:10034000D4E9012130209047206A401C2062381EE9
:10035000A7F10107F4DC07E0D4E9012118F8050052
:100360009047206A401C2062281EA5F10105F3DC9D
:100370002046AFF300802078000602D50220BDE8B9
:10038000F0870120FBE70000074B70B50D467B446A
:1003900000F011F80446284600F020F810B14FF0A4
:1003A000FF3070BD204670BDF70A000001694A1C8D
:1003B00002610878704700B58FB0CDE901310021A6
:1003C000059105497944CDE9031011466846FFF7C8
:1003D0000DFF0FB000BD0000E5FFFFFF007B00F048
:1003E00080007047754600F02BF8AE460500694660
:1003F000534620F00700854618B020B5FFF7D6FE1B
:10040000BDE820404FF000064FF000074FF0000815
:100410004FF0000B21F00701AC46ACE8C009ACE896
:10042000C009ACE8C009ACE8C0098D46704710B5FA
:100430000446AFF300802046BDE81040FFF7A2BE9F
:10044000004870470C01002000BFFEE770472DE90F
:10045000F04102460025002600200023002400274A
:1004600091F803C00CF00F0591F803C00CF0100CCC
:10047000BCF1000F03D091F802C04CEA050591F8D9
:1004800000C0BCF1000F31D0146800202BE04FF009
:10049000010C0CFA00F3B1F800C00CEA03069E420E
:1004A00020D183004FF00F0C0CFA03F7BC4305FA80
:1004B00003FC4CEA040491F803C0BCF1280F06D1F8
:1004C0004FF0010C0CFA00FCC2F814C00AE091F8DD
:1004D00003C0BCF1480F05D14FF0010C0CFA00FC31
:1004E000C2F810C0401C0828D1D31460B1F800C075
:1004F000BCF1FF0F34DD546800202EE000F1080C41
:100500004FF0010808FA0CF3B1F800C00CEA03063A
:100510009E4221D183004FF00F0C0CFA03F7BC432D
:1005200005FA03FC4CEA040491F803C0BCF1280F5F
:1005300005D100F1080C08FA0CF8C2F8148091F803
:1005400003C0BCF1480F07D100F1080C4FF00108BF
:1005500008FA0CF8C2F81080401C0828CED354606A
:10056000BDE8F0810161704708B50121082000F065
:1005700071F84FF46040ADF8000010208DF80300D2
:1005800003208DF8020069460448FFF760FF4FF42E
:1005900080410248FFF7E6FF08BD0000000C014063
:1005A00000BFFEE700BFFEE77047000070B5002106
:1005B00000230F22C47804B3154C246804F4E064CB
:1005C000C4F5E064210AC1F10403CA40447804FA86
:1005D00003F184781440214309010E4C0678A1559B
:1005E000047804F01F050124AC4005786D11AD00BE
:1005F00005F1E025C5F8004109E0047804F01F0585
:100600000124AC40044D0678761145F8264070BDB3
:100610000CED00E000E400E080E100E0024901436D
:10062000024A1160704700000000FA050CED00E07E
:100630007047000029B1064AD2690243044BDA61CF
:1006400004E0034AD2698243014BDA61704700003B
:100650000010024029B1064A92690243044B9A6194
:1006600004E0034A92698243014B9A61704700009B
:100670000010024030B500210022002400232D4D3F
:100680006D6805F00C0121B1042905D0082923D19A
:1006900005E0294D056022E0274D05601FE0254D4E
:1006A0006D6805F47012234D6D6805F480340225E1
:1006B00005EB92421CB9214D554305600BE01D4DE1
:1006C0006D6805F400351DB11C4D5543056002E011
:1006D000194D5543056002E0174D056000BF00BF8E
:1006E000144D6D6805F0F0010909154D6B5C056846
:1006F000DD4045600F4D6D6805F4E061090A104D5D
:100700006B5C4568DD4085600A4D6D6805F460519D
:10071000C90A0B4D6B5C4568DD40C560054D6D68D1
:1007200005F44041890B074D6B5CC568B5FBF3F5DB
:10073000056130BD0010024000127A0000093D0042
:100740002400002034000020704710B500F002F8AB
:1007500010BD00000CB500200190009033480068E7
:1007600040F480303149086000BF3048006800F430
:10077000003000900198401C0190009818B9019831
:10078000B0F5A06FF1D12948006800F4003010B135
:100790000120009001E0002000900098012843D142
:1007A0002348006840F010002149086008460068AE
:1007B00020F0030008600846006840F0020008606E
:1007C0001A48406819494860084640684860084629
:1007D000406840F4806048600846406820F47C101F
:1007E00048600846406840F4E810486008460068E1
:1007F00040F08070086000BF0C48006800F0007096
:100800000028F9D00948406820F0030007494860F3
:100810000846406840F00200486000BF0348406856
:1008200000F00C000828F9D10CBD000000100240B7
:1008300000200240042808D14FF0E021096941F06E
:1008400004014FF0E022116107E04FF0E021096957
:1008500021F004014FF0E022116170477047000061
:1008600010B51348006840F00100114908600846BF
:100870004068104908400E494860084600680E4923
:1008800008400B4908600846006820F48020086092
:100890000846406820F4FE0048604FF41F0088605E
:1008A000FFF753FF4FF000600449086010BD0000DF
:1008B000001002400000FFF8FFFFF6FE08ED00E028
:1008C0002DE9F0410221204800F065F8D0B1022165
:1008D0001D4800F04BF81C4800F057F8064600F0A1
:1008E00077FC04461948006800F05AFC804621460F
:1008F00000F0D4FB074600F033FC86B231461248C4
:1009000000F019F90421104800F045F8D0B1042195
:100910000D4800F02BF80C4800F03AF8064600F0BD
:1009200057FC05460A48006800F03AFC8046294614
:1009300000F0B4FB074600F013FC86B231460248D3
:1009400000F0FBF8BDE8F081000800400400002042
:100950000000002021B1028842F08002028004E001
:1009600002884FF67F731A4002807047CA430282A2
:10097000704721B1028842F00102028004E002883F
:100980004FF6FE731A40028070470146888E70470A
:100990000146088F704730B502460020002300242E
:1009A000158A05EA0103958905EA010413B10CB122
:1009B000012000E0002030BD1AB183890B43838100
:1009C00002E083898B4383817047000070B5002467
:1009D00000220023058C4FF6FE7635400584028CFC
:1009E0008388048B4FF68F752C40B51E2C400D88E4
:1009F0002C43751E2A400D892A434D882A43144DE5
:100A0000A8420BD0134DA84208D0134DA84205D0E0
:100A1000124DA84202D0124DA84213D14FF6F775DD
:100A20002A404D892A434FF6FB752A408D882A4378
:100A30004FF6FF652B404FF6FF552B408D892B431A
:100A4000CD892B4383800483CD888586028470BD45
:100A5000002C0140003401400040014000440140AE
:100A6000004801400A460021018B4FF6F7731940F8
:100A7000114301837047000070B500240022002359
:100A8000058C4FF6EF7635400584028C8388048B05
:100A900048F6FF752C404FF6FF452C400D884FF669
:100AA000FF7606EA05252C434FF6DF752A400D89AF
:100AB00006EA05152A434D8806EA05152A43154D11
:100AC000A84202D0144DA8421DD14FF67F752A408E
:100AD0004D894FF6FF7606EA05152A434FF6BF7596
:100AE0002A408D8806EA05152A434FF6FF352B402C
:100AF0004FF2FF752B408D8906EA85052B43CD8982
:100B000006EA85052B4383800483CD88058702840C
:100B100070BD0000002C0140003401400A46002155
:100B2000018B4FF2FF7319404FF6FF7303EA022364
:100B30001943018370478186704701877047000021
:100B4000002202881D4B98420ED01D4B98420BD0BC
:100B5000B0F1804F08D01B4B984205D01A4B9842F9
:100B600002D01A4B984204D14FF68F731A404B882B
:100B70001A43174B984207D0164B984204D04FF6B1
:100B8000FF431A40CB881A4302808B8883850B88E9
:100B900003850A4B98420BD0094B984208D00E4B64
:100BA000984205D00D4B984202D00D4B984201D18E
:100BB0000B7A03860123838270470000002C0140DA
:100BC000003401400004004000080040000C0040D8
:100BD000001000400014004000400140004401406B
:100BE0000048014010B540F225511D4800F04AF878
:100BF00010B31B4800F002F9C4B21A48008800F490
:100C00000040C8B91748008800F4804060B10A2C41
:100C100003D000201349088020E01248008840F4E7
:100C200000401049088019E00D2C06D10D480088BD
:100C300040F480400B49088010E00A480088C0F367
:100C40000D0009490C5407480088401C05490880DC
:100C500008460088C72801DD0020088010BD00007C
:100C600000380140400000204400002021B182896A
:100C700042F40052828104E082894DF6FF731A40EB
:100C80008281704770B502460024002300250020B1
:100C900040F66A16B14200D100BFC1F3421501F01F
:100CA0001F03012606FA03F3012D02D19689334072
:100CB00006E0022D02D1168A334001E0968A3340C5
:100CC0000C12012606FA04F41688344013B10CB154
:100CD000012000E0002070BDF0B50346002400268E
:100CE0000025002040F66A17B94200D100BF18461F
:100CF000C1F3421401F01F06012707FA06F5012C83
:100D000001D10C3004E0022C01D1103000E014308D
:100D10001AB107682F43076002E00768AF43076016
:100D2000F0BD00002DE9F04786B005460E460024D0
:100D3000A24600BFA1460027B08900B100BF2F46E0
:100D40002C8A4CF6FF700440F08804432C82AC8956
:100D50004EF6F3100440B088318908437189084386
:100D60000443AC81AC8A4FF6FF400440B089044391
:100D7000AC8201A8FFF77EFC1F48874202D1DDF854
:100D800010A001E0DDF80CA0A88900F4004040B1FB
:100D90000AEBCA0000EB0A1031684900B0FBF1F819
:100DA00007E00AEBCA0000EB0A1031688900B0FBCB
:100DB000F1F86420B8FBF0F004012009642101FB84
:100DC0001089A88900F4004040B1322000EBC9002E
:100DD000B0FBF1F000F00700044308E0322000EB24
:100DE00009106421B0FBF1F000F00F0004432C81E6
:100DF00006B0BDE8F0870000003801400146888851
:100E0000C0F30800704700BFFEE7014600BF70470F
:100E100010B5012805D1C1F57A73074C2360074B43
:100E20001A60022806D1C1F57A73054C2360034B82
:100E3000083B1A6010BD000000000020BC81214268
:100E40000400002010B56FF00400FFF7F3FC0A481F
:100E500000680A49B0FBF1F00949087008460078BB
:100E600000EB4001C1EBC0104FF6FF7101EAC0007A
:100E70000449088010BD00001000002000127A0014
:100E8000380000203A00002000BF054A128802F016
:100E90004002002AF9D0C2B2014B1B1D1A807047D4
:100EA00000380140FFF7DCFCFFF7CCFF4FF4A060F7
:100EB000FFF7B4FB4FF4165000F0A0F8FFF754FB17
:100EC0000E214FF6FF7000F033F84FF47A700C49A2
:100ED000086014E0002264210120FFF799FF00223E
:100EE0004FF4FA710220FFF793FF0548016805A04F
:100EF000FFF770F90848016808A0FFF76BF9E9E708
:100F00000000002046696E616C5F4D6F746F313D6B
:100F100025640D0A000000000400002046696E618F
:100F20006C5F4D6F746F323D25640D0A0000000048
:100F300030B589B005460C4601210420FFF77AFB45
:100F400001210820FFF786FBC020ADF82000032018
:100F50008DF8220018208DF8230008A92548FFF7F6
:100F600076FAADF81850ADF814400020ADF81A002C
:100F7000ADF8160005A92048FFF7E2FD3020ADF8D6
:100F800000000120ADF802000020ADF80600ADF829
:100F900008000120ADF8020069461748FFF716FD6A
:100FA00000211548FFF75EFD69461348FFF764FD11
:100FB00000211148FFF7B2FD01210F48FFF7CAFCDD
:100FC00001210D48FFF7D5FC012206210A48FFF751
:100FD000F3FC1E208DF8100000208DF811008DF814
:100FE000120001208DF8130004A8FFF7DFFA09B002
:100FF00030BD0000000C01400008004010B586B074
:101000000446012144F20400FFF724FB4FF4007072
:10101000ADF8140003208DF8160018208DF8170085
:1010200005A91C48FFF713FA4FF48060ADF81400CF
:1010300004208DF8170005A91648FFF708FA2520A7
:101040008DF8000003208DF801008DF802000120CA
:101050008DF803006846FFF7A9FA01940020ADF867
:101060000800ADF80A00ADF80C00ADF810000C2037
:10107000ADF80E0001A90848FFF754FE012240F226
:1010800025510548FFF728FE01210348FFF7EEFD33
:1010900006B010BD000801400038014090EA010F81
:1010A00048BF81F0004100F1F880421A3CBF801A2D
:1010B00089184FEAD0524FF07F4C1CEA410FA2EB47
:1010C000D15318BF9CEA026F00F03B804FF0004CF8
:1010D0004CEA00204CEA012121FA03FC10EB0C0C35
:1010E0001ED202F1FF325FEA1C2040EBC25038BF33
:1010F00070471CF07F0F4FEA400C18BFBCF17F4FC8
:1011000038BF7047C3F12003994008BF20F00100A9
:10111000BCF17F4F38BF7047A0F1C04000F0B1B8BC
:101120004FEA3C00000A40EBC25028BF1CF0FF0F02
:101130004FEA400CE6D018BFBCF17F4F38BF704774
:10114000EAE79CEA026F05D010EA5C0F08BF00F0E6
:101150000040704710B500F04EF800BF64FBBE3E83
:10116000C10DD1F19E0206DB4FEA002343F000439C
:1011700023FA02F07047004207D54FEA4001B1F16F
:10118000FE4F02D24FF00000704710B500F033F868
:1011900049922480002070476FEA200070470000C9
:1011A00010F0004148BF4042B0FA80F310FA03F259
:1011B000C3F19D030BD051EAC35101EB122053063A
:1011C00038BF704700F1010008BF20F001007047F0
:1011D000B0FA80F310FA03F2C3F19D030AD0D905E7
:1011E00001EB1220530638BF704700F1010008BF21
:1011F00020F0010070470EF1020E2EF0030E5EF893
:10120000044B244204D44FEA4102B2F17F4F11D87B
:101210004FEA4003B3F17F4F0CD80ED14FEAD07C98
:10122000B2F17F4F0CEB4C0C0CF1020C08BF4CEBF5
:10123000D17C04E04FF0080C01E04FEAD17C0CEBCC
:101240004C0324FA03F404F00704B4F1040C06D2AE
:101250000EEB840CBDE810404CF0010C6047DFE859
:101260000CF0070802024FF00040A0F5800010BD0E
:101270000846420018BFD2F1807288BF00F00040DB
:1012800010BDFF2141EAD050C005704790EA010F20
:1012900048BF81F000413FF508AF421A04D882F000
:1012A0000042A0EB020011444FEAD0524FF07F4CB5
:1012B0001CEA410FA2EBD15318BF9CEA026F4AD03F
:1012C0004FF0004C4CEA00204CEA012121FA03FCCB
:1012D000B0EB0C0C0FD412F0FE0F36D05FEA4C00CE
:1012E0001DD5001240EBC25038BF70471CF03F0FB5
:1012F00018BF70470BE0A2F101025FEA1C2040EB2F
:10130000C25038BF70471CF07F0F18BF7047C3F141
:101310002003994014BF401E20F001007047800850
:101320004FEA122308BF7047B0FA80FCA2EB0C0210
:10133000CCF1280C60FA0CF093EA122F04BF00EBFA
:10134000C25070474FEAC3707047130A5FEADC105F
:1013500008BF7047F6E79CEA026F04D010EA5C0F02
:1013600008BF0020704710B5FFF745FF40DFF63E8D
:1013700081F0004070470000981300080000002032
:101380004400000028010008DC130008440000208D
:101390002C070000440100080000000000000000CD
:1013A000000000000000000000A24A04000000004D
:1013B0000000000001020304060708090000000005
:1013C00001020304010203040607080902040608D7
:0C13D00000000000000000000000000011
:04000005080000ED02
:00000001FF
