:020000040800F2
:10000000B81C0020FD010008D91D0008E10200080D
:10001000D71D0008DD120008BD2A000800000000FE
:100020000000000000000000000000000F020008B7
:100030005D130008000000006B0200083F2000086C
:10004000170200081702000817020008170200082C
:10005000170200081702000817020008170200081C
:10006000170200081702000817020008170200080C
:1000700017020008170200081702000817020008FC
:1000800017020008170200081702000817020008EC
:1000900017020008170200081702000817020008DC
:1000A00017020008170200081702000817020008CC
:1000B000A5230008C9230008DD2300081702000853
:1000C00017020008170200081702000817020008AC
:1000D0001702000845280008DD280008170200085C
:1000E000170200081702000817020008170200088C
:1000F000F123000817020008170200081702000881
:10010000170200081702000817020008170200086B
:10011000170200081702000817020008170200085B
:10012000170200081702000817020008170200084B
:1001300000F002F800F053F80AA090E8000C8244A6
:100140008344AAF10107DA4501D100F048F8AFF283
:10015000090EBAE80F0013F0010F18BFFB1A43F0A5
:10016000010318472009010040090100103A24BF8B
:1001700078C878C1FAD8520724BF30C830C144BF0C
:1001800004680C607047000000230024002500264E
:10019000103A28BF78C1FBD8520728BF30C148BFEA
:1001A0000B607047662909F0AC85642900F02E8148
:1001B000782900F06781002070471FB500F008FE25
:1001C00004000020002108F025FB401C6060002096
:1001D000002108F009FBE0601FBD10B510BD00F064
:1001E00047FF1146FFF7E9FF00F0BEFF00F073FF85
:1001F00003B4FFF7F2FF03BC04F004FB0948804797
:1002000009480047FEE7FEE7FEE7FEE7FEE7FEE7F8
:10021000FEE7FEE7FEE7FEE704480549054A064B10
:1002200070470000B522000831010008B816002010
:10023000B81C0020B8180020B8180020EFF3108078
:1002400072B6704780F310887047324A1368012BEA
:1002500004D04FF0010313602F4A10602F4A116041
:100260002F484FF0805101607047EFF3108272B653
:100270002848016891B14FF00001016026480168EB
:1002800029B1EFF3098121E9F00F006801602349EA
:1002900009680968B1E8F00F81F3098882F31088D2
:1002A0004EF0040E70471D4908601B494FF00000D6
:1002B000086018494FF0010008601A481A49D0F840
:1002C000002041EA0201016015484FF080510160B1
:1002D00016480068006880F3088861B662B6704707
:1002E0001EF0040F0CBFEFF30880EFF3098020E944
:1002F000F00F40F804ED1EF0040F0CBF80F30888E7
:1003000080F3098800B506F06BFB5DF804EB4EF056
:10031000040E7047AC1600209C140020A41400208A
:1003200004ED00E020ED00E00000FFFF08ED00E03C
:10033000704710B54C1084EA530404D54042C1F113
:10034000000138BF491E1B4204D55242C3F10003CD
:1003500038BF5B1E00F0DEF914F0804F04D040423D
:10036000C1F1000138BF491E14F0004F04D05242C1
:10037000C3F1000338BF5B1E10BD00000FB4044979
:1003800010B503AA029800F0CDFC10BC5DF814FB78
:10039000BC0300200FB41CB5074B06AA7B4469467A
:1003A0000090059800F0A5FC0020694600F0B4FC20
:1003B0001CBC5DF814FB00007909000070B5044610
:1003C00085690068C10601D5302600E02026C007F7
:1003D00007D070BDD4E9012130469047206A401C07
:1003E00020626D1EF6D570BD70B504468569007833
:1003F000C00707D170BDD4E9012120209047206AB1
:10040000401C20626D1EF6D570BD00002DE9F04144
:100410000646002410687529314616A510D0AFF3A2
:100420000080002802DA404213A507E031688A07FD
:1004300001D512A502E0490704D511A5012401E068
:10044000AFF3008000210A2206F1240709E0B0FB87
:10045000F2FCB0FBF2F302FB1C003030785418467B
:10046000491C0028F3D123462A463046BDE8F04116
:1004700000F0D2B9000000002D0000002B000000A9
:100480002000000070B504460D4621461068AFF309
:1004900000802188090502D50F4A7A4402E00E4AFD
:1004A0007A440E32002104F1240305E000F00F0627
:1004B0000009965D5E54491C0028F7D1207800237E
:1004C000000704D5702D02D009B102231132204655
:1004D000BDE8704000F0A0B9A49900002DE9F05FDC
:1004E000894604464FF0000ADFF824B1FB44C0F807
:1004F00020A02046E168884700287DD0252806D026
:10050000D4E901219047206A401C2062F1E70025D0
:100510005F462046E16888472028064607DB312EE3
:1005200005D2B81910F8200C08B10543F1E7A80767
:1005300001D525F00405C4F81CA00027C4F818A0B4
:100540002A2E09D0304607F0C6FC38B304EB8708E2
:10055000303EC8F8186019E059F8041B204604EB37
:1005600087029161E1688847012F064618D1E0694A
:10057000002820DA25F020051DE0D8F8180000EB4F
:10058000800006EB40003038C8F818002046E168CB
:100590008847064607F09FFC0028EED1012F0AD0BD
:1005A0002E2E08D12046E16888477F1C0646022F80
:1005B00045F02005C4DBA069002803DA404245F07D
:1005C0000105A061E80701D025F01005A6B1A6F14C
:1005D0004100192802D8203645F400654A463146C4
:1005E000204625604D46FFF7DDFD60B1012807D0AC
:1005F000ED1D25F0070000E007E000F1080978E7AD
:1006000005F1040975E730467AE7206ABDE8F09FF6
:100610007A99000070B5064600F078F8046805463F
:1006200030460A22002100F08FFB2C6070BD0000D4
:1006300010B5044603E004F0EDFD401C09D014F8A9
:10064000010B05490028F6D1BDE810400A2004F04E
:10065000E1BD4FF0FF3010BDBC03002040EA0103B4
:1006600010B59B070FD1042A0DD310C808C9121F5B
:100670009C42F8D020BA19BA884201D9012010BD95
:100680004FF0FF3010BD1AB1D30703D0521C07E062
:10069000002010BD10F8013B11F8014B1B1B07D1C6
:1006A00010F8013B11F8014B1B1B01D1921EF1D137
:1006B000184610BD4FF0000200B51346944696460A
:1006C000203922BFA0E80C50A0E80C50B1F1200165
:1006D000BFF4F7AF090728BFA0E80C5048BF0CC013
:1006E0005DF804EB890028BF40F8042B08BF704771
:1006F00048BF20F8022B11F0804F18BF00F8012BE3
:100700007047704770477047704700000048704757
:10071000C000002053EA020C00F069802DE9F04B84
:100720004FF00006002B1FBFB3FA83F503FA05F460
:1007300024FA05F65E4012BF1643B2FA82F502FAB9
:1007400005F4C5F120051EBF22FA05FC44EA0C049D
:10075000203556EA044C4FEA144418BF641C4FF08D
:1007600000084FF00009904271EB030C39D30029C7
:1007700019BFB1FA81F701FA07F6B0FA80F700FA6B
:1007800007F6C7F120071EBF20FA07FC46EA0C0651
:100790002037B6FBF4FCA7EB0507103F07F01F0B53
:1007A000CBF120062CFA06F60CFA0BFB44BFB3463D
:1007B0000026202FA4BF5E464FF0000B5BEA060C1C
:1007C00008BF4FF0010B19EB0B0948EB0608ABFB18
:1007D000027C06FB02CC0BFB03CCC01B71EB0C01B3
:1007E000C1E70B46024641464846BDE8F08B13B5CB
:1007F0004FF000004FF00001AFF30080BDE81C4057
:10080000704710B5FFF782FF006810BD10B50446B1
:10081000FFF77CFF046010BD2DE9F0470D469946B7
:100820009246044600F124080168880604D5E06970
:1008300021F01001216000E00120A84201DD471BEA
:1008400000E00027A1697A1902EB0900081AA061EB
:100850002078C00602D42046FFF7B0FD002608E04D
:10086000D4E901211AF806009047206A401C761C42
:1008700020624E45F4DB2078C0060AD52046FFF7FB
:100880009DFD06E0D4E9012130209047206A401CFC
:100890002062381EA7F10107F4DC07E0D4E901214A
:1008A00018F805009047206A401C2062281EA5F118
:1008B0000105F3DC2046FFF797FD2078000602D5FE
:1008C0000220BDE8F0870120FBE72DE9FF4F0C4631
:1008D0001E464FF0FF378BB0D2E90001DDF8608093
:1008E0000A908A46C1F30A5505B93D4600210846DB
:1008F0004FF00000BAF1000F00F4400005DA00EB01
:1009000080004FF4400101EA50004FEA9059B9F1DC
:10091000010F00DDB9460A9850EA4A000ED044F6AD
:100920001050A5F2FF3545432F14B8F1000F1ED02B
:100930007542291E1EDDC9F100021CE0B8F1010F4D
:100940004FF0000001D0302103E0F24305E02154D4
:10095000401CB042FBDB30460022002121540B99A1
:10096000C1F80880C1E900200FB0BDE8F08FBD1BC1
:100970006D1CDEE74A4600DA694206A800F002FB79
:1009800006AB93E8070003AB83E8070050460A99DB
:1009900006F042FE8DE80700A0F500501F380090D9
:1009A0000398002D0ADD42F21F014A460844002345
:1009B00003A90390684607F0ABF809E0A0F50050E2
:1009C0004A461F38002303A90390684607F0B5F88C
:1009D0008DE807000004000C03D04FF0FF30410801
:1009E00000E01046B8F1000F03D000220092154637
:1009F0001EE0751E05D400F0EFF9303262556D1E11
:100A0000F9D5B3460122084302D000227F1C04E03E
:100A10002078302801D100227F1E002A099784D037
:100A20001DE0112D07DA00F0D7F9303262556D1C48
:100A300050EA0102F5D1084302D00098C8B10EE097
:100A40000021681E05E0235C625C63542254401E52
:100A5000491C8142F7DBAB46A81B401E09900020D1
:100A600004F80B000B98099AC0F80880C0E9002B25
:100A70007AE711264FF0000857E72DE9F04F884636
:100A80000446D21D22F0070191B0D1E90001CDE961
:100A90000A0107F089F902460B98C00F01D02D20FA
:100AA00007E02068810701D52B2002E0202101EA20
:100AB000C000032A099001D0072A05DB03464146FE
:100AC000204600F0CFF90BE12078800601D5E069DF
:100AD00000E00620B8F1650F814606D0B8F1660F38
:100AE00018D0B8F1670F70D131E00020B9F1110FC3
:100AF000009001DB112301E009F101030AAA01A919
:100B00000CA8FFF7E2FEDDE90C70002609F10105F3
:100B1000834647E001204B4600904FF000470AAA69
:100B200001A90CA8FFF7D1FEDDE90DB00C995D46D7
:100B3000002610B909F101000D18B9EB050003D426
:100B4000C0F1FF3609F10105A5EB09002BE0B9F171
:100B5000010F01DA4FF001090020B9F1110F0090E7
:100B6000484601DD112300E003460AAA01A90CA8AA
:100B7000FFF7ABFEDDE90C704D460026834620787A
:100B800000070AD4AB4500DA5D4601A8012D04DD5B
:100B9000411911F8011C302907D04F4502DA17F12D
:100BA000040F04DA012082460FE06D1EEEE7002FED
:100BB00002DCED1B3E4403E0781CA84200DD7D1CF6
:100BC000B81B00F1010A4FF000472078000703D45A
:100BD000AA4501DB4FF0FF3A0021B7F1004F0DF1BC
:100BE00043088DF8431024D002202B23002F01DA74
:100BF0007F422D230A21021EA0F1010000DC5FB11B
:100C000097FBF1FC97FBF1F201FB1C7C17460CF102
:100C1000300C08F801CDEEE7A8F10100037021883F
:100C2000090501D5452100E06521A0F1010800F882
:100C3000011C09980FA9A1EB0807FF1D00B10120B5
:100C4000411901EBEA70A1693844081A401EA061FD
:100C50002078C00602D42046FFF7B0FB099828B1DF
:100C6000D4E901219047206A401C20622078C00608
:100C700022D52046FFF7A2FB1EE0002E04DBB34581
:100C800002DD01A8805D00E03020D4E90121904719
:100C9000206A401C2062761CAAF101005FEA000A6B
:100CA0000AD100F095F8C0680168405CD4E90121E0
:100CB0009047206A401C2062281EA5F10105DCDC5B
:100CC00007E0D4E9012118F8010B9047206A401C85
:100CD0002062381EA7F10107F3DC2046FFF784FBF2
:100CE000032011B041E6000001694A1C0261087846
:100CF000704700B58FB0CDE901310021059105495C
:100D00007944CDE9031011466846FFF7E7FB0FB0C1
:100D100000BD0000E5FFFFFF0A6802F8010B0A6052
:100D200070470000074B70B50D467B44FFF7E1FFAD
:100D30000446284600F098F910B14FF0FF3070BD1E
:100D4000204670BDE74400002DE9F04791460F466C
:100D500080460446002614F8015B2DB100F030F8FF
:100D60000068405DC007F6D12B2D02D02D2D18D084
:100D7000641E4A463946204600F0B4F827B1396867
:100D8000A14201D1C7F800804FF0020471050BD5D4
:100D90004042002803DDFFF7B9FC0460A007BDE86E
:100DA000F08746F48066E4E70028F8DAFFF7AEFC47
:100DB00004606FF00040F2E700487047C000002078
:100DC00010B500F005F8001D10BD00BF497A000005
:100DD00000487047E000002030B5B0F10A0271F120
:100DE00000034FEA900E4EEA817EB0EB0E0061EBFD
:100DF00091014FEA101E4EEA017E10EB0E0041EB0E
:100E000011114FEA102E4EEA016E10EB0E0041EB6D
:100E100011214FEA104E4EEA014E10EB0E0041EB4D
:100E20001141401841F100014FEAD00040EA417001
:100E30004FEAD1014FEA810444EA907410EB800537
:100E400044EB01046D1944EB0404521BA3414FF021
:100E5000000348BF0A3200D530BD401C41F10001FB
:100E600030BD00002DE9F0411F460446032601680D
:100E7000072A01F4006004DB08B116A505E016A5F9
:100E800003E008B115A500E015A521F010002060D1
:100E9000A069C01EA0610FB1401EA0612046FFF7EF
:100EA0008DFA4FB1D4E9012138469047206A401CA1
:100EB0002062C01C206206E0206AFAE7D4E9012122
:100EC00015F8010B9047761EF8D22046FFF78CFAF2
:100ED000BDE8F0814E414E006E616E00494E460005
:100EE000696E66002DE9F05F824615468B46002745
:100EF0000AF10104B9460078302801D09DB113E011
:100F000014F8010B0127782803D0582801D045B1E7
:100F10000AE00DB1102D07D1002714F8010B1025A0
:100F200002E0082500E00A250026B0460EE005FB99
:100F3000080005FB06F101271FFA80F801EB1046B7
:100F4000B6F5803F00D3B94614F8010B294600F0EE
:100F5000B4F80028EBDABBF1000F05D00FB1641E26
:100F600000E05446CBF80040B9F1000F06D0FFF77F
:100F7000CDFB02210160C81EBDE8F09F48EA064093
:100F8000FAE700002DE9F047814616468AB0354859
:100F900078440DC88DE80D0032487844801C03ACBD
:100FA0000DC884E80D0041F69B300844372190FBC2
:100FB000F1F290FBF1F5A5F1800501FB12041B3C59
:100FC00002D56442012000E00020DFF898A08046AE
:100FD0000027FA44AAF1BE0A0EE0E0070AD0324622
:100FE000684607EB470101230AEB810106F0A5FDE6
:100FF0008DE8070064107F1C002CEED1194F7F4450
:10100000AE3F19E0E80715D007EB04100DF1180A00
:1010100090E80E008AE80E00C068F04201D19819ED
:1010200008903246012306A903A806F086FD03AB0B
:1010300083E807006D10641C002DE3D14FF001031D
:1010400032466946B8F1000F03A802D006F060FDF1
:1010500001E006F072FDC9E90001C9F808200AB0F4
:10106000BDE8F08758900000007B00F080007047DA
:101070007546FFF7A1FEAE4605006946534620F0CF
:101080000700854618B020B5FFF7C6F8BDE8204038
:101090004FF000064FF000074FF000084FF0000B34
:1010A000AC46ACE8C009ACE8C009ACE8C009ACE8A3
:1010B000C00921F007018D4670473A2800D2303828
:1010C00020F02002412A01D3A2F13700884201D347
:1010D0004FF0FF30704710B50446AFF30080204654
:1010E000BDE81040FFF784B84FF0013C50F8042BE6
:1010F00051F8043B9A4221D1A2EB0C03934313EA2B
:10110000CC1317D150F8042B51F8043B9A4215D157
:10111000A2EB0C03934313EACC130BD150F8042B2E
:1011200051F8043B9A4209D1A2EB0C03934313EA12
:10113000CC13DBD04FF00000704700BFD01A01BACB
:10114000B1FA81F101F0180122FA01F0CB40DBB2D3
:10115000C0B2C01AC1F120012CFA01F3D11A914397
:1011600011EAC311E6D1704780B506F0D5F9002029
:1011700080BD8268002942F0010308BF22F001030C
:101180008360704780B5134988420ED01249884267
:1011900013D01249884218BF80BD4FF4007001215E
:1011A00000F07CFE4FF400700EE04FF4004001218F
:1011B00000F074FE4FF4004006E04FF4806001211F
:1011C00000F06CFE4FF480600021BDE8804000F02C
:1011D00065BE00BF003C01400028014000240140E2
:1011E0008068C0F380007047C06C80B270470068B0
:1011F000084018BF012070478068C0F3C0007047E6
:1012000080B54268104B02EA030CD1E9003243EA90
:101210000C0343EA02220D4B4260826802EA030E8D
:10122000D1E902C30A6942EA0E021A4342EA4C02B9
:101230008260C26A097D013922F47002C9B242EAB1
:101240000151C16280BD00BFFFFEF0FFFDF7F1FF5D
:1012500010B501EB410C092988BFACF11E0C09291E
:1012600003FA0CFE4FF0070303FA0CFC4FF01003D7
:1012700088BF0C23062AC45824EA0C0444EA0E044E
:10128000C45003D834306FF0040307E00C2A87BF42
:101290002C306FF0400330306FF0220302EB8202FB
:1012A0001A441F23914003FA02F2036823EA020260
:1012B0001143016010BD816841F0080181607047F1
:1012C0008268002942F4A00308BF22F4A0038360CF
:1012D0007047816841F0040181607047FEE70000BB
:1012E000B0B50C46194908F0C1FB0546184821461F
:1012F000006808F0BBFB074C0146206808F028F99D
:10130000154908F0B3FB0146284608F021F9206092
:10131000B0BD00BF8C020020B0B50C460B4908F0F0
:10132000A5FB05460A482146006808F09FFB094CCA
:101330000146206808F00CF9074908F097FB0146C0
:10134000284608F005F92060B0BD00BF0AD7A33CCD
:10135000100000209002002048E17A3F70472DE9FC
:10136000F043D1F808E00EF00F0C1EF0100F1CBF78
:101370004A684CEA020C098811F0FF0F21D003687B
:1013800000224FF001094FF00F08002616E009FA7D
:1013900006F70F4210D008FA02F40CFA02F5BEF17B
:1013A000480F23EA040343EA050304D0BEF1280FE3
:1013B00008BF476100E0076104320136082EE6D11C
:1013C0000360B1F5807F38BFBDE8F0834368002239
:1013D0004FF480794FF00F08002618E009FA06F75D
:1013E00007EA0105BD4210D108FA02F40CFA02F531
:1013F000BEF1480F23EA040343EA050304D0BEF11B
:10140000280F08BF476100E0076104320136082E4B
:10141000E4D14360BDE8F08310B5194A002800F418
:1014200040141FFA80FC1346B8BF43F01803B4F50C
:10143000401F1B68C0F3034E06D1146823F070638D
:1014400024F0706414600EE0C40206D447F6F07411
:1014500004EA50440CFA04F402E0032404FA0EF403
:10146000A34343F0706331B147F6F07101EA504194
:101470000CFA01F10B430028B8BF1832136010BDFD
:101480000400014041617047016170472DE9F04F50
:1014900087B0054600F004FC5A49012D08602CD1A4
:1014A0005D4C04F1140004F1100104F1180204F081
:1014B00079F9002840F0A280A11C221D204600F0EE
:1014C000B5FBA01D04F1080104F10A0200F0CBFBFA
:1014D000206953490860B4F91C0008F033FA4A49FE
:1014E0000860B4F9200008F02DFA4C490860B4F9FE
:1014F000260008F027FA80467DE00DF10E036920F2
:101500003B210E2200F068FD00B124E0BDF80E0082
:10151000C0BA08F017FA0190BDF81000C0BA08F080
:1015200011FA8246BDF81200C0BA08F00BFA8046E4
:10153000BDF81600C0BA08F005FA0646BDF81A0054
:10154000C0BA08F0FFF90290BDF81800C0BA08F060
:10155000F9F907F0D1FF2C4A2C4C16604FF0663297
:10156000234607F05BFA07F06BF98346304607F035
:10157000C3FF4FF06632234607F050FA07F060F9D8
:1015800081465046414606F0C3FF214C214608F0F3
:101590006DFA204E314608F0A3F8074601984146FF
:1015A00006F0B6FF214608F061FA314608F098F8D7
:1015B0000446032D0CD0022D16D13846494600F0C2
:1015C000FBF9154908612046594600F08DFA09E0FB
:1015D00038464946FFF784FE0F49086120465946C0
:1015E000FFF79AFE0C4948610C48029901600A48CD
:1015F0000B49006908600B48C0F8008007B0BDE8DF
:10160000F08F00BFC4020020A002002066663040B8
:1016100000003443DB0F494070010020A402002089
:1016200084020020800200202DE9F84F434D8346BC
:10163000288810F0080F75D0A88A298BDFF804A13C
:1016400041EA00483E48B8FBF0F9BAF8000081458D
:1016500006D19AF80A109AF80B20BAF808603DE013
:10166000394C3A4D40F2B2764F46AAF800900BE062
:10167000B0B200F075F920B1B7F5B77F284601D2B6
:1016800005E0204607440136B7F5B67FF0D8CDF81F
:101690000080DFF8B88B0024B5B2AAF8086010E02B
:1016A000284600F05DF9A1B2012904D118B11D2F1F
:1016B0000AD31D3F04E018F80100874205D33F1A02
:1016C00001341C2FECD200E001247A1C1B4DDDF804
:1016D0000080611C8AF80B208AF80A10B0B2C9B2E7
:1016E000D2B200F027FC8AF80C0040F2A3204FF49D
:1016F000616109FB00F0A8EBC010B0FBF1F202FB46
:1017000011003C218AF80D20B0FBF1F18AF80E108F
:10171000C1EB0111A0EB81008AF80F00288820F0AE
:1017200008002880074800F108078ECFD0E906603E
:101730008BE88E00CBE90460BDE8F88F04280040F8
:10174000805101003001002093FEFFFF92FEFFFF59
:10175000B0B56E4C002580482560016821F47041C9
:101760000160016841F4405101600220656003F0AE
:101770007DF801202060022003F078F82560B0BDDC
:10178000022003F073B800001FB5082001210124D6
:1017900000F078FB102001A903904FF44060ADF8F1
:1017A0000400032002900348FFF7D9FD5748046066
:1017B00044601FBD000C014070B5544C00256648C4
:1017C00001262560016821F470410160016841F43F
:1017D000405101600220666003F048F80220266054
:1017E00003F044F8256070BD2DE9F04780465A4863
:1017F0005A4F4FF000094FF0010A002600250168FA
:1018000021F470410160016841F40041016011E080
:101810000220C7F87C9003F029F8C7F87CA00120CB
:101820003C6803F023F8002C06F1010618BF0124E0
:1018300044EA4505F0B20728EAD9B8F1000F02D012
:10184000FFF786FF01E0FFF7B7FFE8B2BDE8F087DA
:101850002DE9F843044640482C4D124F4FF0000844
:101860004FF001090026016821F470410160016810
:1018700041F440510160C5F80080F0B2072888BFEC
:10188000BDE8F883C4F3C01068600220B8470220A6
:10189000C5F80090B8470220C5F80080B847013667
:1018A0006400EAE76D480008B0B52B48174C0168A2
:1018B00021F470410160016841F440510160012050
:1018C00060602060042002F0D1FF002504206560E4
:1018D00002F0CCFF2560B0BD10B51F480B4C01686D
:1018E00021F470410160016841F440510160002021
:1018F00020606060042002F0B9FF01202060606079
:101900000420BDE8104002F0B1BF00BFA881214211
:10191000B0B51148114C0125016821F470410160F6
:10192000016841F4004101600120C4F8805002F0D8
:101930009DFF0120E56702F099FF0020216841B179
:10194000411CC0B2FA280846F8D3FFF7C5FF0120B2
:10195000B0BD0020E067B0BD040C01402C812142E5
:1019600010F0030F1CBF002070476421B0FBF1F2A0
:1019700002FB11014FF4C872B0FBF2F3002903FB24
:10198000120018BF0121B0FA80F0400908437047E7
:1019900007490A6842F001020A6006490A6822F013
:1019A000E0620A600A6842EA40600860704700BF6F
:1019B00018100240040001402DE9F04F87B0069056
:1019C00096480491D0E90012D0E904949448059116
:1019D00049460392009408F01FF9214608F01CF9CB
:1019E000904A0146D0CA20460297019408F03EF87A
:1019F000314607F0ADFD4FF07C51804607F0A8FD61
:101A000083464046594607F06BFE4146054608F0BE
:101A10002DF80146404608F0FFF8824948603846F4
:101A2000214608F023F882464846514608F0F4F86B
:101A300007462846A946394608F018F801463846B0
:101A400008F0EAF8754D51462861009808F0E4F86E
:101A50005946064607F044FE4146044608F006F89B
:101A60000146304608F0D8F86861A846019D6E49E5
:101A7000284607F0FBFF029907F06AFD064620465C
:101A8000394607F0F3FF0146304608F0C5F86549CE
:101A90008860DDE90370394608F0BEF8294607F092
:101AA000E5FF0146059807F053FD054606982946CF
:101AB00008F0B2F84946064607F0D8FF0146284626
:101AC00007F046FD0546C8F800003046214607F0FD
:101AD000CDFF0146384607F03BFDC8F80400284614
:101AE00007B0BDE8F08F00BF2DE9F04F87B006903A
:101AF0004A480491D0E90212D0E906944848059179
:101B000049460392009408F087F8214608F084F8CB
:101B1000444A01461468D2E90367204602970194BB
:101B200007F0A4FF314607F013FD4FF07C518046CB
:101B300007F00EFD83464046594607F0D1FD414669
:101B4000054607F093FF0146404608F065F8354921
:101B5000C8603846214607F089FF8246484651460C
:101B600008F05AF807462846A946394607F07EFF8E
:101B70000146384608F050F8284D5146A8610098B3
:101B800008F04AF85946064607F0AAFD41460446C1
:101B900007F06CFF0146304608F03EF8E861A846C1
:101BA000019D2149284607F061FF029907F0D0FC0A
:101BB00006462046394607F059FF0146304608F0F0
:101BC0002BF818490861DDE90370394608F024F85C
:101BD000294607F04BFF0146059807F0B9FC05467A
:101BE0000698294608F018F84946064607F03EFFD1
:101BF0000146284607F0ACFC0546C8F80800304608
:101C0000214607F033FF0146384607F0A1FCC8F82B
:101C10000C00284607B0BDE8F08F00BF600200202E
:101C20006F12833A10000020A69B443B7CB51446FB
:101C30000D4606460DF1020369203B21062200F005
:101C4000CBF970B9BDF8021009BA090C3180BDF8A2
:101C5000041009BA090C2980BDF8061009BA090C4C
:101C6000218002B070BD7CB514460D4606460DF1CC
:101C7000020369204321062200F0AEF970B9BDF8D5
:101C8000021009BA090C3180BDF8041009BA090C18
:101C90002980BDF8061009BA090C218002B070BD78
:101CA000B0B5412000F07AF90446422000F076F900
:101CB00040EA0424204607F045FE0D49054607F09A
:101CC00047FCB4F5004F0B4998BF284607F008FDC4
:101CD00007F012FC084A094B06F0E4FD084B00220D
:101CE00007F030F906F0ACFD07F0F0FDB0BD00BF25
:101CF000000080C70000AA43A4703D0AD7434240B9
:101D00000000244010B5FFF73FFD154C6B208021EB
:101D1000A047642002F092FD6B200021A047032021
:101D200000F025F8022000F01DF84FF4FA7000F0E2
:101D30003BF838200021A0476A200021A04723203B
:101D40000021A04737208021A047752000F026F908
:101D50006B200321A0476C200021A047002010BD6C
:101D6000BF2A0008C000C1B21C2000F0A8BEC000FD
:101D7000C1B21B2000F0A3BEBB2801D901210FE096
:101D8000612801D902210BE0292801D9032107E0AC
:101D9000132801D9042103E00621092888BF052161
:101DA000C9B21A2000F08BBE10B5044604284FF4C7
:101DB0007A7098BF0424B4F57A7F28BF0446B0FB3C
:101DC000F4F00138C1B2192000F079FE6008BDE8D6
:101DD0001040FFF7D1BFFEE770470000426814498A
:101DE000D2B110B5174A0723126890F801E0847841
:101DF00090F800C023EA12220F23D340C2F104025C
:101E000023400EFA02F21A4301EB0C03120183F88D
:101E10000023BDE8104000E080310078012300F08D
:101E20001F02C0F3421003FA02F241F8202070476B
:101E300000E100E00249084302490860704700BF22
:101E40000000FA050CED00E037490A6822F4404230
:101E500010430860704700BFF64A002911680CBFA4
:101E600021EA000008431060704700BF044A0029BF
:101E700011680CBF21EA000008431060704700BFE2
:101E800010100240044A002911680CBF21EA00002A
:101E900008431060704700BF18100240044A002930
:101EA00011680CBF21EA000008431060704700BFB2
:101EB0000C10024010B5FA4C226802F00C03F94AEB
:101EC000082B11D12368C3F3834303F1020C236869
:101ED00013F4803F01D1F44A04E0236813F4003F77
:101EE00018BFF14A0CFB02F2026010492368C3F3E9
:101EF0000313CB5CDA4042602368C3F30223CB5C5C
:101F000022FA03F383602368C3F3C223C95C084B3E
:101F100022FA01F1C1602268C2F381329A5CB1FBFE
:101F2000F2F1016110BD00BF0410024018A00008CA
:101F300004A0000880B54FF0640CB0FBFCF303F084
:101F4000FC0E03FB1C004FF0070CBEF1130F88BF03
:101F5000643000EB900E10F0030FBEFBFCF3C3EBFC
:101F6000C303AEEB03031A4409A30B4413F8013C6B
:101F70001A444FF6FF73104608BF1844032928BFC0
:101F8000104680B2B0FBFCF1C1EBC101401A80BD2C
:101F900000030306010406020500030570B50446AC
:101FA000FFF782FC0A4DD220A8470A4EB0472046D0
:101FB000A847B047FFF778FCD320A847B0470020D8
:101FC000FFF712FC0446FFF787FC204670BD00BFF8
:101FD0005118000811190008F8B51C4615460E46A0
:101FE0000746FFF761FC7F00F8B2FFF731FCFFF70F
:101FF0008FFC18B1FFF770FC01201EE03046FFF7A0
:1020000027FCFFF785FCFFF74FFC47F00100C0B24B
:10201000FFF71EFCFFF77CFC07E0012000E000203A
:10202000FFF7E2FB04F8010B013DE8B20128F6D00E
:102030000028F2D1FFF750FC002001B0F0BD80B5C0
:1020400004F0FAFC05F044F9BDE8804004F000BD5E
:102050002DE9F047774E306840F0805030603068AE
:1020600040F000603060B06840F00100B060B068DF
:1020700010F0020FFBD0704DA88A298B41EA004076
:102080006E49B0FBF1F76E4801888F4203D14FF4DF
:102090008840285A40E007806A486B4CB24640F2BC
:1020A000B27680460BE0B0B2FFF75AFC20B1B7F52C
:1020B000B77F204601D205E0404607440136B7F518
:1020C000B67FF0D8DFF884911FFA86F800245646D0
:1020D00010E04046FFF744FCA1B2012904D118B139
:1020E0001D2F0AD31D3F04E019F80100874205D3D4
:1020F0003F1A01341C2FECD200E001244FF4884039
:10210000F9B2285AFF2907D0E1B2FF2904D045F2DD
:102110005001884200F08B804D4908688A4640F49F
:1021200080700860706840F480307060706820F4DF
:1021300080307060B06840F00100B060B06810F0AE
:10214000020FFBD0B06840F08070B060706840F45F
:1021500000707060706840F400407060288810F073
:10216000200FFBD0288810F0080FFBD0B14628883C
:1021700010F0200FFBD028880027A84640F2B27646
:1021800040F2E67440F01000288047F6FF70AF8000
:102190002881314D0BE0FFF7E3FB0028284606F1CC
:1021A000010604BF43F28030C0F2E1100744B0B230
:1021B000A042F0D32549002040F2A322464604E085
:1021C0000B5C0130534307EBC3170B28F8D1D9F848
:1021D000000040F08050C9F80000D9F8000040F03D
:1021E0000060C9F80000DAF8000040F48070CAF816
:1021F0000000308840F010003080164838443083AA
:10220000000CB082308820F010003080308810F050
:10221000200FFBD0308820F010003080308810F084
:10222000200FFBD04FF4884045F25001315200207E
:10223000BDE8F0871C1002400428004080510100D6
:10224000AE03002093FEFFFF92FEFFFFC6090108C8
:10225000007000407A0C24000085E20110480168FB
:1022600001F00C020F49082A0FD10268C2F3834221
:102270000368023213F4803F01D10B4904E0036884
:1022800013F4003F18BF08495143084A084B116036
:102290000068C0F30310185C21FA00F0106070476A
:1022A0000410024000127A0000093D0030000020B6
:1022B00008A0000882B03748374A016841F00101A0
:1022C000016041681140354A416001681140016078
:1022D000016821F480210160416821F4FE01416020
:1022E0004FF41F018160002101910091016841F4C8
:1022F00080310160016801F40031009101990131E0
:102300000191009919B90199B1F5A06FF2D1016855
:1023100011F4003F0CBF0021012100910099012917
:1023200032D14FF48051425842F01002425042588C
:1023300022F003024250425842F0020242504168E9
:10234000416041684160416841F480614160416899
:1023500021F47C114160416841F4E8114160016859
:1023600041F080710160016811F0007FFBD041688D
:1023700021F003014160416841F002014160416880
:1023800001F00C010829FAD105484FF00061016005
:1023900002B07047001002400000FFF8FFFFF6FE99
:1023A00008ED00E00648018811F0010F03D005494F
:1023B0000A8801320A8000210180BFF34F8F7047E5
:1023C00010000040A803002003480188018821F084
:1023D00001010180704700BF1004004003480188DC
:1023E000018821F001010180704700BF1008004002
:1023F0002DE9F047E74C0121204600F0DFF80128E5
:1024000018BFBDE8F0872046012100F0CBF801F0AD
:10241000A7FD002800F09D8052480078FFF736F8AD
:10242000042000F01DFEDFF80C9A4042C9F80000BD
:10243000032000F015FEDFF804AA4042CAF80000AD
:1024400001F09CFDDFF8208198F8000000280CBF07
:102450006420002002F016F944484FF080410468DF
:10246000204607F015F908B1414806E020464FF034
:10247000404107F014F910B93E48012101703D4D6B
:102480003B4E2878317808430AD0204607F01EFAE0
:10249000002800D540420128DEBF0020287030709F
:1024A000DAF80010D9F8000001F004FD3248334E8C
:1024B0000168306801F0C6FD314DDAF8001028607F
:1024C000D9F8000001F012FF04462E4804602E489F
:1024D000006801F061FD2D49086029682D4D2144F7
:1024E0002B4C0A18081A2260286001F045FC2A4F7C
:1024F0002A4941F6F422386020688842D8BF08464D
:102500009042A8BF1046206028688842C8BF014694
:1025100023489142A8BF1146D9F80020DAF80030CC
:1025200000682960316801F0CFFD10B1012088F802
:102530000000DAF80020D9F80010306801F06CFED5
:1025400010B1002088F800003968306801F0A4FE5E
:1025500008B1BDE8F08729682068BDE8F04701F0C0
:102560000FBE00BF400000202C000020880100208A
:102570009D0200209C020020A00200208402002076
:10258000880200209C030020A4020020CC0200202E
:10259000A8020020AC020020A40300200CE5FFFFED
:1025A00080020020C943018270470288002942F05E
:1025B000010308BF22F0010303807047008A08402E
:1025C00018BF01207047000010B5028C22F00102F4
:1025D0000284048CB0F804E0038B0A8823F07303B0
:1025E00043EA020C0B8924F002021A434B881A4377
:1025F000934B03444FEAB323072B14D8012404FA66
:1026000003F313F0E50F0ED08C892EF4407322F003
:102610000C022343CC8943EA040E4B8923F00403C4
:102620001A438B881A43A0F804E0A0F818C0C988A0
:102630008186028410BD00BF028B22F00802114384
:102640000183704710B5028C22F010020284048CC2
:10265000B0F804E0038B0A8823F4E64343EA022C33
:102660000B8924F0200242EA03124B8842EA03124B
:10267000704B984202D0704B984212D18B892EF445
:10268000406422F0C00244EA8303CC8943EA840E0A
:102690004B896FF04F0404EA03131A438B8842EA14
:1026A0000312A0F804E0A0F818C0C98801870284CA
:1026B00010BD00BF028B22F4006242EA01210183B7
:1026C0007047000010B5028C22F480720284048CE2
:1026D000B0F804E0838B0A8823F0730343EA020C0A
:1026E0000B8924F4007242EA03224B8842EA032257
:1026F000504B984202D0504B984212D18B892EF405
:10270000405422F4406244EA0313CC8943EA041E95
:102710004B8940F2FF441B02A3431A438B8842EAD1
:102720000322A0F804E0A0F81CC0C98881870284B5
:1027300010BD00BF828B22F00802114381837047D5
:1027400010B5028C22F480520284048CB0F804E0AC
:10275000828B0B8822F4E64242EA032C0B8924F494
:10276000005242EA03324B8842EA0333314A904234
:1027700002D0314A904204D18A892EF4804444EA3E
:10278000821EA0F804E0A0F81CC0C988A0F8401080
:10279000038410BD00340140828B22F4006242EABF
:1027A0000121818370478186704781877047A0F837
:1027B000401070470288B0F1804F0ED01A4B9842FB
:1027C0000BD01A4B984208D0194B984205D0194BA0
:1027D000984202D0184B984203D14B8822F07002E5
:1027E0001A4310B5154C40F48063A342BDE8104075
:1027F00003D0CB8822F440721A4302808A888285F3
:102800000A8802850E4A02444FEAB222072A07D8F4
:10281000012303FA02F212F0E50F1CBF097A0186C8
:1028200001218182704700BF000400400008004081
:10283000000C004000340140002C01400014004016
:1028400000D4FEBFF8B5984C40F22551204600F068
:10285000A5F830B3204600F029F91E4EC1B2307001
:10286000204600F027F93078782802D101217170D4
:1028700001E07178A9B1748814F4004F11D161049A
:1028800010D40D2802BF44F480407080F8BD124A75
:10289000611C6FF39F34105588B2C72888BF002190
:1028A0007180F8BD0A281EBF00207080F8BD0A4D57
:1028B00044F4004070802846FDF7ACFE00F0FEFABC
:1028C0006FF39F340027284621467780FDF7F2FEFC
:1028D0007770F8BDA4010020D002002010B52B4C69
:1028E00040F22551204600F059F810B1204600F082
:1028F000DDF810BD8289002942F4005308BF22F49C
:10290000005383817047000080B52049884218D069
:102910001F4988421DD01F49884222D01E49884243
:1029200027D06149884218BF80BD4FF48040012103
:10293000FFF7B4FA4FF480400021BDE88040FFF774
:10294000ADBA4FF400300121FFF790FA4FF4003098
:1029500016E04FF480200121FFF788FA4FF4802021
:102960000EE04FF400200121FFF780FA4FF4002021
:1029700006E04FF480100121FFF778FA4FF4801041
:102980000021BDE88040FFF771BA00BF004400405D
:1029900000480040004C00400050004001F01F0281
:1029A000012303FA02F2C1F34213022B06D0012BDA
:1029B00014BF00F1140300F10C0301E000F1100357
:1029C0001B88090A1A404FF0010318BF0122008832
:1029D00003FA01F1084018BF01201040704701F0D0
:1029E0001F0C012303FA0CFCC1F342131421022B28
:1029F00008BF1021012B08BF0C21002A42580CBF30
:102A000022EA0C0242EA0C024250704770B586B0CE
:102A10000446008A0D46C98801AE20F440500843A0
:102A20004EF6F3112082A0890840A988084329891D
:102A3000084369890843A081A08AA98920F44070CD
:102A40000843A0823046FFF735FA174906F108001F
:102A500002226FF063038C424FF0190108BF06F1A8
:102A60000C00042600684843A189A2EBD1312A68F2
:102A700002FA01F1B0FBF1F06421B0FBF1F202FBCC
:102A80000300A389A6EBD336B0403230B0FBF1F09F
:102A9000072141EA133181F00801084040EA0210A1
:102AA000208106B070BD00BF0038014080886FF300
:102AB0005F2070476FF35F2181807047FEE7B0B5FC
:102AC0000C460546FEF7F0FEFEF75AFED220FEF752
:102AD000BFFEFEF71DFF18B1FEF7FEFE0120B0BDE0
:102AE0002846FEF7B5FEFEF713FF2046FEF7B0FEC0
:102AF000FEF70EFF0446002818BF0124FEF7ECFE87
:102B00002046B0BDF8B51C4615460E460746FEF7F2
:102B1000CBFE7800C0B2FEF79BFEFEF7F9FE78B957
:102B20003046FEF795FEFEF7F3FE0026AE420BD2CE
:102B3000A05DFEF78DFE0136FEF7EAFE0028F5D017
:102B4000FEF7CAFE012002E0FEF7C6FE002001B03B
:102B5000F0BD00002DE9F04F93B03A20ADF84A00E7
:102B600006A8FEF761FD9DF81F00BDF81820DFF8EC
:102B7000A8A29DF81A509DF81B404FF00C094FF683
:102B8000FF7747F60F0B2B21042305909DF81D00BE
:102B900003909DF81E0004906920CDE900B7CDF8A0
:102BA0000890D0470DF14A060020DFF87082CDE989
:102BB00000792B2147F60F03029081203246C0474F
:102BC00087202B212A460223CDE900B7CDF80890B3
:102BD000D0470020CDE900792B21324647F60F037C
:102BE000002502909320C04799202B2122460223E2
:102BF000CDE900B7CDF80890D047CDE900B7AB20BC
:102C00002B210223CDF80890039AD047B7202B211F
:102C1000324647F60F03CDE9007902950024C047FC
:102C2000CDE900B7BD202B210223CDF80890049AEE
:102C3000D047C9202B21324647F60F03CDE9007952
:102C40000294C047CDE900B7CF202B210223CDF855
:102C50000890059AD0477248006806F04DFC714D07
:102C600006ACDFF8C4A102460B4620462946D047F1
:102C7000102600204C2122464FF478434FF0000BE1
:102C8000CDE9007602908620C0476848006806F0CB
:102C900033FC02460B4620462946D04786205C215D
:102CA00022464FF47843CDE90076CDF808B0C0470E
:102CB0005F48006806F020FC02460B462046294685
:102CC000D04786206C2122464FF47843CDE9007628
:102CD000CDF808B0C0475748574D026820462946EE
:102CE000D04786207C2122464FF47843CDE90076F8
:102CF000CDF808B0C0475148294602682046D04761
:102D000086208C2122464FF47843CDE90076CDF819
:102D100008B0C0474A48006806F0EEFBDFF824918F
:102D200002460B4620464946D04786209C21224633
:102D30004FF47843CDE90076CDF808B0C04742485B
:102D4000006806F0D9FB02460B4620464946D047AC
:102D50008620AC2122464FF47843CDE90076CDF8A9
:102D600008B0C0473948294602682046D047862027
:102D7000BC2122464FF47843CDE90076CDF808B067
:102D8000C0473348294602682046D0478620CC21D8
:102D900022464FF47843CDE90076CDF808B0C0471D
:102DA0002C48006806F0A8FB02460B462046494620
:102DB000D0478620DC2122464FF47843CDE90076C7
:102DC000CDF808B0C0472448006806F0BBFD234991
:102DD00006F086FC06F090FB02460B4620A120463A
:102DE000D04786203C2122464FF47843CDE9007637
:102DF000CDF808B0C04756203C2122464FF4784316
:102E0000ADF81800AE20CDE90076CDF808B0C04787
:102E100013B0BDE8F08F00BF0134000897340008FC
:102E200080010020F10901089503000884010020B9
:102E30008801002094020020ED090108980200207A
:102E400098030020F7090108A0030020A802002031
:102E5000AC020020A0020020A40300200000C84211
:102E600025342E3266000000B0B57C4D04460421A6
:102E70002846FEF707FB204600F0C6F82846042146
:102E8000BDE8B040FEF700BB80B5FFF713FA01F0D4
:102E9000C9FC0120FEF77CFD4FF44070FEF7CAFF2D
:102EA000BDE8804002F054BB10B50446000A00F0B3
:102EB000ABF8E0B2BDE8104000F0A6B8092190FBE5
:102EC000F1F0053081B20148FFF76DBC0008004009
:102ED0002DE9F04F87B0119D824690461C460F4663
:102EE000069100EB5500013882B24819013883B2CF
:102EF000504600F061FCA5F10C00072201234FF0C1
:102F0000000B5646C0F3850112EA550F41EA8010C6
:102F10004FEA151118BF03EB1511C2B23748002351
:102F200069436D0803920491A8F120015FFA85F8C6
:102F3000C9B200EB0110029101902E4800EB811004
:102F4000009050E0052A52D80593DFE802F0030A0A
:102F5000500C501302992A4A01EB410102EB810106
:102F600009E0019907E00299234A01EB410102EBD4
:102F7000011100E0009908444FF00009077801E0D2
:102F800009F10109B9F1070F2AD80120129900FAB5
:102F900009F0384069B128B10699B0B2224689B229
:102FA00000F0DCF90136B0B2A0EB0A00A842E7D18C
:102FB00012E000280CBF10982046FFF775FF0BF1B8
:102FC000010B5FFA8BF0B0FBF8F101FB1800002851
:102FD000D6D14FF0000B03E006985646013006901C
:102FE000059B039A0133049998B28142AAD807B08D
:102FF000BDE8F08F6CBD00089CAB00089CA50008E4
:1030000028A10008AFF3008070B5F54C05460221F9
:103010002046FEF737FA002616E020460821FEF784
:1030200031FA68B2B0F1FF3F04DD20462021FEF7FF
:1030300029FA03E020462021FEF726FA204608213F
:10304000FEF722FA01366D00F0B20728E5D92046D6
:103050000221BDE87040FEF717BA00BF001801401A
:10306000094A002102280BD0042807D003284FF07A
:10307000000018BF704702F5806201E002F50062AF
:10308000B2F90000118070472400004070B58AB08A
:103090004FF4047001210125FEF7F4FE4FF40040C7
:1030A000FEF7D2FE184C0026042001A90396ADF8C5
:1030B0000400A4F5A050FEF752F92046FEF762F88E
:1030C0004FF46020CDE90466069604A9CDE9070611
:1030D00020468DF82450FEF793F820460121FEF794
:1030E00048F82046FEF7E7F82046FEF785F8002866
:1030F000FAD12046FEF7EDF82046FEF771F80028D9
:10310000FAD10AB070BD00BF002401401FB50C48C1
:103110000124016841F011010160012001F0A6FBCA
:1031200010200121FEF7AEFE4820ADF8044001A9B1
:103130000390032002900348FEF711F91FBD00BF62
:10314000181002400010014070B500F013F9A44CB3
:1031500010212046FEF796F9444D6420A8472046EA
:103160001021FEF791F96420A84720464021FEF780
:103170008BF96420A8473E4E1120B0477820A8471D
:103180003620B0473B4C0020A0473A20B0470520EE
:10319000A047B220B0470C20A0470C20A047002039
:1031A000A0473320A0473320A047B720B0473520A1
:1031B000A047BB20B0473220A047C220B047012023
:1031C000A047C320B0471520A047C420B047202007
:1031D000A047C620B0470F20A047D020B047A4206A
:1031E000A047A120A047E020B047D020A04708205A
:1031F000A0470E20A0470920A0470920A04705208E
:10320000A0473120A0473320A0474820A0471720DF
:10321000A0471420A0471520A0473120A047342004
:10322000A047E120B047D020A0470820A0470E20AB
:10323000A0470920A0470920A0471520A04731201A
:10324000A0473320A0474820A0471720A0471420BC
:10325000A0471520A0473120A0473420A0472120B7
:10326000B04729203146BDE8704008473D48000876
:10327000692E0008093000082DE9F0418AB00120CC
:10328000012401F0F3FA08200121FEF7E5FD304F9B
:1032900045200121B84740200121B847102007AE42
:1032A0004FF003080990ADF81C402A4C3146CDF888
:1032B000208004F586352846FEF751F8284601217E
:1032C000FEF7E2F804200121B847182031460990A2
:1032D0000F20ADF81C0004F57C40CDF82080FEF7EF
:1032E0003EF84FF47A7004A90590472004902046D8
:1032F000FFF760FA00206D46ADF808001648294631
:1033000000902046FFF760F920460821FFF794F966
:1033100020462946FFF796F920460821FFF7CAF90B
:1033200020462946FFF7CEF920460821FFF702FA8A
:1033300020462946FFF704FA20460821FFF72CFA19
:1033400020460121FFF731F90AB0BDE8F08100BF46
:10335000851E0008000C00406000010010B51446F6
:1033600002460B4600F028FA2046BDE81040FFF761
:103370009BBD00002DE9FF4140200121FEF782FDA9
:103380004FF010080220164C01AD164FCDF80C80FE
:10339000ADF804000320294602902046B847124E9B
:1033A00020460221B04728202946ADF804002046D7
:1033B000B84720462821B04744202946ADF80400EC
:1033C0002046B847204648F22001B047204629460B
:1033D000ADF80480B84720461021B047BDE8FF8112
:1033E000001801405F130008891400080249486072
:1033F00002480021016070474002002000000020C8
:103400002DE9FE4F07460E981C4692460E46A3F144
:10341000010B4FF000084FF000094508A04508BF18
:10342000BDE8FE8FA4EB0800012102E001EB810161
:103430004900013810F0FF0FF8D1BAFBF1F00A2172
:10344000B0FBF1F101EB8101A0EB41015FEA096002
:1034500004D1C34502DDA1B14FF001090D9841F03F
:103460003001CAB2314600900E98019000200290BF
:1034700008FB057080B20C9BFFF72AFD08F10108DC
:10348000CCE70D984FF000093146202200900E98AD
:10349000CDE90109ECE72DE9FE4FDDF83480DDF8D8
:1034A00038A0DDF830B0994615460E4607464FEA7B
:1034B00058040AE0B8B231464B46CDE900B8CDF821
:1034C00008A0FFF705FD274401352A78002AF1D12D
:1034D000BDE8FE8FB0B5224D224900222B688C88B2
:1034E000002B08BF621C8A802B6823B91E4B1C78F6
:1034F0000CB901241C70DFF874C09CF800307BB953
:10350000194C0B882478012C04D1013301248CF848
:1035100000400B809BB2022B02D10020022215E05A
:103520002B68012B04D1104D00238CF800302B7038
:103530000B88012B0CD14B885C1C93B283424C80CE
:1035400008D2A2B2824205D900200122086005E01B
:10355000002203E00022834288BF0A60D0B2B0BDDF
:103560000001224264010020AA030020AC030020D5
:10357000F0B587B004464FF400300121FEF76CFC33
:10358000202001212025FEF77DFC08200121FDF7E8
:1035900043FF032004AF0590ADF81050144D1820E0
:1035A0003946069005F550463046FDF7D8FE042012
:1035B000394606904020ADF810003046FDF7CFFEAA
:1035C0000020009469460190ADF80C004FF44020B3
:1035D00002902846FFF71AFA284640F225510022A9
:1035E000FFF7FDF928460121FFF784F907B0F0BD88
:1035F00000440040F0B587B004464FF4802001211C
:10360000FEF72AFC20200121FEF73CFC174801218F
:10361000FDF702FF0320164D04AF05904FF48070B4
:103620003946ADF81000182005F54C460690304696
:10363000FDF795FE0420394606904FF40070ADF872
:1036400010003046FDF78BFE002000946946019083
:10365000ADF80C004FF4402002902846FFF7D6F951
:1036600028460121FFF746F907B0F0BD30001400ED
:1036700000480040F0B587B004464FF40020012117
:10368000FEF7EAFB10200121FEF7FCFB0320154D9D
:1036900004AF05904FF480603946ADF81000182053
:1036A00005F5444606903046FDF759FE042039469C
:1036B00006904FF40060ADF810003046FDF74FFE65
:1036C0000020009469460190ADF80C004FF44020B2
:1036D00002902846FFF79AF928460121FFF70AF9D8
:1036E00007B0F0BD004C00402DE9F8435A4F814629
:1036F000388906F03FF90446388806F03BF9014660
:10370000204605F0EDFF0446B88906F033F905467A
:10371000388806F02FF90146284605F0E1FF0546F6
:10372000388A06F027F906463888B84606F022F9A6
:103730000146304605F0D4FF0646B9F1C80F36D32E
:10374000B9F57A7F08BFBDE8F883484605F06EFBFF
:103750000B4618490246002005F060F905F022FBEF
:10376000A8F800004746B8F8140010B1388840089F
:10377000B882388806F0FEF80146204606F076F951
:1037800006F0C0F83881388806F0F4F8014628467B
:1037900006F06CF906F0B6F8B881388806F0EAF859
:1037A0000146304606F062F906F0ACF83882BDE812
:1037B000F88300BF80842E412DE9F843DFF82C9078
:1037C00007462A20984615460E46C847084C3846F4
:1037D000A0472846A0472B20C8473046A047404670
:1037E000A0472C204946BDE8F8430847692E000849
:1037F000A92E00082DE9F0471C460B4490460244D0
:10380000013A013B92B29BB2FFF7D6FF08984FEA0C
:103810004409002500F1010AA8B2404528BFBDE8CF
:10382000F0870026574608E017F8010CFFF7EAFB7F
:103830003878FFF7E7FB02370136B0B2A042F3D386
:10384000CA440135E8E70000034900281ABF088888
:1038500040080020888270472C0C004070B5DFF8CB
:10386000BC6400213468204605F027FF48B3706827
:103870000138052800F27081DFE810F006004600EC
:1038800069009D00D2007A01DFF894444FF0804136
:10389000606905F00BFF08B9002060610020FFF7A8
:1038A000D3FF64694FF07E51204605F0F8FEDC49F5
:1038B0000546204606F0DAF80146002D45D0D948E5
:1038C00040E0DFF85C044068052800F21882DFE879
:1038D00010F00600BB00D900F3001B016F01204669
:1038E00005F00AFED04B4FF0333205F0B5FE00284C
:1038F00000F06781CD49204605F0D1FE002840F058
:10390000AC814FF46170E6E1DFF814444FF0804180
:10391000606905F0CBFE08B9002060610020FFF768
:1039200093FF64694FF07E51204605F0B8FEBC4914
:103930000546204606F09AF80246002D00F08180E8
:10394000B848114606F068F90146002066E0DFF845
:10395000D043606905F0D0FDB54B4FF0663205F0FD
:103960007BFE08B9002060610020FFF76DFF6469ED
:103970004FF07E51204605F092FE00284CD02046A4
:1039800005F0BAFDAB4AAC4B04460D4605F05DFEB2
:1039900070B1DE4B204629464FF0333205F055FE1C
:1039A000D0B3DB4ADB4B2046294605F04EFE98BBE0
:1039B000D948014632E0DA4C606905F09DFD9C4B28
:1039C0004FF0663205F048FE08B900206061002023
:1039D000FFF73AFF64694FF07E51204605F05FFE25
:1039E000D0B1204605F088FDF74AE04B04460D466D
:1039F00005F02BFE70B1DE4B204629464FF03332E6
:103A000005F023FE40B1D14ADA4B2046294605F0A5
:103A10001CFE08B9C64A14E000200021002213E170
:103A2000BF4C4FF07C51606905F040FE08B90020A2
:103A300060610020FFF708FF6069CB4906F016F8C7
:103A4000024600200021FFE0204605F055FDBF4A58
:103A5000BF4B04460D4605F0FFFD002800F0B18085
:103A6000BC4B204629464FF0333205F0EEFD0028CE
:103A700040F0F6804FF44870FFF736FE0120FFF764
:103A8000E3FE1DE1204605F037FDCF4AAB4B05F0C4
:103A9000E3FD002800F0958040F2DC50FFF724FEA3
:103AA0003468A749204605F0FAFD002840F0EA8076
:103AB0009F4A0020002123E0204605F01DFDC24A58
:103AC0009E4B05F0C9FD00287BD040F2DC50FFF78B
:103AD0000BFE34689A49204605F0E1FD68B199492A
:103AE000204605F0DCFD002800F0D18096492046F4
:103AF00005F0D5FD002840F0CA80EB4900200022E7
:103B000000F072F90120C8E020464FF07E5105F028
:103B1000CDFD002855D04FF44870FFF7E5FD01209A
:103B2000FFF792FE34684FF07A51204605F0B7FD5A
:103B3000002800F0C58020464FF07C5105F0AFFD15
:103B4000002800F0D78020464FF07D5105F0A7FDFA
:103B5000002800F0B580CDE0714C207800286DD0B1
:103B60006088FFF7C1FD2078002818BF012066E0BB
:103B70006B4C4FF07C51606905F098FD08B900204E
:103B800060610020FFF760FE64694FF07A512046C3
:103B900005F085FDC0B97349204605F067FF04466E
:103BA000C148214606F038F80146002022464BE085
:103BB000204605F0A1FC5B4B4FF0333205F04CFD85
:103BC000F0B95D48306070BD204605F095FC634B50
:103BD000002204F067FE624B002205F0B3F90446B0
:103BE0000D4604F02DFE7A490646002022462B465B
:103BF00005F098FB04F024FE02460020314623E045
:103C00004FF4FA60FFF770FD0120FFF71DFE3468E6
:103C10004549204605F043FD002841D1A24845E032
:103C20000000C842000048433333D33F9A99193EFD
:103C30006666F63F9A9999999999F13F0020FFF7A6
:103C400003FE04F1080207CA00F0CEF8344C4249E2
:103C5000606905F07DFC606170BD40F2DC5009E0F8
:103C6000304B204629464FF0333205F0EEFC80BB46
:103C70004FF47A70FFF738FD0120FFF7E5FDF049BA
:103C8000002039E02F49204605F009FD60BB0020E7
:103C90000021002200F0A8F80020FFF7D5FD2EE05B
:103CA0002249204605F0FBFC28B900200021002213
:103CB00000F09AF834681F49204605F0F0FC08B976
:103CC000F24818E020464FF07C5105F0E8FC88B13E
:103CD00015E04FF49660FFF707FD0120FFF7B4FDF4
:103CE000EA4A0020002108E01749204605F0D7FCE9
:103CF0000028F5D000200021002200F075F830687F
:103D0000154905F025FC306070BD00BF3333F33F2B
:103D1000CDCCCCCCCCCCF43F0000A04200000020A5
:103D2000400200203333D33F9A99193E9A99993E25
:103D30000000C8423333B33E000080BF9999E93F89
:103D4000CDCC4C3ECDCCCC3E9A99193FCDCCCCCCF1
:103D5000CCCCDC3F3333C33FCDCCCC3D0000D0BF17
:103D6000000079400000C843000048439999F13FA2
:103D70003333F33FCCCCF43F80B50C2000F08AF90C
:103D800005F054F80D4B4FF0663205F0DBF80C4BA4
:103D9000002205F0D7F80B4B002204F03FFE0A4A40
:103DA0000A4B05F0CFF80A4B002205F0CBF8094B7F
:103DB000002205F0C7F804F0C5FF80BD66660A4022
:103DC00000002640000024409A999999999928402A
:103DD000000059400000303F80B5FDF793FF01F02F
:103DE000CDFD0028FBD180BDF8B50D460446104638
:103DF0000021164605F061FC2A4FB8B9A3493046A8
:103E000005F046FC90B9304600F096FC27498860E2
:103E10009E4905F065FC0646388805F0ABFD014675
:103E2000304605F023FE05F06DFD3881284600215F
:103E300005F043FCB8B99549284605F029FC90B92E
:103E4000284600F079FC19494860904905F048FC83
:103E50000546388805F08EFD0146284605F006FE29
:103E600005F050FDB8812046002105F026FCB8B9C8
:103E70008649204605F00CFC90B9204600F05CFC19
:103E80000A490860814905F02BFC0446388805F092
:103E900071FD0146204605F0E9FD05F033FD38824D
:103EA000F8BD00BF2C0C00400000C84258010020A3
:103EB000704700002DE9F0470446084604F09FFFD4
:103EC0001F4B0022984605F03DF81E4B00229946F4
:103ED00005F038F81C4B00229A4604F09FFD1B4D5C
:103EE00000222B4604F09AFD04F0AAFC184E31463D
:103EF00005F0BCFD174F394605F0B8FD16490860BE
:103F0000204604F07CFF0022434605F01BF8002207
:103F10004B4605F017F80022534604F07FFD0022BF
:103F20002B4604F07BFD04F08BFC314605F09EFD32
:103F3000394605F09BFD09490860BDE8F08700BFE0
:103F4000000069400000D03F00003E4000002A40D1
:103F5000DB0F494000008642A003002098030020A8
:103F600005480078704700BF0348418801B1704799
:103F700001210170704700BF2001002080B5322070
:103F8000FFF7A8FA012818BF80BDD5480178B1FA1B
:103F900081F14909017080BDF8B504461F480568E4
:103FA0001F480078012806D11F48007805F0E2FC80
:103FB00001461F4809E01B480078012809D11A482A
:103FC000007805F0D7FC0146184805F089FB01464A
:103FD00000E000211748184A0078126801281748A5
:103FE000164618BF002600780128284608BF164646
:103FF00005F03CFD254D294605F072FB074630468D
:10400000214605F033FD294605F06AFB0146384696
:1040100005F09EFA05F05AFC01B0F0BD3400002016
:104020009C0200209D0200202D000020000058422C
:10403000000058C29E020020C80200209F020020FB
:104040000000C84270B50D464FF0404105F080FABF
:1040500006460D48E54C0068214605F041FB014647
:10406000304605F003FD064609482946006805F07C
:10407000FDFC214605F034FB0146304605F068FAA8
:1040800005F024FC70BD00BF280000200000C842DD
:104090002400002010B50B4C0146012207232046C6
:1040A000FDF7D6F820460121FDF70AF92046022146
:1040B000FDF79DF80028F9D02046BDE81040FDF737
:1040C00093B800BF002401402DE9F843BF4E80465D
:1040D0001C46154689463088022831D0012814D064
:1040E00000283FD1002D2846214648BF6842002CB9
:1040F00048BF614208441E2836DA7088013070805B
:1041000080B20B282ED301203060B08819490130CD
:10411000B08080B2C92822BF00203080B0804846DD
:1041200005F0BDFA002708BB1349404605F0BEFA6A
:10413000E0B91249484605F0B9FAB8B90220308012
:10414000F08800270130F08080B2C92822BF00200B
:104150003080F080601948BF40424728A4BF3780B4
:10416000012703E0002701E000277780384601B0EF
:10417000BDE8F0830000B0410020CB46000090C1B4
:10418000F8B50C4601284FF00001564F124D4FF084
:104190000006B8BF01210028F9614FF00001C8BF37
:1041A0000121B96148BF404281B22846FEF7FDFABD
:1041B000012C4FF00000B8BF0120002C38604A48A5
:1041C000C8BF0126066048BF64422846A1B2BDE8C8
:1041D000F840FEF7ECBA00BF002C01402DE9F8438F
:1041E0008146501E154698460E4682B2581E83B22E
:1041F0004846FFF7E1FA089CB0B2404528BFBDE849
:10420000F8834F4603E02046FEF74EFE0137B8B272
:10421000A842F8D30136EFE72DE9F0410746774889
:1042200014460D46007868B3DFF8608098F8000007
:1042300088B938464FF0414105F038FA002610BBE6
:104240001349384605F032FAE8B954EA05001AD1A4
:10425000012088F800000F48002601684A1C322916
:104260000260A2BF002188F800100160291F2329E5
:1042700009D8211F232906D800210126016088F8CA
:10428000001000E000263046BDE8F081B0030020B9
:1042900000004041B4030020B0B50C460E4905466D
:1042A00005F00BFA70B90D49284605F0F1F948B947
:1042B00040F29240844205DB5048007801281CBF40
:1042C0000020B0BD0748084A002101601160C161AB
:1042D00081610120B0BD00BF000020C2000020426B
:1042E0002C00002090812242B00122422DE9F041B1
:1042F0000844404205F026FBDFF8D0800546D8E9A7
:10430000020405F0F9F8324A324B04F01BFE04F0C7
:1043100097FA0646284605F0EFF82F4A2F4B04F08F
:1043200011FE054630460F4605F0E6F802460B46FC
:104330002846394604F0B6FA04F082FA0546C8F871
:1043400008002046294605F003F9254E0446C8F822
:104350000C00314605F09CF928B9224E2046314622
:1043600005F09DF910B93446C8F80C601E4829467E
:10437000006805F07BFB01464FF0004005F04CFC67
:10438000F74D294605F0ACF9064619480168204664
:1043900005F06CFB294605F0A3F90146304605F00F
:1043A0003BFC04461348016813480068FFF774FF9C
:1043B000012803D011480078012802D10020C8F854
:1043C0000C00204605F082FABDE8F081B001002023
:1043D000E17A14AE47E1EA3F7B14AE47E17AC43F8D
:1043E00000401C4600401CC63C0000200000C842A3
:1043F00038000020A4030020840200202C000020AC
:10440000F0B5ABB077484FF6FF74F022F0230025EB
:10441000009429907448289074A0416800892691DE
:104420007249ADF89C00002025910021FFF7D6FECF
:1044300071A0924E28AA4FF47843416800892391D5
:104440006D49ADF890006FA02291416800892091DC
:104450006C49ADF884006EA01F91416800891D91E0
:104460006B49ADF878006DA01C91416800891A91E4
:104470006A49ADF86C006CA01991416800891791E8
:104480006949ADF860006BA01691416800891491EC
:104490006849ADF854006AA01391416800891191F0
:1044A0006749ADF8480069A01091416800890E91F4
:1044B0006649ADF83C0068A00D91416800890B91F8
:1044C0006549ADF8300067A00A91416800890891FC
:1044D0006449ADF8240066A0079141680089059100
:1044E0006349ADF8180018200491CDE900408220FE
:1044F00000210295B047102725AA872018211F23E5
:10450000CDE900470295B0475D4800215B22392381
:1045100000900020FFF76EF922AA5E203C214FF4A4
:104520007843CDE900470295B0471FAA5E204C2191
:104530004FF47843CDE900470295B0471CAA5E20AE
:104540005C214FF47843CDE900470295B04719AAA2
:104550005E206C214FF47843CDE900470295B047C7
:1045600016AA5E207C214FF47843CDE900470295DE
:10457000B04713AA5E208C214FF47843CDE9004761
:104580000295B04710AA5E209C214FF47843CDE9F4
:1045900000470295B0470DAA5E20AC214FF4784346
:1045A000CDE900470295B0470AAA5E20BC214FF42E
:1045B0007843CDE900470295B04707AA5E20CC2199
:1045C0004FF47843CDE900470295B04704AA5E2036
:1045D000DC214FF47843CDE900470295B0472BB07A
:1045E000F0BD00BF436172005768752D4175746856
:1045F00065723A5758000000564444413A20302E24
:10460000300000005069743A2020302E3000000045
:10461000526F6C3A2020302E300000005961773AFA
:104620002020302E30000000456E4C3A2020302EE5
:1046300030000000456E523A2020302E300000003D
:10464000564C3A202020302E3000000056523A209E
:104650002020302E300000004D744C3A2020302EA7
:10466000300000004D74523A2020302E30000000FF
:104670004779726F3A20302E3000000097340008DE
:1046800034E1000868B109490A68013282420A60CF
:1046900018BF704706480268D243026000200860D5
:1046A0007047034800210160704700BFB803002035
:1046B0008001234210B58AB004200121FDF7CCFB14
:1046C00020200121FDF7DEFB01200121FDF7DAFBAF
:1046D0001820174C07A909904FF48050ADF81C0022
:1046E0000320089004F58630FCF739FEC72004A9A2
:1046F000059041F61F4004902046FEF75BF84FF40A
:1047000080500121FCF788FE00206946ADF80800C2
:10471000084800902046FDF757FF20460821FDF786
:104720008BFF20460121FDF740FF0AB010BD00BFFE
:10473000000800406000010010B54FF082410446BF
:1047400004F0A6FF08B1002010BD0449204604F083
:10475000C7FF034905F08AF910BD00BF33D3614498
:104760000000C84218B1C1B219B101200EE000200A
:10477000704710F47F4102D0090A092006E010F4C6
:104780007F0107BF010E1920090C1120014A515C5D
:104790000844704728A000081CB500F1200C04460E
:1047A000ACE80E00049A2321C2621430C4E905006B
:1047B000184602F0FBF904F120030FCB1A440F4B0B
:1047C000043A02F01BF9E061059806990C4A234669
:1047D00084F8360084F835000020A063C4E90F1186
:1047E000206384F83400C4E91C00CDE9000004F122
:1047F0004400214602F013FE1CBD00BF6970000892
:104800003D7200087047B0B50546FBF717FD296FEC
:10481000044609B1284688472046BDE8B040FBF76A
:1048200011BD00001D48016821F0040101600E481F
:104830000121017018480170704700BF0A490978CA
:10484000002918BF42F22831414314484160002139
:10485000816001210160016801F001110129FAD094
:1048600000210160816070471C0400200A4909781A
:10487000002918BF09214143084841600021816097
:1048800001210160016801F001110129FAD0002124
:1048900001608160704700BF1D04002010E000E04F
:1048A000E0B5002801AA4FF004010CBF4FF0A3307F
:1048B0000448019040F69E2001F080FF01F042FB89
:1048C00002B080BD202830382DE9FE4304467448EC
:1048D0000DF10205734F04212A46CDF8020068202D
:1048E000B847A32014F040066FF05C026FF05C0143
:1048F0008DF8020018BF6FF03F028DF803206FF0B3
:104900005C0218BF6FF037028DF804206FF05C0274
:1049100018BF6FF03D0214F4C0798DF805206FF0D8
:104920005C0218BF6FF03B028DF806206FF05C024E
:1049300018BF6FF033028DF8072018BF6FF03901F0
:104940002A468DF808104AF2A331ADF809108DF807
:104950000B0040F6A7200A21B84714F003086FF0B7
:1049600027004FF001012A4618BF20208DF80200D1
:1049700040F6B620B84714F0200F0CBF00200120ED
:1049800000F094F8B9F1000F23D014F480706FF0A8
:1049900074010DF1020208BF6FF07F0100288DF84D
:1049A00003104FF0B00141EAD0118DF802104FF022
:1049B000B40141EAD01140F6A2208DF804106FF046
:1049C000640108BF6FF06F018DF80510042101F03C
:1049D000F5FEE0070AD1D8200DF1020201218DF881
:1049E00002004FF40B6001F0E9FE24E0F8200DF125
:1049F000020201218DF802004FF40B6001F0DEFE8F
:104A00000720FA2100F052FB072000F020FB0120D4
:104A100000F038FB642000F0D9FB4FF4FA7000F08E
:104A2000E7FB2148C82100F0D5FA282000F0EBFA76
:104A30000A2000F0FAFA60086C210DF1020261F31D
:104A40005F0001218DF8020040F23D7001F0B6FEDA
:104A5000600754BF0020012000F04CF8E00654BF6E
:104A600000200120FFF71CFFA64944F00800002E9B
:104A7000088018BF0626B9F1000F18BF063614F0DB
:104A8000140F18BF46F01006B8F1000F18BF043617
:104A900001F058FA9A480670002003B0BDE8F08390
:104AA00002CAE309BD67000809E3CA02F8B520B1EC
:104AB0000AA041680291094903E00BA041680291F4
:104AC0000949007A019101AA09218DF80C004FF4DF
:104AD000976001F073FE04B080BD00BFB8AAB38D2B
:104AE000B4980D355D000000B8AAAAAAB088C3C565
:104AF000C7000000E0B5002801AA4FF004010CBF78
:104B00004FF08B300448019040F6982001F056FE9B
:104B100001F018FA02B080BDC0C2C4C6034940F615
:104B2000F6304FF48062C82301F0D0B82CD50008CD
:104B30002DE9F04F89B0DDF84890824600201446F8
:104B40000DF1040B139A88461E465946A9F8000039
:104B50006B48007801F076F910B14FF0FF30CCE0EF
:104B60006848B0F800C01CF0140F52D09DF8052022
:104B70009DF804109DF80630B6469DF807601204B3
:104B800042EA016141EA03220914324322609DF89E
:104B900009309DF808209DF80A609DF80B501B0411
:104BA00043EA026242EA062312142B435243636033
:104BB00001FB01219DF80D609DF80C309DF80E5011
:104BC0009DF80F00360446EA036343EA05261A14EB
:104BD000304302FB0211A0609DF811609DF81000A7
:104BE0009DF812509DF81370360446EA006040EAC2
:104BF0000526001400FB0010374300F17140E76008
:104C0000B0F1007F07D901F09DF90020A9F800005C
:104C1000A3E7002107E0B9F800001021764640F430
:104C20008070A9F800005FEA4C602AD5C8B241F054
:104C3000060140F001031BF800201BF8033043EA93
:104C4000022240F00303A8F8002040F002021BF803
:104C500002201BF8033043EA0222A8F8022040F0A9
:104C6000040240F005001BF802201BF8000040EA97
:104C70000220A8F80400B9F8000040F00800A9F8E4
:104C800000001CF4C07F18D0C8B206313BF80020E9
:104C9000584412BA120CAAF80020428812BA120C18
:104CA000AAF80220808800BA000CAAF80400B9F81B
:104CB000000040F07000A9F800005FEA8C7018D086
:104CC000C8B20BEB00056878EC7810F0010F09D042
:104CD0000D490A6832B104F00701C4F3C200013182
:104CE00090476878000704D50748416809B1A009D2
:104CF0008847304600F02EFD002009B0BDE8F08F57
:104D00001A0400201404002050010020BFB50446FE
:104D10000DF1020000F09AFEAD480C25028802F069
:104D2000030012F0040F05EA520554F8200018BFE2
:104D30004042BDF8021012F0200F4FEAC133C2F317
:104D4000811183FB00C054F8211064594FEA905E32
:104D50004FEA90358DF804E08DF805504FEA901534
:104D60008DF8065018BF644212F4807F83FB04E480
:104D70004FEA94558DF808504FEA94358DF8095054
:104D80004FEA94158DF80A5018BF494283FB01126F
:104D9000930D8DF80C30930B8DF80D3093098DF831
:104DA0000E304FEA9C7343EA80008DF807004FEA0B
:104DB0009E7040EA84008DF80B00880F0C2140EAB9
:104DC000820001AA8DF80F004FF4257001F0F6FC67
:104DD00004B0B0BD1CB50446C82816D8C8206A4621
:104DE0000221B0FBF4F001388DF80100000A8DF8C3
:104DF000000040F2162001F0E1FC30B9074A40F60D
:104E0000C1200C2101F0DAFC18B14FF0FF3002B0E4
:104E100010BD034804800020F9E700BF22E100082C
:104E200018040020F8B56A49334F0C26098801F0B0
:104E3000030211F0040F06EA510650F8222018BFB1
:104E400052428659C1F3811511F4807F82FB0723FA
:104E500050F825504FEA93544FEA93308DF80040B4
:104E60008DF801004FEA93108DF802004FEA92701E
:104E70006A4640EA83008DF8030018BF6D4211F0C6
:104E8000200F4FF474704FF0040118BF764201F008
:104E900095FCB0B986FB07016A46800F40EA8100A5
:104EA000010C8DF803008DF80110010E000A8DF839
:104EB00000108DF802004FF47570042101F07EFCA3
:104EC00018B14FF0FF3001B0F0BD85FB07016A4615
:104ED000800F40EA8100010C8DF803008DF801106D
:104EE000010E000A8DF800108DF802004FF4767064
:104EF000042101F063FCE6E709E3CA021CB532496C
:104F00000446C0F3C1000A5C8DF8052004F00302DA
:104F10008B5C8DF80430C4F38113C95C8DF80610E6
:104F20002A498A5C085C8DF800208DF80100C85C75
:104F300001AA03218DF8020040F2264001F03EFC58
:104F4000D0BB6A4640F22A40032101F037FC98BBEF
:104F500076208DF8060045F23660ADF80400662034
:104F60008DF8020044F22660ADF80000600705D518
:104F700027208DF8000037208DF80400A00605D505
:104F800047208DF8010057208DF80500E00505D574
:104F900067208DF8020077208DF8060001AA4FF4F3
:104FA0008860032101F00AFC30B96A4640F23140C2
:104FB000032101F003FC18B14FF0FF3002B010BD27
:104FC000034804800020F9E731E100082EE10008E1
:104FD00010040020E0B54FF47A7290FBF2F001AAC1
:104FE0004843010C8DF807008DF80510010E000AEA
:104FF0008DF804108DF806004FF4AE70042101F016
:10500000DDFB02B080BDE0B505210DF10602B0FB6D
:10501000F1F002218DF80700000A8DF806004FF428
:10502000AD7001F0CBFB02B080BDE0B505210DF104
:105030000602B0FBF1F002218DF80700000A8DF89E
:1050400006004FF4AC7001F0B9FB02B080BDE0B5D2
:1050500000F0010241088008524202F0300261F380
:10506000820261F3C302012160F3000260F3410296
:105070004FF4A4708DF807200DF1070201F09EFB9C
:1050800002B080BDE0B5042801460DF1070228BF3B
:105090000421002818BF481E01218DF8070040F2A6
:1050A0004F1001F08BFB02B080BD00007CB50446C0
:1050B0000D464FF0FF30B1F5C86F00F27A8014F062
:1050C000070100F076800DF1030000F0A9FC2846EE
:1050D00004F050FC384904F003FB05469DF803003A
:1050E00002384FEA70024FF0FF30072A61D8334E82
:1050F0004FF08D41DFE802F00F045D085D5D5D0C4F
:10510000314E4FF08C4106E02E4E4FF08B4102E0C5
:105110002B4E4FF08A41284604F0A8FC04F0F2FB25
:105120008DF80500000A31468DF80400284604F089
:105130009DFC04F0E7FB8DF80700000A8DF80600DF
:1051400001A8851CE00705D1A00712D460071FD471
:1051500000202EE001AA4FF4EA70022101F02EFB9C
:1051600028BB4FF4927002212A4601F027FBF0B9C8
:10517000EAE701AA4FF4EC70022101F01FFBB0B97D
:105180004FF4947002212A4601F018FB78B9DDE74C
:1051900001AA4FF4EE70022101F010FB38B94FF470
:1051A000967002212A4601F009FB0028D0D04FF06A
:1051B000FF3002B070BD00BF000048430000404611
:1051C0000000C044000040450000C045E0B5052196
:1051D0000DF10602B0FBF1F002218DF80700000A84
:1051E0008DF806004FF4EF7001F0E8FA02B080BDD0
:1051F000E0B505210DF10602B0FBF1F002218DF8BA
:105200000700000A8DF806004FF4ED7001F0D6FAA1
:1052100002B080BD03490A8812F0400FFBD0C2B231
:105220008A807047003801402DE9FF47054601207C
:10523000C64F16460C4601ABADF80400D7E9000294
:10524000817C10780222FDF75DFC002840F0788117
:10525000C820FFF7F3FA002001AB8DF80400D7E96E
:105260000002C17B10780122FDF74CFC002840F0C1
:105270006781D7E9000201AB417910780122FDF77F
:1052800041FC002840F05C81D7E9000201AB817C41
:1052900010780122FDF736FC002840F05181D7E953
:1052A000000201ABC17D10780122FDF72BFC002824
:1052B00040F04681D7E9000201AB01791078012264
:1052C000FDF720FC002840F03B810C2001AB8DF85D
:1052D0000400D7E90002017910780122FDF712FCE1
:1052E000002840F02D810F20FFF7A8FAD7E9001021
:1052F000BA6A01AB527A8DF80420012200788978CD
:10530000FDF700FC002840F01B81D7E90010BA6AC5
:1053100001AB127A8DF80420012200784978FDF75C
:10532000F1FB002840F00C81D7E90010BA6A002E8A
:1053300001AB927A18BF42F0E0028DF804200122FE
:1053400000788979FDF7DEFB002840F0F980002E17
:1053500001AB0FBF1820B86AC07A60F01F008DF84B
:105360000400D7E90002C17910780122FDF7CAFBD9
:10537000002840F0E58016B1C820FFF75FFA402012
:1053800001AB8DF80400D7E9000201791078012201
:10539000FDF7B8FB002840F0D380782001AB8DF8F2
:1053A0000400D7E90002417910780122FDF7AAFB39
:1053B000002840F0C5803220FFF740FA002001AB02
:1053C0008DF80400D7E90002417910780122FDF739
:1053D00099FB002840F0B480D7E9000201AB817A44
:1053E00010780222FCF7F8FD002840F0A9809DF813
:1053F00004009DF805104FF0000A0DF10409C5E9FD
:1054000000AAC5F808A0C4E900AAC4F808A041EAA7
:1054100000200C21B0FBF1F05FFA80F833E0D7E90F
:1054200000024B46C17A10780C22FCF7D5FD00280B
:1054300040F08680BDF8040094E80E00BDF80660D8
:105440000AF1010A00BA36BA01EB2040BDF8081093
:1054500002EB2642C4E9000209BA03EB2141A16034
:1054600095E80700BDF80A30BDF80C601BBA36BAE3
:1054700000EB2340BDF80E3001EB26411BBA02EBD6
:10548000234285E807005FFA8AF08045C7D895E88F
:105490008102832200230026C117090441EA10413A
:1054A0000004FAF746FF42460023FAF742FF28605D
:1054B000F81783220023000440EA17413804FAF762
:1054C00038FF42460023FAF734FF68604FEAE9707C
:1054D00083220023000440EA19414FEA0940FAF709
:1054E00028FF42460023FAF724FFA8604246002323
:1054F000D4E90007A568C117490141EAD06140011C
:10550000FAF717FF2060F81742460023400140EAEF
:10551000D7617801FAF70DFF6060E8174246002373
:10552000400140EAD5616801FAF703FF4FF480318A
:105530000028C4BF0021CFF6FF710844A06001E03D
:105540004FF0FF36304604B0BDE8F0878C000020F5
:10555000E0B5FCF77DFD1248016841F001010160F2
:10556000002001E00198013001900198B0F57A7FA8
:10557000F8DB0C480621002281834FF6F07101848C
:10558000012101818280018007484FF0805180F81D
:105590001C2301604FF080408121018086BD00BF47
:1055A0001C1002400C00004000E100E080B5FDF757
:1055B00063FEFDF7C9FDFEF723FFFDF7A7FDFEF72C
:1055C0000BFCFDF763FD4FF4165000F00FF84FF49D
:1055D000E130FDF7CDFF4FF4E130FEF70BF84FF46B
:1055E000E130BDE88040FEF745B800002DE9F0410C
:1055F0008AB0044644F2040001214FF00108FCF790
:1056000041FC214D2846FDF77FF9032007AF05F542
:10561000404608904FF400703946ADF81C00182041
:1056200009903046FBF79BFE0420394609904FF461
:105630008060ADF81C003046FBF791FE40F225106B
:10564000CDF81880ADF8140005A88DF81680FCF789
:10565000C5FB0020019405F5704401A90290ADF846
:1056600010004FF4402003902046FDF7CFF920466C
:1056700040F225510122FDF7B2F920460121FDF744
:1056800039F90AB0BDE8F0810048004070B5074E16
:105690000446B0470546E01CB04745EAC005A01DDA
:1056A000B04745EA801080B270BD00BFB156000817
:1056B00090F90010002902DD002080B2704705DB60
:1056C00090F90110002903DD0120F6E70420F4E73A
:1056D00005DB90F90200002803DD0220EDE705203C
:1056E000EBE74FF0060008BF0720704780B5FDF7D5
:1056F000CBFBFFF75BFF0020FDF778FEFEF7D8FB42
:10570000FEF732FC0948FCF7D5FB0948012101608E
:10571000FEF7D0FF5A20FDF7D1FB5A20FDF7CEFB54
:10572000FEF79CF8FDF716FAF7E700BFB00200207D
:10573000A8012342B0B5054C054D01E001CC8047DE
:10574000AC42FBD3BDE8B040FFF7D0BF7C0A0108F4
:10575000800A01087047000070B5F64D95F82410D6
:1057600009B100241CE0A97A81B100F0FE002E7C72
:1057700001400C1A297418BF4FF0FF3448B10120C2
:1057800001F026FF00F0DEFB50B12E744FF0FF3425
:1057900006E0287D00280CBF0020012001F018FF42
:1057A000204670BD2DE9F04F8DB005460DF12F005C
:1057B0000F466E4C6F49164607AA0CAB01906C4819
:1057C0000094FFF7B5F908B10120CBE06078C0077D
:1057D00001D10220C6E0DDE9070406960597099E7F
:1057E0000A9F04F0AFF84FF0425104F03FF98046B1
:1057F000204604F0A7F84FF0425104F037F98346F1
:10580000304604F09FF84FF0425104F02FF904465F
:10581000384604F097F84FF0425104F027F9064655
:1058200058464FF0404104F021F931468146039635
:1058300004F01CF9074640464146CDF8108003F0BD
:1058400087FE2146804604F011F9394603F080FEB8
:1058500003F052FE02F046FB474B4FF0663203F076
:1058600071FB02F0EDFF28602046214603F070FE38
:105870003146824604F0FAF805464046594604F09F
:10588000F5F8294603F064FE03F036FE05460F46A0
:105890005846494604F0EAF806462046514604F0C8
:1058A000E5F80146304604F0B7F94FF07E5103F0B9
:1058B0004FFE03F021FE02460B462846394602F011
:1058C00059FD2D4B4FF06632994603F03BFB02F039
:1058D000B7FF059908605846214604F0C7F8039FB2
:1058E000049E05463046394604F0C0F80146284675
:1058F00003F02EFE014603F02BFE03F0FDFD0546EE
:1059000088463046314604F0B1F8064658465946B6
:1059100004F0ACF80146304603F01AFE0646204675
:10592000214604F0A3F80146304604F075F9044618
:105930003846394604F09AF80146204604F06CF9DE
:1059400003F0DAFD02460B462846414602F012FDFE
:105950004FF066324B4603F0F5FA02F071FF0699FC
:1059600008600020C0B20DB0BDE8F08FB416002072
:105970008C0100209201002066A64C4080B5FBF708
:1059800003FF00F0D9F808B10A203DE0782000F0CC
:10599000C1FE10F0FF0F01D0012035E07820FFF7A5
:1059A000DBFE10F0FF0F01D002202DE0642000F09C
:1059B00071FE10F0FF0F01D0032025E0FFF7AEF8D5
:1059C00010F0FF0F01D004201EE01448FFF75EFE28
:1059D000FFF794FA10F0FF0F01D0052014E040F219
:1059E0007310FEF771FF10F0FF0F01D006200BE0DF
:1059F0006420FFF7EFF910F0FF0F01D0072003E05C
:105A000001F09FFD10B10820C0B280BD012000F060
:105A100069FDC0B2002818BF092080BD41000020E8
:105A2000D5494A7A032A84BF4FF0FF307047054BAF
:105A3000D200D3400370C97C11B10349D140017039
:105A400000207047020408100408102080B5DFF819
:105A5000CCCD9CF80910032984BF4FF0FF3080BDE6
:105A60004FF4005E4FF48043DFE801F01002070CB2
:105A700040F6CE7E41F69C7308E04FF4006E4FF482
:105A8000805303E04FF4806E4FF4006303809CF872
:105A9000131009B1A0F800E0002080BDE8490A7A9F
:105AA000032A07D8FA21DFE802F00C02070A4FF4B4
:105AB000FA7106E0002104E04FF47A7101E04FF43E
:105AC000FA61018000207047DD490A7A032A84BF09
:105AD0004FF0FF3070470649DFE802F00702040686
