:020000040800F2
:100000009006002045010008651F0008E51600085D
:10001000611F0008350E0008F93B000800000000D1
:100020000000000000000000000000005701000870
:10003000D10E0008000000005B0100085D0100080F
:100040005F0100085F0100085F0100085F01000810
:100050005F0100085F0100085F0100085F01000800
:100060005F0100085F0100085F0100085F010008F0
:100070005F0100085F0100085F0100085F010008E0
:100080005F0100085F0100085F0100085F010008D0
:100090005F0100085F0100085F0100085F010008C0
:1000A0005F0100085F0100085F0100085F010008B0
:1000B000552700087D270008912700085F010008E8
:1000C0005F0100085F0100085F0100085F01000890
:1000D0005F01000825350008AD3600082939000801
:1000E0005F0100085F0100085F0100085F01000870
:1000F000A52700085F0100085F0100085F010008F4
:100100005F0100085F0100085F0100085F0100084F
:100110005F0100085F0100085F0100085F0100083F
:100120005F0100085F0100085F0100085F0100082F
:10013000DFF80CD000F04EFD00480047398400087D
:10014000900600200648804706480047FEE7FEE785
:10015000FEE7FEE7FEE7FEE7FEE7FEE7FEE7FEE777
:10016000FD250008310100082DE9F0410024061B9F
:10017000254671F1000605DA01240027D0EB0700BF
:1001800067EB0101161E73F1000605DA0027D2EBBA
:100190000702012567EB030300F0C6FB86460E4607
:1001A00017469C46AC4204D00025D0EB050E65EB0B
:1001B000010624B10020D2EB000760EB030C70466F
:1001C00031463A466346BDE8F08130B5044600202A
:1001D000034600E05B1C934203D2E05CCD5C401B15
:1001E000F8D030BDF0B480EA0102D40F4200B2EB87
:1001F000410F02D20246084611464A0042D0C30DC2
:10020000DDB2C1F3C752AD1A202D35DAC1F31601A4
:1002100041F4000204B15242C5F1200602FA06F18F
:100220002A411044B3EBD05F23D0C4B1012DA0EB21
:10023000C35009DCF0BC4FF0004202EAC352DBB20B
:1002400000F5000000F0DBBB400000F1807000EB27
:10025000C350A0F1807040EAD170490009E049081C
:1002600041EAC071A0EBC35000F50000400800EB6C
:10027000C350F0BC00F0BABB6142012202EB410165
:10028000001BF6E7F0BC704781F00041AAE780F060
:100290000040A7E780EA010210B502F000434000E9
:1002A00022D04A001FD0010E01EB1261C0F35600AC
:1002B000C2F3560240F4000042F40002A0FB022008
:1002C00000047F39140400D0401C50EA124001D4CD
:1002D0004000491EC2B20C0604EBD010401C40087E
:1002E000802A02D003E0002010BD20F00100002988
:1002F00000DA0020184310BD30B480EA010202F099
:10030000004530F0004221F0004013D090B1C30D01
:10031000D40DC2F31601C0F31600E41A41F4000133
:1003200040F400027D34914201D3641C00E0490096
:10033000002C02DA30BC002070474FF4000000238C
:10034000914201D3891A034340084FEA4101F7D192
:1003500051B1914202D14FF0004105E002D24FF07D
:10036000010101E06FF0010103EBC450284430BCEF
:1003700000F03CBB2DE9FE4F804681EA0300C00F30
:100380000C46009021F0004123F00045B8EB02003C
:10039000A94105D24046214690461C460B460246DE
:1003A00023F00040104347D0270DC7F30A00C3F3E2
:1003B0000A510290401A019040286BDAC3F31300EF
:1003C00040F4801B0098924620B10023D2EB030A30
:1003D00063EB0B0B01985946C0F14002504600F008
:1003E000D4FA06460D4650465946019A00F0ECFAFA
:1003F00010EB08006141002487EA115284EAE77398
:100400001A4340D0009A62B3019A012A4FEA075278
:1004100015DC001B61EB02014FF0004202EA0752BB
:10042000CDE90042001C41F5801132462B4600F018
:1004300023FB03B0BDE8F08F40462146F9E7001BDF
:1004400061EB0201001C41F5801300185B4120188C
:10045000A2F5001747EB030140EAD570B6196D41CC
:1004600011E06D084FEA360645EAC0754FEA0752BB
:10047000001B61EB0201001C41F5801149084FEAA5
:1004800030000019514132462B4603B0BDE8F04F11
:1004900000F0E3BA0098012240000023D0EB0202F2
:1004A00063EBE073009821464FEAE074B8EB00007C
:1004B00061EB0401E9E783F000435BE781F0004171
:1004C00058E72DE9FE4F81EA030404F0004421F0CF
:1004D000004100944FF0000B23F0004350EA010468
:1004E0005ED052EA03045BD0C3F30A54C1F30A5549
:1004F0002C44A4F2F3340194A0FB0254C1F3130181
:1005000041F48011C3F3130343F4801301FB02444D
:1005100000FB034E840A970A44EA815447EA835752
:10052000A4FB076802958D0A05FB07854FEA932C0B
:1005300004FB0C542705029D4FEA065847EA16377C
:10054000B5EB08056EEB070C870E920E47EA811794
:1005500042EA8312A7FB0201B6EB0B0164EB000435
:100560002B0D43EA0C335E1844EB1C50DA4651461F
:10057000E7FB0201C5F313044FEA0B3343EA1453BC
:100580004FEA0432019C43EA0603A4F10C040294EE
:10059000009CCDE900B400F06FFA03B0BDE8F08F25
:1005A00000200146F9E72DE9F04D81EA030404F04B
:1005B000004B21F0004514464FF0000A23F00041A3
:1005C00050EA050220D054EA01021DD0C5F30A57B3
:1005D0000246C5F31303C1F31300C1F30A5640F4F6
:1005E000801543F48013A7EB0608101BD64608F2CB
:1005F000FD3873EB050002D308F1010801E0921801
:100600005B41B8F1000F03DA00200146BDE8F08D30
:1006100000204FF48011064684460EE0171B73EB52
:10062000050705D3121B63EB050306434CEA010CD7
:1006300049084FEA300092185B4150EA0107EDD1BA
:1006400052EA030012D082EA040083EA050108435B
:1006500005D0101BAB4106D20122002306E0002288
:100660004FF0004302E06FF0010253101AEB060056
:100670004CEB085110EB0A0041EB0B01BDE8F04DCB
:1006800000F0EBB9002801DBC0F10040002901DBDC
:10069000C1F10041814201D801207047002070471C
:1006A000002801DBC0F10040002901DBC1F100415D
:1006B000814201D20120704700207047002801DBF1
:1006C000C0F10040002901DBC1F10041814201D3AA
:1006D0000120704700207047002801DBC0F1004076
:1006E000002901DBC1F10041814201D9012070479D
:1006F00000207047002801DBC0F10040002901DB29
:10070000C1F10041814201D10120704700207047B2
:1007100030B5041E71F1000404DB4FF00044404288
:1007200064EB0101141E73F1000405DB1C464FF05D
:100730000043524263EB0403801A994101D3012024
:1007400030BD002030BD30B5041E71F1000404DB63
:100750004FF00044404264EB0101141E73F10004A9
:1007600005DB1C464FF00043524263EB0403101AB2
:100770008B4101D3012030BD002030BDC10F80EA84
:10078000E0700844CA079623002100F038B9962388
:100790000022114600F033B90EB5C10F80EAE070B7
:1007A0000844CA07002140F233438DE80E000A4690
:1007B0000B4600F061F903B000BD0EB540F23341C5
:1007C00002910021CDE900110A460B4600F054F9D0
:1007D00003B000BD00F0004220F00040C10DC0F3A6
:1007E000160040F400007F2901DA002070479629A6
:1007F00003DCC1F19601C84001E096398840002A27
:10080000F4D04042704720F00040C10DC0F3160004
:1008100040F400007F2901DA00207047962903DCAC
:10082000C1F19601C840704796398840704770B54D
:10083000C1F30A5201F000450024C1F3130140F254
:10084000FF3341F480119A4201DA002070BD40F27A
:1008500033439A42A2F2334203DC524200F0A4F83E
:1008600000E090402C43F1D0404270BDC1F30A52E9
:1008700010B5C1F3130140F2FF3341F480119A42E5
:1008800001DA002010BD40F233439A42A2F2334213
:1008900003DC524200F088F810BD904010BD00F01B
:1008A000004230F000400AD0C10D01F56071C0F384
:1008B000160042EA0151C208400711437047002068
:1008C0000146704701F0004330B421F0004150EA86
:1008D000010206D00A0DA2F56072C1F31301002ACD
:1008E00002DC30BC00207047440F44EAC104C10060
:1008F000E01830BC00EBC25000F078B830B50B46C1
:10090000014600202022012409E021FA02F59D423F
:1009100005D303FA02F5491B04FA02F52844151E13
:10092000A2F10102F1DC30BD2DE9F05F05460020A7
:1009300092469B4688460646814640241BE0284650
:1009400041464746224600F02FF853465A46C01A01
:10095000914110D311461846224600F016F82D1A80
:1009600067EB01084F4622460120002100F00DF8F8
:1009700017EB00094E41201EA4F10104DFDC4846BC
:1009800031462A464346BDE8F09F202A04DB203A40
:1009900000FA02F1002070479140C2F1200320FAD2
:1009A00003F3194390407047202A04DB203A21FAD0
:1009B00002F00021704721FA02F3D040C2F1200278
:1009C0009140084319467047202A06DBCB17203A8E
:1009D00041FA02F043EAE07306E041FA02F3D04044
:1009E000C2F1200291400843194670470029A8BF70
:1009F0007047401C490008BF20F00100704710B448
:100A0000B0FA80FC00FA0CF050EA010404BF10BCFC
:100A1000704749B1CCF1200421FA04F411FA0CF129
:100A200018BF012121430843A3EB0C01CB1D4FEA62
:100A300000614FEA102042BF002010BC704700EB5D
:100A4000C35010440029A4BF10BC7047401C49008B
:100A500008BF20F0010010BC704710B5141E73F1E0
:100A6000000408DA401C41F1000192185B411A436E
:100A700001D120F0010010BD2DE9F04D92469B46BA
:100A800011B1B1FA81F202E0B0FA80F22032904660
:100A9000FFF77BFF04460F4640EA0A0041EA0B01DC
:100AA00053465A46084313D0114653EA010019D061
:100AB000C8F140025046FFF777FF05460E46504604
:100AC00059464246FFF761FF084305D0012004E084
:100AD00020463946BDE8F08D0020054346EAE07621
:100AE0002C4337430A986305E40AA0EB0800002270
:100AF000FD0A44EA47540A3002D500200146E9E7DE
:100B0000010510196941DDE9084500196941BDE891
:100B1000F04DA2E770B521F0004303430CD0C1F3C0
:100B20000A550024D5EB040564EB0403D617AD1A6F
:100B3000B34102DB0020014670BD201841EB025199
:100B400070BDC1F30A52C1F3130140F2FF3341F407
:100B500080119A4202DA00200146704740F2334386
:100B60009A42A2F2334202DC5242FFF71DBFFFF766
:100B70000CBF000030B5041E71F1000404DB4FF01F
:100B80000044404264EB0101141E73F1000405DBD4
:100B90001C464FF00043524263EB04038B4208BFF4
:100BA000824230BD30B5041E71F1000404DB4FF009
:100BB0000044404264EB0101141E73F1000405DBA4
:100BC0001C464FF00043524263EB0403994208BFB6
:100BD000904230BD064C074D06E0E06840F001034E
:100BE00094E8070098471034AC42F6D3FFF7A4FA14
:100BF000641C0108841C0108420005D0C0F3C752E0
:100C00005242914201DC0020704700EBC150704716
:100C10002DE9F04D00231A461B1A8A4103DB002000
:100C20000146BDE8F08DC1F30A52C1F3130141F44E
:100C300080154FF0000BD10702D100186D41521EF4
:100C40000027044640F2FF11384601EB620A3E4697
:100C50008046024600204FF48011FFF7A5FEC2191E
:100C60007141BB1846EB0100B4EB030C75EB000CB3
:100C700004D3E41A65EB000517460E46241908F163
:100C800001006D4180463428E3DDF91946EB06008A
:100C9000091BA84103D24FF0FF32134601E00022A6
:100CA00013461BEB070046EB0A51BDE8F04DFFF77A
:100CB000D4BE00008268002942F0010308BF22F080
:100CC000010383607047000080B543F60041C4F221
:100CD0000101884214D042F60001C4F201018842A9
:100CE00016D042F20041C4F20101884218BF80BD13
:100CF0004FF40070012101F093F94FF400700EE001
:100D00004FF40040012101F08BF94FF4004006E060
:100D10004FF48060012101F083F94FF480600021DD
:100D2000BDE8804001F07CB98068C0F38000704766
:100D3000C06C80B2704700000068084018BF0120F6
:100D4000704700008068C0F3C000704780B54FF660
:100D5000FF634268CFF6F07302EA030CD1E9003278
:100D600043EA0C0343EA02224FF2FD734260CFF6DE
:100D7000F173826802EA030ED1E902C30A6942EA0A
:100D80000E021A4342EA4C028260C26A097D0139AE
:100D900022F47002C9B242EA0151C16280BD000072
:100DA00010B501EB410C092988BFACF11E0C0929D3
:100DB00003FA0CFE4FF0070303FA0CFC4FF010038C
:100DC00088BF0C23062AC45824EA0C0444EA0E0403
:100DD000C45003D834306FF0040307E00C2A87BFF7
:100DE0002C306FF0400330306FF0220302EB8202B0
:100DF0001A441F23914003FA02F2036823EA020215
:100E00001143016010BD0000816841F0080181605C
:100E1000704700008268002942F4A00308BF22F452
:100E2000A003836070470000816841F00401816085
:100E300070470000FEE70000B0B50C464DF20A71A5
:100E4000C3F6A341FFF726FA054640F244002146C7
:100E5000C2F200000068FFF71DFA40F2900401465C
:100E6000C2F200042068FFF7BDF94EF24811C3F644
:100E70007A71FFF70FFA01462846FFF7B3F92060B1
:100E8000B0BD0000B0B50C464DF20A71C3F6A341E7
:100E9000FFF700FA054640F244002146C2F2000086
:100EA0000068FFF7F7F940F294040146C2F200042B
:100EB0002068FFF797F94EF24811C3F67A71FFF7F1
:100EC000E9F901462846FFF78DF92060B0BD000022
:100ED0007047000080B5D1F808E00EF00F0C1EF04E
:100EE000100F1CBF4B684CEA030C098811F0FF0F70
:100EF00000F0A4800368CA070BD023F00F02BEF1F4
:100F0000480F42EA0C0315D0BEF1280F01D101228F
:100F100042618A0712D523F0F002BEF1280F42EA9F
:100F20000C131CD0BEF1480F08D1022202614A07FF
:100F300006D418E0012202618A07ECD44A0712D5D0
:100F400023F47062BEF1280F42EA0C231CD0BEF1DC
:100F5000480F08D1042202610A0719D505E00222D0
:100F600042614A07ECD40A0712D523F47042BEF15D
:100F7000280F42EA0C331CD0BEF1480F08D10822DA
:100F80000261CA0606D418E0042242610A07ECD4C2
:100F9000CA0612D523F47022BEF1280F42EA0C4390
:100FA0001CD0BEF1480F08D1102202618A0619D563
:100FB00005E008224261CA06ECD48A0612D523F461
:100FC0007002BEF1280F42EA0C531CD0BEF1480F4C
:100FD00008D1202202614A0606D418E0102242619C
:100FE0008A06ECD44A0612D523F07062BEF1280FAF
:100FF00042EA0C631AD0BEF1480F08D140220261C8
:101000000A061AD505E0202242614A06ECD40A06F7
:1010100013D523F07042BEF1280F42EA0C730AD0B8
:10102000BEF1480F09D18022026106E040224261F0
:101030000A06EED401E0802242610360B1F5807FB0
:1010400038BF80BD4368CA050CD523F00F02BEF13E
:10105000480F42EA0C0317D0BEF1280F02D14FF41B
:10106000807242618A0514D523F0F002BEF1280F88
:1010700042EA0C131FD0BEF1480F0AD14FF40072A0
:1010800002614A0507D41BE04FF4807202618A05B1
:10109000EAD44A0514D523F47062BEF1280F42EA5F
:1010A0000C231FD0BEF1480F0AD14FF480620261B9
:1010B0000A051CD506E04FF4007242614A05EAD4E5
:1010C0000A0514D523F47042BEF1280F42EA0C330E
:1010D0001FD0BEF1480F0AD14FF400620261CA046A
:1010E00007D41BE04FF4806242610A05EAD4CA04C7
:1010F00014D523F47022BEF1280F42EA0C431FD00E
:10110000BEF1480F0AD14FF4805202618A041CD507
:1011100006E04FF400624261CA04EAD48A0414D59E
:1011200023F47002BEF1280F42EA0C531FD0BEF127
:10113000480F0AD14FF4005202614A0407D41BE061
:101140004FF4805242618A04EAD44A0414D523F051
:101150007062BEF1280F42EA0C631ED0BEF1480F48
:101160000AD14FF48042026109041BD506E04FF416
:10117000005242614A04EAD4090413D523F07041B5
:10118000BEF1280F41EA0C730ED0BEF1480F09D111
:101190004FF400410161436080BD4FF480424261E1
:1011A0000904EBD4436080BD4FF4004141614360CA
:1011B00080BD000010B50422002800F440141FFA7E
:1011C00080FCC4F201021346B8BF43F01803B4F523
:1011D000401F1B68C0F3034E07D1146823F07063EF
:1011E00024F07064146081B916E0C40206D447F696
:1011F000F07404EA50440CFA04F402E0032404FA04
:101200000EF4A34343F0706331B147F6F07101EA85
:1012100050410CFA01F10B430028B8BF183213609B
:1012200010BD000041617047016170472DE9F04F2A
:1012300087B0054600F0E4FD40F22811012DC2F20E
:101240000001086012D140F2F80440F2141040F29C
:101250004C12C2F20004C2F20000C2F200022146A7
:1012600007F06AF960B107B0BDE8F08F0DF10E0329
:1012700069203B210E2200F037FF00286DD091E05D
:101280000DF10E0369203B21062200F02DFFD0B99D
:10129000BDF80E0040F25C21C2F2000100BA000C61
:1012A0000880BDF8100040F25E21C2F2000100BAD1
:1012B000000C0880BDF8120040F26021C2F200016B
:1012C00000BA000C08800DF10E03692043210622AC
:1012D00000F00AFFD0B9BDF80E0040F28421C2F23E
:1012E000000100BA000C0880BDF8100040F2862111
:1012F000C2F2000100BA000C0880BDF8120040F2F2
:101300008821C2F2000100BA000C088040F27C0182
:101310002068C2F20001086040F27E21C2F20001A2
:10132000B1F90000B1F90440FFF728FA40F2BC011E
:10133000C2F2000108602046FFF720FA40F2C00127
:10134000C2F20001086040F26220C2F20000B0F96F
:101350000400FFF713FA804692E0BDF80E00C0BA11
:10136000FFF70CFA0290BDF81000C0BAFFF706FABA
:101370008246BDF81200C0BAFFF700FA8046BDF8F9
:101380001600C0BAFFF7FAF90646BDF81A00C0BA4F
:10139000FFF7F4F90190BDF81800C0BAFFF7EEF9B5
:1013A000FFF77DFA40F2BC0246F26664C2F2000228
:1013B000C4F2300416604FF066322346FFF7F3F8AC
:1013C000FFF780FA83463046FFF769FA4FF066323E
:1013D0002346FFF7E8F8FFF775FA81465046414685
:1013E00009F08EFD0024C4F234342146FEF752FF8A
:1013F00040F6DB76C4F249063146FEF77DFF07462C
:101400000298414609F07CFD2146FEF743FF314634
:10141000FEF772FF0446032D10D0022D019D20D14E
:101420003846494600F070FB40F2F801C2F2000174
:1014300008602046594600F025FC0DE03846494634
:10144000FFF7FAFC40F2F801C2F200010860204602
:101450005946FFF717FD019D40F21411C2F2000139
:10146000086040F2C00040F27C01C2F20000C2F20B
:101470000001056040F2F800C2F200000068086058
:1014800040F27800C2F20000C0F8008007B0BDE86A
:10149000F08F00002DE9F04742F6040CC4F2000C76
:1014A000BCF8001011F0080F00F00C81BCF814100B
:1014B000BCF8182042EA014944F20751CCF22E212F
:1014C000A9FB011240F28A114FEA124EC2F200014A
:1014D0000B88B3EB124F08D140F26811C2F2000141
:1014E0008D7891F803A009887BE0A1F800E043F231
:1014F0008031C0F2E111894529D348F21F544FF6DB
:10150000926840F2B2714FF0640A4FF4C8767346A5
:10151000C5F2EB14CFF6FF7811F0030F0AD18AB2AF
:10152000A2FB0457FD0905FB16255DB17D0905FBEE
:101530001A223AB96FF4B67213440131B3F5B67F8B
:10154000EAD807E0B3F5B77F4246F5D202E040F2B1
:10155000B271734640F268181C2BC2F20008A8F85A
:10156000001034D348F21F548AB2642641F6AE3AD2
:1015700001F00307C5F2EB14C0F6010AA2FB044513
:101580006C09ED0904FB16244FF4C87605FB1622FE
:10159000002C4FF00005B2FA82F218BF0124520964
:1015A00044EA0206AAB24FB9541EB4FA84F464099C
:1015B000344003D01D2B0CD31D3B04E01AF802204D
:1015C000934207D39B1A01351B2BEBD802E0002571
:1015D00000E0012503F1010A013588F803A088F82D
:1015E000025040F2A3224FF4616489B20EFB02F272
:1015F000A9EBC2174BF2C532C9F2A212A7FB022611
:1016000040F26812F60AC2F2000206FB1477567125
:1016100048F68906C8F68806A7FB0664660996712F
:101620003601A6EB54166424A7EB8607D77148F25F
:101630001F57C5F2EB17A1FB0776FC2707EA5617E1
:10164000760906FB1411132F44F6251688BF643162
:10165000C2F2924601EB910711F0030FA7FB06437C
:10166000A7EB030403EB54034FEA93044FEAC404CB
:10167000A4EB93035FFA8AF4A7EB0303EFB24BF2F8
:101680000435C0F600053D4415F8015C25442B44A3
:101690004FF6FF75194608BF2944032F28BF194686
:1016A00089B2A1FB0637CB1B07EB53039F08FF0052
:1016B000A7EB9303C91A1171BCF8001021F00801BF
:1016C000ACF8001040F26811C2F2000191E88C0001
:1016D000D1E90365496980E88C00C0E9036541618F
:1016E000BDE8F087FEE70000022005F097BF00008C
:1016F00010B584B008200121012400F085FC1020E1
:1017000001A903904FF44060ADF80400032002905B
:1017100040F60040C4F20100FFF7DCFB48F2A810DD
:10172000C4F221200460446004B010BD2DE9F04FE4
:1017300083B040F60441029048F2A8154FF0000B28
:10174000C4F20101C4F22125086820F47040086049
:10175000086840F40040086000202860022005F07E
:101760005DFF01262E6055F87C0C0190012005F0EC
:1017700055FF0220C5F800B005F050FF2E60012093
:1017800055F87C7C05F04AFF0220C5F800B005F052
:1017900045FF2E60012055F87C4C05F03FFF0220EC
:1017A000C5F800B005F03AFF2E60012055F87C8C9A
:1017B00005F034FF0220C5F800B005F02FFF2E60C1
:1017C000012055F87C9C05F029FF0220C5F800B0E7
:1017D00005F024FF2E60012055F87CAC05F01EFFBB
:1017E0000220C5F800B005F019FF2E60012055F861
:1017F0007CBC05F013FF00202860022005F00EFFDE
:101800002E60012055F87C6C05F008FF40F604427C
:1018100000212960C4F20102106820F470401060B9
:10182000106840F4405010600198002818BF012053
:10183000002F18BF0127002C18BF012447EA4000E1
:10184000B8F1000F18BF4FF0010844EA4000B9F1A9
:10185000000F18BF4FF0010948EA4000BAF1000F2D
:1018600018BF4FF0010A49EA4000BBF1000F18BF52
:101870004FF0010B4AEA4000002E4BEA400018BF2F
:10188000012646EA4004029848B10220696005F04A
:10189000C5FE01202860022005F0C0FE08E00126F8
:1018A00002206E6005F0BAFE02202E6005F0B6FE42
:1018B00000202860E0B203B0BDE8F08FF0B581B041
:1018C000044640F6044048F2A8150026C4F2010080
:1018D000C4F22125016821F470410160016841F4DE
:1018E00040510160E0092E606860022005F096FE1C
:1018F000012702202F6005F091FE02202E6005F0E6
:101900008DFEC4F380106860022005F087FE02207F
:101910002F6005F083FE02202E6005F07FFEC4F3E9
:1019200040106860022005F079FE02202F6005F06B
:1019300075FE02202E6005F071FEC4F30010686091
:10194000022005F06BFE02202F6005F067FE0220EA
:101950002E6005F063FEC4F3C0006860022005F04D
:101960005DFE02202F6005F059FE02202E6005F07A
:1019700055FEC4F380006860022005F04FFE02208F
:101980002F6005F04BFE02202E6005F047FEC4F3E9
:1019900040006860022005F041FE02202F6005F043
:1019A0003DFE02202E6005F039FE04F00100686063
:1019B000022005F033FE02202F6005F02FFE2E607E
:1019C000022001B0BDE8F04005F028BEB0B540F6F9
:1019D000044048F2A814C4F20100C4F221240168B2
:1019E00021F470410160016841F44051016001201F
:1019F00060602060042005F011FE00250420656071
:101A000005F00CFE2560B0BD10B540F6044048F26C
:101A1000A814C4F20100C4F22124016821F4704129
:101A20000160016841F44051016000202060606065
:101A3000042005F0F3FD0120206060600420BDE873
:101A4000104005F0EBBD000070B540F6044448F2CC
:101A50002C150126C4F20104C4F22125206820F4CB
:101A600070402060206840F4004020600120C5F8EC
:101A7000806005F0D3FD0120EE6705F0CFFD2868FA
:101A800088B10020296871B1296861B140F0020174
:101A9000C9B2F9290BD82A682AB1F92907D82968C7
:101AA00004300029EED100242046EC6770BD206888
:101AB00020F470402060206840F4405020600020F6
:101AC000E867C5F88000042005F0A8FD0124042083
:101AD000EC67C5F8804005F0A1FD204670BD000010
:101AE00041F21801C4F202010A6842F001020A60E0
:101AF0000421C4F201010A6822F0E0620A600A6867
:101B000042EA4060086070472DE9F04F83B0CDE9AC
:101B1000011040F2C800C2F20000076841F26F20D5
:101B2000C3F683203946FEF7AFFB40F2CC01C2F288
:101B300000010C682146FEF7A7FB014640F2440075
:101B4000C2F20000D0F800B05846FEF7A3FB40F206
:101B50000809C2F20009D9F80010FEF743FB4FF064
:101B60007C510546FEF73EFB804628464146FEF77F
:101B7000C3FB294606460090FEF78CFB014628462B
:101B8000FEF782FBC9F8000040F20C005946C2F291
:101B90000000D0F800A05046FEF77CFB8146384696
:101BA0004946FEF771FB074630463946FEF772FBA1
:101BB00001463846FEF768FB40F2C801C2F2000158
:101BC000086020464946FEF75FFB41460646FEF7A1
:101BD00093FB29460446FEF75DFB01463046FEF7BF
:101BE00053FB40F2CC01C2F20001086049F6A63175
:101BF0005846C3F64431FEF74DFB5146FEF7F2FA64
:101C0000054620463946FEF745FB01462846FEF7C5
:101C10003BFB40F2D00840F20C01C2F20008C2F2D5
:101C20000001D8F80050086001982946FEF72CFB07
:101C30005946FEF72FFB40F2D4090146C2F20009D3
:101C4000D9F80000FEF7CEFA064602983146FEF7B4
:101C50001BFB00990746FEF71DFB01463046FEF7C9
:101C6000C1FA0646C9F8000038462146FEF712FBC5
:101C700001462846FEF7B6FAC8F80000304603B021
:101C8000BDE8F08F2DE9F04F83B0CDE9011040F2AF
:101C9000D800C2F20000076841F26F20C3F683202B
:101CA0003946FEF7F1FA40F2DC01C2F200010C689D
:101CB0002146FEF7E9FA014640F24400C2F2000074
:101CC000D0F800B05846FEF7E5FA40F21009C2F22B
:101CD0000009D9F80010FEF785FA4FF07C5105464F
:101CE000FEF780FA804628464146FEF705FB294666
:101CF00006460090FEF7CEFA01462846FEF7C4FAE3
:101D0000C9F8000040F214005946C2F20000D0F8B1
:101D100000A05046FEF7BEFA814638464946FEF717
:101D2000B3FA074630463946FEF7B4FA014638465C
:101D3000FEF7AAFA40F2D801C2F20001086020467C
:101D40004946FEF7A1FA41460646FEF7D5FA29466E
:101D50000446FEF79FFA01463046FEF795FA40F238
:101D6000DC01C2F20001086049F6A6315846C3F60C
:101D70004431FEF78FFA5146FEF734FA0546204605
:101D80003946FEF787FA01462846FEF77DFA40F20B
:101D9000E00840F21401C2F20008C2F20001D8F8D3
:101DA0000050086001982946FEF76EFA5946FEF782
:101DB00071FA40F2E4090146C2F20009D9F80000C4
:101DC000FEF710FA064602983146FEF75DFA0099D2
:101DD0000746FEF75FFA01463046FEF703FA06466D
:101DE000C9F8000038462146FEF754FA0146284655
:101DF000FEF7F8F9C8F80000304603B0BDE8F08FF0
:101E0000B0B5FFF7E3FDD220FFF758FDFFF71CFE4A
:101E10004120FFF753FDFFF717FEFFF7D7FDD32053
:101E2000FFF74CFDFFF710FE0020FFF77FFC044694
:101E3000FFF7EAFDFFF7CAFDD220FFF73FFDFFF7EE
:101E400003FE4220FFF73AFDFFF7FEFDFFF7BEFD60
:101E5000D320FFF733FDFFF7F7FD0020FFF766FC07
:101E600040EA04242046FEF789FC00210546CCF216
:101E70008071FEF7B7F90021B4F5004F98BF2846EE
:101E8000C4F2AA31FEF738FAFEF709FD47F2A402C0
:101E900044F2D733C0F63D22C4F24203FEF76AFA99
:101EA00000230022C4F22403FEF70BFBFEF70AFD19
:101EB000FEF790FC0446FFF7A7FD2046B0BD0000EA
:101EC00080B5FFF715FC6B20802101F097FE6420A0
:101ED00005F078FB6B20002101F090FE1B201821FB
:101EE00001F08CFE1C20102101F088FE1920012138
:101EF00001F084FE1A20012101F080FE382000212B
:101F000001F07CFE6A20002101F078FE23200021F0
:101F100001F074FE3720802101F070FEFFF756FDBE
:101F2000D220FFF7CBFCFFF78FFD7520FFF7C6FC33
:101F3000FFF78AFDFFF74AFDD320FFF7BFFCFFF74D
:101F400083FD0020FFF7F2FBFFF75EFD6B2003210E
:101F500001F054FE6C20002101F050FE002080BDF5
:101F6000FEE700007047000042684EF20011CEF21A
:101F70000001EAB110B54EF60C520723CEF2000272
:101F8000126890F801E0847890F800C023EA1222E9
:101F90000F23D340C2F1040223400EFA02F21A4387
:101FA00001EB0C03120183F80023BDE8104000E0B0
:101FB00080310078012300F01F02C0F3421003FAC1
:101FC00002F241F82020704740F080604EF60C513C
:101FD00040F0FD70CEF200010860704741F204014C
:101FE000C4F202010A6822F44042104308607047BC
:101FF00041F21C020029C4F2020211680CBF21EA5E
:10200000000008431060704741F218020029C4F232
:10201000020211680CBF21EA0000084310607047FB
:1020200041F20C020029C4F2020211680CBF21EA3D
:10203000000008431060704780B541F2040EC4F2FE
:10204000020EDEF8002002F00C0341F20022C0F282
:102050007A02082B1FD1DEF80030C3F3834303F16B
:10206000020CDEF8003013F4803F06D140F6001277
:10207000C0F23D020CFB02F20DE0DEF8003013F47A
:10208000003F02D10CFB02F205E040F60012C0F264
:102090003D020CFB02F202604BF2F421DEF800304C
:1020A000C0F60001C3F30313CB5CDA404260DEF8F4
:1020B0000030C3F30223CB5C22FA03F38360DEF823
:1020C0000030C3F3C223C95C4BF2F023C0F6000317
:1020D00022FA01F1C160DEF80020C2F381329A5C7D
:1020E000B1FBF2F1016180BD2DE9F04F81B040F606
:1020F000044A074648F2A81901261C461546884698
:10210000C4F2010AC4F22129DAF8000020F4704078
:10211000CAF80000DAF8000040F44050CAF80000A5
:102120000420C9F80460C9F8006005F077FA4FF0A0
:10213000000B0420C9F804B005F070FA7F00C9F85C
:1021400000B0F8B2FFF7BAFBFFF77EFCD0B1DAF8C7
:10215000000020F47040CAF80000DAF8000040F4F3
:102160004050CAF800000420C9F800B0C9F804B013
:1021700005F054FA0420C9F80060C9F8046005F0BD
:102180004DFA51E04046FFF799FBFFF75DFCDAF8A6
:10219000000020F47040CAF80000DAF8000040F4B3
:1021A0004050CAF800000420C9F80460C9F8006073
:1021B00005F034FA0420C9F804B005F02FFA47F00E
:1021C0000100C9F800B0C0B2FFF778FBFFF73CFC94
:1021D00005E000BFFFF7AAFA04F8010B013DE8B2E1
:1021E000012803D020B10120F4E700BF0020F1E76F
:1021F000DAF80000002620F47040CAF80000DAF88F
:10220000000040F44050CAF800000420C9F8006003
:10221000C9F8046005F002FA0120C9F80000C9F805
:102220000400042005F0FAF9304601B0BDE8F08F53
:1022300041F2240CC4F2020C5CF8080C40F080500F
:102240004CF8080C5CF8080C40F000604CF8080CE6
:10225000DCF8000040F00100CCF80000DCF80000E1
:1022600010F0020F0ED1DCF8000010F0020F09D1BF
:10227000DCF8000010F0020F04D1DCF8000010F0D0
:10228000020FEBD02DE9F04F42F6040943F28038FB
:10229000C4F20009C0F2E118B9F81400B9F8181036
:1022A00041EA004044F20751CCF22E21A0FB01216B
:1022B00040F2E012C2F200021388B3EB114F40F07B
:1022C0001E814FF4884039F8000047F20001C4F243
:1022D0000001086840F4807008605CF8040C40F469
:1022E00080304CF8040C5CF8040C20F480304CF87E
:1022F000040CDCF8000040F00100CCF8000000BF46
:10230000DCF8000010F0020F0ED1DCF8000010F035
:10231000020F09D1DCF8000010F0020F04D1DCF844
:10232000000010F0020FEBD0DCF8000040F08070ED
:10233000CCF800005CF8040C40F400704CF8040C7D
:102340005CF8040C40F400404CF8040CB9F80000B0
:1023500010F0200F0ED1B9F8000010F0200F09D1B5
:10236000B9F8000010F0200F04D1B9F8000010F007
:10237000200FEBD0B9F8000010F0080F0ED1B9F81B
:10238000000010F0080F09D1B9F8000010F0080F94
:1023900004D1B9F8000010F0080FEBD0B9F8000034
:1023A00010F0200F0ED1B9F8000010F0200F09D165
:1023B000B9F8000010F0200F04D1B9F8000010F0B7
:1023C000200FEBD0B9F8000048F21F5A48F2005332
:1023D000002140F2B4764FF0640B4FF4C87200272E
:1023E000C5F2EB1AC0F2E21340F01000A9F80000A9
:1023F00047F6FF70A9F80410A9F8080040F2B4707D
:10240000A0FB0A544744043065094744E40905FB2E
:102410001B6507EB030E04FB12648D42754608BF73
:1024200007EB08058C42A1F1040108BF754605EBD6
:10243000080711F13405E3D15CF8080C40F0805036
:102440004CF8080C5CF8080C40F000604CF8080CE4
:1024500047F20000C4F200000146006840F48070BA
:102460000860B9F8000040F01000A9F8000046F23A
:102470007A10C0F2DC103844A9F81800000CA9F852
:102480001400B9F8000020F01000A9F8000000BF07
:10249000B9F8000010F0200F0ED1B9F8000010F0CC
:1024A000200F09D1B9F8000010F0200F04D1B9F8BD
:1024B000000010F0200FEBD0B9F8000020F0100061
:1024C000A9F80000B9F8000010F0200F0ED1B9F8FB
:1024D000000010F0200F09D1B9F8000010F0200F13
:1024E00004D1B9F8000010F0200FEBD04FF4884071
:1024F00045F2500129F800100020BDE8F08F0B0CC8
:10250000A8F10101884213805CD948F21F5E4FF6A2
:10251000926640F2B27164244FF4C875C5F2EB1EA6
:10252000CFF6FF7611F0030F0AD188B2A0FB0E722E
:10253000D70907FB15075FB1520902FB140038B930
:102540006FF4B67003440131B3F5B67FEAD803E007
:10255000B3F5B77F3046F5D21C2B37D348F21F5264
:1025600088B2642641F6AE3401F003050021C5F2BD
:10257000EB12C0F60104A0FB02277A09FF0902FB57
:1025800016024FF4C87607FB1600002AB0FA80F056
:1025900018BF0122400942EA000600BF88B24DB9C7
:1025A000421EB2FA82F25209324003D01D2B0FD3E1
:1025B0001D3B03E0205C83420BD31B1A01311B2B14
:1025C000ECD806E040F2B2711C2BC7D2002100E02B
:1025D00001214FF48840DAB239F80000FF2A3FF4B5
:1025E00074AEC9B2FF293FF470AE45F25001884283
:1025F0007FF46BAE0020BDE8F08F000082B041F2A6
:1026000004000022C4F20200CFF6FF0250F8041CBE
:1026100041F0010140F8041C016811404FF6FF72BF
:102620000160CFF6F66250F8041C114040F8041C1B
:1026300050F8041C21F4802140F8041C016821F4A6
:10264000FE0101604FF41F014160002101910091E2
:1026500050F8041C41F4803140F8041C50F8041C6C
:1026600001F400310091019901310191009919B9EA
:102670000199B1F5A06FF1D150F8041C11F4003F9D
:102680000CBF0021012100910099012958D1D0F8F7
:10269000FC1F41F01001C0F8FC1FD0F8FC1F21F016
:1026A0000301C0F8FC1FD0F8FC1F41F00201C0F884
:1026B000FC1F0168016001680160016841F48061EC
:1026C0000160016821F47C110160016841F4E811A6
:1026D000016050F8041C41F0807140F8041C00BFF8
:1026E00050F8041C11F0007F0ED150F8041C11F0BA
:1026F000007F09D150F8041C11F0007F04D150F87C
:10270000041C11F0007FEBD0016821F0030101608F
:10271000016841F002010160016801F00C01082923
:102720000ED0016801F00C01082909D0016801F000
:102730000C01082904D0016801F00C010829EBD133
:102740004EF608504FF00061CEF20000016002B07A
:10275000704700001020C4F20000018811F0010F42
:1027600006D040F28811C2F200010A8801320A80C4
:1027700000210180BFF34F8F7047000040F21040EE
:10278000C4F200000188018821F001010180704736
:1027900040F61000C4F200000188018821F0010118
:1027A000018070472DE9F04F81B042F600460121CB
:1027B000C4F2010606F50065284600F0EDFB01288D
:1027C00040F09D832846012100F0B0FB04F050FA50
:1027D000002800F0948340F23800C2F20000007834
:1027E000FEF724FD042002F0ABFF40F2A40A4042B1
:1027F000C2F2000ACAF80000032002F0A1FF40F272
:10280000A80B4042C2F2000BCBF80000322003F0CC
:1028100033FA012816D140F230110020C2F2000133
:10282000086040F28401C2F200010A78002A00F038
:10283000A58040F2240200230870C2F20002C4F214
:10284000A013136040F20400C2F2000000780028D8
:102850000CBF6420002004F041FE40F29800C2F258
:102860000000017829B140F228000022C2F20000E5
:10287000027040F22000C2F20000026840F29C00A8
:10288000C2F20000036893421CD171B340F21111EF
:10289000C2F200010978E1B940F28E01C2F20001F2
:1028A0000978002900F02E8340F22801002201233C
:1028B000C2F2000102600A7040F21011C2F200017F
:1028C0000B7012E089B140F21110C2F200000078E2
:1028D00058B140F210100121C2F20000017040F224
:1028E00028000021C2F20000017040F2F400C2F2A0
:1028F0000000017889B140F2F00140F21803C2F201
:102900000003C2F200010A681B689A4203DD00223C
:1029100002700A6001E0501C086040F21010C2F220
:1029200000000178002963D040F22011C2F20001BA
:102930000A680132B42A0A605AD10022027040F2B9
:1029400028000A6040F22401C2F20000C2F2000135
:10295000027040F211100A60C2F200000078E0B18B
:1029600040F22C10C2F20000006801286AD140F247
:102970003A100121C2F20000017039E040F29C01DE
:10298000C2F20001086040F20401C2F200010878BE
:10299000B0FA80F04009087059E740F28E00C2F2A8
:1029A0000000007820B340F2C400C2F200000068CA
:1029B0000228DCD001281BD140F239100021C2F2DC
:1029C0000000017040F2B8000121C2F20000017065
:1029D00040F24C100021C2F20000C4F2B4210068A1
:1029E000FDF700FC40F22411C2F20001086022E071
:1029F00040F23910C2F200000178F1B300210170F9
:102A000040F2B8000121C2F20000017040F24C1007
:102A10000021C2F20000C4F2B4210068FDF7E2FB1D
:102A200040F22411C2F20001086040F21110C2F21B
:102A30000000007808BB40F22C100121C2F2000017
:102A400001601AE040F239100021C2F2000001706A
:102A500040F2B8000121C2F20000017040F24C10B7
:102A60000021C2F20000C4F2B4210068FDF7BAFBF5
:102A700040F22411C2F20001086040F23A10C2F2A2
:102A80000000017811B30021017040F2B90001216A
:102A9000C2F20000017040F24C100021C2F20000AE
:102AA000CCF2B4210068FDF79DFB40F22411C2F284
:102AB0000001086040F21110C2F20000007828B94D
:102AC00040F22C100221C2F20000016040F23810E6
:102AD00040F2B01848F29017C2F20000C4F2222867
:102AE000C4F22227017889B340F28001C2F20001CA
:102AF0000A680132322A0A6028D140F224020023F7
:102B0000C2F20002037040F2B8000B6000211360B3
:102B1000C2F200000122027040F24C10C2F200002A
:102B200005682846FDF7BCFD002100282846CCF2A8
:102B300034311CBF0021C4F23431FDF753FB014690
:102B400040F22410C2F20000016017E040F2B80029
:102B5000C2F200000078012806D040F2B900C2F2AB
:102B600000000078012846D140F22410C2F2000093
:102B7000016840F24C10C2F2000005682846FDF7DB
:102B800083FBFDF727FE002848BF40420E2832DCB9
:102B900040F2B900002401250021C2F200000470B7
:102BA00040F2B800C2F20000047040F23010C2F2ED
:102BB000000004603046FD61BC6100F04DFC304611
:102BC00000213D60C8F8004000F048FC40F22800B9
:102BD0000021C2F20000C4F2A011057040F22400EE
:102BE000C2F20000016040F28401C2F200010978E3
:102BF000002918BF0460DBF80010DAF8000003F0C9
:102C0000DBFFDBF80010DAF8000004F04BF840F2CC
:102C10004014C2F20004206040F2C000C2F2000082
:102C2000006802F0BBFB40F21C15C2F200052860F0
:102C300040F23010C2F20000006804F06BFC40F279
:102C400034112B6840F2E80640F2EC07C2F20001B2
:102C5000C2F20006C2F20007086021680A18081ACA
:102C6000D21A18443260386003F0E8FD4EF20C5579
:102C7000D6F8009040F24812009041F6F42441F654
:102C8000F4280146CFF6FF75C2F2000240F27C0143
:102C9000A945106040F2E212C2F20001D8BFA94675
:102CA000C2F20002A145B8BFC8463868C6F8008025
:102CB000A842C8BF0546A542B8BF2C461088DBF81D
:102CC0000030DAF80060D1F800B03C60022851D042
:102CD00040F278010128C2F20001D1F800A01AD018
:102CE000002868D1002E3046194648BF7042002B9C
:102CF00048BF594208441E2857DA40F2E410C2F295
:102D0000000001880131018089B20B2953D30021D1
:102D100001800120108040F2E6101F46C2F2000040
:102D200001880131018089B2C92922BF00211180A7
:102D3000018058460021C4F2B011FDF7BFFC002805
:102D40003B4638D142F200015046C4F2CB61FDF758
:102D500099FC3B4678BB00215846CCF29011FDF718
:102D600091FC40F2E2123B460028C2F2000222D15E
:102D70000220108040F2E810C2F200000188013108
:102D8000018089B2C92922BF0021118001809819D0
:102D900048BF404247280EDB40F204000127C2F240
:102DA00000000770002010800BE040F2E4100021CA
:102DB000C2F20000018040F20400C2F20000077875
:102DC000DFB3B24640F2EC16C2F200063078C0B96A
:102DD00058464FF041411E46FDF754FC70BB0021A0
:102DE0005846C4F24011FDF74DFC002804BF33469D
:102DF00056EA0A0022D140F2EC160120C2F2000687
:102E0000307040F2F010C2F2000001684A1C322912
:102E10000260A2BF002131700160AAF104012329E0
:102E20000CD8191F232909D80027076040F2040095
:102E30003770C2F20000077000E0002700215846FA
:102E4000CCF22021FDF72CFC00284AD10021584665
:102E5000C4F22021FDF740FC002842D1009940F245
:102E6000924081423DDB012F3BD048F29011B9F1F5
:102E7000010F4FF0000042F600474FF00006B8BFC8
:102E80000120C4F22221B9F1000FC4F20107C86188
:102E90004FF000008946C8BF0120B8F1000F8861DB
:102EA00048BFC8F1000838461FFA88F100F0D4FA8C
:102EB000012D4FF00000B8BF0120002DC9F800001F
:102EC00040F2B010C8BF0126002CC4F222200660D8
:102ED00048BF64423846A1B201B0BDE8F04F00F0EF
:102EE000BDBA48F290110020C4F222210A460860BF
:102EF00040F2B011C4F222210860D061906101B0AB
:102F0000BDE8F08F40F204000121C2F20000EBE4C2
:102F10000288002942F0800308BF22F0800303806A
:102F200070470000C943018270470000C943018215
:102F3000704700000288002942F0010308BF22F018
:102F40000103038070470000B0F8442000291346B5
:102F50006FF3DF3318BF42F40043A0F844307047EA
:102F600080B5B0F808C02CF0070C41EA0C01B0F8AD
:102F700018C0B0F820E001814FF6FC410CEA010CCA
:102F800040F2011141EA0C01018342EA03112EF0E3
:102F900022021143018480BD008A084018BF01202D
:102FA0007047000070B50B88042B2AD0002B56D137
:102FB000B1F802C00A898B88068C40F6FF354FF6BF
:102FC000FC74C4F2000526F0010643EA021302462F
:102FD000A842068432F8186FB0F820E026F0F30615
:102FE00043EA06036DDCB0F1804F7DD040F200452E
:102FF000C4F20005A84277D040F60005C4F20005EF
:103000006FE00E894B888A88058C40F6FF443603B2
:1030100025F0100546EA02260584024632F8185FBC
:10302000B0F820E0254046EA050C40F6FF356FF089
:103030000306C4F20005A6F1AD04A84262DCB0F1BB
:10304000804F71D040F20045C4F20005A8426BD019
:1030500040F60005C4F20005A84265D068E00A8980
:103060008C884E88058C082B71D125F480730384DD
:1030700044EA0213024632F81C5FB0F820E025F063
:10308000F30543EA050C6FF4405303F5145440F67E
:10309000FF33C4F20003984200F38180B0F1804F07
:1030A00000F08F8040F20043C4F20003984200F029
:1030B000888040F60003C4F20003984200F081804B
:1030C00084E040F60045C4F20005A8420CD042F668
:1030D0000045C4F20105A84206D043F20045C4F2FF
:1030E0000105A84218BF083C03830EEA040343EA23
:1030F0000C0343F001030384C988038B23F00C0302
:10310000038394E040F60045C4F20005A8420BD0CA
:1031100043F20045C4F20105A84205D042F600453D
:10312000C4F20105A84203D14FF6FC741B012D3CEB
:103130000EEA0406A0F818C0334343F010030384DA
:10314000C988038B23F44063090203836FE025F4ED
:1031500080531203038442EA0423024640F6FF44EC
:1031600032F81C5FB0F820C0254046F6FF5443EA11
:10317000050E40F6FF33C4F20003984234DCB0F190
:10318000804F43D040F20043C4F2000398423DD048
:1031900040F60003C4F20003984237D039E040F60D
:1031A0000043C4F2000398420BD043F20043C4F240
:1031B0000103984205D042F60043C4F2010398424D
:1031C00004D14CF6FF73360203F534540EEA0403BF
:1031D000A0F81CC0334343F480730384C988838BF5
:1031E00023F00C03838322E040F60043C4F2000383
:1031F00098420BD043F20043C4F20103984205D039
:1032000042F60043C4F20103984202D136034CF661
:10321000FF740CEA0403A0F81CE0334343F480532A
:103220000384C988838B23F4406309028383108855
:103230000843108070BD000000210122016042603F
:1032400001817047002A82890CBF22EA01011143E3
:103250008181704710B5028C22F001020284048C37
:10326000B0F804E0038B0A8823F0730343EA020CEE
:103270000B8924F002021A434B881A43A0F18043C1
:10328000A3F596334FEAB323072B14D8012404FA8D
:1032900003F313F0E50F0ED08C892EF4407322F067
:1032A0000C022343CC8943EA040E4B8923F0040328
:1032B0001A438B881A43A0F804E0A0F818C0C98804
:1032C0008186028410BD0000028B22F008021143A7
:1032D0000183704710B5028C22F010020284048C26
:1032E000B0F804E0038B0A8823F4E64343EA022C97
:1032F0000B8924F0200242EA03124B8842EA0312AF
:1033000043F20043C4F20103984205D042F6004361
:10331000C4F20103984212D18B892EF4406422F04A
:10332000C00244EA8303CC8943EA840E4B896FF0E0
:103330004F0404EA03131A438B8842EA0312A0F8ED
:1033400004E0A0F818C0C9880187028410BD0000FD
:10335000028B22F4006242EA0121018370470000DF
:1033600010B5028C22F480720284048CB0F804E060
:10337000838B0A8823F0730343EA020C0B8924F43D
:10338000007242EA03224B8842EA032243F20043DE
:10339000C4F20103984205D042F60043C4F201038F
:1033A000984212D18B892EF4405422F4406244EAB0
:1033B0000313CC8943EA041E4B8940F2FF441B02ED
:1033C000A3431A438B8842EA0322A0F804E0A0F842
:1033D0001CC0C9888187028410BD0000828B22F046
:1033E000080211438183704710B5028C22F4805289
:1033F0000284048CB0F804E0828B0B8822F4E6424D
:1034000042EA032C0B8924F4005242EA03324B882F
:1034100042EA033343F20042C4F20102904205D073
:1034200042F60042C4F20102904204D18A892EF48D
:10343000804444EA821EA0F804E0A0F81CC0C988B9
:10344000A0F84010038410BD828B22F4006242EA8F
:10345000012181837047000081877047A0F84010E8
:10346000704700008184704740F6FF33B0F800C019
:10347000C4F2000398420FDCB0F1804F1ED040F23E
:103480000043C4F20003984218D040F60003C4F28F
:103490000003984212D016E040F60043C4F2000345
:1034A00098420BD043F20043C4F20103984205D086
:1034B00042F60043C4F20103984204D14B882CF039
:1034C000700243EA020C41F2004240F48063C4F20D
:1034D0000002934204D0CB882CF4407243EA020CE1
:1034E000A0F800C08A8882850A880285A0F18042FF
:1034F000A2F596324FEAB222072A07D8012303FA2F
:1035000002F212F0E50F1CBF097A018601218182C7
:10351000704700004FF6FF714160002101600172A9
:103520007047000070B588B043F6000440F22551A2
:10353000C4F20104204600F0CBFA002849D020460E
:1035400040F2255100F0B2FA204600F051FBC4B21F
:1035500003AD55A12846224606F09EFC0026102009
:10356000B0212A464FF6FF73CDE900600020029695
:1035700002F060FB40F29710C2F2000001780329CC
:103580003DD8DFE801F00228134D2C2C37D1012162
:10359000017040F29510C2F2000001784A1C0270DE
:1035A00040F298102C22C2F2000024E040F2951262
:1035B0005B2CC2F20002137803F10101117040F29A
:1035C0009812C2F2000222F813404FD0CBB20A2B5D
:1035D0004CD208B070BD122C11D10221017040F202
:1035E0009510C2F2000001784A1C027040F2981057
:1035F0001222C2F2000020F8112008B070BD40F283
:103600009511067040F29810C2F20001C2F200005B
:103610000E70C0E90066C0E90266066108B070BDC0
:1036200040F2951140F29812C2F20001C2F200027B
:103630000B7802EB430333F8023C5B2B2AD140F2B8
:103640009612C2F200021378012B09D140F26413E2
:1036500040F2C406C2F20003C2F200061B783360D7
:1036600000230B701370037008B070BD40F2961306
:103670000126C2F200031E7003230370C8B240F299
:10368000641102EB4000C2F2000110F8040C087053
:1036900008B070BD00230B700370C2E90033C2E9AB
:1036A0000233136108B070BD256400002DE9F043BA
:1036B00081B044F2004440F22551C4F20004204697
:1036C00000F006FA00284AD0204640F2255100F0CA
:1036D000EDF9204600F08CFA40F2AE16C2F2000678
:1036E000317803292BD8DFE801F002143D81C0B204
:1036F0002C2824D10120307040F2AC10C2F200001E
:1037000001784A1C027040F2B0102C22C2F2000074
:1037100010E0C0B2122812D10220307040F2AC107A
:10372000C2F2000001784A1C027040F2B01012226E
:10373000C2F2000020F8112001B0BDE8F08340F291
:10374000AC100021C2F200003170017040F2B010E4
:10375000C2F20000C0E90011C0E90211016101B02C
:10376000BDE8F08340F2AC12C2F200021378591C9B
:103770001170C2B240F2B010C2F200005B2A20F811
:10378000132002D0CAB20A2AE9D340F2AD12C9B25C
:103790000123C2F2000200EB41001370032210F873
:1037A0000C1C327040F2A102C2F20002117040F211
:1037B000A20210F80A1CC2F20002117040F2A0022C
:1037C00010F8081CC2F20002117040F28C0210F8CE
:1037D000061C10F8040CC2F20002117040F28D01B8
:1037E000C2F20001087001B0BDE8F08340F2AC19EC
:1037F00040F2B010C2F20009C2F2000099F80010C5
:1038000000EB410131F8021C5B294BD140F2AD18AD
:10381000C2F2000898F8000001287CD140F2A00014
:10382000C2F20000077840F2A100C2F20000047862
:103830006042FCF7A3FF05462046FCF7A8FF40F2D4
:103840003014002F08BF2846C2F200042060FCF7A5
:10385000C1FF03F023FAC928A4BF0020206040F272
:103860008D00C2F200000078411E032926D240F2EA
:10387000F40040F20402C2F20002C2F20000017839
:103880001278114347D10121017040F29800C2F231
:103890000000017040F29C00C2F20000016801319A
:1038A000016038E0002189F800103170C0E9001192
:1038B000C0E90211016101B0BDE8F08328B304281A
:1038C00029D140F28401C2F20001087818BB40F20D
:1038D00028020020C2F200022060107001220A704B
:1038E00040F23811C2F200010A7040F21111C2F226
:1038F00000010A7040F28801C2F200010A68013238
:10390000022A0A6008BF086005E040F29800002122
:10391000C2F200000170002089F8000088F8000061
:10392000307001B0BDE8F083F0B581B044F600041A
:1039300040F22551C4F20004204600F0C9F80028E6
:1039400049D0204640F2255100F0B0F8204600F062
:103950004FF940F2CA14C2F20004217803292AD890
:10396000DFE801F002143B62C0B22C2823D1012011
:10397000207040F2C810C2F2000001784A1C0270A8
:1039800040F2CC102C22C2F2000010E0C0B212288B
:1039900011D10220207040F2C810C2F2000001785C
:1039A0004A1C027040F2CC101222C2F2000020F831
:1039B000112001B0F0BD40F2C8100021C2F2000099
:1039C0002170017040F2CC10C2F20000C0E9001179
:1039D000C0E90211016101B0F0BD40F2C812C2F2AB
:1039E00000021378591C1170C2B240F2CC10C2F21E
:1039F00000005B2A20F8132002D0CAB20A2AEAD3B8
:103A0000C9B240F2C912012300EB410040F2651136
:103A1000C2F2000210F8040C13700322C2F200017B
:103A20002270087001B0F0BD40F2C81540F2CC1011
:103A3000C2F20005C2F20000297800EB410131F822
:103A4000021C5B2927D140F2C916C2F20006307869
:103A500001281AD140F26517C2F200073878C11E5A
:103A6000062908D3013801280FD840F28E00012121
:103A7000C2F2000001704FF4E13002F0A7F940F209
:103A8000C4013878C2F2000108600020287030704C
:103A9000207001B0F0BD002129702170C0E9001133
:103AA000C0E90211016101B0F0BD0000090A012264
:103AB00002FA01F1C94301807047000082890029A0
:103AC00042F4005308BF22F4005383817047000082
:103AD00001F01F02012303FA02F2C1F34213022B89
:103AE00006D0012B14BF00F1140300F10C0301E018
:103AF00000F110031B88090A1A404FF0010318BF98
:103B00000122008803FA01F1084018BF012010408B
:103B10007047000001F01F0C012303FA0CFCC1F3F5
:103B200042131421022B08BF1021012B08BF0C21C6
:103B3000002A42580CBF22EA0C0242EA0C02425010
:103B40007047000070B586B00446008A0D46C988EB
:103B500001AE20F4405008434EF6F3112082A089B4
:103B60000840A98808432989084369890843A08136
:103B7000A08AA98920F440700843A0823046FEF74D
:103B80005BFA43F6000106F108000222C4F20101CB
:103B90008C424FF0190108BF06F10C0004260068A2
:103BA0004843A189A2EBD1312A6802FA01F1B0FBA6
:103BB000F1F048F21F51C5F2EB11A0FB01235A09A5
:103BC0006FF0630302FB0300A389A6EBD336B0407A
:103BD0003230A0FB0101072040EA133080F00800DA
:103BE00000EA511040EA0210208106B070BD0000CA
:103BF00080886FF35F207047FEE70000B0B50C4689
:103C00000546FDF7E3FEFDF76FFDD220FDF756FEFA
:103C1000FDF71AFF18B1FDF7F7FE0120B0BD2846E9
:103C2000FDF74CFEFDF710FF2046FDF747FEFDF7C0
:103C30000BFF0446002818BF0124FDF7E5FE2046CF
:103C4000B0BD00002DE9F04F81B040F6044A0746B0
:103C500048F2A81901241D4616468846C4F2010AF6
:103C6000C4F22129DAF8000020F47040CAF80000FC
:103C7000DAF8000040F44050CAF800000420C9F807
:103C80000440C9F8004003F0C9FC4FF0000B0420C9
:103C9000C9F804B003F0C2FC7800C9F800B0C0B2A3
:103CA000FDF70CFEFDF7D0FED0B1DAF8000020F4ED
:103CB0007040CAF80000DAF8000040F44050CAF83A
:103CC00000000420C9F800B0C9F804B003F0A6FC55
:103CD0000420C9F80040C9F8044003F09FFC49E003
:103CE0004046FDF7EBFDFDF7AFFE56B1002400BFE7
:103CF000285DFDF7E3FDFDF7A7FEF8B90134B442F6
:103D0000F6D3DAF80000002420F47040CAF800006E
:103D1000DAF8000040F44050CAF800000420C9F866
:103D20000040C9F8044003F079FC0120C9F8000004
:103D3000C9F80400042003F071FC1BE0DAF800006D
:103D400020F47040CAF80000DAF8000040F4405057
:103D5000CAF800000020C9F80000C9F804000420D7
:103D600003F05CFC01240420C9F80040C9F80440B9
:103D700003F054FC204601B0BDE8F08F2DE9F04F70
:103D800093B03A20ADF84A0006A8FDF783FB9DF8F2
:103D90001F004BF21039BDF818704FF0000842F2C6
:103DA00010754FF0000BC0F6000905909DF81A0041
:103DB00001909DF81B0002909DF81D0003909DF856
:103DC0001E00049048E008EB48016920362300EB10
:103DD00041003731490080B28AB22B2102F066F9E6
:103DE000002400BF19F8046016F0010F0CBF4FF655
:103DF000FF7047F60F0001F045FBB00754BF4FF6C8
:103E0000FF7047F60F0001F03DFB700754BF4FF6FF
:103E1000FF7047F60F0001F035FB300754BF4FF637
:103E2000FF7047F60F0001F02DFBF00654BF4FF670
:103E3000FF7047F60F0001F025FBB00654BF4FF6A8
:103E4000FF7047F60F0001F01DFB01340C2CC9D1A7
:103E50004FF0000B92E000BF5FFA88F0032801D119
:103E6000012025E0C8F10202C8F10300D2B200F03F
:103E70000301032A02D2012041B919E0421A0120AC
:103E8000043A684312F0FF0FFAD189B1012903D136
:103E900000EB800040000BE04FF47A7202294FF0F3
:103EA000640100FB02F208BF00FB01F2104600BFF4
:103EB0004CF6CD41B7FBF0F0B8F1020FCCF6CC4197
:103EC000A0FB01124FEAD20101EB8101A0EB4104FA
:103ED00007D85FEA0B6004D1002C3FF474AF4FF0B9
:103EE000010B08EB48016920362300EB4100373114
:103EF000490080B28AB22B2102F0D8F844F01000B9
:103F00004FF0000A00EB400009EB800414F80A604F
:103F100016F0010F0CBF4FF6FF7047F60F0001F0CF
:103F2000B1FAB00754BF4FF6FF7047F60F0001F02B
:103F3000A9FA700754BF4FF6FF7047F60F0001F063
:103F4000A1FA300754BF4FF6FF7047F60F0001F09B
:103F500099FAF00654BF4FF6FF7047F60F0001F0D4
:103F600091FAB00654BF4FF6FF7047F60F0001F00C
:103F700089FA0AF1010ABAF10C0FC7D108F1010858
:103F8000B8F1040F7FF468AF81253A240DF14A0897
:103F9000691DA8B236238AB22B2102F087F8A4F15A
:103FA00020000026C0B200EB400009EB800400BFF7
:103FB000A75D17F0010F0CBF4FF6FF7047F60F001B
:103FC00001F060FAB80754BF4FF6FF7047F60F00D4
:103FD00001F058FA780754BF4FF6FF7047F60F000C
:103FE00001F050FA380754BF4FF6FF7047F60F0044
:103FF00001F048FAF80654BF4FF6FF7047F60F007D
:1040000001F040FAB80654BF4FF6FF7047F60F00B4
:1040100001F038FA01360C2ECAD118F8014F0635D6
:10402000002CB5D100274FF0870B42F21078002505
:1040300042E000BF0CB101257FE087202B218C22BC
:10404000362302F033F8002419F8045015F0010F5C
:104050000CBF4FF6FF7047F60F0001F013FAA807E8
:1040600054BF4FF6FF7047F60F0001F00BFA6807D8
:1040700054BF4FF6FF7047F60F0001F003FA280710
:1040800054BF4FF6FF7047F60F0001F0FBF9E8064A
:1040900054BF4FF6FF7047F60F0001F0F3F9A80682
:1040A00054BF4FF6FF7047F60F0001F0EBF90134F3
:1040B0000C2CC9D100258EE0F8B2012802D10120D4
:1040C00026E000BF7A42C7F10100D2B200F003013E
:1040D000032A03D2012051B91AE000BF421A01207D
:1040E000043A00FB08F012F0FF0FF9D181B1012969
:1040F00003D100EB800040000AE04FF47A720229FD
:104100004FF0640100FB02F208BF00FB01F2104611
:104110000199002FB1FBF0F04CF6CD41CCF6CC412B
:10412000A0FB01124FEAD20101EB8101A0EB410497
:1041300008BF5FEA05603FF47DAF07EB4701362318
:104140000BEB41004631490080B28AB22B2101F0CD
:10415000ADFF44F01000002600EB400009EB8004A6
:1041600014F806A01AF0010F0CBF4FF6FF7047F6C7
:104170000F0001F087F95FEA8A7054BF4FF6FF70B5
:1041800047F60F0001F07EF95FEA4A7054BF4FF620
:10419000FF7047F60F0001F075F95FEA0A7054BF2F
:1041A0004FF6FF7047F60F0001F06CF95FEACA6046
:1041B00054BF4FF6FF7047F60F0001F063F95FEA56
:1041C0008A6054BF4FF6FF7047F60F0001F05AF9AE
:1041D00001360C2EC4D10137022F7FF46DAF93242A
:1041E0003A250DF14A0800BF611DA0B236238AB2FC
:1041F0002B2101F05BFFA5F120000026C0B200EBEF
:10420000400009EB800700BFBD5D15F0010F0CBF3A
:104210004FF6FF7047F60F0001F034F9A80754BFBE
:104220004FF6FF7047F60F0001F02CF9680754BFF6
:104230004FF6FF7047F60F0001F024F9280754BF2E
:104240004FF6FF7047F60F0001F01CF9E80654BF67
:104250004FF6FF7047F60F0001F014F9A80654BF9F
:104260004FF6FF7047F60F0001F00CF901360C2EE7
:10427000CAD118F8015F0634002DB5D100244FF0E3
:10428000990B42F210774FF0000A45E015B14FF05C
:10429000010A82E099202B219E22362301F006FF9D
:1042A000002500BF19F8056016F0010F0CBF4FF68E
:1042B000FF7047F60F0001F0E5F8B00754BF4FF666
:1042C000FF7047F60F0001F0DDF8700754BF4FF69E
:1042D000FF7047F60F0001F0D5F8300754BF4FF6D6
:1042E000FF7047F60F0001F0CDF8F00654BF4FF60F
:1042F000FF7047F60F0001F0C5F8B00654BF4FF647
:10430000FF7047F60F0001F0BDF801350C2DC9D143
:104310004FF0000A8EE000BFE0B2012802D1012078
:1043200026E000BF6242C4F10100D2B200F00301F6
:10433000032A03D2012049B91AE000BF421A012022
:10434000043A784312F0FF0FFAD189B1012903D161
:1043500000EB800040000BE04FF47A7202294FF02E
:10436000640100FB02F208BF00FB01F2104600BF2F
:104370000299002CB1FBF0F04CF6CD41CCF6CC41CB
:10438000A0FB01124FEAD20101EB8101A0EB410534
:1043900008BF5FEA0A603FF479AF04EB44013623BB
:1043A0000BEB41004F31490080B28AB22B2101F062
:1043B0007DFE45F010004FF0000800EB400009EBD7
:1043C000800500BF15F8086016F0010F0CBF4FF60E
:1043D000FF7047F60F0001F055F8B00754BF4FF6D5
:1043E000FF7047F60F0001F04DF8700754BF4FF60D
:1043F000FF7047F60F0001F045F8300754BF4FF645
:10440000FF7047F60F0001F03DF8F00654BF4FF67D
:10441000FF7047F60F0001F035F8B00654BF4FF6B5
:10442000FF7047F60F0001F02DF808F10108B8F110
:104430000C0FC7D10134022C7FF46EAF00244FF073
:10444000AB0B42F210774FF0000A45E015B14FF088
:10445000010A82E0AB202B21B022362301F026FE98
:10446000002500BF19F8056016F0010F0CBF4FF6CC
:10447000FF7047F60F0001F005F8B00754BF4FF684
:10448000FF7047F60F0000F0FDFF700754BF4FF6B6
:10449000FF7047F60F0000F0F5FF300754BF4FF6EE
:1044A000FF7047F60F0000F0EDFFF00654BF4FF627
:1044B000FF7047F60F0000F0E5FFB00654BF4FF65F
:1044C000FF7047F60F0000F0DDFF01350C2DC9D15C
:1044D0004FF0000A8EE000BFE0B2012802D10120B7
:1044E00026E000BF6242C4F10100D2B200F0030135
:1044F000032A03D2012049B91AE000BF421A012061
:10450000043A784312F0FF0FFAD189B1012903D19F
:1045100000EB800040000BE04FF47A7202294FF06C
:10452000640100FB02F208BF00FB01F2104600BF6D
:104530000399002CB1FBF0F04CF6CD41CCF6CC4108
:10454000A0FB01124FEAD20101EB8101A0EB410572
:1045500008BF5FEA0A603FF479AF04EB44013623F9
:104560000BEB41005831490080B28AB22B2101F097
:104570009DFD45F010004FF0000800EB400009EBF6
:10458000800500BF15F8086016F0010F0CBF4FF64C
:10459000FF7047F60F0000F075FFB00754BF4FF6ED
:1045A000FF7047F60F0000F06DFF700754BF4FF625
:1045B000FF7047F60F0000F065FF300754BF4FF65D
:1045C000FF7047F60F0000F05DFFF00654BF4FF696
:1045D000FF7047F60F0000F055FFB00654BF4FF6CE
:1045E000FF7047F60F0000F04DFF08F10108B8F129
:1045F0000C0FC7D10134022C7FF46EAFB7243A25DB
:104600000DF14A08611DA0B236238AB22B2101F0B8
:104610004DFDA5F120000026C0B200EB400009EBE3
:10462000800700BFBD5D15F0010F0CBF4FF6FF7096
:1046300047F60F0000F026FFA80754BF4FF6FF70A3
:1046400047F60F0000F01EFF680754BF4FF6FF70DB
:1046500047F60F0000F016FF280754BF4FF6FF7013
:1046600047F60F0000F00EFFE80654BF4FF6FF704C
:1046700047F60F0000F006FFA80654BF4FF6FF7084
:1046800047F60F0000F0FEFE01360C2ECAD118F8D6
:10469000015F0634002DB5D100244FF0BD0B42F26E
:1046A00010774FF0000A45E015B14FF0010A82E0A3
:1046B000BD202B21C222362301F0F8FC002500BFCB
:1046C00019F8056016F0010F0CBF4FF6FF7047F6A2
:1046D0000F0000F0D7FEB00754BF4FF6FF7047F64B
:1046E0000F0000F0CFFE700754BF4FF6FF7047F683
:1046F0000F0000F0C7FE300754BF4FF6FF7047F6BB
:104700000F0000F0BFFEF00654BF4FF6FF7047F6F3
:104710000F0000F0B7FEB00654BF4FF6FF7047F62B
:104720000F0000F0AFFE01350C2DC9D14FF0000A8B
:104730008EE000BFE0B2012802D1012026E000BFD8
:104740006242C4F10100D2B200F00301032A03D295
:10475000012049B91AE000BF421A0120043A784307
:1047600012F0FF0FFAD189B1012903D100EB8000CB
:1047700040000BE04FF47A7202294FF0640100FB15
:1047800002F208BF00FB01F2104600BF0499002CA2
:10479000B1FBF0F04CF6CD41CCF6CC41A0FB0112C0
:1047A0004FEAD20101EB8101A0EB410508BF5FEAAE
:1047B0000A603FF479AF04EB440136230BEB410070
:1047C0006131490080B28AB22B2101F06FFC45F0C3
:1047D00010004FF0000800EB400009EB800500BF1F
:1047E00015F8086016F0010F0CBF4FF6FF7047F682
:1047F0000F0000F047FEB00754BF4FF6FF7047F6BA
:104800000F0000F03FFE700754BF4FF6FF7047F6F1
:104810000F0000F037FE300754BF4FF6FF7047F629
:104820000F0000F02FFEF00654BF4FF6FF7047F662
:104830000F0000F027FEB00654BF4FF6FF7047F69A
:104840000F0000F01FFE08F10108B8F10C0FC7D1EE
:104850000134022C7FF46EAFC9243A250DF14A08C9
:10486000611DA0B236238AB22B2101F01FFCA5F1F5
:1048700020000026C0B200EB400009EB800700BF1B
:10488000BD5D15F0010F0CBF4FF6FF7047F60F002E
:1048900000F0F8FDA80754BF4FF6FF7047F60F0071
:1048A00000F0F0FD680754BF4FF6FF7047F60F00A9
:1048B00000F0E8FD280754BF4FF6FF7047F60F00E1
:1048C00000F0E0FDE80654BF4FF6FF7047F60F001A
:1048D00000F0D8FDA80654BF4FF6FF7047F60F0052
:1048E00000F0D0FD01360C2ECAD118F8015F063455
:1048F000002DB5D100244FF0CF0B42F210774FF0CE
:10490000000A45E015B14FF0010A82E0CF202B21CB
:10491000D422362301F0CAFB002500BF19F8056038
:1049200016F0010F0CBF4FF6FF7047F60F0000F0B6
:10493000A9FDB00754BF4FF6FF7047F60F0000F017
:10494000A1FD700754BF4FF6FF7047F60F0000F04F
:1049500099FD300754BF4FF6FF7047F60F0000F087
:1049600091FDF00654BF4FF6FF7047F60F0000F0C0
:1049700089FDB00654BF4FF6FF7047F60F0000F0F8
:1049800081FD01350C2DC9D14FF0000A8EE000BF2A
:10499000E0B2012802D1012026E000BF6242C4F14A
:1049A0000100D2B200F00301032A03D2012049B969
:1049B0001AE000BF421A0120043A784312F0FF0FB8
:1049C000FAD189B1012903D100EB800040000BE04E
:1049D0004FF47A7202294FF0640100FB02F208BF23
:1049E00000FB01F2104600BF0599002CB1FBF0F06E
:1049F0004CF6CD41CCF6CC41A0FB01124FEAD201DE
:104A000001EB8101A0EB410508BF5FEA0A603FF4BA
:104A100079AF04EB440136230BEB41006A314900C6
:104A200080B28AB22B2101F041FB45F010004FF01B
:104A3000000800EB400009EB800500BF15F8086096
:104A400016F0010F0CBF4FF6FF7047F60F0000F095
:104A500019FDB00754BF4FF6FF7047F60F0000F086
:104A600011FD700754BF4FF6FF7047F60F0000F0BE
:104A700009FD300754BF4FF6FF7047F60F0000F0F6
:104A800001FDF00654BF4FF6FF7047F60F0000F02F
:104A9000F9FCB00654BF4FF6FF7047F60F0000F068
:104AA000F1FC08F10108B8F10C0FC7D10134022C58
:104AB0007FF46EAF40F2C40041F6D531C2F200007F
:104AC000C0F60101026806A805F0E6F99DF8185045
:104AD000002D57D04BF28478AA240DF11809C0F6A6
:104AE000000800BFE11DA0B25B238AB24C2101F097
:104AF000DDFAA5F120000026C0B208EB001700BFC8
:104B0000BD5D15F0010F0CBF00204FF6FF7000F0E7
:104B1000B9FCA80754BF00204FF6FF7000F0B2FCAC
:104B2000680754BF00204FF6FF7000F0ABFC280769
:104B300054BF00204FF6FF7000F0A4FCE80654BFFD
:104B400000204FF6FF7000F09DFCA80654BF002027
:104B50004FF6FF7000F096FC680654BF00204FF639
:104B6000FF7000F08FFC280654BF00204FF6FF7046
:104B700000F088FC0136102EC2D119F8015F08340C
:104B8000002DAFD140F2980041F6D531C2F20000BD
:104B9000C0F60101027806A805F07EF99DF81850CC
:104BA000002D57D04BF28478AA240DF11809C0F6D5
:104BB000000800BFE11DA0B26B238AB25C2101F0A6
:104BC00075FAA5F120000026C0B208EB001700BF5F
:104BD000BD5D15F0010F0CBF00204FF6FF7000F017
:104BE00051FCA80754BF00204FF6FF7000F04AFCAC
:104BF000680754BF00204FF6FF7000F043FC280701
:104C000054BF00204FF6FF7000F03CFCE80654BF94
:104C100000204FF6FF7000F035FCA80654BF0020BE
:104C20004FF6FF7000F02EFC680654BF00204FF6D0
:104C3000FF7000F027FC280654BF00204FF6FF70DD
:104C400000F020FC0136102EC2D119F8015F0834A3
:104C5000002DAFD140F24C10C2F200000068FBF70B
:104C60001EFE02460B4606A80FF2F86105F014F985
:104C70009DF81850002D57D04BF2847886240DF102
:104C80001809C0F6000800BFE11DA0B27B238AB25C
:104C90006C2101F00BFAA5F120000026C0B208EB50
:104CA000001700BFBD5D15F0010F0CBF00204FF6CF
:104CB000FF7000F0E7FBA80754BF00204FF6FF701D
:104CC00000F0E0FB680754BF00204FF6FF7000F0D3
:104CD000D9FB280754BF00204FF6FF7000F0D2FB2D
:104CE000E80654BF00204FF6FF7000F0CBFBA8068B
:104CF00054BF00204FF6FF7000F0C4FB680654BF9D
:104D000000204FF6FF7000F0BDFB280654BF0020C6
:104D10004FF6FF7000F0B6FB0136102EC2D119F825
:104D2000015F0834002DAFD140F2A40041F6D83124
:104D3000C2F20000C0F60101026806A805F0ACF856
:104D40009DF81850002D57D04BF2847886240DF131
:104D50001809C0F6000800BFE11DA0B28B238AB27B
:104D60007C2101F0A3F9A5F120000026C0B208EBD8
:104D7000001700BFBD5D15F0010F0CBF00204FF6FE
:104D8000FF7000F07FFBA80754BF00204FF6FF70B4
:104D900000F078FB680754BF00204FF6FF7000F06A
:104DA00071FB280754BF00204FF6FF7000F06AFB2C
:104DB000E80654BF00204FF6FF7000F063FBA80622
:104DC00054BF00204FF6FF7000F05CFB680654BF34
:104DD00000204FF6FF7000F055FB280654BF00205E
:104DE0004FF6FF7000F04EFB0136102EC2D119F8BD
:104DF000015F0834002DAFD140F2A80041F6D83150
:104E0000C2F20000C0F60101026806A805F044F8ED
:104E10009DF81850002D57D04BF2847886240DF160
:104E20001809C0F6000800BFE11DA0B29B238AB29A
:104E30008C2101F03BF9A5F120000026C0B208EB5F
:104E4000001700BFBD5D15F0010F0CBF00204FF62D
:104E5000FF7000F017FBA80754BF00204FF6FF704B
:104E600000F010FB680754BF00204FF6FF7000F001
:104E700009FB280754BF00204FF6FF7000F002FB2B
:104E8000E80654BF00204FF6FF7000F0FBFAA806BA
:104E900054BF00204FF6FF7000F0F4FA680654BFCC
:104EA00000204FF6FF7000F0EDFA280654BF0020F6
:104EB0004FF6FF7000F0E6FA0136102EC2D119F855
:104EC000015F0834002DAFD140F24810C2F200005B
:104ED0000068FBF753FC0021C4F2C821FBF70CFA71
:104EE000FBF7DDFC02460B4606A80FF2804104F0FA
:104EF000D3FF9DF81850002D56D04BF284788624AD
:104F00000DF11809C0F60008E11DA0B24B238AB2CA
:104F10003C2101F0CBF8A5F120000026C0B208EB3F
:104F2000001700BFBD5D15F0010F0CBF00204FF64C
:104F3000FF7000F0A7FAA80754BF00204FF6FF70DB
:104F400000F0A0FA680754BF00204FF6FF7000F091
:104F500099FA280754BF00204FF6FF7000F092FA2C
:104F6000E80654BF00204FF6FF7000F08BFAA80649
:104F700054BF00204FF6FF7000F084FA680654BF5B
:104F800000204FF6FF7000F07DFA280654BF002085
:104F90004FF6FF7000F076FA0136102EC2D119F8E4
:104FA000015F0834002DAFD14BF284785624AE2532
:104FB0000DF11809C0F60008ADF81840E91DA8B2B7
:104FC0004B238AB23C2101F071F8A4F120000024A7
:104FD000C0B208EB001700BF3E5D16F0010F0CBF1A
:104FE00000204FF6FF7000F04DFAB00754BF0020CC
:104FF0004FF6FF7000F046FA700754BF00204FF6DE
:10500000FF7000F03FFA300754BF00204FF6FF70EA
:1050100000F038FAF00654BF00204FF6FF7000F0A1
:1050200031FAB00654BF00204FF6FF7000F02AFAA4
:10503000700654BF00204FF6FF7000F023FA3006D0
:1050400054BF00204FF6FF7000F01CFA0134102C02
:10505000C2D119F8014F0835002CAFD140F2A100A0
:10506000C4A1C2F20000027806A804F015FF9DF862
:105070001840002C52D05E250DF11809E91DA8B288
:10508000AB238AB29C2101F011F8A4F12000002486
:10509000C0B208EB001700BF3E5D16F0010F0CBF59
:1050A00000204FF6FF7000F0EDF9B00754BF00206C
:1050B0004FF6FF7000F0E6F9700754BF00204FF67E
:1050C000FF7000F0DFF9300754BF00204FF6FF708B
:1050D00000F0D8F9F00654BF00204FF6FF7000F042
:1050E000D1F9B00654BF00204FF6FF7000F0CAF9A6
:1050F000700654BF00204FF6FF7000F0C3F9300671
:1051000054BF00204FF6FF7000F0BCF90134102CA2
:10511000C2D119F8014F0835002CAFD140F2A000E0
:1051200096A1C2F20000027806A804F0B5FE9DF830
:105130001840002C52D05E250DF11809E91DA8B2C7
:10514000BB238AB2AC2100F0B1FFA4F120000024FF
:10515000C0B208EB001700BF3E5D16F0010F0CBF98
:1051600000204FF6FF7000F08DF9B00754BF00200B
:105170004FF6FF7000F086F9700754BF00204FF61D
:10518000FF7000F07FF9300754BF00204FF6FF702A
:1051900000F078F9F00654BF00204FF6FF7000F0E1
:1051A00071F9B00654BF00204FF6FF7000F06AF9A5
:1051B000700654BF00204FF6FF7000F063F9300610
:1051C00054BF00204FF6FF7000F05CF90134102C42
:1051D000C2D119F8014F0835002CAFD140F284003C
:1051E00068A1C2F20000027806A804F055FE9DF8FE
:1051F0001840002C52D05E250DF11809E91DA8B207
:10520000CB238AB2BC2100F051FFA4F1200000247E
:10521000C0B208EB001700BF3E5D16F0010F0CBFD7
:1052200000204FF6FF7000F02DF9B00754BF0020AA
:105230004FF6FF7000F026F9700754BF00204FF6BC
:10524000FF7000F01FF9300754BF00204FF6FF70C9
:1052500000F018F9F00654BF00204FF6FF7000F080
:1052600011F9B00654BF00204FF6FF7000F00AF9A4
:10527000700654BF00204FF6FF7000F003F93006AF
:1052800054BF00204FF6FF7000F0FCF80134102CE2
:10529000C2D119F8014F0835002CAFD140F28D0072
:1052A0003CA1C2F20000027806A804F0F5FD9DF8CA
:1052B0001840002C52D05E250DF11809E91DA8B246
:1052C000DB238AB2CC2100F0F1FEA4F120000024FF
:1052D000C0B208EB001700BF3E5D16F0010F0CBF17
:1052E00000204FF6FF7000F0CDF8B00754BF00204B
:1052F0004FF6FF7000F0C6F8700754BF00204FF65D
:10530000FF7000F0BFF8300754BF00204FF6FF7069
:1053100000F0B8F8F00654BF00204FF6FF7000F020
:10532000B1F8B00654BF00204FF6FF7000F0AAF8A5
:10533000700654BF00204FF6FF7000F0A3F830064F
:1053400054BF00204FF6FF7000F09CF80134102C81
:10535000C2D119F8014F0835002CAFD113B0BDE808
:10536000F08F00BF25332E316600000025342E3229
:105370006600000063783A256420000063773A25D0
:105380006420000041646472466C61673A256420C1
:105390000000000063693A2564200000F0B581B088
:1053A000044640F21C00C2F20000056840F2B8005A
:1053B000C2F20000007801280ED140F20500C2F2CE
:1053C00000000078FBF7E3F901460020CCF25820FA
:1053D000FAF792FF014616E040F2B900C2F200006F
:1053E000007801280ED140F20500C2F200000078DA
:1053F000FBF7CDF901460020C4F25820FAF77CFFF4
:10540000014600E0002140F2BA0040F21812C2F258
:105410000000C2F2000200781268012840F2BB00CE
:105420001646C2F2000018BF002600780128284660
:1054300008BF1646FAF72EFF0025C4F2C8252946F4
:10544000FAF75AFF074630462146FAF723FF294666
:10545000FAF752FF01463846FAF7C4FEFBF7BAF9ED
:1054600001B0F0BD80B5FDF7C9F802F097F8012052
:10547000FCF736FB4FF44070FCF7A6FDBDE880401A
:1054800002F01CBF10B50446000A00F0AFF8E0B20D
:10549000BDE8104000F0AAB82DE9F04F87B0119E8A
:1054A000074690461C460D46069100EB5600013813
:1054B00082B28819013883B2384600F0F7FD07211F
:1054C0000122300911EA560F18BF02EB1610704383
:1054D0000028049000F08480A6F10C0075083E4678
:1054E0004FF0000BC0F385015FFA85F941EA8011A6
:1054F000A8F12000CBB24BF28471C2B20020C0F6FA
:1055000000010292039301EB021101914CF65471D8
:10551000C0F6000101EB821100220091052B5FD83B
:105520000592DFE803F0030D5D0F5D1902994BF260
:105530001032C0F6000201EB410102EB81010CE0E8
:1055400001990AE002994BF68452C0F6000201EB81
:10555000410102EB011100E0009908444FF00008FE
:1055600090F800A00120129900FA08F000EA0A0061
:1055700081B148B10699B0B2024689B20B4600F03B
:1055800095FD2046FFF77EFF0136B0B2C01BA84252
:105590000FD115E000280CBF10982046FFF772FFCE
:1055A0000BF1010B5FFA8BF0B0FBF9F101FB190075
:1055B00058B108F10108B8F1080FD3D308E000BFD3
:1055C00006983E460130069002E04FF0000B00BF07
:1055D000059A0499039B013290B281423FF69EAF37
:1055E00007B0BDE8F08F0000AFF30080B0B541F622
:1055F000000405460221C4F201042046FBF712FE16
:1056000020460821FBF70EFE68B2B0F1FF3F04DD33
:1056100020462021FBF706FE03E020462021FBF771
:1056200003FE20460821FBF7FFFD20460821FBF77B
:10563000F9FD680604D420462021FBF7F3FD03E0C2
:1056400020462021FBF7F0FD20460821FBF7ECFD6A
:1056500020460821FBF7E6FDA80604D420462021B9
:10566000FBF7E0FD03E020462021FBF7DDFD2046AF
:105670000821FBF7D9FD20460821FBF7D3FDE806FA
:1056800004D420462021FBF7CDFD03E02046202155
:10569000FBF7CAFD20460821FBF7C6FD204608217E
:1056A000FBF7C0FD280704D420462021FBF7BAFDF4
:1056B00003E020462021FBF7B7FD20460821FBF739
:1056C000B3FD20460821FBF7ADFD680704D4204652
:1056D0002021FBF7A7FD03E020462021FBF7A4FDD6
:1056E00020460821FBF7A0FD20460821FBF79AFD84
:1056F000A80704D420462021FBF794FD03E02046B0
:105700002021FBF791FD20460821FBF78DFD204667
:105710000821FBF787FDE80704D120462021FBF78D
:1057200081FD03E020462021FBF77EFD2046082175
:10573000FBF77AFD20460221BDE8B040FBF774BDBF
:10574000242200210228C4F200020BD0042807D032
:1057500003284FF0000018BF704702F5806201E097
:1057600002F50062B2F900001180704770B58AB08E
:105770004FF4047001210125FCF746FC4FF4004072
:10578000FCF72CFC42F200440026042001A9C4F2DC
:1057900001040396ADF80400A4F5A050FBF79AFBB2
:1057A0002046FBF791FA4FF46020CDE90466069697
:1057B00004A9CDE9070620468DF82450FBF7C6FA68
:1057C00020460121FBF776FA2046FBF71DFB00BFC0
:1057D0002046FBF7B7FA0028FAD12046FBF724FB56
:1057E0002046FBF7A1FA0028FAD10AB070BD0000EC
:1057F00010B584B041F218000124C4F2020001681F
:1058000041F011010160012001F008FF1020012189
:10581000FCF7FAFB4820ADF8044001A903900320EF
:10582000029041F20000C4F20100FBF753FB04B008
:1058300010BD000010B500F0B3F941F600041021CE
:10584000C4F201042046FBF7EDFC642001F0BAFE2F
:1058500020461021FBF7E8FC642001F0B3FE20464F
:105860004021FBF7E1FC642001F0ACFE204604215E
:10587000FBF7D8FC1120FFF7B9FE20460421FBF707
:10588000D3FC782001F09EFE20460421FBF7CAFCE1
:105890003620FFF7ABFE20460421FBF7C5FC0020B5
:1058A000FFF7A4FE20460421FBF7BCFC3A20FFF7DB
:1058B0009DFE20460421FBF7B7FC0520FFF796FE6E
:1058C00020460421FBF7AEFCB220FFF78FFE2046F6
:1058D0000421FBF7A9FC0C20FFF788FE0C20FFF742
:1058E00085FE0020FFF782FE3320FFF77FFE332086
:1058F000FFF77CFE20460421FBF794FCB720FFF75E
:1059000075FE20460421FBF78FFC3520FFF76EFE65
:1059100020460421FBF786FCBB20FFF767FE2046EC
:105920000421FBF781FC3220FFF760FE20460421B2
:10593000FBF778FCC220FFF759FE20460421FBF755
:1059400073FC0120FFF752FE20460421FBF76AFC9E
:10595000C320FFF74BFE20460421FBF765FC152012
:10596000FFF744FE20460421FBF75CFCC420FFF750
:105970003DFE20460421FBF757FC2020FFF736FEB2
:1059800020460421FBF74EFCC620FFF72FFE2046E1
:105990000421FBF749FC0F20FFF728FE20460421D5
:1059A000FBF740FCD020FFF721FE20460421FBF747
:1059B0003BFCA420FFF71AFEA120FFF717FE2046AC
:1059C0000421FBF72FFCE020FFF710FE2046042106
:1059D000FBF72AFCD020FFF709FE0820FFF706FEA0
:1059E0000E20FFF703FE0920FFF700FE0920FFF756
:1059F000FDFD0520FFF7FAFD3120FFF7F7FD33200D
:105A0000FFF7F4FD4820FFF7F1FD1720FFF7EEFD4B
:105A10001420FFF7EBFD1520FFF7E8FD3120FFF71D
:105A2000E5FD3420FFF7E2FD20460421FBF7FAFBF9
:105A3000E120FFF7DBFD20460421FBF7F5FBD0203A
:105A4000FFF7D4FD0820FFF7D1FD0E20FFF7CEFDB4
:105A50000920FFF7CBFD0920FFF7C8FD1520FFF750
:105A6000C5FD3120FFF7C2FD3320FFF7BFFD482001
:105A7000FFF7BCFD1720FFF7B9FD1420FFF7B6FDB7
:105A80001520FFF7B3FD3120FFF7B0FD3420FFF7FD
:105A9000ADFD20460421FBF7C5FB2120FFF7A6FD45
:105AA00020460421FBF7C0FB20460421FBF7BAFB8C
:105AB0002920FFF79BFD20460421BDE81040FBF79D
:105AC000B3BB0000F0B58BB00120012401F0A6FDAE
:105AD00008200121FCF78CFA45200121FCF794FAFB
