:020000040800F2
:10000000880A00204D010008792200088D18000898
:1000100075220008DD0F0008B93D0008000000004F
:100020000000000000000000000000005F01000868
:100030007910000800000000630100086501000855
:1000400067010008670100086701000867010008F0
:1000500067010008670100086701000867010008E0
:1000600067010008670100086701000867010008D0
:1000700067010008670100086701000867010008C0
:1000800067010008670100086701000867010008B0
:1000900067010008670100086701000867010008A0
:1000A0006701000867010008670100086701000890
:1000B000D52D0008FD2D0008112E0008670100084D
:1000C0006701000867010008670100086701000870
:1000D000670100086701000851390008670100083E
:1000E0006701000867010008670100086701000850
:1000F000252E000867010008670100086701000855
:10010000670100086701000867010008670100082F
:10011000670100086701000867010008670100081F
:10012000670100086701000867010008670100080F
:10013000DFF814D000F0CEFD00F06AF80048004768
:10014000B1B1000800F0EEFD880A002006488047A3
:1001500006480047FEE7FEE7FEE7FEE7FEE7FEE7AC
:10016000FEE7FEE7FEE7FEE77D2C00083101000810
:100170002DE9F0410024061B254671F1000605DA41
:1001800001240027D0EB070067EB0101161E73F175
:10019000000605DA0027D2EB0702012567EB03030F
:1001A00000F005FC86460E4617469C46AC4204D03D
:1001B0000025D0EB050E65EB010624B10020D2EB43
:1001C000000760EB030C704631463A466346BDE8D3
:1001D000F081D2B201E000F8012B491EFBD270473A
:1001E0000022F6E710B513460A4604461946FFF703
:1001F000F0FF204610BD30B504460020034600E065
:100200005B1C934203D2E05CCD5C401BF8D030BD58
:1002100070B5054C054D03E0206820448047241D3F
:10022000AC42F9D170BD0000A4460108A8460108FF
:100230000B460146184600F02FBCF0B480EA0102DC
:10024000D40F4200B2EB410F02D2024608461146DB
:100250004A0042D0C30DDDB2C1F3C752AD1A202D02
:1002600035DAC1F3160141F4000204B15242C5F17E
:10027000200602FA06F12A411044B3EBD05F23D0E6
:10028000C4B1012DA0EBC35009DCF0BC4FF000421B
:1002900002EAC352DBB200F5000000F01DBC4000D2
:1002A00000F1807000EBC350A0F1807040EAD17083
:1002B000490009E0490841EAC071A0EBC35000F5CC
:1002C0000000400800EBC350F0BC00F0FCBB6142F2
:1002D000012202EB4101001BF6E7F0BC704781F000
:1002E0000041AAE780F00040A7E780EA010210B5CC
:1002F00002F00043400022D04A001FD0010E01EB63
:100300001261C0F35600C2F3560240F4000042F4FA
:100310000002A0FB022000047F39140400D0401C1E
:1003200050EA124001D44000491EC2B20C0604EB50
:10033000D010401C4008802A02D003E0002010BDED
:1003400020F00100002900DA0020184310BD30B46D
:1003500080EA010202F0004530F0004221F0004046
:1003600013D090B1C30DD40DC2F31601C0F3160023
:10037000E41A41F4000140F400027D34914201D3BB
:10038000641C00E04900002C02DA30BC00207047F9
:100390004FF400000023914201D3891A034340081F
:1003A0004FEA4101F7D151B1914202D14FF00041E2
:1003B00005E002D24FF0010101E06FF0010103EB13
:1003C000C450284430BC00F07EBB2DE9FE4F80466F
:1003D00081EA0300C00F0C46009021F0004123F099
:1003E0000045B8EB0200A94105D24046214690469F
:1003F0001C460B46024623F00040104347D0270D11
:10040000C7F30A00C3F30A510290401A0190402832
:100410006BDAC3F3130040F4801B0098924620B1BE
:100420000023D2EB030A63EB0B0B01985946C0F192
:100430004002504600F0ECFA06460D46504659463A
:10044000019A00F004FB10EB08006141002487EAE8
:10045000115284EAE7731A4340D0009A62B3019ABA
:10046000012A4FEA075215DC001B61EB02014FF035
:10047000004202EA0752CDE90042001C41F580111A
:1004800032462B4600F065FB03B0BDE8F08F4046D6
:100490002146F9E7001B61EB0201001C41F58013C6
:1004A00000185B412018A2F5001747EB030140EA52
:1004B000D570B6196D4111E06D084FEA360645EA70
:1004C000C0754FEA0752001B61EB0201001C41F5A9
:1004D000801149084FEA30000019514132462B463D
:1004E00003B0BDE8F04F00F025BB009801224000AA
:1004F0000023D0EB020263EBE073009821464FEA41
:10050000E074B8EB000061EB0401E9E783F000431D
:100510005BE781F0004158E72DE9FE4F81EA0304D3
:1005200004F0004421F0004100944FF0000B23F050
:10053000004350EA01045ED052EA03045BD0C3F3E7
:100540000A54C1F30A552C44A4F2F3340194A0FBDD
:100550000254C1F3130141F48011C3F3130343F4B4
:10056000801301FB024400FB034E840A970A44EA0D
:10057000815447EA8357A4FB076802958D0A05FB5F
:1005800007854FEA932C04FB0C542705029D4FEA84
:10059000065847EA1637B5EB08056EEB070C870ED1
:1005A000920E47EA811742EA8312A7FB0201B6EBDB
:1005B0000B0164EB00042B0D43EA0C335E1844EB93
:1005C0001C50DA465146E7FB0201C5F313044FEA1B
:1005D0000B3343EA14534FEA0432019C43EA060307
:1005E000A4F10C040294009CCDE900B400F0B1FA2F
:1005F00003B0BDE8F08F00200146F9E72DE9F04D8A
:1006000081EA030404F0004B21F0004514464FF04A
:10061000000A23F0004150EA050220D054EA01020A
:100620001DD0C5F30A570246C5F31303C1F31300E7
:10063000C1F30A5640F4801543F48013A7EB060873
:10064000101BD64608F2FD3873EB050002D308F103
:10065000010801E092185B41B8F1000F03DA0020B5
:100660000146BDE8F08D00204FF480110646844617
:100670000EE0171B73EB050705D3121B63EB050395
:1006800006434CEA010C49084FEA300092185B41DE
:1006900050EA0107EDD152EA030012D082EA0400C9
:1006A00083EA0501084305D0101BAB4106D20122A5
:1006B000002306E000224FF0004302E06FF0010249
:1006C00053101AEB06004CEB085110EB0A0041EBFB
:1006D0000B01BDE8F04D00F02DBA002801DBC0F1A0
:1006E0000040002901DBC1F10041814201D8012015
:1006F000704700207047002801DBC0F1004000294E
:1007000001DBC1F10041814201D20120704700208C
:100710007047002801DBC0F10040002901DBC1F176
:100720000041814201D3012070470020704700281A
:1007300001DBC0F10040002901DBC1F10041814231
:1007400001D90120704700207047002801DBC0F16B
:100750000040002901DBC1F10041814201D10120AB
:1007600070470020704730B5041E71F1000404DBAF
:100770004FF00044404264EB0101141E73F1000489
:1007800005DB1C464FF00043524263EB0403801A22
:10079000994101D3012030BD002030BD30B5041E89
:1007A00071F1000404DB4FF00044404264EB0101AE
:1007B000141E73F1000405DB1C464FF00043524247
:1007C00063EB0403101A8B4101D3012030BD0020DC
:1007D00030BDC10F80EAE0700844CA0796230021AB
:1007E00000F07AB996230022114600F075B90EB5D3
:1007F000C10F80EAE0700844CA07002140F2334389
:100800008DE80E000A460B4600F0A3F903B000BDC8
:100810000EB540F2334102910021CDE900110A46A4
:100820000B4600F096F903B000BD00F0004220F046
:100830000040C10DC0F3160040F400007F2901DA2A
:1008400000207047962903DCC1F19601C84001E001
:1008500096398840002AF4D04042704720F000408A
:10086000C10DC0F3160040F400007F2901DA00201A
:100870007047962903DCC1F19601C840704796394C
:100880008840704770B5C1F30A5201F0004500245A
:10089000C1F3130140F2FF3341F480119A4201DAAF
:1008A000002070BD40F233439A42A2F2334203DC8F
:1008B000524200F0BCF800E090402C43F1D040429E
:1008C00070BDC1F30A5210B5C1F3130140F2FF33FA
:1008D00041F480119A4201DA002010BD40F2334306
:1008E0009A42A2F2334203DC524200F0A0F810BD5B
:1008F000904010BD00F0004230F000400AD0C10D21
:1009000001F56071C0F3160042EA0151C2084007C8
:100910001143704700200146704701F0004330B496
:1009200021F0004150EA010206D00A0DA2F56072E2
:10093000C1F31301002A02DC30BC00207047440FD1
:1009400044EAC104C100E01830BC00EBC25000F022
:10095000BAB8000080E8FF1FC0F834D0C0F838E013
:10096000C0F83CE04FF00000704700BF80EC200B67
:10097000704700BF80EC200B704700BFC0EC200B1D
:10098000704730B50B46014600202022012409E0C3
:1009900021FA02F59D4205D303FA02F5491B04FA38
:1009A00002F52844151EA2F10102F1DC30BD2DE94B
:1009B000F05F0546002092469B46884606468146E3
:1009C00040241BE0284641464746224600F02FF8C7
:1009D00053465A46C01A914110D311461846224632
:1009E00000F016F82D1A67EB01084F462246012049
:1009F000002100F00DF817EB00094E41201EA4F174
:100A00000104DFDC484631462A464346BDE8F09FF4
:100A1000202A04DB203A00FA02F1002070479140BE
:100A2000C2F1200320FA03F3194390407047202AB3
:100A300004DB203A21FA02F00021704721FA02F388
:100A4000D040C2F120029140084319467047202A45
:100A500006DBCB17203A41FA02F043EAE07306E0E6
:100A600041FA02F3D040C2F12002914008431946F6
:100A70007047704710B50446481E014201D1042951
:100A800001D2052010BD10460CF066FF10B12060A9
:100A9000002010BD062010BD2DE9F0410746154687
:100AA0000E4610200DF025F804000AD06760C4E956
:100AB000026500F033F90168216004600020BDE8A0
:100AC000F0810120FBE70029A8BF7047401C4900C6
:100AD00008BF20F00100704710B4B0FA80FC00FAA3
:100AE0000CF050EA010404BF10BC704749B1CCF1CE
:100AF000200421FA04F411FA0CF118BF012121435A
:100B00000843A3EB0C01CB1D4FEA00614FEA102014
:100B100042BF002010BC704700EBC35010440029B6
:100B2000A4BF10BC7047401C490008BF20F0010062
:100B300010BC704710B5141E73F1000408DA401C95
:100B400041F1000192185B411A4301D120F00100EC
:100B500010BD2DE9F04D92469B4611B1B1FA81F2DC
:100B600002E0B0FA80F220329046FFF751FF0446CF
:100B70000F4640EA0A0041EA0B0153465A46084331
:100B800013D0114653EA010019D0C8F14002504673
:100B9000FFF74DFF05460E46504659464246FFF7C1
:100BA00037FF084305D0012004E020463946BDE860
:100BB000F08D0020054346EAE0762C4337430A983F
:100BC0006305E40AA0EB08000022FD0A44EA47544A
:100BD0000A3002D500200146E9E7010510196941F4
:100BE000DDE9084500196941BDE8F04DA2E770B59F
:100BF00021F0004303430CD0C1F30A550024D5EB88
:100C0000040564EB0403D617AD1AB34102DB0020E0
:100C1000014670BD201841EB025170BDC1F30A526C
:100C2000C1F3130140F2FF3341F480119A4202DA1A
:100C300000200146704740F233439A42A2F2334209
:100C400002DC5242FFF7F3BEFFF7E2BE30B5041EEE
:100C500071F1000404DB4FF00044404264EB0101F9
:100C6000141E73F1000405DB1C464FF00043524292
:100C700063EB04038B4208BF824230BD30B5041ED3
:100C800071F1000404DB4FF00044404264EB0101C9
:100C9000141E73F1000405DB1C464FF00043524262
:100CA00063EB0403994208BF904230BD86469EE83C
:100CB000FF1FDEF834D0DEF83CE0704790EC200BEC
:100CC000704700BF90EC200B704700BFD0EC200BAA
:100CD00070470000064C074D06E0E06840F0010355
:100CE00094E8070098471034AC42F6D3FFF724FA93
:100CF00084460108A446010840EA01039B0703D08B
:100D000009E008C9121F08C0042AFAD203E011F84A
:100D1000013B00F8013B521EF9D270470048704772
:100D20000C0000202DE9F0410646FFF7F7FF804652
:100D3000454613E016B1E068B0420ED12068286045
:100D4000D4E90101D8F80070884720460CF054FE21
:100D5000D8F80000B842EBD100E025462C68002C02
:100D6000E8D1BDE8F081420005D0C0F3C75252423D
:100D7000914201DC0020704700EBC15070472DE923
:100D8000F04D00231A461B1A8A4103DB002001465E
:100D9000BDE8F08DC1F30A52C1F3130141F480158F
:100DA0004FF0000BD10702D100186D41521E0027F1
:100DB000044640F2FF11384601EB620A3E46804687
:100DC000024600204FF48011FFF731FEC219714135
:100DD000BB1846EB0100B4EB030C75EB000C04D31D
:100DE000E41A65EB000517460E46241908F10100C8
:100DF0006D4180463428E3DDF91946EB0600091BF6
:100E0000A84103D24FF0FF32134601E000221346FF
:100E10001BEB070046EB0A51BDE8F04DFFF78ABE19
:100E200010B5002200E0521C835C8C5CA34201D10F
:100E3000002BF8D1D8B2E1B2401A10BD10B548432A
:100E400004460CF056FE002805D00021002C02D0EC
:100E5000641E0155FAE710BD704700008268002942
:100E600042F0010308BF22F00103836070470000D5
:100E700080B543F60041C4F20101884214D042F625
:100E80000001C4F20101884216D042F20041C4F2CE
:100E90000101884218BF80BD4FF40070012101F0AC
:100EA00055FA4FF400700EE04FF40040012101F0BC
:100EB0004DFA4FF4004006E04FF48060012101F04C
:100EC00045FA4FF480600021BDE8804001F03EBA51
:100ED0008068C0F380007047C06C80B2704700002B
:100EE0000068084018BF0120704700008068C0F308
:100EF000C000704780B54FF6FF634268CFF6F073CD
:100F000002EA030CD1E9003243EA0C0343EA02226D
:100F10004FF2FD734260CFF6F173826802EA030E6E
:100F2000D1E902C30A6942EA0E021A4342EA4C02BC
:100F30008260C26A097D013922F47002C9B242EAB4
:100F40000151C16280BD000010B501EB410C0929BF
:100F500088BFACF11E0C092903FA0CFE4FF0070301
:100F600003FA0CFC4FF0100388BF0C23062AC45868
:100F700024EA0C0444EA0E04C45003D834306FF061
:100F8000040307E00C2A87BF2C306FF04003303099
:100F90006FF0220302EB82021A441F23914003FAEE
:100FA00002F2036823EA02021143016010BD00004F
:100FB000816841F008018160704700008268002963
:100FC00042F4A00308BF22F4A0038360704700002E
:100FD000816841F00401816070470000FEE7000075
:100FE000B0B50C464DF20A71C3F6A341FFF77DF987
:100FF000054640F258002146C2F200000068FFF7A3
:1010000074F940F294040146C2F200042068FFF72C
:1010100014F94EF24811C3F67A71FFF766F90146EA
:101020002846FFF70AF92060B0BD0000B0B50C46B5
:101030004DF20A71C3F6A341FFF757F9054640F296
:1010400058002146C2F200000068FFF74EF940F256
:1010500098040146C2F200042068FFF7EEF84EF251
:101060004811C3F67A71FFF740F901462846FFF7A9
:10107000E4F82060B0BD00007047000080B5D1F8F2
:1010800008E00EF00F0C1EF0100F1CBF4B684CEA6E
:10109000030C098811F0FF0F00F0A4800368CA0751
:1010A0000BD023F00F02BEF1480F42EA0C0315D01B
:1010B000BEF1280F01D1012242618A0712D523F027
:1010C000F002BEF1280F42EA0C131CD0BEF1480F0B
:1010D00008D1022202614A0706D418E00122026107
:1010E0008A07ECD44A0712D523F47062BEF1280FA8
:1010F00042EA0C231CD0BEF1480F08D10422026141
:101100000A0719D505E0022242614A07ECD40A0712
:1011100012D523F47042BEF1280F42EA0C331CD0E2
:10112000BEF1480F08D108220261CA0606D418E0B1
:10113000042242610A07ECD4CA0612D523F47022B5
:10114000BEF1280F42EA0C431CD0BEF1480F08D173
:10115000102202618A0619D505E008224261CA06FA
:10116000ECD48A0612D523F47002BEF1280F42EAAD
:101170000C531CD0BEF1480F08D1202202614A0650
:1011800006D418E0102242618A06ECD44A0612D531
:1011900023F07062BEF1280F42EA0C631AD0BEF150
:1011A000480F08D1402202610A061AD505E0202224
:1011B00042614A06ECD40A0613D523F07042BEF110
:1011C000280F42EA0C730AD0BEF1480F09D18022E1
:1011D000026106E0402242610A06EED401E080226C
:1011E00042610360B1F5807F38BF80BD4368CA05A6
:1011F0000CD523F00F02BEF1480F42EA0C0317D0C2
:10120000BEF1280F02D14FF4807242618A0514D5D5
:1012100023F0F002BEF1280F42EA0C131FD0BEF1FA
:10122000480F0AD14FF4007202614A0507D41BE04F
:101230004FF4807202618A05EAD44A0514D523F47A
:101240007062BEF1280F42EA0C231FD0BEF1480F96
:101250000AD14FF4806202610A051CD506E04FF402
:10126000007242614A05EAD40A0514D523F470429B
:10127000BEF1280F42EA0C331FD0BEF1480F0AD14D
:101280004FF400620261CA0407D41BE04FF480628D
:1012900042610A05EAD4CA0414D523F47022BEF1CF
:1012A000280F42EA0C431FD0BEF1480F0AD14FF479
:1012B000805202618A041CD506E04FF4006242614C
:1012C000CA04EAD48A0414D523F47002BEF1280FAC
:1012D00042EA0C531FD0BEF1480F0AD14FF400521E
:1012E00002614A0407D41BE04FF4805242618A0431
:1012F000EAD44A0414D523F07062BEF1280F42EA02
:101300000C631ED0BEF1480F0AD14FF48042026137
:1013100009041BD506E04FF4005242614A04EAD4A6
:10132000090413D523F07041BEF1280F41EA0C7374
:101330000ED0BEF1480F09D14FF400410161436066
:1013400080BD4FF4804242610904EBD4436080BD0C
:101350004FF400414161436080BD000010B504229C
:10136000002800F440141FFA80FCC4F20102134666
:10137000B8BF43F01803B4F5401F1B68C0F3034E19
:1013800007D1146823F0706324F07064146081B98D
:1013900016E0C40206D447F6F07404EA50440CFA8E
:1013A00004F402E0032404FA0EF4A34343F0706350
:1013B00031B147F6F07101EA50410CFA01F10B43EB
:1013C0000028B8BF1832136010BD0000416170479B
:1013D000016170472DE9F04F87B0054600F048FEE7
:1013E00040F22811012DC2F20001086012D140F232
:1013F000F80440F2141040F26012C2F20004C2F28B
:101400000000C2F20002214609F052FF60B107B0AD
:10141000BDE8F08F0DF10E0369203B210E2201F093
:101420004DF800286DD091E00DF10E0369203B21AD
:10143000062201F043F8D0B9BDF80E0040F2544145
:10144000C2F2000100BA000C0880BDF8100040F2A2
:101450005641C2F2000100BA000C0880BDF812002B
:1014600040F25841C2F2000100BA000C08800DF1B0
:101470000E0369204321062201F020F8D0B9BDF8FF
:101480000E0040F27C41C2F2000100BA000C08805C
:10149000BDF8100040F27E41C2F2000100BA000C1B
:1014A0000880BDF8120040F28041C2F2000100BA8B
:1014B000000C088040F28C012068C2F20001086034
:1014C00040F27641C2F20001B1F90000B1F90440E6
:1014D000FFF77FF940F2C001C2F200010860204628
:1014E000FFF777F940F2C401C2F20001086040F250
:1014F0005A40C2F20000B0F90400FFF76AF98046D2
:1015000092E0BDF80E00C0BAFFF763F90290BDF893
:101510001000C0BAFFF75DF98246BDF81200C0BAEC
:10152000FFF757F98046BDF81600C0BAFFF751F92A
:101530000646BDF81A00C0BAFFF74BF90190BDF896
:101540001800C0BAFFF745F9FFF7D4F940F2C0021E
:1015500046F26664C2F20002C4F2300416604FF034
:1015600066322346FFF74AF8FFF7D7F9834630463D
:10157000FFF7C0F94FF066322346FFF73FF8FFF759
:10158000CCF98146504641460DF05AFA0024C4F287
:1015900034342146FEF7A9FE40F6DB76C4F2490654
:1015A0003146FEF7D4FE0746029841460DF048FA50
:1015B0002146FEF79AFE3146FEF7C9FE0446032D8A
:1015C00010D0022D019D20D13846494600F0D4FBB1
:1015D00040F2F801C2F2000108602046594600F0CE
:1015E00089FC0DE038464946FFF7FAFC40F2F80165
:1015F000C2F20001086020465946FFF717FD019D21
:1016000040F21411C2F20001086040F2C40040F23E
:101610008C01C2F20000C2F20001056040F2F80045
:10162000C2F200000068086040F28800C2F20000C8
:10163000C0F8008007B0BDE8F08F00002DE9F0474A
:1016400042F6040CC4F2000CBCF8001011F0080FB4
:1016500000F00C81BCF81410BCF8182042EA0149D3
:1016600044F20751CCF22E21A9FB011240F2AC3119
:101670004FEA124EC2F200010B88B3EB124F08D1B1
:1016800040F27811C2F200018D7891F803A0098828
:101690007BE0A1F800E043F28031C0F2E11189451E
:1016A00029D348F21F544FF6926840F2B2714FF0BE
:1016B000640A4FF4C8767346C5F2EB14CFF6FF7890
:1016C00011F0030F0AD18AB2A2FB0457FD0905FBF2
:1016D00016255DB17D0905FB1A223AB96FF4B67281
:1016E00013440131B3F5B67FEAD807E0B3F5B77F0D
:1016F0004246F5D202E040F2B271734640F27818E9
:101700001C2BC2F20008A8F8001034D348F21F5472
:101710008AB2642644F2D25A01F00307C5F2EB14F0
:10172000C0F6010AA2FB04456C09ED0904FB16246E
:101730004FF4C87605FB1622002C4FF00005B2FAD4
:1017400082F218BF0124520944EA0206AAB24FB934
:10175000541EB4FA84F46409344003D01D2B0CD316
:101760001D3B04E01AF80220934207D39B1A01356F
:101770001B2BEBD802E0002500E0012503F1010A54
:10178000013588F803A088F8025040F2A3224FF4F4
:10179000616489B20EFB02F2A9EBC2174BF2C532AB
:1017A000C9F2A212A7FB022640F27812F60AC2F290
:1017B000000206FB1477567148F68906C8F68806BB
:1017C000A7FB0664660996713601A6EB54166424DD
:1017D000A7EB8607D77148F21F57C5F2EB17A1FB9D
:1017E0000776FC2707EA5617760906FB1411132F14
:1017F00044F6251688BF6431C2F2924601EB910788
:1018000011F0030FA7FB0643A7EB030403EB5403FC
:101810004FEA93044FEAC404A4EB93035FFA8AF4FB
:10182000A7EB0303EFB24FF21415C0F600053D44D9
:1018300015F8015C25442B444FF6FF75194608BF87
:101840002944032F28BF194689B2A1FB0637CB1BB9
:1018500007EB53039F08FF00A7EB9303C91A11710D
:10186000BCF8001021F00801ACF8001040F278112B
:10187000C2F2000191E88C00D1E90365496980E872
:101880008C00C0E903654161BDE8F087FEE7000018
:101890002DE9F04381B040F60447044648F2A8160B
:1018A0004FF001098846C4F20107C4F221263868C6
:1018B00020F470403860386840F4405038600420AC
:1018C000C6F80490C6F8009008F03CFD00250420FE
:1018D000756008F037FD2046356000F027F900F00C
:1018E000EBF9404600F022F900F0E6F9386820F400
:1018F00070403860386840F4405038600420C6F8C2
:101900000490C6F8009008F01DFD0420756008F0F2
:1019100019FD601C3560C0B200F008F900F0CCF988
:10192000002000F03BF80446386820F4704038602E
:10193000386840F44050386004203560756008F025
:1019400001FD0420C6F80090C6F8049008F0FAFCE7
:10195000204601B0BDE8F083022008F0F3BC00008F
:1019600010B584B008200121012400F0E3FC102010
:1019700001A903904FF44060ADF8040003200290E9
:1019800040F60040C4F20100FFF778FB48F2A810CF
:10199000C4F221200460446004B010BD2DE9F04F72
:1019A00083B040F60441029048F2A8154FF0000BB6
:1019B000C4F20101C4F22125086820F470400860D7
:1019C000086840F40040086000202860022008F009
:1019D000B9FC01262E6055F87C0C0190012008F01E
:1019E000B1FC0220C5F800B008F0ACFC2E6001206C
:1019F00055F87C7C08F0A6FC0220C5F800B008F081
:101A0000A1FC2E60012055F87C4C08F09BFC0220C4
:101A1000C5F800B008F096FC2E60012055F87C8CCB
:101A200008F090FC0220C5F800B008F08BFC2E6096
:101A3000012055F87C9C08F085FC0220C5F800B018
:101A400008F080FC2E60012055F87CAC08F07AFC90
:101A50000220C5F800B008F075FC2E60012055F892
:101A60007CBC08F06FFC00202860022008F06AFCB3
:101A70002E60012055F87C6C08F064FC40F60442AE
:101A800000212960C4F20102106820F47040106047
:101A9000106840F4405010600198002818BF0120E1
:101AA000002F18BF0127002C18BF012447EA40006F
:101AB000B8F1000F18BF4FF0010844EA4000B9F137
:101AC000000F18BF4FF0010948EA4000BAF1000FBB
:101AD00018BF4FF0010A49EA4000BBF1000F18BFE0
:101AE0004FF0010B4AEA4000002E4BEA400018BFBD
:101AF000012646EA4004029848B10220696008F0D5
:101B000021FC01202860022008F01CFC08E00126CE
:101B100002206E6008F016FC02202E6008F012FC15
:101B200000202860E0B203B0BDE8F08FF0B581B0CE
:101B3000044640F6044048F2A8150026C4F201000D
:101B4000C4F22125016821F470410160016841F46B
:101B500040510160E0092E606860022008F0F2FB4D
:101B6000012702202F6008F0EDFB02202E6008F014
:101B7000E9FBC4F380106860022008F0E3FB022058
:101B80002F6008F0DFFB02202E6008F0DBFBC4F3BF
:101B900040106860022008F0D5FB02202F6008F09A
:101BA000D1FB02202E6008F0CDFBC4F3001068606A
:101BB000022008F0C7FB02202F6008F0C3FB0220C0
:101BC0002E6008F0BFFBC4F3C0006860022008F07C
:101BD000B9FB02202F6008F0B5FB02202E6008F050
:101BE000B1FBC4F380006860022008F0ABFB022068
:101BF0002F6008F0A7FB02202E6008F0A3FBC4F3BF
:101C000040006860022008F09DFB02202F6008F071
:101C100099FB02202E6008F095FB04F0010068603B
:101C2000022008F08FFB02202F6008F08BFB2E6053
:101C3000022001B0BDE8F04008F084BBB0B540F62A
:101C4000044048F2A814C4F20100C4F2212401683F
:101C500021F470410160016841F4405101600120AC
:101C600060602060042008F06DFB002504206560A2
:101C700008F068FB2560B0BD10B540F6044048F29E
:101C8000A814C4F20100C4F22124016821F47041B7
:101C90000160016841F440510160002020606060F3
:101CA000042008F04FFB0120206060600420BDE8A4
:101CB000104008F047BB000070B540F6044448F2FD
:101CC0002C150126C4F20104C4F22125206820F459
:101CD00070402060206840F4004020600120C5F87A
:101CE000806008F02FFB0120EE6708F02BFB2868CE
:101CF00088B10020296871B1296861B140F0020102
:101D0000C9B2F9290BD82A682AB1F92907D8296854
:101D100004300029EED100242046EC6770BD206815
:101D200020F470402060206840F440502060002083
:101D3000E867C5F88000042008F004FB01240420B3
:101D4000EC67C5F8804008F0FDFA204670BD000041
:101D500041F21801C4F202010A6842F001020A606D
:101D60000421C4F201010A6822F0E0620A600A68F4
:101D700042EA4060086070472DE9F04F83B0CDE93A
:101D8000011040F2C800C2F20000076841F26F2063
:101D9000C3F683203946FEF7A2FA40F2CC01C2F224
:101DA00000010C682146FEF79AFA014640F25800FD
:101DB000C2F20000D0F800B05846FEF796FA40F2A2
:101DC0001409C2F20009D9F80010FEF736FA4FF0F4
:101DD0007C510546FEF731FA804628464146FEF71B
:101DE000B6FA294606460090FEF77FFA01462846D5
:101DF000FEF775FAC9F8000040F218005946C2F221
:101E00000000D0F800A05046FEF76FFA8146384631
:101E10004946FEF764FA074630463946FEF765FA4A
:101E200001463846FEF75BFA40F2C801C2F20001F3
:101E3000086020464946FEF752FA41460646FEF73C
:101E400086FA29460446FEF750FA01463046FEF768
:101E500046FA40F2CC01C2F20001086049F6A63110
:101E60005846C3F64431FEF740FA5146FEF7E5F90D
:101E7000054620463946FEF738FA01462846FEF761
:101E80002EFA40F2D00840F21801C2F20008C2F265
:101E90000001D8F80050086001982946FEF71FFAA3
:101EA0005946FEF722FA40F2D4090146C2F200096F
:101EB000D9F80000FEF7C1F9064602983146FEF750
:101EC0000EFA00990746FEF710FA01463046FEF773
:101ED000B4F90646C9F8000038462146FEF705FA6F
:101EE00001462846FEF7A9F9C8F80000304603B0BD
:101EF000BDE8F08F2DE9F04F83B0CDE9011040F23D
:101F0000D800C2F20000076841F26F20C3F68320B8
:101F10003946FEF7E4F940F2DC01C2F200010C6838
:101F20002146FEF7DCF9014640F25800C2F20000FB
:101F3000D0F800B05846FEF7D8F940F21C09C2F2BA
:101F40000009D9F80010FEF778F94FF07C510546EA
:101F5000FEF773F9804628464146FEF7F8F9294610
:101F600006460090FEF7C1F901462846FEF7B7F98C
:101F7000C9F8000040F220005946C2F20000D0F833
:101F800000A05046FEF7B1F9814638464946FEF7B3
:101F9000A6F9074630463946FEF7A7F90146384606
:101FA000FEF79DF940F2D801C2F200010860204618
:101FB0004946FEF794F941460646FEF7C8F9294618
:101FC0000446FEF792F901463046FEF788F940F2E2
:101FD000DC01C2F20001086049F6A6315846C3F69A
:101FE0004431FEF782F95146FEF727F905462046AF
:101FF0003946FEF77AF901462846FEF770F940F2B5
:10200000E00840F22001C2F20008C2F20001D8F854
:102010000050086001982946FEF761F95946FEF71D
:1020200064F940F2E4090146C2F20009D9F800005F
:10203000FEF703F9064602983146FEF750F900997B
:102040000746FEF752F901463046FEF7F6F8064617
:10205000C9F8000038462146FEF747F901462846F0
:10206000FEF7EBF8C8F80000304603B0BDE8F08F8B
:10207000B0B5FFF7E3FDD220FFF758FDFFF71CFED8
:102080004120FFF753FDFFF717FEFFF7D7FDD320E1
:10209000FFF74CFDFFF710FE0020FFF77FFC044622
:1020A000FFF7EAFDFFF7CAFDD220FFF73FFDFFF77C
:1020B00003FE4220FFF73AFDFFF7FEFDFFF7BEFDEE
:1020C000D320FFF733FDFFF7F7FD0020FFF766FC95
:1020D00040EA04242046FEF77CFB00210546CCF2B2
:1020E0008071FEF7AAF80021B4F5004F98BF28468A
:1020F000C4F2AA31FEF72BF9FEF7FCFB47F2A4026B
:1021000044F2D733C0F63D22C4F24203FEF75DF934
:1021100000230022C4F22403FEF7FEF9FEF7FDFBC4
:10212000FEF783FB0446FFF7A7FD2046B0BD000085
:1021300080B5FFF715FC6B20802101F03FFE642085
:1021400008F0D4F86B20002101F038FE1B20182184
:1021500001F034FE1C20102101F030FE1920012175
:1021600001F02CFE1A20012101F028FE3820002168
:1021700001F024FE6A20002101F020FE232000212E
:1021800001F01CFE3720802101F018FEFFF756FDFC
:10219000D220FFF7CBFCFFF78FFD7520FFF7C6FCC1
:1021A000FFF78AFDFFF74AFDD320FFF7BFFCFFF7DB
:1021B00083FD0020FFF7F2FBFFF75EFD6B2003219C
:1021C00001F0FCFD6C20002101F0F8FD002080BD35
:1021D000C000C1B21C2001F0F1BD0000C000C1B2BE
:1021E0001B2001F0EBBD0000BB2801D901210FE04D
:1021F000612801D902210BE0292801D9032107E038
:10220000132801D9042103E00621092888BF0521EC
:10221000C9B21A2001F0D2BD10B5044604284FF40B
:102220007A7098BF0424B4F57A7F28BF0446B0FBC7
:10223000F4F00138C1B2192001F0C0FDE0082E28E9
:1022400001D901200FE0C32C01D902200BE0532C4F
:1022500001D9032007E0272C01D9042003E0062040
:10226000132C88BF0520C1B21A20BDE8104001F030
:10227000A5BD0000FEE700007047000042684EF276
:102280000011CEF20001EAB110B54EF60C52072350
:10229000CEF20002126890F801E0847890F800C055
:1022A00023EA12220F23D340C2F1040223400EFA84
:1022B00002F21A4301EB0C03120183F80023BDE87C
:1022C000104000E080310078012300F01F02C0F3CD
:1022D000421003FA02F241F82020704740F080607B
:1022E0004EF60C5140F0FD70CEF2000108607047D0
:1022F00041F20401C4F202010A6822F44042104390
:102300000860704741F21C020029C4F20202116801
:102310000CBF21EA000008431060704741F2100230
:102320000029C4F2020211680CBF21EA0000084330
:102330001060704741F218020029C4F202021168CD
:102340000CBF21EA000008431060704741F20C0204
:102350000029C4F2020211680CBF21EA0000084300
:102360001060704780B541F2040EC4F2020EDEF830
:10237000002002F00C0341F20022C0F27A02082B86
:102380001FD1DEF80030C3F3834303F1020CDEF803
:10239000003013F4803F06D140F60012C0F23D0237
:1023A0000CFB02F20DE0DEF8003013F4003F02D126
:1023B0000CFB02F205E040F60012C0F23D020CFBFD
:1023C00002F202604FF20411DEF80030C0F60001A4
:1023D000C3F30313CB5CDA404260DEF80030C3F392
:1023E0000223CB5C22FA03F38360DEF80030C3F3F0
:1023F000C223C95C4FF20013C0F6000322FA01F1B8
:10240000C160DEF80020C2F381329A5CB1FBF2F1C8
:10241000016180BD10B548F21F53C5F2EB13A0FB5C
:10242000033CFC2303EA5C1E4FEA5C1C64230CFBA8
:102430001304BEF1130F44F6251C88BF6434C2F2A6
:10244000924C04EB940314F0030FA3FB0C0EA3EBCC
:102450000E000EEB500E4FEA9E004FEAC000A0EBBC
:102460009E00A3EB000010444FF21412C0F60002CD
:102470000A4412F8012C10444FF6FF72034608BFBD
:102480001344032928BF034698B2A0FB0C12811AFB
:1024900002EB51018A08D200A2EB9101401A10BD53
:1024A00040F2F80040F2141140F26012C2F2000053
:1024B000C2F20001C2F2000208F0FABE2DE9F04FAC
:1024C00081B040F6044A074648F2A81901261C4686
:1024D00015468846C4F2010AC4F22129DAF8000040
:1024E00020F47040CAF80000DAF8000040F44050D0
:1024F000CAF800000420C9F80460C9F8006007F0B9
:1025000021FF4FF0000B0420C9F804B007F01AFFB8
:102510007F00C9F800B0F8B2FFF708FBFFF7CCFB6B
:10252000D0B1DAF8000020F47040CAF80000DAF800
:10253000000040F44050CAF800000420C9F800B080
:10254000C9F804B007F0FEFE0420C9F80060C9F81D
:10255000046007F0F7FE51E04046FFF7E7FAFFF7A7
:10256000ABFBDAF8000020F47040CAF80000DAF89B
:10257000000040F44050CAF800000420C9F804608C
:10258000C9F8006007F0DEFE0420C9F804B007F0C7
:10259000D9FE47F00100C9F800B0C0B2FFF7C6FA93
:1025A000FFF78AFB05E000BFFFF7F8F904F8010B1D
:1025B000013DE8B2012803D020B10120F4E700BFBB
:1025C0000020F1E7DAF80000002620F47040CAF895
:1025D0000000DAF8000040F44050CAF8000004207F
:1025E000C9F80060C9F8046007F0ACFE0120C9F822
:1025F0000000C9F80400042007F0A4FE304601B032
:10260000BDE8F08F2DE9F04F8BB0048840F2B37134
:1026100080468C4217D3A11C43F2803E01F0030296
:10262000A4F2B371C0F2E11E03290ED2002340F2DE
:10263000B275002A00F0A880A90747D003EB0E016D
:10264000012A5DD05EE000239EE04FF64C0591B27A
:1026500048F2005048F21F590294002340F2B47629
:102660004FF0640A4FF4C87BCDF80C800192CFF68E
:10267000FF75091BC0F2E210C5F2EB19AC1C00BFDC
:10268000A6FB097C03EB0E02043C04364FEA5C1700
:10269000724407FB0A5702EB0008002F474608BFA9
:1026A00002EB0E074FEADC1202FB0B52043D002A3C
:1026B00008BF4746A14207EB0E03E1D10DF1040824
:1026C000654298E81401002AB6D15DE048F21F5136
:1026D0004FF4C877C5F2EB11A5FB0110C10901FB4E
:1026E000175703F1F17101F505413FB14709642620
:1026F00007FB1657002F08BF03EB0E01012A01D17B
:102700000B4641E06E1CB00704D001EB0E07022A15
:102710001AD01BE048F21F504FF4C877C5F2EB10F7
:10272000A6FB0030C30903FB176301F1F17707F53E
:1027300005473BB14009642300FB1360002808BF34
:1027400001EB0E07022A01D13B461DE0A91C8807B8
:1027500002D007EB0E0317E048F21F504FF4C87287
:10276000C5F2EB10A1FB0006F00900FB121007F107
:10277000F17202F5054338B17009642200FB1210B2
:10278000002808BF07EB0E0398F8021045F2801CE2
:10279000C0F2010C013988F80210C9B291B348F2B5
:1027A0001F576425C5F2EB17A4FB07767709F609D6
:1027B00007FB15474FF4C87506FB1546002F4FF071
:1027C0000005B6FA86F618BF01277609374304F0EC
:1027D00003060024B6FA86F67609374044F2D2564C
:1027E000C0F60106345DA8B2002F05F1010504FB17
:1027F0000C32ACB2134618BF6344012818BF13460D
:102800008C42EFD341F21C0098F8031098F8052091
:1028100098F8067098F80760C4F20200056801FB9A
:102820000C314FF4616302FB0311C7EB071245F053
:10283000805501EB8201056031440568A1F58031C6
:10284000A1F5A34145F00065056047F20000C4F220
:102850000000056845F48075056042F60400C4F286
:102860000000058845F0100505800183090C818270
:10287000018821F010010180018811F0200F0BD197
:10288000018811F0200F07D1018811F0200F03D12A
:10289000018811F0200FEFD004A8FEF7CFFE40F220
:1028A00066100121C2F2000001700BB0BDE8F08F8C
:1028B00041F2240CC4F2020C5CF8080C40F0805089
:1028C0004CF8080C5CF8080C40F000604CF8080C60
:1028D000DCF8000040F00100CCF80000DCF800005B
:1028E00010F0020F0ED1DCF8000010F0020F09D139
:1028F000DCF8000010F0020F04D1DCF8000010F04A
:10290000020FEBD02DE9F04F42F6040943F2803874
:10291000C4F20009C0F2E118B9F81400B9F81810AF
:1029200041EA004044F20751CCF22E21A0FB0121E4
:1029300040F2D432C2F200021388B3EB114F40F0E0
:102940001E814FF4884039F8000047F20001C4F2BC
:102950000001086840F4807008605CF8040C40F4E2
:1029600080304CF8040C5CF8040C20F480304CF8F7
:10297000040CDCF8000040F00100CCF8000000BFBF
:10298000DCF8000010F0020F0ED1DCF8000010F0AF
:10299000020F09D1DCF8000010F0020F04D1DCF8BE
:1029A000000010F0020FEBD0DCF8000040F0807067
:1029B000CCF800005CF8040C40F400704CF8040CF7
:1029C0005CF8040C40F400404CF8040CB9F800002A
:1029D00010F0200F0ED1B9F8000010F0200F09D12F
:1029E000B9F8000010F0200F04D1B9F8000010F081
:1029F000200FEBD0B9F8000010F0080F0ED1B9F895
:102A0000000010F0080F09D1B9F8000010F0080F0D
:102A100004D1B9F8000010F0080FEBD0B9F80000AD
:102A200010F0200F0ED1B9F8000010F0200F09D1DE
:102A3000B9F8000010F0200F04D1B9F8000010F030
:102A4000200FEBD0B9F8000048F21F5A48F20053AB
:102A5000002140F2B4764FF0640B4FF4C8720027A7
:102A6000C5F2EB1AC0F2E21340F01000A9F8000022
:102A700047F6FF70A9F80410A9F8080040F2B470F6
:102A8000A0FB0A544744043065094744E40905FBA8
:102A90001B6507EB030E04FB12648D42754608BFED
:102AA00007EB08058C42A1F1040108BF754605EB50
:102AB000080711F13405E3D15CF8080C40F08050B0
:102AC0004CF8080C5CF8080C40F000604CF8080C5E
:102AD00047F20000C4F200000146006840F4807034
:102AE0000860B9F8000040F01000A9F8000046F2B4
:102AF0007A10C0F2DC103844A9F81800000CA9F8CC
:102B00001400B9F8000020F01000A9F8000000BF80
:102B1000B9F8000010F0200F0ED1B9F8000010F045
:102B2000200F09D1B9F8000010F0200F04D1B9F836
:102B3000000010F0200FEBD0B9F8000020F01000DA
:102B4000A9F80000B9F8000010F0200F0ED1B9F874
:102B5000000010F0200F09D1B9F8000010F0200F8C
:102B600004D1B9F8000010F0200FEBD04FF48840EA
:102B700045F2500129F800100020BDE8F08F0B0C41
:102B8000A8F10101884213805CD948F21F5E4FF61C
:102B9000926640F2B27164244FF4C875C5F2EB1E20
:102BA000CFF6FF7611F0030F0AD188B2A0FB0E72A8
:102BB000D70907FB15075FB1520902FB140038B9AA
:102BC0006FF4B67003440131B3F5B67FEAD803E081
:102BD000B3F5B77F3046F5D21C2B37D348F21F52DE
:102BE00088B2642644F2D25401F003050021C5F2F4
:102BF000EB12C0F60104A0FB02277A09FF0902FBD1
:102C000016024FF4C87607FB1600002AB0FA80F0CF
:102C100018BF0122400942EA000600BF88B24DB940
:102C2000421EB2FA82F25209324003D01D2B0FD35A
:102C30001D3B03E0205C83420BD31B1A01311B2B8D
:102C4000ECD806E040F2B2711C2BC7D2002100E0A4
:102C500001214FF48840DAB239F80000FF2A3FF42E
:102C600074AEC9B2FF293FF470AE45F250018842FC
:102C70007FF46BAE0020BDE8F08F000082B041F21F
:102C800004000022C4F20200CFF6FF0250F8041C38
:102C900041F0010140F8041C016811404FF6FF7239
:102CA0000160CFF6F66250F8041C114040F8041C95
:102CB00050F8041C21F4802140F8041C016821F420
:102CC000FE0101604FF41F0141600021019100915C
:102CD00050F8041C41F4803140F8041C50F8041CE6
:102CE00001F400310091019901310191009919B964
:102CF0000199B1F5A06FF1D150F8041C11F4003F17
:102D00000CBF0021012100910099012958D1D0F870
:102D1000FC1F41F01001C0F8FC1FD0F8FC1F21F08F
:102D20000301C0F8FC1FD0F8FC1F41F00201C0F8FD
:102D3000FC1F0168016001680160016841F4806165
:102D40000160016821F47C110160016841F4E8111F
:102D5000016050F8041C41F0807140F8041C00BF71
:102D600050F8041C11F0007F0ED150F8041C11F033
:102D7000007F09D150F8041C11F0007F04D150F8F5
:102D8000041C11F0007FEBD0016821F00301016009
:102D9000016841F002010160016801F00C0108299D
:102DA0000ED0016801F00C01082909D0016801F07A
:102DB0000C01082904D0016801F00C010829EBD1AD
:102DC0004EF608504FF00061CEF20000016002B0F4
:102DD000704700001020C4F20000018811F0010FBC
:102DE00006D040F2A831C2F200010A8801320A80FE
:102DF00000210180BFF34F8F7047000040F2104068
:102E0000C4F200000188018821F0010101807047AF
:102E100040F61000C4F200000188018821F0010191
:102E2000018070472DE9F04F81B042F60046012144
:102E3000C4F2010606F50065284600F0C3FA012831
:102E400040F078822846012100F086FA04F00CFA5E
:102E5000002800F06F8240F24400C2F200000078C7
:102E6000FEF7B8FA042002F07FFF40F2A8094042C2
:102E7000C2F20009C9F80000032002F075FF40F219
:102E8000AC0B4042C2F2000BCBF80000322003F042
:102E9000E5F940F211010128C2F20001097807D1D9
:102EA000B1FA81F0410940F21100C2F20000017054
:102EB00000290CBF6420002004F032FF40F22C00F7
:102EC00040F2B01848F29017C2F20000C4F2222873
:102ED000C4F22227016840F2A000C2F2000002689A
:102EE0008A421FD140F29C01C2F200010978C9B1A7
:102EF00040F21001C2F20001097869B140F23401D8
:102F000000220123C2F2000102600A7040F2101197
:102F1000C2F200010B700BE040F211010120C2F27D
:102F20000001087040F21010C2F20000007800B3F7
:102F300040F22010C2F200000168013196290160C0
:102F400017D10021016040F23000C2F200000160A0
:102F500040F21010C2F20000017040F23400C2F2E0
:102F60000000017040F24C100121C2F2000001701B
:102F700006E040F24C10C2F200000078002848D071
:102F800040F24C100021C2F20000017040F2BC007F
:102F90000121C2F20000017040F260100021C2F273
:102FA0000000C4F2B42105682846FDF746F9014641
:102FB00040F22410C2F2000001602846FDF78FF9AC
:102FC000FDF733FC002848BF4042132833DC40F2B1
:102FD000BC00002401250021C2F20000047030462C
:102FE000FD61BC6100F04EFC304600213D60C8F838
:102FF000004000F049FC40F234000021C2F2000021
:10300000C4F2A011057040F23000C2F2000001606D
:1030100011E040F2BC00C2F20000007801280AD1A1
:1030200040F22410C2F20000016840F26010C2F2C7
:1030300000000568C1E7DBF80010D9F8000004F0D3
:10304000AFF8DBF80010D9F8000004F0E5F940F221
:103050005414C2F20004206040F2C400C2F2000026
:10306000006802F051FD40F21C15C2F20005286014
:1030700040F24410C2F20000006804F06DFE40F21D
:1030800048112B6840F2E80540F2EC06C2F200015C
:10309000C2F20005C2F20006086021680A18081A88
:1030A000D21A18442A60306003F092FE01464EF2B4
:1030B0000C5840F25C12009041F6F42441F6F42AD8
:1030C0004946D5F80090CFF6FF78C2F200021060B2
:1030D00040F2D632C145C2F20002D8BFC146A14576
:1030E000B8BFCA463068C5F800A04045C8BF804692
:1030F000A045B8BF4446DBF80050D1F800B040F21C
:103100008C011088C2F2000134600E6802284DD094
:1031100040F288010128C2F200010F681CD000288B
:1031200066D1BBF1000F5846294648BFCBF10000DD
:10313000002D48BF694208441E2853DA40F2D830B7
:10314000C2F2000001880131018089B20B294FD3FE
:10315000002101800120108040F2DA30C2F200002C
:1031600001880131018089B2C92922BF0021118063
:10317000018030460021C4F2B011FDF7CAFAB8BB95
:1031800042F200013846C4F2CB61FDF7A6FA78BBE3
:1031900000213046CCF29011FDF79FFA40F2D63272
:1031A0000028C2F2000223D10220108040F2DC305D
:1031B000C2F2000001880131018089B2C92922BF11
:1031C00000211180018015EB0B0048BF40424728C9
:1031D0000EDB40F211000127C2F200000770002050
:1031E00010800BE040F2D8300021C2F200000180D4
:1031F00040F21100C2F200000778C7B340F2E0339A
:10320000C2F200031878B0B930464FF04141FDF7E3
:1032100064FA68BB00213046C4F24011FDF75DFA44
:10322000002808BF55EA0B0022D140F2E03301200C
:10323000C2F20003187040F2E430C2F200000168EC
:103240004A1C32290260A2BF002119700160ABF153
:10325000040123290CD8291F232909D80027076036
:1032600040F211001F70C2F20000077000E000275A
:1032700000213046CCF22021FDF73DFA00284BD149
:1032800000213046C4F22021FDF751FA002843D135
:10329000009940F2924081423EDB012F3CD048F23F
:1032A0009011B9F1010F4FF0000042F600464FF0C7
:1032B0000005B8BF0120C4F22221B9F1000FC4F209
:1032C0000106C8614FF000000F46C8BF0120BAF1E7
:1032D000000F886148BFCAF1000A30461FFA8AF120
:1032E00000F0D0FAB8F1010F4FF00000B8BF012094
:1032F000B8F1000F386040F2B010C8BF0125002CB3
:10330000C4F22220056048BF64423046A1B201B039
:10331000BDE8F04F00F0B8BA48F290110020C4F2B6
:1033200022210A46086040F2B011C4F2222108604E
:10333000D061906101B0BDE8F08F000002880029E3
:1033400042F0800308BF22F0800303807047000032
:10335000C943018270470000C943018270470000E1
:103360000288002942F0010308BF22F00103038014
:1033700070470000B0F84420002913466FF3DF3394
:1033800018BF42F40043A0F84430704780B5B0F84D
:1033900008C02CF0070C41EA0C01B0F818C0B0F8D6
:1033A00020E001814FF6FC410CEA010C40F20111D2
:1033B00041EA0C01018342EA03112EF0220211437B
:1033C000018480BD008A084018BF012070470000BA
:1033D00070B50B88042B2AD0002B56D1B1F802C04F
:1033E0000A898B88068C40F6FF354FF6FC74C4F2D0
:1033F000000526F0010643EA02130246A8420684AD
:1034000032F8186FB0F820E026F0F30643EA06031E
:103410006DDCB0F1804F7DD040F20045C4F2000574
:10342000A84277D040F60005C4F200056FE00E898F
:103430004B888A88058C40F6FF44360325F010053A
:1034400046EA02260584024632F8185FB0F820E00A
:10345000254046EA050C40F6FF356FF00306C4F23E
:103460000005A6F1AD04A84262DCB0F1804F71D036
:1034700040F20045C4F20005A8426BD040F60005BA
:10348000C4F20005A84265D068E00A898C884E889D
:10349000058C082B71D125F48073038444EA021350
:1034A000024632F81C5FB0F820E025F0F30543EA4D
:1034B000050C6FF4405303F5145440F6FF33C4F287
:1034C0000003984200F38180B0F1804F00F08F80BC
:1034D00040F20043C4F20003984200F0888040F6B6
:1034E0000003C4F20003984200F0818084E040F6BB
:1034F0000045C4F20005A8420CD042F60045C4F2D3
:103500000105A84206D043F20045C4F20105A842D5
:1035100018BF083C03830EEA040343EA0C0343F09C
:1035200001030384C988038B23F00C03038394E015
:1035300040F60045C4F20005A8420BD043F2004516
:10354000C4F20105A84205D042F60045C4F20105C7
:10355000A84203D14FF6FC741B012D3C0EEA040671
:10356000A0F818C0334343F010030384C988038BC9
:1035700023F44063090203836FE025F480531203B0
:10358000038442EA0423024640F6FF4432F81C5FFB
:10359000B0F820C0254046F6FF5443EA050E40F639
:1035A000FF33C4F20003984234DCB0F1804F43D0C3
:1035B00040F20043C4F2000398423DD040F60003BD
:1035C000C4F20003984237D039E040F60043C4F219
:1035D000000398420BD043F20043C4F20103984227
:1035E00005D042F60043C4F20103984204D14CF6E0
:1035F000FF73360203F534540EEA0403A0F81CC02E
:10360000334343F480730384C988838B23F00C0312
:10361000838322E040F60043C4F2000398420BD0BB
:1036200043F20043C4F20103984205D042F600433E
:10363000C4F20103984202D136034CF6FF740CEA3F
:103640000403A0F81CE0334343F480530384C98887
:10365000838B23F44063090283831088084310801E
:1036600070BD0000002101220160426001817047AD
:10367000002A82890CBF22EA01011143818170472F
:1036800010B5028C22F001020284048CB0F804E030
:10369000038B0A8823F0730343EA020C0B8924F09E
:1036A00002021A434B881A43A0F18043A3F59633D4
:1036B0004FEAB323072B14D8012404FA03F313F0C1
:1036C000E50F0ED08C892EF4407322F00C022343B8
:1036D000CC8943EA040E4B8923F004031A438B88F8
:1036E0001A43A0F804E0A0F818C0C98881860284B3
:1036F00010BD0000028B22F00802114301837047C5
:1037000010B5028C22F010020284048CB0F804E0A0
:10371000038B0A8823F4E64343EA022C0B8924F046
:10372000200242EA03124B8842EA031243F20043AA
:10373000C4F20103984205D042F60043C4F20103EB
:10374000984212D18B892EF4406422F0C00244EAE0
:103750008303CC8943EA840E4B896FF04F0404EA5B
:1037600003131A438B8842EA0312A0F804E0A0F87E
:1037700018C0C9880187028410BD0000028B22F4A2
:10378000006242EA012101837047000010B5028CFB
:1037900022F480720284048CB0F804E0838B0A88DF
:1037A00023F0730343EA020C0B8924F4007242EA0B
:1037B00003224B8842EA032243F20043C4F201038E
:1037C000984205D042F60043C4F20103984212D158
:1037D0008B892EF4405422F4406244EA0313CC89CE
:1037E00043EA041E4B8940F2FF441B02A3431A43E1
:1037F0008B8842EA0322A0F804E0A0F81CC0C98824
:103800008187028410BD0000828B22F008021143E0
:103810008183704710B5028C22F480520284048C9C
:10382000B0F804E0828B0B8822F4E64242EA032CD3
:103830000B8924F4005242EA03324B8842EA0333F4
:1038400043F20042C4F20102904205D042F6004227
:10385000C4F20102904204D18A892EF4804444EAE1
:10386000821EA0F804E0A0F81CC0C988A0F840108F
:10387000038410BD828B22F4006242EA012181831D
:103880007047000081877047A0F840107047000023
:103890008184704740F6FF33B0F800C0C4F20003E3
:1038A00098420FDCB0F1804F1ED040F20043C4F2CA
:1038B0000003984218D040F60003C4F20003984277
:1038C00012D016E040F60043C4F2000398420BD039
:1038D00043F20043C4F20103984205D042F600438C
:1038E000C4F20103984204D14B882CF0700243EAE1
:1038F000020C41F2004240F48063C4F200029342A1
:1039000004D0CB882CF4407243EA020CA0F800C02B
:103910008A8882850A880285A0F18042A2F59632C3
:103920004FEAB222072A07D8012303FA02F212F063
:10393000E50F1CBF097A01860121818270470000D2
:103940004FF6FF7141600021016001727047000075
:103950002DE9F04F81B043F6000440F22551C4F246
:103960000104A4F57445284600F092F9002804BF2C
:1039700001B0BDE8F08F204640F22551002200261C
:1039800000F0A8F9284640F2255100F017F9284622
:1039900000F00EFA40F2B937C2F200073978032975
:1039A0002BD8DFE801F002164284C0B22C2824D1C3
:1039B0000120387040F2B730C2F2000001784A1C92
:1039C000027040F2BC302C22C2F2000020F811201C
:1039D00022E0C0B2122810D10220387040F2B73075
:1039E000C2F2000001784A1C027040F2BC30122280
:1039F000C2F2000020F811200EE040F2B7303E7015
:103A0000C2F20000067040F2BC30C2F20000C0E911
:103A10000066C0E902660661204640F22551012297
:103A200001B0BDE8F04F00F055B940F2B732C2F234
:103A300000021378591C1170C2B240F2BC30C2F2BD
:103A400000005B2A20F8132002D0CAB20A2AE3D36E
:103A500040F2B832C9B20123C2F2000200EB4100C9
:103A60001370032210F80C1C3A7040F2A502C2F247
:103A70000002117040F2A60210F80A1CC2F2000205
:103A8000117040F2A40210F8081CC2F2000211707A
:103A900040F2900210F8061C10F8040CC2F200026A
:103AA000117040F29101C2F200010870B4E740F2D7
:103AB000B73840F2BC30C2F20008C2F2000098F8F9
:103AC000001000EB410131F8021C5B2946D1204671
:103AD00040F2255100224FF0000900F0FBF840F2BF
:103AE000B83AC2F2000A9AF80000012858D140F210
:103AF000A400C2F2000090F800B040F2A500C2F2AB
:103B0000000005786842FCF764FE06462846FCF78C
:103B100069FE40F24411BBF1000F08BF3046C2F20B
:103B20000001086040F29100C2F200000078F8B194
:103B300040F2F400C2F20000017801B340F2F0015B
:103B400040F22403C2F20003C2F200010A681B68BB
:103B50009A4223D1002202700A6021E0002188F8F5
:103B600000103970C0E90011C0E90211016153E78A
:103B700040F29C000021C2F20000017010E001211F
:103B8000017040F29C00C2F20000017040F2A000FF
:103B9000C2F2000001680131016001E0501C0860C0
:103BA000204640F22551012288F800908AF80090C2
:103BB00087F8009000F08EF82EE70000090A012235
:103BC00002FA01F1C943018070470000828900298F
:103BD00042F4005308BF22F4005383817047000071
:103BE00080B544F6FF31C4F2000188421EDD44F680
:103BF0000041C4F2000188422CD045F20001C4F219
:103C0000000188422ED043F60001C4F2010188422F
:103C100018BF80BD4FF480400121FEF797FB4FF4A1
:103C200080400021BDE88040FEF790BB44F2004197
:103C3000C4F2000188421DD044F60001C4F2000124
:103C4000884223D14FF480200121FEF767FB4FF417
:103C5000802016E04FF400200121FEF75FFB4FF4B7
:103C600000200EE04FF480100121FEF757FB4FF4C7
:103C7000801006E04FF400300121FEF74FFB4FF4B7
:103C800000300021BDE88040FEF748BB80BD000049
:103C900001F01F02012303FA02F2C1F34213022BC7
:103CA00006D0012B14BF00F1140300F10C0301E056
:103CB00000F110031B88090A1A404FF0010318BFD6
:103CC0000122008803FA01F1084018BF01201040CA
:103CD0007047000001F01F0C012303FA0CFCC1F334
:103CE00042131421022B08BF1021012B08BF0C2105
:103CF000002A42580CBF22EA0C0242EA0C0242504F
:103D00007047000070B586B00446008A0D46C98829
:103D100001AE20F4405008434EF6F3112082A089F2
:103D20000840A98808432989084369890843A08174
:103D3000A08AA98920F440700843A0823046FEF78B
:103D400011FB43F6000106F108000222C4F2010152
:103D50008C424FF0190108BF06F10C0004260068E0
:103D60004843A189A2EBD1312A6802FA01F1B0FBE4
:103D7000F1F048F21F51C5F2EB11A0FB01235A09E3
:103D80006FF0630302FB0300A389A6EBD336B040B8
:103D90003230A0FB0101072040EA133080F0080018
:103DA00000EA511040EA0210208106B070BD000008
:103DB00080886FF35F207047FEE70000B0B50C46C7
:103DC0000546FDF73BFFFDF7C7FDD220FDF7AEFE30
:103DD000FDF772FF18B1FDF74FFF0120B0BD284677
:103DE000FDF7A4FEFDF768FF2046FDF79FFEFDF7F7
:103DF00063FF0446002818BF0124FDF73DFF20465D
:103E0000B0BD00002DE9F04F81B040F6044A0746EE
:103E100048F2A81901241D4616468846C4F2010A34
:103E2000C4F22129DAF8000020F47040CAF800003A
:103E3000DAF8000040F44050CAF800000420C9F845
:103E40000440C9F8004006F07DFA4FF0000B042052
:103E5000C9F804B006F076FA7800C9F800B0C0B22C
:103E6000FDF764FEFDF728FFD0B1DAF8000020F47A
:103E70007040CAF80000DAF8000040F44050CAF878
:103E800000000420C9F800B0C9F804B006F05AFADE
:103E90000420C9F80040C9F8044006F053FA49E08C
:103EA0004046FDF743FEFDF707FF56B1002400BF73
:103EB000285DFDF73BFEFDF7FFFEF8B90134B44283
:103EC000F6D3DAF80000002420F47040CAF80000AD
:103ED000DAF8000040F44050CAF800000420C9F8A5
:103EE0000040C9F8044006F02DFA0120C9F800008E
:103EF000C9F80400042006F025FA1BE0DAF80000F7
:103F000020F47040CAF80000DAF8000040F4405095
:103F1000CAF800000020C9F80000C9F80400042015
:103F200006F010FA01240420C9F80040C9F8044042
:103F300006F008FA204601B0BDE8F08F40F22C11DF
:103F4000002040F20002C2F20001C0F60002C1E906
:103F50000000C1E90200C1E9040049F2E560C0F6D1
:103F60000000FCF765B97047826801460AB101207C
:103F70001047704780B58AB0694609F00EFC029977
:103F8000002818BF002108460AB080BD80B58AB05D
:103F9000694609F002FC0099002818BF0021084674
:103FA0000AB080BD70B5ADF5407D62AD04462846CF
:103FB000FCF7D0FC00206E462946E060304609F050
:103FC00011FCB6A9304609F0E8FBB0B96D46B6AEB3
:103FD000B99B63B1B698BE99BB9A04F1480C8CE8C2
:103FE0000700002021462A469847082809D128467C
:103FF000314609F0D2FB0028EAD003200DF5407DC0
:1040000070BD062803D0092818BF0320F6E762A870
:1040100069462246002303F0E2FE0220EEE7B0B537
:10402000ADF5367D62AD04462846FCF793FC694643
:1040300028462246012303F0D2FEAFF3008070B57C
:10404000049C1546064601290AD019BB02200F2DF3
:1040500015D8A3B930462946224609F0ADFB15E034
:1040600043F00400052809D1012B05D10F2D05D8F7
:10407000304609F0E3FB03E01F2D01D9022070BD9B
:1040800005F580713046224609F070FB002818BF04
:10409000022070BDAFF300802DE9F04F81B01D46C6
:1040A0001746894604469A4280F0FB800026E8467F
:1040B00037E00AF0070001210123E6E0AB4580F07C
:1040C000FC80B246023700200026791E81F00301F1
:1040D00019F8011001F07F0211F0800F02FA00F2CE
:1040E00046EA02060CD0791CAF4200F107000F46E9
:1040F000EBD3E2E02046012100F0E3F80237CBE009
:1041000020460D21424609F057FB00980D2100EB97
:10411000860000F501722046009209F0ADFB56467C
:10412000BAE087F0030007F1010B19F800A01AF0BC
:10413000800F0DD120460D21424609F03DFB4FEA8C
:104140008A001AF0400F29D100990844021D2CE082
:104150000AF0F00080380009052800F2AE80DFE8A0
:1041600000F0032A3947718DAB4580F0A6808BF0B3
:1041700003004FEA0A3119F8000089B241EA00123F
:10418000002A00F09A8020460021002300F099F8D0
:104190000AF00800023746EAD0067DE000F0FC0095
:1041A0006FF00301081A00994218009220460D2171
:1041B00009F062FB6FE04AF0020000F00F000F28E8
:1041C00000F07B800AF00F012046424609F0F4FA25
:1041D000009AEBE70AF007002021002301FA00F023
:1041E0000AF00801103840EAC1222046002150E0C0
:1041F000AAF1B00107293FF65CAF0920DFE801F022
:104200004F1211045E5E5E5E8BF00300012319F80D
:10421000000000F0F00100F00F00013040EA013230
:1042200068E74BE7AB4548D28BF0030019F8002054
:104230000920002A42D012F0F0013FD1204600218F
:10424000002359E70AF0FE00C82836D18BF003009E
:10425000AAF1C80219F80010B2FA82F2520908094C
:1042600001F00F0140EA021042181F2A25D801313F
:10427000C0B20523C9B241EA00423BE75FEA0A70D7
:104280001BD40AF0070001210523013040F400226D
:10429000204600F016F85F46AF42FFF442AFF00749
:1042A00009D16A4620460E2109F086FA009A204676
:1042B0000F2109F0E1FA082000E0092001B0BDE873
:1042C000F08F2DE9F04385B01E46154604460129BE
:1042D0002DD0002965D1A6BB02AA20460D2109F0E8
:1042E0006BFA70BB00274FF001080DF11009002692
:1042F00008FA06F0284213D0029832460023011D26
:10430000029100210068CDF800900490204600F052
:104310004AF8B0B9A6F10D00B0FA80F040090743A1
:104320000136102EE4D3F80732D000200AE046F020
:104330000400052805D104AA20460D2109F03CFA05
:1043400018B1022005B0BDE8F083A8B2C8B100EBF7
:1043500015472D0C0DF108080498334600F10802AA
:10436000016804922A464068CDE9021020460121E6
:10437000CDF8008000F017F80028E2D10135BD42E9
:10438000EAD3012E11BF049A0498021D049200E0A2
:10439000029A20460D2109F06FFA002818BF02206A
:1043A000D0E7AFF3008070B5049E1446054601299E
:1043B0000AD021BB02200F2C15D8A3B93268284699
:1043C000214609F059FA16E043F00400052809D106
:1043D000012B05D10F2C05D8284609F02FFA03E050
:1043E0001F2C01D9022070BDD6E9002304F580718D
:1043F000284609F026FA002818BF022070BDAFF346
:10440000008000002DE9F04F93B03A20ADF84A004B
:1044100006A8FDF713F99DF81F004FF2F449BDF807
:1044200018704FF0000842F210754FF0000BC0F604
:10443000000905909DF81A0001909DF81B0002905C
:104440009DF81D0003909DF81E00049048E008EBC5
:1044500048016920362300EB41003731490080B222
:104460008AB22B2102F0ECF8002400BF19F8046096
:1044700016F0010F0CBF4FF6FF7047F60F0001F06A
:10448000BDFBB00754BF4FF6FF7047F60F0001F0B9
:10449000B5FB700754BF4FF6FF7047F60F0001F0F1
:1044A000ADFB300754BF4FF6FF7047F60F0001F029
:1044B000A5FBF00654BF4FF6FF7047F60F0001F062
:1044C0009DFBB00654BF4FF6FF7047F60F0001F09A
:1044D00095FB01340C2CC9D14FF0000B92E000BFCA
:1044E0005FFA88F0032801D1012025E0C8F102021B
:1044F000C8F10300D2B200F00301032A02D2012066
:1045000041B919E0421A0120043A684312F0FF0F42
:10451000FAD189B1012903D100EB800040000BE002
:104520004FF47A7202294FF0640100FB02F208BFD7
:1045300000FB01F2104600BF4CF6CD41B7FBF0F096
:10454000B8F1020FCCF6CC41A0FB01124FEAD20128
:1045500001EB8101A0EB410407D85FEA0B6004D1B5
:10456000002C3FF474AF4FF0010B08EB48016920B9
:10457000362300EB41003731490080B28AB22B214B
:1045800002F05EF844F010004FF0000A00EB40002B
:1045900009EB800414F80A6016F0010F0CBF4FF607
:1045A000FF7047F60F0001F029FBB00754BF4FF62C
:1045B000FF7047F60F0001F021FB700754BF4FF664
:1045C000FF7047F60F0001F019FB300754BF4FF69C
:1045D000FF7047F60F0001F011FBF00654BF4FF6D5
:1045E000FF7047F60F0001F009FBB00654BF4FF60D
:1045F000FF7047F60F0001F001FB0AF1010ABAF162
:104600000C0FC7D108F10108B8F1040F7FF468AFAF
:1046100081253A240DF14A08691DA8B236238AB2D1
:104620002B2102F00DF8A4F120000026C0B200EB0F
:10463000400009EB800400BFA75D17F0010F0CBF1D
:104640004FF6FF7047F60F0001F0D8FAB80754BFD5
:104650004FF6FF7047F60F0001F0D0FA780754BF0D
:104660004FF6FF7047F60F0001F0C8FA380754BF45
:104670004FF6FF7047F60F0001F0C0FAF80654BF7E
:104680004FF6FF7047F60F0001F0B8FAB80654BFB6
:104690004FF6FF7047F60F0001F0B0FA01360C2E0E
:1046A000CAD118F8014F0635002CB5D100274FF0BC
:1046B000870B42F21078002542E000BF0CB10125C3
:1046C0007FE087202B218C22362301F0B9FF0024C4
:1046D00019F8045015F0010F0CBF4FF6FF7047F6A4
:1046E0000F0001F08BFAA80754BF4FF6FF7047F692
:1046F0000F0001F083FA680754BF4FF6FF7047F6CA
:104700000F0001F07BFA280754BF4FF6FF7047F601
:104710000F0001F073FAE80654BF4FF6FF7047F63A
:104720000F0001F06BFAA80654BF4FF6FF7047F672
:104730000F0001F063FA01340C2CC9D100258EE082
:10474000F8B2012802D1012026E000BF7A42C7F169
:104750000100D2B200F00301032A03D2012051B9B3
:104760001AE000BF421A0120043A00FB08F012F0E0
:10477000FF0FF9D181B1012903D100EB8000400086
:104780000AE04FF47A7202294FF0640100FB02F252
:1047900008BF00FB01F210460199002FB1FBF0F0B9
:1047A0004CF6CD41CCF6CC41A0FB01124FEAD20130
:1047B00001EB8101A0EB410408BF5FEA05603FF413
:1047C0007DAF07EB470136230BEB41004631490033
:1047D00080B28AB22B2101F033FF44F01000002692
:1047E00000EB400009EB800414F806A01AF0010F5A
:1047F0000CBF4FF6FF7047F60F0001F0FFF95FEABC
:104800008A7054BF4FF6FF7047F60F0001F0F6F9BB
:104810005FEA4A7054BF4FF6FF7047F60F0001F091
:10482000EDF95FEA0A7054BF4FF6FF7047F60F00CC
:1048300001F0E4F95FEACA6054BF4FF6FF7047F633
:104840000F0001F0DBF95FEA8A6054BF4FF6FF709A
:1048500047F60F0001F0D2F901360C2EC4D1013712
:10486000022F7FF46DAF93243A250DF14A0800BF63
:10487000611DA0B236238AB22B2101F0E1FEA5F121
:1048800020000026C0B200EB400009EB800700BF0B
:10489000BD5D15F0010F0CBF4FF6FF7047F60F001E
:1048A00001F0ACF9A80754BF4FF6FF7047F60F00B0
:1048B00001F0A4F9680754BF4FF6FF7047F60F00E8
:1048C00001F09CF9280754BF4FF6FF7047F60F0020
:1048D00001F094F9E80654BF4FF6FF7047F60F0059
:1048E00001F08CF9A80654BF4FF6FF7047F60F0091
:1048F00001F084F901360C2ECAD118F8015F063494
:10490000002DB5D100244FF0990B42F210774FF0F3
:10491000000A45E015B14FF0010A82E099202B21F1
:104920009E22362301F08CFE002500BF19F8056099
:1049300016F0010F0CBF4FF6FF7047F60F0001F0A5
:104940005DF9B00754BF4FF6FF7047F60F0001F056
:1049500055F9700754BF4FF6FF7047F60F0001F08E
:104960004DF9300754BF4FF6FF7047F60F0001F0C6
:1049700045F9F00654BF4FF6FF7047F60F0001F0FF
:104980003DF9B00654BF4FF6FF7047F60F0001F037
:1049900035F901350C2DC9D14FF0000A8EE000BF6A
:1049A000E0B2012802D1012026E000BF6242C4F13A
:1049B0000100D2B200F00301032A03D2012049B959
:1049C0001AE000BF421A0120043A784312F0FF0FA8
:1049D000FAD189B1012903D100EB800040000BE03E
:1049E0004FF47A7202294FF0640100FB02F208BF13
:1049F00000FB01F2104600BF0299002CB1FBF0F061
:104A00004CF6CD41CCF6CC41A0FB01124FEAD201CD
:104A100001EB8101A0EB410508BF5FEA0A603FF4AA
:104A200079AF04EB440136230BEB41004F314900D1
:104A300080B28AB22B2101F003FE45F010004FF046
:104A4000000800EB400009EB800500BF15F8086086
:104A500016F0010F0CBF4FF6FF7047F60F0001F084
:104A6000CDF8B00754BF4FF6FF7047F60F0001F0C6
:104A7000C5F8700754BF4FF6FF7047F60F0001F0FE
:104A8000BDF8300754BF4FF6FF7047F60F0001F036
:104A9000B5F8F00654BF4FF6FF7047F60F0001F06F
:104AA000ADF8B00654BF4FF6FF7047F60F0001F0A7
:104AB000A5F808F10108B8F10C0FC7D10134022C98
:104AC0007FF46EAF00244FF0AB0B42F210774FF043
:104AD000000A45E015B14FF0010A82E0AB202B211E
:104AE000B022362301F0ACFD002500BF19F80560A7
:104AF00016F0010F0CBF4FF6FF7047F60F0001F0E4
:104B00007DF8B00754BF4FF6FF7047F60F0001F075
:104B100075F8700754BF4FF6FF7047F60F0001F0AD
:104B20006DF8300754BF4FF6FF7047F60F0001F0E5
:104B300065F8F00654BF4FF6FF7047F60F0001F01E
:104B40005DF8B00654BF4FF6FF7047F60F0001F056
:104B500055F801350C2DC9D14FF0000A8EE000BF89
:104B6000E0B2012802D1012026E000BF6242C4F178
:104B70000100D2B200F00301032A03D2012049B997
:104B80001AE000BF421A0120043A784312F0FF0FE6
:104B9000FAD189B1012903D100EB800040000BE07C
:104BA0004FF47A7202294FF0640100FB02F208BF51
:104BB00000FB01F2104600BF0399002CB1FBF0F09E
:104BC0004CF6CD41CCF6CC41A0FB01124FEAD2010C
:104BD00001EB8101A0EB410508BF5FEA0A603FF4E9
:104BE00079AF04EB440136230BEB41005831490007
:104BF00080B28AB22B2101F023FD45F010004FF066
:104C0000000800EB400009EB800500BF15F80860C4
:104C100016F0010F0CBF4FF6FF7047F60F0000F0C3
:104C2000EDFFB00754BF4FF6FF7047F60F0000F0DE
:104C3000E5FF700754BF4FF6FF7047F60F0000F016
:104C4000DDFF300754BF4FF6FF7047F60F0000F04E
:104C5000D5FFF00654BF4FF6FF7047F60F0000F087
:104C6000CDFFB00654BF4FF6FF7047F60F0000F0BF
:104C7000C5FF08F10108B8F10C0FC7D10134022CAF
:104C80007FF46EAFB7243A250DF14A08611DA0B23A
:104C900036238AB22B2101F0D3FCA5F12000002697
:104CA000C0B200EB400009EB800700BFBD5D15F00E
:104CB000010F0CBF4FF6FF7047F60F0000F09EFF8C
:104CC000A80754BF4FF6FF7047F60F0000F096FF9D
:104CD000680754BF4FF6FF7047F60F0000F08EFFD5
:104CE000280754BF4FF6FF7047F60F0000F086FF0D
:104CF000E80654BF4FF6FF7047F60F0000F07EFF46
:104D0000A80654BF4FF6FF7047F60F0000F076FF7D
:104D100001360C2ECAD118F8015F0634002DB5D12A
:104D200000244FF0BD0B42F210774FF0000A45E02F
:104D300015B14FF0010A82E0BD202B21C22236239B
:104D400001F07EFC002500BF19F8056016F0010F88
:104D50000CBF4FF6FF7047F60F0000F04FFFB00793
:104D600054BF4FF6FF7047F60F0000F047FF700783
:104D700054BF4FF6FF7047F60F0000F03FFF3007BB
:104D800054BF4FF6FF7047F60F0000F037FFF006F4
:104D900054BF4FF6FF7047F60F0000F02FFFB0062C
:104DA00054BF4FF6FF7047F60F0000F027FF0135A4
:104DB0000C2DC9D14FF0000A8EE000BFE0B20128EF
:104DC00002D1012026E000BF6242C4F10100D2B24C
:104DD00000F00301032A03D2012049B91AE000BF01
:104DE000421A0120043A784312F0FF0FFAD189B138
:104DF000012903D100EB800040000BE04FF47A72F0
:104E000002294FF0640100FB02F208BF00FB01F22F
:104E1000104600BF0499002CB1FBF0F04CF6CD41D8
:104E2000CCF6CC41A0FB01124FEAD20101EB81018B
:104E3000A0EB410508BF5FEA0A603FF479AF04EBDD
:104E4000440136230BEB41006131490080B28AB244
:104E50002B2101F0F5FB45F010004FF0000800EBAE
:104E6000400009EB800500BF15F8086016F0010F3F
:104E70000CBF4FF6FF7047F60F0000F0BFFEB00703
:104E800054BF4FF6FF7047F60F0000F0B7FE7007F3
:104E900054BF4FF6FF7047F60F0000F0AFFE30072B
:104EA00054BF4FF6FF7047F60F0000F0A7FEF00664
:104EB00054BF4FF6FF7047F60F0000F09FFEB0069C
:104EC00054BF4FF6FF7047F60F0000F097FE08F151
:104ED0000108B8F10C0FC7D10134022C7FF46EAF7A
:104EE000C9243A250DF14A08611DA0B236238AB2C1
:104EF0002B2101F0A5FBA5F120000026C0B200EB9C
:104F0000400009EB800700BFBD5D15F0010F0CBF2D
:104F10004FF6FF7047F60F0000F070FEA80754BF71
:104F20004FF6FF7047F60F0000F068FE680754BFA9
:104F30004FF6FF7047F60F0000F060FE280754BFE1
:104F40004FF6FF7047F60F0000F058FEE80654BF1A
:104F50004FF6FF7047F60F0000F050FEA80654BF52
:104F60004FF6FF7047F60F0000F048FE01360C2E9A
:104F7000CAD118F8015F0634002DB5D100244FF0D6
:104F8000CF0B42F210774FF0000A45E015B14FF019
:104F9000010A82E0CF202B21D422362301F050FBDE
:104FA000002500BF19F8056016F0010F0CBF4FF681
:104FB000FF7047F60F0000F021FEB00754BF4FF618
:104FC000FF7047F60F0000F019FE700754BF4FF650
:104FD000FF7047F60F0000F011FE300754BF4FF688
:104FE000FF7047F60F0000F009FEF00654BF4FF6C1
:104FF000FF7047F60F0000F001FEB00654BF4FF6F9
:10500000FF7047F60F0000F0F9FD01350C2DC9D1F6
:105010004FF0000A8EE000BFE0B2012802D101206B
:1050200026E000BF6242C4F10100D2B200F00301E9
:10503000032A03D2012049B91AE000BF421A012015
:10504000043A784312F0FF0FFAD189B1012903D154
:1050500000EB800040000BE04FF47A7202294FF021
:10506000640100FB02F208BF00FB01F2104600BF22
:105070000599002CB1FBF0F04CF6CD41CCF6CC41BB
:10508000A0FB01124FEAD20101EB8101A0EB410527
:1050900008BF5FEA0A603FF479AF04EB44013623AE
:1050A0000BEB41006A31490080B28AB22B2101F03A
:1050B000C7FA45F010004FF0000800EB400009EB84
:1050C000800500BF15F8086016F0010F0CBF4FF601
:1050D000FF7047F60F0000F091FDB00754BF4FF688
:1050E000FF7047F60F0000F089FD700754BF4FF6C0
:1050F000FF7047F60F0000F081FD300754BF4FF6F8
:10510000FF7047F60F0000F079FDF00654BF4FF630
:10511000FF7047F60F0000F071FDB00654BF4FF668
:10512000FF7047F60F0000F069FD08F10108B8F1C3
:105130000C0FC7D10134022C7FF46EAF40F2F8009F
:10514000C2F200000068FBF7D5FB0B4644F2FD51AC
:10515000024606A8C0F6010108F0C2FB9DF81850EF
:10516000002D5FD04FF6681886240DF11809C0F69F
:10517000000800BFE11DA0B25B238AB24C2101F000
:105180005FFAA5F120000026C0B208EB001700BFAF
:10519000BD5D15F0010F0CBF4FF6FF704FF4784066
:1051A00000F02CFDA80754BF4FF6FF704FF4784075
:1051B00000F024FD680754BF4FF6FF704FF47840AD
:1051C00000F01CFD280754BF4FF6FF704FF47840E5
:1051D00000F014FDE80654BF4FF6FF704FF478401E
:1051E00000F00CFDA80654BF4FF6FF704FF4784056
:1051F00000F004FD680654BF4FF6FF704FF478408E
:1052000000F0FCFC280654BF4FF6FF704FF47840C6
:1052100000F0F4FC0136102EBAD119F8015F083401
:10522000002DA7D140F21410C2F200000068FBF775
:1052300061FB0B4644F2FD51024606A8C0F601018F
:1052400008F04EFB9DF81850002D5FD04FF66818FF
:1052500086240DF11809C0F6000800BFE11DA0B2B8
:105260006B238AB25C2101F0EBF9A5F12000002646
:10527000C0B208EB001700BFBD5D15F0010F0CBFF9
:105280004FF6FF704FF4784000F0B8FCA80754BF09
:105290004FF6FF704FF4784000F0B0FC680754BF41
:1052A0004FF6FF704FF4784000F0A8FC280754BF79
:1052B0004FF6FF704FF4784000F0A0FCE80654BFB2
:1052C0004FF6FF704FF4784000F098FCA80654BFEA
:1052D0004FF6FF704FF4784000F090FC680654BF22
:1052E0004FF6FF704FF4784000F088FC280654BF5A
:1052F0004FF6FF704FF4784000F080FC0136102E1E
:10530000BAD119F8015F0834002DA7D140F260101E
:10531000C2F200000068FBF7EDFA0B4644F2FD51C3
:10532000024606A8C0F6010108F0DAFA9DF8185006
:10533000002D5FD04FF6681886240DF11809C0F6CD
:10534000000800BFE11DA0B27B238AB26C2101F0EE
:1053500077F9A5F120000026C0B208EB001700BFC6
:10536000BD5D15F0010F0CBF4FF6FF704FF4784094
:1053700000F044FCA80754BF4FF6FF704FF478408C
:1053800000F03CFC680754BF4FF6FF704FF47840C4
:1053900000F034FC280754BF4FF6FF704FF47840FC
:1053A00000F02CFCE80654BF4FF6FF704FF4784035
:1053B00000F024FCA80654BF4FF6FF704FF478406D
:1053C00000F01CFC680654BF4FF6FF704FF47840A5
:1053D00000F014FC280654BF4FF6FF704FF47840DD
:1053E00000F00CFC0136102EBAD119F8015F083418
:1053F000002DA7D140F2A80044F2F951C2F20000FA
:10540000C0F60101026806A808F06AFA9DF8185073
:10541000002D5FD04FF6681886240DF11809C0F6EC
:10542000000800BFE11DA0B28B238AB27C2101F0ED
:1054300007F9A5F120000026C0B208EB001700BF55
:10544000BD5D15F0010F0CBF4FF6FF704FF47840B3
:1054500000F0D4FBA80754BF4FF6FF704FF478401C
:1054600000F0CCFB680754BF4FF6FF704FF4784054
:1054700000F0C4FB280754BF4FF6FF704FF478408C
:1054800000F0BCFBE80654BF4FF6FF704FF47840C5
:1054900000F0B4FBA80654BF4FF6FF704FF47840FD
:1054A00000F0ACFB680654BF4FF6FF704FF4784035
:1054B00000F0A4FB280654BF4FF6FF704FF478406D
:1054C00000F09CFB0136102EBAD119F8015F0834A8
:1054D000002DA7D140F2AC0044F2F951C2F2000015
:1054E000C0F60101026806A808F0FAF99DF8185004
:1054F000002D5FD04FF6681886240DF11809C0F60C
:10550000000800BFE11DA0B29B238AB28C2101F0EC
:1055100097F8A5F120000026C0B208EB001700BFE5
:10552000BD5D15F0010F0CBF4FF6FF704FF47840D2
:1055300000F064FBA80754BF4FF6FF704FF47840AB
:1055400000F05CFB680754BF4FF6FF704FF47840E3
:1055500000F054FB280754BF4FF6FF704FF478401B
:1055600000F04CFBE80654BF4FF6FF704FF4784054
:1055700000F044FBA80654BF4FF6FF704FF478408C
:1055800000F03CFB680654BF4FF6FF704FF47840C4
:1055900000F034FB280654BF4FF6FF704FF47840FC
:1055A00000F02CFB0136102EBAD119F8015F083437
:1055B000002DA7D140F25C10C2F200000068FBF79A
:1055C00008F90021C4F2C821FAF7C1FEFBF792F9ED
:1055D00002460B4606A80FF2D84108F081F99DF863
:1055E0001850002D5ED04FF6681886240DF118096A
:1055F000C0F60008E11DA0B24B238AB23C2101F0A5
:105600001FF8A5F120000026C0B208EB001700BF6C
:10561000BD5D15F0010F0CBF4FF6FF704FF47840E1
:1056200000F0ECFAA80754BF4FF6FF704FF4784033
:1056300000F0E4FA680754BF4FF6FF704FF478406B
:1056400000F0DCFA280754BF4FF6FF704FF47840A3
:1056500000F0D4FAE80654BF4FF6FF704FF47840DC
:1056600000F0CCFAA80654BF4FF6FF704FF4784014
:1056700000F0C4FA680654BF4FF6FF704FF478404C
:1056800000F0BCFA280654BF4FF6FF704FF4784084
:1056900000F0B4FA0136102EBAD119F8015F0834BF
:1056A000002DA7D14FF668185624AE250DF1180924
:1056B000C0F60008ADF81840E91DA8B24B238AB225
:1056C0003C2100F0BDFFA4F120000024C0B208EB93
:1056D000001700BF3E5D16F0010F0CBF4FF6FF70C4
:1056E0004FF4784000F08AFAB00754BF4FF6FF70CD
:1056F0004FF4784000F082FA700754BF4FF6FF7005
:105700004FF4784000F07AFA300754BF4FF6FF703C
:105710004FF4784000F072FAF00654BF4FF6FF7075
:105720004FF4784000F06AFAB00654BF4FF6FF70AD
:105730004FF4784000F062FA700654BF4FF6FF70E5
:105740004FF4784000F05AFA300654BF4FF6FF701D
:105750004FF4784000F052FA0134102CBAD119F805
:10576000014F0835002CA7D140F2A500D2A1C2F20A
:105770000000027806A808F0B3F89DF81840002C45
:105780005AD05E250DF11809E91DA8B2AB238AB2E3
:105790009C2100F055FFA4F120000024C0B208EBCA
:1057A000001700BF3E5D16F0010F0CBF4FF6FF70F3
:1057B0004FF4784000F022FAB00754BF4FF6FF7064
:1057C0004FF4784000F01AFA700754BF4FF6FF709C
:1057D0004FF4784000F012FA300754BF4FF6FF70D4
:1057E0004FF4784000F00AFAF00654BF4FF6FF700D
:1057F0004FF4784000F002FAB00654BF4FF6FF7045
:105800004FF4784000F0FAF9700654BF4FF6FF707D
:105810004FF4784000F0F2F9300654BF4FF6FF70B5
:105820004FF4784000F0EAF90134102CBAD119F89D
:10583000014F0835002CA7D140F2A400A0A1C2F26C
:105840000000027806A808F04BF89DF81840002CDC
:105850005AD05E250DF11809E91DA8B2BB238AB202
:10586000AC2100F0EDFEA4F120000024C0B208EB52
:10587000001700BF3E5D16F0010F0CBF4FF6FF7022
:105880004FF4784000F0BAF9B00754BF4FF6FF70FC
:105890004FF4784000F0B2F9700754BF4FF6FF7034
:1058A0004FF4784000F0AAF9300754BF4FF6FF706C
:1058B0004FF4784000F0A2F9F00654BF4FF6FF70A5
:1058C0004FF4784000F09AF9B00654BF4FF6FF70DD
:1058D0004FF4784000F092F9700654BF4FF6FF7015
:1058E0004FF4784000F08AF9300654BF4FF6FF704D
:1058F0004FF4784000F082F90134102CBAD119F835
:10590000014F0835002CA7D140F2A0006EA1C2F2D1
:105910000000026806A807F0E3FF9DF81840002C7D
:105920005AD05E250DF11809E91DA8B2CB238AB221
:10593000BC2100F085FEA4F120000024C0B208EBD9
:10594000001700BF3E5D16F0010F0CBF4FF6FF7051
:105950004FF4784000F052F9B00754BF4FF6FF7093
:105960004FF4784000F04AF9700754BF4FF6FF70CB
:105970004FF4784000F042F9300754BF4FF6FF7003
:105980004FF4784000F03AF9F00654BF4FF6FF703C
:105990004FF4784000F032F9B00654BF4FF6FF7074
:1059A0004FF4784000F02AF9700654BF4FF6FF70AC
:1059B0004FF4784000F022F9300654BF4FF6FF70E4
:1059C0004FF4784000F01AF90134102CBAD119F8CC
:1059D000014F0835002CA7D140F291003EA1C2F240
:1059E0000000027806A807F07BFF9DF81840002C05
:1059F0005AD05E250DF11809E91DA8B2DB238AB241
:105A0000CC2100F01DFEA4F120000024C0B208EB60
:105A1000001700BF3E5D16F0010F0CBF4FF6FF7080
:105A20004FF4784000F0EAF8B00754BF4FF6FF702B
:105A30004FF4784000F0E2F8700754BF4FF6FF7063
:105A40004FF4784000F0DAF8300754BF4FF6FF709B
:105A50004FF4784000F0D2F8F00654BF4FF6FF70D4
:105A60004FF4784000F0CAF8B00654BF4FF6FF700C
:105A70004FF4784000F0C2F8700654BF4FF6FF7044
:105A80004FF4784000F0BAF8300654BF4FF6FF707C
:105A90004FF4784000F0B2F80134102CBAD119F864
:105AA000014F0835002CA7D113B0BDE8F08F00BF1F
:105AB00025342E326600000063783A256420000009
:105AC00063773A256420000043726F73734E756DDF
:105AD0003A2564200000000063693A256420000034
