:020000040800F2
:1000000050080020F101000871210008F1180008D3
:100010006D2100084110000845360008000000006E
:1000200000000000000000000000000003020008C3
:10003000DD100008000000000702000809020008A7
:100040000B0200080B0200080B0200080B0200085C
:100050000B0200080B0200080B0200080B0200084C
:100060000B0200080B0200080B0200080B0200083C
:100070000B0200080B0200080B0200080B0200082C
:100080000B0200080B0200080B0200080B0200081C
:100090000B0200080B0200080B0200080B0200080C
:1000A0000B0200080B0200080B0200080B020008FC
:1000B00001290008292900083D2900080B02000831
:1000C0000B0200080B0200080B0200080B020008DC
:1000D0000B020008AD3300080B0200080B020008F9
:1000E0000B0200080B0200080B0200080B020008BC
:1000F000512900080B0200080B0200080B0200083F
:100100000B0200080B0200080B0200080B0200089B
:100110000B0200080B0200080B0200080B0200088B
:100120000B0200080B0200080B0200080B0200087B
:1001300000F002F800F04DF80AA090E8000C8244AC
:100140008344AAF10107DA4501D100F042F8AFF289
:10015000090EBAE80F0013F0010F18BFFB1A43F0A5
:100160000103184780160100A0160100103A24BFB1
:1001700078C878C1FAD8520724BF30C830C144BF0C
:1001800004680C607047000000230024002500264E
:10019000103A28BF78C1FBD8520728BF30C148BFEA
:1001A0000B60704766290CF0C680642900F0AE80B1
:1001B000782900F0E780002070471FB500F00AFDA5
:1001C0000400002000210AF03FFEE0601FBD10B5D2
:1001D00010BD00F007FE1146FFF7EFFF08F02CF806
:1001E00000F025FE03B4FFF7F2FF03BC07F0E4F8CC
:1001F0000948804709480047FEE7FEE7FEE7FEE7BB
:10020000FEE7FEE7FEE7FEE7FEE7FEE704480549F6
:10021000054A064B70470000A92700083101000875
:1002200050020020500800205004002050040020FC
:10023000704710B54C1084EA530404D54042C1F114
:10024000000138BF491E1B4204D55242C3F10003CE
:1002500038BF5B1E00F0A4F914F0804F04D0404278
:10026000C1F1000138BF491E14F0004F04D05242C2
:10027000C3F1000338BF5B1E10BD00000FB404497A
:1002800010B503AA029800F093FC10BC5DF814FBB3
:10029000C80100200FB41CB5074B06AA7B44694671
:1002A0000090059800F06BFC0020694600F07AFC95
:1002B0001CBC5DF814FB00000509000070B5044685
:1002C00085690068C10601D5302600E02026C007F8
:1002D00007D070BDD4E9012130469047206A401C08
:1002E00020626D1EF6D570BD70B504468569007834
:1002F000C00707D170BDD4E9012120209047206AB2
:10030000401C20626D1EF6D570BD00002DE9F04145
:100310000646002410687529314616A510D0AFF3A3
:100320000080002802DA404213A507E031688A07FE
:1003300001D512A502E0490704D511A5012401E069
:10034000AFF3008000210A2206F1240709E0B0FB88
:10035000F2FCB0FBF2F302FB1C003030785418467C
:10036000491C0028F3D123462A463046BDE8F04117
:1003700000F098B9000000002D0000002B000000E4
:100380002000000070B504460D4621461068AFF30A
:1003900000802188090502D50F4A7A4402E00E4AFE
:1003A0007A440E32002104F1240305E000F00F0628
:1003B0000009965D5E54491C0028F7D1207800237F
:1003C000000704D5702D02D009B102231132204656
:1003D000BDE8704000F066B9D8C000002DE9F05FBC
:1003E000894604464FF0000ADFF824B1FB44C0F808
:1003F00020A02046E168884700287DD0252806D027
:10040000D4E901219047206A401C2062F1E70025D1
:100410005F462046E16888472028064607DB312EE4
:1004200005D2B81910F8200C08B10543F1E7A80768
:1004300001D525F00405C4F81CA00027C4F818A0B5
:100440002A2E09D030460AF076F838B304EB870834
:10045000303EC8F8186019E059F8041B204604EB38
:1004600087029161E1688847012F064618D1E0694B
:10047000002820DA25F020051DE0D8F8180000EB50
:10048000800006EB40003038C8F818002046E168CC
:10049000884706460AF04FF80028EED1012F0AD00F
:1004A0002E2E08D12046E16888477F1C0646022F81
:1004B00045F02005C4DBA069002803DA404245F07E
:1004C0000105A061E80701D025F01005A6B1A6F14D
:1004D0004100192802D8203645F400654A463146C5
:1004E000204625604D46FFF75DFE60B1012807D02C
:1004F000ED1D25F0070000E007E000F1080978E7AE
:1005000005F1040975E730467AE7206ABDE8F09FF7
:10051000AEC0000010B5044603E007F01DFC401C0F
:1005200009D014F8010B05490028F6D1BDE81040A8
:100530000A2007F011BC4FF0FF3010BDC8010020A9
:1005400040EA010310B59B070FD1042A0DD310C850
:1005500008C9121F9C42F8D020BA19BA884201D9A2
:10056000012010BD4FF0FF3010BD1AB1D30703D0EA
:10057000521C07E0002010BD10F8013B11F8014BA0
:100580001B1B07D110F8013B11F8014B1B1B01D1BC
:10059000921EF1D1184610BD7047704770477047E2
:1005A00053EA020C00F069802DE9F04B4FF0000691
:1005B000002B1FBFB3FA83F503FA05F424FA05F6FE
:1005C0005E4012BF1643B2FA82F502FA05F4C5F195
:1005D00020051EBF22FA05FC44EA0C04203556EA29
:1005E000044C4FEA144418BF641C4FF000084FF04D
:1005F0000009904271EB030C39D3002919BFB1FAFD
:1006000081F701FA07F6B0FA80F700FA07F6C7F1AA
:1006100020071EBF20FA07FC46EA0C062037B6FB6F
:10062000F4FCA7EB0507103F07F01F0BCBF12006EA
:100630002CFA06F60CFA0BFB44BFB3460026202F1B
:10064000A4BF5E464FF0000B5BEA060C08BF4FF0FC
:10065000010B19EB0B0948EB0608ABFB027C06FB10
:1006600002CC0BFB03CCC01B71EB0C01C1E70B46AA
:10067000024641464846BDE8F08B13B54FF00000F6
:100680004FF00001AFF30080BDE81C40704710B58B
:1006900000F0A4FA006810BD10B5044600F09EFA00
:1006A000046010BD2DE9F0470D4699469246044678
:1006B00000F124080168880604D5E06921F01001E2
:1006C000216000E00120A84201DD471B00E0002777
:1006D000A1697A1902EB0900081AA0612078C00606
:1006E00002D42046FFF7EAFD002608E0D4E9012104
:1006F0001AF806009047206A401C761C20624E457E
:10070000F4DB2078C0060AD52046FFF7D7FD06E0C7
:10071000D4E9012130209047206A401C2062381E15
:10072000A7F10107F4DC07E0D4E9012118F805007E
:100730009047206A401C2062281EA5F10105F3DCC9
:100740002046FFF7D1FD2078000602D50220BDE843
:10075000F0870120FBE72DE9FF4F0C461E464FF0C6
:10076000FF378BB0D2E90001DDF860800A908A463D
:10077000C1F30A5505B93D46002108464FF0000077
:10078000BAF1000F00F4400005DA00EB80004FF4EE
:10079000400101EA50004FEA9059B9F1010F00DD24
:1007A000B9460A9850EA4A000ED044F61050A5F215
:1007B000FF3545432F14B8F1000F1ED07542291E96
:1007C0001EDDC9F100021CE0B8F1010F4FF000007E
:1007D00001D0302103E0F24305E02154401CB04237
:1007E000FBDB30460022002121540B99C1F8088020
:1007F000C1E900200FB0BDE8F08FBD1B6D1CDEE726
:100800004A4600DA694206A800F072FA06AB93E89D
:10081000070003AB83E8070050460A9909F02CFA59
:100820008DE80700A0F500501F3800900398002DB8
:100830000ADD42F21F014A460844002303A903903F
:10084000684609F095FC09E0A0F500504A461F38BB
:10085000002303A90390684609F09FFC8DE8070078
:100860000004000C03D04FF0FF30410800E01046B8
:10087000B8F1000F03D00022009215461EE0751E4D
:1008800005D400F0AFF9303262556D1EF9D5B3468C
:100890000122084302D000227F1C04E02078302887
:1008A00001D100227F1E002A099784D01DE0112D5E
:1008B00007DA00F097F9303262556D1C50EA0102F8
:1008C000F5D1084302D00098C8B10EE00021681E9F
:1008D00005E0235C625C63542254401E491C814243
:1008E000F7DBAB46A81B401E0990002004F80B0064
:1008F0000B98099AC0F80880C0E9002B7AE7112606
:100900004FF0000857E72DE9F04F88460446D21D06
:1009100022F0070191B0D1E90001CDE90A0109F007
:1009200073FD02460B98C00F01D02D2007E0206810
:10093000810701D52B2002E0202101EAC000032A13
:10094000099001D0072A05DB03464146204600F006
:100950008FF90BE12078800601D5E06900E00620E0
:10096000B8F1650F814606D0B8F1660F18D0B8F11E
:10097000670F70D131E00020B9F1110F009001DB59
:10098000112301E009F101030AAA01A90CA8FFF74C
:10099000E2FEDDE90C70002609F10105834647E01F
:1009A00001204B4600904FF000470AAA01A90CA86D
:1009B000FFF7D1FEDDE90DB00C995D46002610B9B8
:1009C00009F101000D18B9EB050003D4C0F1FF36A1
:1009D00009F10105A5EB09002BE0B9F1010F01DADE
:1009E0004FF001090020B9F1110F0090484601DDD8
:1009F000112300E003460AAA01A90CA8FFF7ABFEE9
:100A0000DDE90C704D4600268346207800070AD4A5
:100A1000AB4500DA5D4601A8012D04DD411911F84E
:100A2000011C302907D04F4502DA17F1040F04DA10
:100A3000012082460FE06D1EEEE7002F02DCED1B69
:100A40003E4403E0781CA84200DD7D1CB81B00F189
:100A5000010A4FF000472078000703D4AA4501DBC4
:100A60004FF0FF3A0021B7F1004F0DF143088DF828
:100A7000431024D002202B23002F01DA7F422D23A4
:100A80000A21021EA0F1010000DC5FB197FBF1FC1E
:100A900097FBF1F201FB1C7C17460CF1300C08F8B7
:100AA00001CDEEE7A8F1010003702188090501D509
:100AB000452100E06521A0F1010800F8011C09981A
:100AC0000FA9A1EB0807FF1D00B10120411901EB9F
:100AD000EA70A1693844081A401EA0612078C00657
:100AE00002D42046FFF7EAFB099828B1D4E9012196
:100AF0009047206A401C20622078C00622D52046FC
:100B0000FFF7DCFB1EE0002E04DBB34502DD01A88D
:100B1000805D00E03020D4E901219047206A401C2C
:100B20002062761CAAF101005FEA000A0AD100F0F7
:100B300051F8C0680168405CD4E901219047206AFF
:100B4000401C2062281EA5F10105DCDC07E0D4E989
:100B5000012118F8010B9047206A401C2062381EC2
:100B6000A7F10107F3DC2046FFF7BEFB032011B01D
:100B700041E6000001694A1C02610878704700B52F
:100B80008FB0CDE901310021059105497944CDE9C6
:100B9000031011466846FFF721FC0FB000BD0000AE
:100BA000E5FFFFFF0A6802F8010B0A6070470000CA
:100BB000074B70B50D467B44FFF7E1FF044628461E
:100BC00000F008F910B14FF0FF3070BD204670BD45
:100BD0009F7100000048704788000020004870475F
:100BE0006800002030B5B0F10A0271F100034FEA4D
:100BF000900E4EEA817EB0EB0E0061EB91014FEA60
:100C0000101E4EEA017E10EB0E0041EB11114FEA6F
:100C1000102E4EEA016E10EB0E0041EB11214FEA4F
:100C2000104E4EEA014E10EB0E0041EB1141401800
:100C300041F100014FEAD00040EA41704FEAD10192
:100C40004FEA810444EA907410EB800544EB010400
:100C50006D1944EB0404521BA3414FF0000348BF3D
:100C60000A3200D530BD401C41F1000130BD00000A
:100C70002DE9F0411F46044603260168072A01F4C6
:100C8000006004DB08B116A505E016A503E008B175
:100C900015A500E015A521F010002060A069C01E78
:100CA000A0610FB1401EA0612046FFF707FB4FB1C6
:100CB000D4E9012138469047206A401C2062C01CBC
:100CC000206206E0206AFAE7D4E9012115F8010B59
:100CD0009047761EF8D22046FFF706FBBDE8F0816C
:100CE0004E414E006E616E00494E4600696E6600D0
:100CF0002DE9F047814616468AB0354878440DC83C
:100D00008DE80D0032487844801C03AC0DC884E89F
:100D10000D0041F69B300844372190FBF1F290FB27
:100D2000F1F5A5F1800501FB12041B3C02D56442DC
:100D3000012000E00020DFF898A080460027FA4458
:100D4000AAF1BE0A0EE0E0070AD03246684607EB79
:100D5000470101230AEB810109F01FFA8DE8070022
:100D600064107F1C002CEED1194F7F44AE3F19E078
:100D7000E80715D007EB04100DF1180A90E80E00F3
:100D80008AE80E00C068F04201D1981908903246F6
:100D9000012306A903A809F000FA03AB83E80700C2
:100DA0006D10641C002DE3D14FF0010332466946FB
:100DB000B8F1000F03A802D009F0DAF901E009F058
:100DC000ECF9C9E90001C9F808200AB0BDE8F087CC
:100DD0001CB90000007B00F080007047004870479D
:100DE000680000207546FFF7F9FFAE46050069462A
:100DF000534620F00700854618B020B5FFF706FAE5
:100E0000BDE820404FF000064FF000074FF000080B
:100E10004FF0000BAC46ACE8C009ACE8C009ACE848
:100E2000C009ACE8C00921F007018D46704710B534
:100E30000446AFF300802046BDE81040FFF7D2B96A
:100E40004FF0013C50F8042B51F8043B9A4221D159
:100E5000A2EB0C03934313EACC1317D150F8042BE5
:100E600051F8043B9A4215D1A2EB0C03934313EAC9
:100E7000CC130BD150F8042B51F8043B9A4209D102
:100E8000A2EB0C03934313EACC13DBD04FF000002A
:100E9000704700BFD01A01BAB1FA81F101F0180110
:100EA00022FA01F0CB40DBB2C0B2C01AC1F120017E
:100EB0002CFA01F3D11A914311EAC311E6D170471C
:100EC0008268002942F0010308BF22F00103836019
:100ED0007047000080B543F60041C4F2010188422A
:100EE00014D042F60001C4F20101884216D042F249
:100EF0000041C4F20101884218BF80BD4FF4007068
:100F0000012101F063F94FF400700EE04FF400404E
:100F1000012101F05BF94FF4004006E04FF48060DE
:100F2000012101F053F94FF480600021BDE88040B9
:100F300001F04CB98068C0F380007047C06C80B28B
:100F4000704700000068084018BF0120704700008B
:100F50008068C0F3C000704780B54FF6FF634268F9
:100F6000CFF6F07302EA030CD1E9003243EA0C0336
:100F700043EA02224FF2FD734260CFF6F1738268BA
:100F800002EA030ED1E902C30A6942EA0E021A43D9
:100F900042EA4C028260C26A097D013922F4700281
:100FA000C9B242EA0151C16280BD000010B501EB37
:100FB000410C092988BFACF11E0C092903FA0CFE6B
:100FC0004FF0070303FA0CFC4FF0100388BF0C230B
:100FD000062AC45824EA0C0444EA0E04C45003D878
:100FE00034306FF0040307E00C2A87BF2C306FF019
:100FF000400330306FF0220302EB82021A441F23B9
:10100000914003FA02F2036823EA020211430160ED
:1010100010BD0000816841F0080181607047000048
:101020008268002942F4A00308BF22F4A003836071
:1010300070470000816841F0040181607047000042
:10104000FEE70000B0B50C464DF20A71C3F6A341AD
:101050000BF026F8054640F234002146C2F20000AB
:1010600000680BF01DF840F2D4040146C2F20004FF
:1010700020680AF087FD4EF24811C3F67A710BF032
:101080000FF8014628460AF07DFD2060B0BD000043
:10109000B0B50C464DF20A71C3F6A3410BF000F84F
:1010A000054640F234002146C2F2000000680AF012
:1010B000F7FF40F2D8040146C2F2000420680AF0AB
:1010C00061FD4EF24811C3F67A710AF0E9FF01465C
:1010D00028460AF057FD2060B0BD000070470000B0
:1010E00080B5D1F808E00EF00F0C1EF0100F1CBFF9
:1010F0004B684CEA030C098811F0FF0F00F0A48044
:101100000368CA070BD023F00F02BEF1480F42EA72
:101110000C0315D0BEF1280F01D1012242618A07CC
:1011200012D523F0F002BEF1280F42EA0C131CD0B6
:10113000BEF1480F08D1022202614A0706D418E026
:10114000012202618A07ECD44A0712D523F47062A7
:10115000BEF1280F42EA0C231CD0BEF1480F08D183
:10116000042202610A0719D505E0022242614A07FA
:10117000ECD40A0712D523F47042BEF1280F42EADC
:101180000C331CD0BEF1480F08D108220261CA06F8
:1011900006D418E0042242610A07ECD4CA0612D52C
:1011A00023F47022BEF1280F42EA0C431CD0BEF19A
:1011B000480F08D1102202618A0619D505E00822DD
:1011C0004261CA06ECD48A0612D523F47002BEF13D
:1011D000280F42EA0C531CD0BEF1480F08D1202240
:1011E00002614A0606D418E0102242618A06ECD455
:1011F0004A0612D523F07062BEF1280F42EA0C6352
:101200001AD0BEF1480F08D1402202610A061AD551
:1012100005E0202242614A06ECD40A0613D523F0E9
:101220007042BEF1280F42EA0C730AD0BEF1480F9B
:1012300009D18022026106E0402242610A06EED412
:1012400001E0802242610360B1F5807F38BF80BD3C
:101250004368CA050CD523F00F02BEF1480F42EADD
:101260000C0317D0BEF1280F02D14FF480724261F7
:101270008A0514D523F0F002BEF1280F42EA0C13C0
:101280001FD0BEF1480F0AD14FF4007202614A0527
:1012900007D41BE04FF4807202618A05EAD44A0544
:1012A00014D523F47062BEF1280F42EA0C231FD03C
:1012B000BEF1480F0AD14FF4806202610A051CD5C5
:1012C00006E04FF4007242614A05EAD40A0514D5DB
:1012D00023F47042BEF1280F42EA0C331FD0BEF156
:1012E000480F0AD14FF400620261CA0407D41BE020
:1012F0004FF4806242610A05EAD4CA0414D523F48B
:101300007022BEF1280F42EA0C431FD0BEF1480FF5
:101310000AD14FF4805202618A041CD506E04FF4D2
:1013200000624261CA04EAD48A0414D523F470022C
:10133000BEF1280F42EA0C531FD0BEF1480F0AD16C
:101340004FF4005202614A0407D41BE04FF480526C
:1013500042618A04EAD44A0414D523F07062BEF1D3
:10136000280F42EA0C631ED0BEF1480F0AD14FF499
:101370008042026109041BD506E04FF4005242612D
:101380004A04EAD4090413D523F07041BEF1280FB2
:1013900041EA0C730ED0BEF1480F09D14FF4004161
:1013A0000161436080BD4FF4804242610904EBD487
:1013B000436080BD4FF400414161436080BD000047
:1013C00010B50422002800F440141FFA80FCC4F277
:1013D00001021346B8BF43F01803B4F5401F1B6861
:1013E000C0F3034E07D1146823F0706324F07064D7
:1013F000146081B916E0C40206D447F6F07404EA1A
:1014000050440CFA04F402E0032404FA0EF4A3435B
:1014100043F0706331B147F6F07101EA50410CFAC4
:1014200001F10B430028B8BF1832136010BD000053
:1014300041617047016170472DE9F04F87B0054663
:1014400000F0E4FD40F24011012DC2F200010860FD
:1014500012D140F2241440F23C1040F26012C2F269
:101460000004C2F20000C2F20002214606F064FF4E
:1014700060B107B0BDE8F08F0DF10E0369203B218C
:101480000E2200F007FF00286DD091E00DF10E0351
:1014900069203B21062200F0FDFED0B9BDF80E0008
:1014A00040F21C21C2F2000100BA000C0880BDF815
:1014B000100040F21E21C2F2000100BA000C0880A8
:1014C000BDF8120040F22021C2F2000100BA000C67
:1014D00008800DF10E0369204321062200F0DAFE98
:1014E000D0B9BDF80E0040F24421C2F2000100BAAA
:1014F000000C0880BDF8100040F24621C2F2000145
:1015000000BA000C0880BDF8120040F24821C2F277
:10151000000100BA000C088040F2CC012068C2F241
:101520000001086040F23E21C2F20001B1F9000062
:10153000B1F904400AF020FD40F2F401C2F20001CA
:10154000086020460AF018FD40F2F801C2F20001DE
:10155000086040F22220C2F20000B0F904000AF054
:101560000BFD804692E0BDF80E00C0BA0AF004FD03
:101570000290BDF81000C0BA0AF0FEFC8246BDF829
:101580001200C0BA0AF0F8FC8046BDF81600C0BAD6
:101590000AF0F2FC0646BDF81A00C0BA0AF0ECFCEC
:1015A0000190BDF81800C0BA0AF0E6FC0AF0BEFAD5
:1015B00040F2F40246F26664C2F20002C4F2300461
:1015C00016604FF06632234609F042FD09F052FCE6
:1015D000834630460AF0AAFA4FF06632234609F0F5
:1015E00037FD09F047FC81465046414609F0C0FAF4
:1015F0000024C4F2343421460AF052FD40F6DB7672
:10160000C4F2490631460AF085FB07460298414676
:1016100009F0AEFA21460AF043FD31460AF07AFBA2
:101620000446032D10D0022D019D20D13846494695
:1016300000F070FB40F22411C2F200010860204665
:10164000594600F025FC0DE038464946FFF7FAFC04
:1016500040F22411C2F20001086020465946FFF70B
:1016600017FD019D40F23C11C2F20001086040F2FA
:10167000F80040F2CC01C2F20000C2F200010560A5
:1016800040F22410C2F200000068086040F2C80076
:10169000C2F20000C0F8008007B0BDE8F08F000083
:1016A0002DE9F04742F6040CC4F2000CBCF800101F
:1016B00011F0080F00F00C81BCF81410BCF81820D1
:1016C00042EA014944F20751CCF22E21A9FB011252
:1016D00040F29A114FEA124EC2F200010B88B3EBAE
:1016E000124F08D140F27811C2F200018D7891F8C2
:1016F00003A009887BE0A1F800E043F28031C0F24A
:10170000E111894529D348F21F544FF6926840F2FF
:10171000B2714FF0640A4FF4C8767346C5F2EB1409
:10172000CFF6FF7811F0030F0AD18AB2A2FB04575B
:10173000FD0905FB16255DB17D0905FB1A223AB9A5
:101740006FF4B67213440131B3F5B67FEAD807E0FF
:10175000B3F5B77F4246F5D202E040F2B27173466C
:1017600040F278181C2BC2F20008A8F8001034D3FD
:1017700048F21F548AB2642641F2327A01F003071C
:10178000C5F2EB14C0F6010AA2FB04456C09ED0991
:1017900004FB16244FF4C87605FB1622002C4FF0EC
:1017A0000005B2FA82F218BF0124520944EA020687
:1017B000AAB24FB9541EB4FA84F46409344003D079
:1017C0001D2B0CD31D3B04E01AF80220934207D3D3
:1017D0009B1A01351B2BEBD802E0002500E0012508
:1017E00003F1010A013588F803A088F8025040F29D
:1017F000A3224FF4616489B20EFB02F2A9EBC21777
:101800004BF2C532C9F2A212A7FB022640F27812AF
:10181000F60AC2F2000206FB1477567148F68906F2
:10182000C8F68806A7FB0664660996713601A6EB22
:1018300054166424A7EB8607D77148F21F57C5F2E8
:10184000EB17A1FB0776FC2707EA5617760906FB7C
:101850001411132F44F6251688BF6431C2F2924644
:1018600001EB910711F0030FA7FB0643A7EB03045D
:1018700003EB54034FEA93044FEAC404A4EB93032D
:101880005FFA8AF4A7EB0303EFB24CF24865C0F6A7
:1018900000053D4415F8015C25442B444FF6FF75C7
:1018A000194608BF2944032F28BF194689B2A1FB56
:1018B0000637CB1B07EB53039F08FF00A7EB9303EF
:1018C000C91A1171BCF8001021F00801ACF8001021
:1018D00040F27811C2F2000191E88C00D1E9036571
:1018E000496980E88C00C0E903654161BDE8F08783
:1018F000FEE70000022005F0A1BD000010B584B095
:1019000008200121012400F055FC102001A90390BA
:101910004FF44060ADF804000320029040F6004010
:10192000C4F20100FFF7DCFB48F2A810C4F221204A
:101930000460446004B010BD2DE9F04F83B040F660
:101940000441029048F2A8154FF0000BC4F20101C7
:10195000C4F22125086820F470400860086840F44B
:101960000040086000202860022005F067FD012685
:101970002E6055F87C0C0190012005F05FFD0220DF
:10198000C5F800B005F05AFD2E60012055F87C7CAA
:1019900005F054FD0220C5F800B005F04FFD2E60A3
:1019A000012055F87C4C05F049FD0220C5F800B037
:1019B00005F044FD2E60012055F87C8C05F03EFDBD
:1019C0000220C5F800B005F039FD2E60012055F861
:1019D0007C9C05F033FD0220C5F800B005F02EFD1B
:1019E0002E60012055F87CAC05F028FD0220C5F8DA
:1019F00000B005F023FD2E60012055F87CBC05F0F9
:101A00001DFD00202860022005F018FD2E60012039
:101A100055F87C6C05F012FD40F604420021296067
:101A2000C4F20102106820F470401060106840F4A5
:101A3000405010600198002818BF0120002F18BFE7
:101A40000127002C18BF012447EA4000B8F1000F1D
:101A500018BF4FF0010844EA4000B9F1000F18BF69
:101A60004FF0010948EA4000BAF1000F18BF4FF0EB
:101A7000010A49EA4000BBF1000F18BF4FF0010B0B
:101A80004AEA4000002E4BEA400018BF012646EA11
:101A90004004029848B10220696005F0CFFC0120A3
:101AA0002860022005F0CAFC08E0012602206E60D2
:101AB00005F0C4FC02202E6005F0C0FC0020286068
:101AC000E0B203B0BDE8F08FF0B581B0044640F657
:101AD000044048F2A8150026C4F20100C4F22125F2
:101AE000016821F470410160016841F440510160D6
:101AF000E0092E606860022005F0A0FC01270220AA
:101B00002F6005F09BFC02202E6005F097FCC4F3CB
:101B100080106860022005F091FC02202F6005F023
:101B20008DFC02202E6005F089FCC4F34010686033
:101B3000022005F083FC02202F6005F07FFC0220CC
:101B40002E6005F07BFCC4F300106860022005F0F5
:101B500075FC02202F6005F071FC02202E6005F05C
:101B60006DFCC4F3C0006860022005F067FC022031
:101B70002F6005F063FC02202E6005F05FFCC4F3CB
:101B800080006860022005F059FC02202F6005F0FB
:101B900055FC02202E6005F051FCC4F34000686043
:101BA000022005F04BFC02202F6005F047FC0220CC
:101BB0002E6005F043FC04F001006860022005F08F
:101BC0003DFC02202F6005F039FC2E60022001B0A0
:101BD000BDE8F04005F032BCB0B540F6044048F234
:101BE000A814C4F20100C4F22124016821F4704158
:101BF0000160016841F44051016001206060206093
:101C0000042005F01BFC00250420656005F016FC8F
:101C10002560B0BD10B540F6044048F2A814C4F2E7
:101C20000100C4F22124016821F4704101600168BF
:101C300041F440510160002020606060042005F004
:101C4000FDFB0120206060600420BDE8104005F02D
:101C5000F5BB000070B540F6044448F22C1501268F
:101C6000C4F20104C4F22125206820F470402060F1
:101C7000206840F4004020600120C5F8806005F035
:101C8000DDFB0120EE6705F0D9FB286888B1002054
:101C9000296871B1296861B140F00201C9B2F9291E
:101CA0000BD82A682AB1F92907D8296804300029F5
:101CB000EED100242046EC6770BD206820F470400F
:101CC0002060206840F4405020600020E867C5F89C
:101CD0008000042005F0B2FB01240420EC67C5F865
:101CE000804005F0ABFB204670BD000041F21801BA
:101CF000C4F202010A6842F001020A600421C4F23F
:101D000001010A6822F0E0620A600A6842EA406063
:101D1000086070472DE9F04F83B0CDE9011040F223
:101D2000FC00C2F20000076841F26F20C3F6832076
:101D300039460AF08BFA40F20011C2F200010C6839
:101D400021460AF083FA014640F23400C2F2000054
:101D5000D0F800B058460AF0A3F940F20C09C2F2DC
:101D60000009D9F8001009F00DFF4FF07C5105462D
:101D700009F008FF80462846414609F0CBFF294676
:101D8000064600900AF08CF9014628460AF05EFAF1
:101D9000C9F8000040F210005946C2F20000D0F825
:101DA00000A050460AF07CF98146384649460AF0C0
:101DB0004DFA0746304639460AF072F90146384670
:101DC0000AF044FA40F2FC01C2F200010860204629
:101DD00049460AF03BFA4146064609F09BFF294670
:101DE00004460AF05DF9014630460AF02FFA40F247
:101DF0000011C2F20001086049F6A6315846C3F648
:101E000044310AF04DF9514609F0BCFE0546204622
:101E100039460AF045F9014628460AF017FA40F219
:101E2000041840F21001C2F20008C2F20001D8F812
:101E300000500860019829460AF008FA59460AF04D
:101E40002FF940F208190146C2F20009D9F8000042
:101E500009F098FE0646029831460AF0F7F9009913
:101E600007460AF01DF90146304609F08BFE06468A
:101E7000C9F80000384621460AF012F90146284602
:101E800009F080FEC8F80000304603B0BDE8F08FCE
:101E90002DE9F04F83B0CDE9011040F20C10C2F2F1
:101EA0000000076841F26F20C3F6832039460AF02C
:101EB000CDF940F21011C2F200010C6821460AF07F
:101EC000C5F9014640F23400C2F20000D0F800B07B
:101ED00058460AF0E5F840F21409C2F20009D9F8B0
:101EE000001009F04FFE4FF07C51054609F04AFE04
:101EF00080462846414609F00DFF294606460090D7
:101F00000AF0CEF8014628460AF0A0F9C9F8000008
:101F100040F218005946C2F20000D0F800A0504626
:101F20000AF0BEF88146384649460AF08FF907465E
:101F3000304639460AF0B4F8014638460AF086F9C8
:101F400040F20C11C2F200010860204649460AF036
:101F50007DF94146064609F0DDFE294604460AF0B1
:101F60009FF8014630460AF071F940F21011C2F2B2
:101F70000001086049F6A6315846C3F644310AF01C
:101F80008FF8514609F0FEFD0546204639460AF015
:101F900087F8014628460AF059F940F2141840F231
:101FA0001801C2F20008C2F20001D8F8005008601F
:101FB000019829460AF04AF959460AF071F840F2A8
:101FC00018190146C2F20009D9F8000009F0DAFD3B
:101FD0000646029831460AF039F9009907460AF098
:101FE0005FF80146304609F0CDFD0646C9F800000D
:101FF000384621460AF054F80146284609F0C2FD49
:10200000C8F80000304603B0BDE8F08FB0B5FFF768
:10201000E3FDD220FFF758FDFFF71CFE4120FFF73C
:1020200053FDFFF717FEFFF7D7FDD320FFF74CFD59
:10203000FFF710FE0020FFF77FFC0446FFF7EAFDE4
:10204000FFF7CAFDD220FFF73FFDFFF703FE422056
:10205000FFF73AFDFFF7FEFDFFF7BEFDD320FFF7C8
:1020600033FDFFF7F7FD0020FFF766FC40EA04248C
:10207000204609F081FF00210546CCF2807109F06D
:1020800081FD0021B4F5004F98BF2846C4F2AA3163
:1020900009F040FE09F04AFD47F2A40244F2D733AA
:1020A000C0F63D22C4F2420308F016FF00230022CE
:1020B000C4F2240309F060FA08F0DCFE09F020FF06
:1020C0000446FFF7A7FD2046B0BD000080B5FFF72E
:1020D00015FC6B20802101F0B7FA642005F082F92D
:1020E0006B20002101F0B0FA1B20182101F0ACFA9E
:1020F0001C20102101F0A8FA1920012101F0A4FAF6
:102100001A20012101F0A0FA3820002101F09CFAE8
:102110006A20002101F098FA2320002101F094FAAE
:102120003720802101F090FAFFF756FDD220FFF70B
:10213000CBFCFFF78FFD7520FFF7C6FCFFF78AFD8C
:10214000FFF74AFDD320FFF7BFFCFFF783FD002018
:10215000FFF7F2FBFFF75EFD6B20032101F074FA3D
:102160006C20002101F070FA002080BDFEE7000025
:102170007047000040F080604EF60C5140F0FD705A
:10218000CEF200010860704741F20401C4F202017E
:102190000A6822F4404210430860704741F21C0272
:1021A0000029C4F2020211680CBF21EA00000843B2
:1021B0001060704741F218020029C4F2020211684F
:1021C0000CBF21EA000008431060704741F20C0286
:1021D0000029C4F2020211680CBF21EA0000084382
:1021E0001060704780B541F2040EC4F2020EDEF8B2
:1021F000002002F00C0341F20022C0F27A02082B08
:102200001FD1DEF80030C3F3834303F1020CDEF884
:10221000003013F4803F06D140F60012C0F23D02B8
:102220000CFB02F20DE0DEF8003013F4003F02D1A7
:102230000CFB02F205E040F60012C0F23D020CFB7E
:1022400002F202604CF23861DEF80030C0F60001A4
:10225000C3F30313CB5CDA404260DEF80030C3F313
:102260000223CB5C22FA03F38360DEF80030C3F371
:10227000C223C95C4CF23463C0F6000322FA01F1B8
:10228000C160DEF80020C2F381329A5CB1FBF2F14A
:10229000016180BD2DE9F04F81B040F6044A074648
:1022A00048F2A81901261C4615468846C4F2010AC0
:1022B000C4F22129DAF8000020F47040CAF80000C6
:1022C000DAF8000040F44050CAF800000420C9F8D1
:1022D0000460C9F8006005F0B1F84FF0000B04206D
:1022E000C9F804B005F0AAF87F00C9F800B0F8B248
:1022F000FFF7EAFBFFF7AEFCD0B1DAF8000020F4FC
:102300007040CAF80000DAF8000040F44050CAF803
:1023100000000420C9F800B0C9F804B005F08EF838
:102320000420C9F80060C9F8046005F087F851E09E
:102330004046FFF7C9FBFFF78DFCDAF8000020F4F8
:102340007040CAF80000DAF8000040F44050CAF8C3
:1023500000000420C9F80460C9F8006005F06EF8B8
:102360000420C9F804B005F069F847F00100C9F885
:1023700000B0C0B2FFF7A8FBFFF76CFC05E000BFA0
:10238000FFF7DAFA04F8010B013DE8B2012803D0A7
:1023900020B10120F4E700BF0020F1E7DAF80000E7
:1023A000002620F47040CAF80000DAF8000040F47B
:1023B0004050CAF800000420C9F80060C9F8046061
:1023C00005F03CF80120C9F80000C9F80400042019
:1023D00005F034F8304601B0BDE8F08F41F2240C2E
:1023E000C4F2020C5CF8080C40F080504CF8080C69
:1023F0005CF8080C40F000604CF8080CDCF80000B9
:1024000040F00100CCF80000DCF8000010F0020FF2
:102410000ED1DCF8000010F0020F09D1DCF800004A
:1024200010F0020F04D1DCF8000010F0020FEBD026
:102430002DE9F04F42F6040943F28038C4F2000956
:10244000C0F2E118B9F81400B9F8181041EA0040D8
:1024500044F20751CCF22E21A0FB012140F2A6123A
:10246000C2F200021388B3EB114F40F01E814FF40B
:10247000884039F8000047F20001C4F20001086802
:1024800040F4807008605CF8040C40F480304CF834
:10249000040C5CF8040C20F480304CF8040CDCF8DC
:1024A000000040F00100CCF8000000BFDCF80000A4
:1024B00010F0020F0ED1DCF8000010F0020F09D16D
:1024C000DCF8000010F0020F04D1DCF8000010F07E
:1024D000020FEBD0DCF8000040F08070CCF8000078
:1024E0005CF8040C40F400704CF8040C5CF8040C2C
:1024F00040F400404CF8040CB9F8000010F0200F34
:102500000ED1B9F8000010F0200F09D1B9F8000081
:1025100010F0200F04D1B9F8000010F0200FEBD01C
:10252000B9F8000010F0080F0ED1B9F8000010F053
:10253000080F09D1B9F8000010F0080F04D1B9F85C
:10254000000010F0080FEBD0B9F8000010F0200FD9
:102550000ED1B9F8000010F0200F09D1B9F8000031
:1025600010F0200F04D1B9F8000010F0200FEBD0CC
:10257000B9F8000048F21F5A48F20053002140F217
:10258000B4764FF0640B4FF4C8720027C5F2EB1A13
:10259000C0F2E21340F01000A9F8000047F6FF7007
:1025A000A9F80410A9F8080040F2B470A0FB0A547E
:1025B0004744043065094744E40905FB1B6507EB04
:1025C000030E04FB12648D42754608BF07EB080535
:1025D0008C42A1F1040108BF754605EB080711F113
:1025E0003405E3D15CF8080C40F080504CF8080C3E
:1025F0005CF8080C40F000604CF8080C47F2000052
:10260000C4F200000146006840F480700860B9F828
:10261000000040F01000A9F8000046F27A10C0F265
:10262000DC103844A9F81800000CA9F81400B9F817
:10263000000020F01000A9F8000000BFB9F8000069
:1026400010F0200F0ED1B9F8000010F0200F09D1C2
:10265000B9F8000010F0200F04D1B9F8000010F014
:10266000200FEBD0B9F8000020F01000A9F800000E
:10267000B9F8000010F0200F0ED1B9F8000010F0EA
:10268000200F09D1B9F8000010F0200F04D1B9F8DB
:10269000000010F0200FEBD04FF4884045F25001BD
:1026A00029F800100020BDE8F08F0B0CA8F1010103
:1026B000884213805CD948F21F5E4FF6926640F262
:1026C000B27164244FF4C875C5F2EB1ECFF6FF76E5
:1026D00011F0030F0AD188B2A0FB0E72D70907FBD5
:1026E00015075FB1520902FB140038B96FF4B670D8
:1026F00003440131B3F5B67FEAD803E0B3F5B77F01
:102700003046F5D21C2B37D348F21F5288B26426CC
:1027100041F2327401F003050021C5F2EB12C0F65C
:102720000104A0FB02277A09FF0902FB16024FF4FD
:10273000C87607FB1600002AB0FA80F018BF012205
:10274000400942EA000600BF88B24DB9421EB2FA03
:1027500082F25209324003D01D2B0FD31D3B03E000
:10276000205C83420BD31B1A01311B2BECD806E0F3
:1027700040F2B2711C2BC7D2002100E001214FF4BE
:102780008840DAB239F80000FF2A3FF474AEC9B2CB
:10279000FF293FF470AE45F2500188427FF46BAEE2
:1027A0000020BDE8F08F000082B041F2040000225A
:1027B000C4F20200CFF6FF0250F8041C41F0010100
:1027C00040F8041C016811404FF6FF720160CFF61B
:1027D000F66250F8041C114040F8041C50F8041C28
:1027E00021F4802140F8041C016821F4FE010160FD
:1027F0004FF41F01416000210191009150F8041C29
:1028000041F4803140F8041C50F8041C01F40031FC
:102810000091019901310191009919B90199B1F51E
:10282000A06FF1D150F8041C11F4003F0CBF00213F
:10283000012100910099012958D1D0F8FC1F41F0E5
:102840001001C0F8FC1FD0F8FC1F21F00301C0F8F4
:10285000FC1FD0F8FC1F41F00201C0F8FC1F01680A
:10286000016001680160016841F4806101600168F4
:1028700021F47C110160016841F4E811016050F815
:10288000041C41F0807140F8041C00BF50F8041C87
:1028900011F0007F0ED150F8041C11F0007F09D117
:1028A00050F8041C11F0007F04D150F8041C11F002
:1028B000007FEBD0016821F003010160016841F065
:1028C00002010160016801F00C0108290ED00168C5
:1028D00001F00C01082909D0016801F00C01082958
:1028E00004D0016801F00C010829EBD14EF6085024
:1028F0004FF00061CEF20000016002B070470000AE
:102900001020C4F20000018811F0010F06D040F23F
:102910009811C2F200010A8801320A800021018068
:10292000BFF34F8F7047000040F21040C4F2000028
:102930000188018821F001010180704740F61000F4
:10294000C4F200000188018821F001010180704774
:102950002DE9F04F81B042F600400121C4F20100A0
:1029600000F50065284600F05BFA012840F010826F
:102970002846012100F01EFA03F01EFE002800F098
:10298000078240F22800C2F200000078FEF754FDF2
:10299000042002F0D7FB40F2DC074042C2F20007FD
:1029A0003860032002F0CEFB40F2E0084042C2F261
:1029B0000008C8F80000322002F03EFE40F2080194
:1029C0000128C2F20001097807D1B1FA81F041096A
:1029D00040F20800C2F20000017000290CBF642020
:1029E000002004F0CDFC40F260104FF08041C2F2B4
:1029F00000000568284609F065F940F2F104002856
:102A0000C2F20004204609D128464FF0404109F0A7
:102A100060F928B940F2F000C2F200000121017013
:102A200040F2F0062178C2F20006307808430AD05E
:102A3000284609F065FA002848BF40420128DEBF59
:102A4000002030702070D8F80010386803F058FD6E
:102A500040F2CC094FF04041C2F20009D9F8000021
:102A600009F090F8054640F204000026C2F200008A
:102A7000C4F2C8260068314609F04CF901462846E0
:102A800009F00EFB40F20001054640F2F400C2F2EC
:102A90000000C2F200010068096809F001FB31463C
:102AA00009F038F90146284609F06CF809F028FACF
:102AB00040F2D004D8F80010C2F200042060386858
:102AC00003F0F4FD40F25415C2F20005286040F214
:102AD000F800C2F20000006803F084FD40F24811E3
:102AE0002A6840F21C1640F2201AC2F20001C2F21B
:102AF0000006C2F2000A0860216811440A18081A88
:102B00003260CAF8000003F03DFB01464EF20C555E
:102B100040F25C12009041F6F42441F6F42B414659
:102B2000D6F80080CFF6FF75C2F20002106040F2C6
:102B3000A812A845C2F20002D8BFA846A045B8BF57
:102B4000C346DAF80000C6F800B0A842C8BF054680
:102B5000A542B8BF2C4610880B683E68CAF80040F2
:102B6000D9F800A0022851D040F2C8010128C2F2D1
:102B70000001D1F800901AD0002868D1002E30460C
:102B8000194648BF7042002B48BF594208441E28CE
:102B900057DA40F2AA10C2F2000001880131018028
:102BA00089B20B2953D3002101800120108040F20B
:102BB000AC101F46C2F2000001880131018089B2C9
:102BC000C92922BF00211180018050460021C4F292
:102BD000B01109F07EF800283B4638D142F20001DE
:102BE0004846C4F2CB6109F07BF83B4678BB002134
:102BF0005046CCF2901109F073F840F2A8123B460F
:102C00000028C2F2000222D10220108040F2AE1051
:102C1000C2F2000001880131018089B2C92922BFB6
:102C2000002111800180981948BF404247280EDBDF
:102C300040F208000127C2F2000007700020108057
:102C40000BE040F2AA100021C2F20000018040F225
:102C50000800C2F200000778DFB3B14640F2B016B8
:102C6000C2F200063078C0B950464FF041411E46CE
:102C700009F036F870BB00215046C4F2401109F04B
:102C80002FF8002804BF334656EA090022D140F24B
:102C9000B0160120C2F20006307040F2B410C2F249
:102CA000000001684A1C32290260A2BF0021317075
:102CB0000160A9F1040123290CD8191F232909D87F
:102CC0000027076040F208003770C2F2000007706A
:102CD00000E0002700215046CCF2202109F007F83F
:102CE000002848D100215046C4F2202108F0EAFF14
:102CF000002840D1009940F2924081423BDB012FF5
:102D000039D048F29017B8F1010F4FF000004FF0A2
:102D10000006B8BF0120C4F22227B8F1000F42F626
:102D20000048F8614FF00000C4F20108C8BF01205C
:102D3000BBF1000FB86148BFCBF1000B40461FFA52
:102D40008BF100F0CDFA012D4FF00000B8BF01204B
:102D5000002D386040F2B010C8BF0126002CC4F22C
:102D60002220066048BF64424046A1B201B0BDE8DF
:102D7000F04F00F0B7BA48F2901040F2B0120021C4
:102D8000C4F22220C4F2222201601160C16181617B
:102D900001B0BDE8F08F00000288002942F08003F6
:102DA00008BF22F08003038070470000C9430182FE
:102DB00070470000C9430182704700000288002963
:102DC00042F0010308BF22F00103038070470000B6
:102DD000B0F84420002913466FF3DF3318BF42F4E4
:102DE0000043A0F84430704780B5B0F808C02CF01C
:102DF000070C41EA0C01B0F818C0B0F820E00181DE
:102E00004FF6FC410CEA010C40F2011141EA0C01C1
:102E1000018342EA03112EF022021143018480BD96
:102E2000008A084018BF01207047000070B50B8869
:102E3000042B2AD0002B56D1B1F802C00A898B8806
:102E4000068C40F6FF354FF6FC74C4F2000526F000
:102E5000010643EA02130246A842068432F8186FBC
:102E6000B0F820E026F0F30643EA06036DDCB0F18B
:102E7000804F7DD040F20045C4F20005A84277D0D3
:102E800040F60005C4F200056FE00E894B888A8881
:102E9000058C40F6FF44360325F0100546EA02266D
:102EA0000584024632F8185FB0F820E0254046EA73
:102EB000050C40F6FF356FF00306C4F20005A6F1DD
:102EC000AD04A84262DCB0F1804F71D040F2004501
:102ED000C4F20005A8426BD040F60005C4F200051C
:102EE000A84265D068E00A898C884E88058C082B3A
:102EF00071D125F48073038444EA0213024632F848
:102F00001C5FB0F820E025F0F30543EA050C6FF4F0
:102F1000405303F5145440F6FF33C4F200039842C3
:102F200000F38180B0F1804F00F08F8040F20043C9
:102F3000C4F20003984200F0888040F60003C4F217
:102F40000003984200F0818084E040F60045C4F21E
:102F50000005A8420CD042F60045C4F20105A84283
:102F600006D043F20045C4F20105A84218BF083C50
:102F700003830EEA040343EA0C0343F001030384D2
:102F8000C988038B23F00C03038394E040F60045CB
:102F9000C4F20005A8420BD043F20045C4F201057B
:102FA000A84205D042F60045C4F20105A84203D16B
:102FB0004FF6FC741B012D3C0EEA0406A0F818C065
:102FC000334343F010030384C988038B23F4406325
:102FD000090203836FE025F480531203038442EA5D
:102FE0000423024640F6FF4432F81C5FB0F820C0CC
:102FF000254046F6FF5443EA050E40F6FF33C4F27F
:103000000003984234DCB0F1804F43D040F20043DB
:10301000C4F2000398423DD040F60003C4F200031E
:10302000984237D039E040F60043C4F2000398429A
:103030000BD043F20043C4F20103984205D042F69C
:103040000043C4F20103984204D14CF6FF733602E8
:1030500003F534540EEA0403A0F81CC0334343F4D0
:1030600080730384C988838B23F00C03838322E05D
:1030700040F60043C4F2000398420BD043F20043F1
:10308000C4F20103984205D042F60043C4F20103A2
:10309000984202D136034CF6FF740CEA0403A0F800
:1030A0001CE0334343F480530384C988838B23F4A7
:1030B00040630902838310880843108070BD0000BC
:1030C000002101220160426001817047002A82894B
:1030D0000CBF22EA010111438181704710B5028CB7
:1030E00022F001020284048CB0F804E0038B0A8809
:1030F00023F0730343EA020C0B8924F002021A4303
:103100004B881A43A0F18043A3F596334FEAB323CB
:10311000072B14D8012404FA03F313F0E50F0ED0A3
:103120008C892EF4407322F00C022343CC8943EAAD
:10313000040E4B8923F004031A438B881A43A0F82A
:1031400004E0A0F818C0C9888186028410BD000080
:10315000028B22F0080211430183704710B5028CE4
:1031600022F010020284048CB0F804E0038B0A8879
:1031700023F4E64343EA022C0B8924F0200242EABE
:1031800003124B8842EA031243F20043C4F20103E4
:10319000984205D042F60043C4F20103984212D18E
:1031A0008B892EF4406422F0C00244EA8303CC8968
:1031B00043EA840E4B896FF04F0404EA03131A4369
:1031C0008B8842EA0312A0F804E0A0F818C0C9886E
:1031D0000187028410BD0000028B22F4006242EAE3
:1031E000012101837047000010B5028C22F4807227
:1031F0000284048CB0F804E0838B0A8823F0730304
:1032000043EA020C0B8924F4007242EA03224B8841
:1032100042EA032243F20043C4F20103984205D07C
:1032200042F60043C4F20103984212D18B892EF476
:10323000405422F4406244EA0313CC8943EA041E5A
:103240004B8940F2FF441B02A3431A438B8842EA96
:103250000322A0F804E0A0F81CC0C988818702847A
:1032600010BD0000828B22F0080211438183704759
:1032700010B5028C22F480520284048CB0F804E071
:10328000828B0B8822F4E64242EA032C0B8924F459
:10329000005242EA03324B8842EA033343F20042CF
:1032A000C4F20102904205D042F60042C4F201028B
:1032B000904204D18A892EF4804444EA821EA0F808
:1032C00004E0A0F81CC0C988A0F84010038410BD19
:1032D000828B22F4006242EA012181837047000060
:1032E00081877047A0F840107047000081847047C4
:1032F00040F6FF33B0F800C0C4F2000398420FDC80
:10330000B0F1804F1ED040F20043C4F20003984257
:1033100018D040F60003C4F20003984212D016E021
:1033200040F60043C4F2000398420BD043F200433E
:10333000C4F20103984205D042F60043C4F20103EF
:10334000984204D14B882CF0700243EA020C41F2FF
:10335000004240F48063C4F20002934204D0CB8860
:103360002CF4407243EA020CA0F800C08A888285DF
:103370000A880285A0F18042A2F596324FEAB22275
:10338000072A07D8012303FA02F212F0E50F1CBF47
:10339000097A018601218182704700004FF6FF7192
:1033A00041600021016001727047000010B543F6D2
:1033B000000440F22551C4F20104204600F0AEF8AA
:1033C000002800F09F80204600F038F940F24C11B0
:1033D0005928C2F20001087003D058281ED10120DC
:1033E00000E0022040F2F3010022C2F200010A7064
:1033F00040F20901C2F20001087040F2F200C2F28C
:103400000000027040F2F1000021C2F200000170E1
:1034100040F2F000C2F20000017010BD0A2898BF0F
:1034200010BDA0F14101192952D8DFE801F0240DA7
:103430000D0D3A515151515151515151515151511B
:10344000515151515151513140F2F2000021C2F21B
:103450000000017040F2F300C2F20000017040F27F
:10346000F000C2F20000017040F2F1000121C2F24E
:103470000000017010BD40F2F20000210122C2F2F2
:103480000000017040F2F300C2F20000027014E08C
:1034900040F2F2000021C2F20000017040F2F3009D
:1034A00008E040F2F2000121C2F20000017040F297
:1034B000F3000021C2F20000017040F2F000C2F2FD
:1034C0000000017040F2F100C2F20000017010BD76
:1034D00040F2F20200214638C2F2000202281170C6
:1034E00040F2F302C2F2000211703FF68BAF40F2DD
:1034F000F100C2F20000017040F2F0000121C2F2BE
:103500000000017010BD00008289002942F40053C0
:1035100008BF22F4005383817047000001F01F02AE
:10352000012303FA02F2C1F34213022B06D0012B4E
:1035300014BF00F1140300F10C0301E000F11003CB
:103540001B88090A1A404FF0010318BF01220088A6
:1035500003FA01F1084018BF012010407047000035
:1035600001F01F0C012303FA0CFCC1F342131421D8
:10357000022B08BF1021012B08BF0C21002A425842
:103580000CBF22EA0C0242EA0C02425070470000D3
:1035900070B586B00446008A0D46C98801AE20F495
:1035A000405008434EF6F3112082A0890840A988B4
:1035B00008432989084369890843A081A08AA98909
:1035C00020F440700843A0823046FEF70BFE43F61D
:1035D000000106F108000222C4F201018C424FF002
:1035E000190108BF06F10C00042600684843A189B0
:1035F000A2EBD1312A6802FA01F1B0FBF1F048F2F6
:103600001F51C5F2EB11A0FB01235A096FF06303B0
:1036100002FB0300A389A6EBD336B0403230A0FBF7
:103620000101072040EA133080F0080000EA511041
:1036300040EA0210208106B070BD000080886FF360
:103640005F207047FEE70000B0B50C460546FEF768
:10365000C3FAFEF74FF9D220FEF736FAFEF7FAFA70
:1036600018B1FEF7D7FA0120B0BD2846FEF72CFAB4
:10367000FEF7F0FA2046FEF727FAFEF7EBFA0446CB
:10368000002818BF0124FEF7C5FA2046B0BD00008F
:103690002DE9F04F81B040F6044A074648F2A819D8
:1036A00001241D4616468846C4F2010AC4F22129A7
:1036B000DAF8000020F47040CAF80000DAF80000E0
:1036C00040F44050CAF800000420C9F80440C9F88A
:1036D000004003F0B3FE4FF0000B0420C9F804B023
:1036E00003F0ACFE7800C9F800B0C0B2FEF7ECF908
:1036F000FEF7B0FAD0B1DAF8000020F47040CAF852
:103700000000DAF8000040F44050CAF8000004203D
:10371000C9F800B0C9F804B003F090FE0420C9F85D
:103720000040C9F8044003F089FE49E04046FEF736
:10373000CBF9FEF78FFA56B1002400BF285DFEF7E3
:10374000C3F9FEF787FAF8B90134B442F6D3DAF8D0
:103750000000002420F47040CAF80000DAF80000ED
:1037600040F44050CAF800000420C9F80040C9F8ED
:10377000044003F063FE0120C9F80000C9F804000A
:10378000042003F05BFE1BE0DAF8000020F4704038
:10379000CAF80000DAF8000040F44050CAF800000F
:1037A0000020C9F80000C9F80400042003F046FE18
:1037B00001240420C9F80040C9F8044003F03EFE8B
:1037C000204601B0BDE8F08F2DE9F04F93B03A20CC
:1037D000ADF84A0006A8FDF763FF9DF81F004CF204
:1037E0005469BDF818704FF0000842F210754FF0A0
:1037F000000BC0F6000905909DF81A0001909DF895
:103800001B0002909DF81D0003909DF81E0004907F
:1038100048E008EB48016920362300EB41003731CE
:10382000490080B28AB22B2102F0E4F8002400BFE4
:1038300019F8046016F0010F0CBF4FF6FF7047F641
:103840000F0001F0C9FBB00754BF4FF6FF7047F6F9
:103850000F0001F0C1FB700754BF4FF6FF7047F631
:103860000F0001F0B9FB300754BF4FF6FF7047F669
:103870000F0001F0B1FBF00654BF4FF6FF7047F6A2
:103880000F0001F0A9FBB00654BF4FF6FF7047F6DA
:103890000F0001F0A1FB01340C2CC9D14FF0000B3B
:1038A00092E000BF5FFA88F0032801D1012025E0F3
:1038B000C8F10202C8F10300D2B200F00301032AEA
:1038C00002D2012041B919E0421A0120043A6843AA
:1038D00012F0FF0FFAD189B1012903D100EB80006A
:1038E00040000BE04FF47A7202294FF0640100FBB4
:1038F00002F208BF00FB01F2104600BF4CF6CD41BA
:10390000B7FBF0F0B8F1020FCCF6CC41A0FB0112EE
:103910004FEAD20101EB8101A0EB410407D85FEA35
:103920000B6004D1002C3FF474AF4FF0010B08EB97
:1039300048016920362300EB41003731490080B24D
:103940008AB22B2102F056F844F010004FF0000A22
:1039500000EB400009EB800414F80A6016F0010F38
:103960000CBF4FF6FF7047F60F0001F035FBB007B4
:1039700054BF4FF6FF7047F60F0001F02DFB7007A4
:1039800054BF4FF6FF7047F60F0001F025FB3007DC
:1039900054BF4FF6FF7047F60F0001F01DFBF00615
:1039A00054BF4FF6FF7047F60F0001F015FBB0064D
:1039B00054BF4FF6FF7047F60F0001F00DFB0AF100
:1039C000010ABAF10C0FC7D108F10108B8F1040FD0
:1039D0007FF468AF81253A240DF14A08691DA8B229
:1039E00036238AB22B2102F005F8A4F1200000262C
:1039F000C0B200EB400009EB800400BFA75D17F0E8
:103A0000010F0CBF4FF6FF7047F60F0001F0E4FA0C
:103A1000B80754BF4FF6FF7047F60F0001F0DCFA0D
:103A2000780754BF4FF6FF7047F60F0001F0D4FA45
:103A3000380754BF4FF6FF7047F60F0001F0CCFA7D
:103A4000F80654BF4FF6FF7047F60F0001F0C4FAB6
:103A5000B80654BF4FF6FF7047F60F0001F0BCFAEE
:103A600001360C2ECAD118F8014F0635002CB5D1FD
:103A700000274FF0870B42F21078002542E000BF8C
:103A80000CB101257FE087202B218C22362301F009
:103A9000B1FF002419F8045015F0010F0CBF4FF6C8
:103AA000FF7047F60F0001F097FAA80754BF4FF6D2
:103AB000FF7047F60F0001F08FFA680754BF4FF60A
:103AC000FF7047F60F0001F087FA280754BF4FF642
:103AD000FF7047F60F0001F07FFAE80654BF4FF67B
:103AE000FF7047F60F0001F077FAA80654BF4FF6B3
:103AF000FF7047F60F0001F06FFA01340C2CC9D1AA
:103B000000258EE0F8B2012802D1012026E000BF96
:103B10007A42C7F10100D2B200F00301032A03D2B6
:103B2000012051B91AE000BF421A0120043A00FBFB
:103B300008F012F0FF0FF9D181B1012903D100EB98
:103B4000800040000AE04FF47A7202294FF06401CD
:103B500000FB02F208BF00FB01F210460199002FA2
:103B6000B1FBF0F04CF6CD41CCF6CC41A0FB0112FC
:103B70004FEAD20101EB8101A0EB410408BF5FEAEB
:103B800005603FF47DAF07EB470136230BEB4100A7
:103B90004631490080B28AB22B2101F02BFF44F05C
:103BA0001000002600EB400009EB800414F806A08A
:103BB0001AF0010F0CBF4FF6FF7047F60F0001F02F
:103BC0000BFA5FEA8A7054BF4FF6FF7047F60F009A
:103BD00001F002FA5FEA4A7054BF4FF6FF7047F6F1
:103BE0000F0001F0F9F95FEA0A7054BF4FF6FF7059
:103BF00047F60F0001F0F0F95FEACA6054BF4FF6D4
:103C0000FF7047F60F0001F0E7F95FEA8A6054BFE2
:103C10004FF6FF7047F60F0001F0DEF901360C2E6B
:103C2000C4D10137022F7FF46DAF93243A250DF1F3
:103C30004A0800BF611DA0B236238AB22B2101F0D1
:103C4000D9FEA5F120000026C0B200EB400009EB30
:103C5000800700BFBD5D15F0010F0CBF4FF6FF7070
:103C600047F60F0001F0B8F9A80754BF4FF6FF70F0
:103C700047F60F0001F0B0F9680754BF4FF6FF7028
:103C800047F60F0001F0A8F9280754BF4FF6FF7060
:103C900047F60F0001F0A0F9E80654BF4FF6FF7099
:103CA00047F60F0001F098F9A80654BF4FF6FF70D1
:103CB00047F60F0001F090F901360C2ECAD118F822
:103CC000015F0634002DB5D100244FF0990B42F26C
:103CD00010774FF0000A45E015B14FF0010A82E07D
:103CE00099202B219E22362301F084FE002500BF5F
:103CF00019F8056016F0010F0CBF4FF6FF7047F67C
:103D00000F0001F069F9B00754BF4FF6FF7047F696
:103D10000F0001F061F9700754BF4FF6FF7047F6CE
:103D20000F0001F059F9300754BF4FF6FF7047F606
:103D30000F0001F051F9F00654BF4FF6FF7047F63F
:103D40000F0001F049F9B00654BF4FF6FF7047F677
:103D50000F0001F041F901350C2DC9D14FF0000AD7
:103D60008EE000BFE0B2012802D1012026E000BFB2
:103D70006242C4F10100D2B200F00301032A03D26F
:103D8000012049B91AE000BF421A0120043A7843E1
:103D900012F0FF0FFAD189B1012903D100EB8000A5
:103DA00040000BE04FF47A7202294FF0640100FBEF
:103DB00002F208BF00FB01F2104600BF0299002C7E
:103DC000B1FBF0F04CF6CD41CCF6CC41A0FB01129A
:103DD0004FEAD20101EB8101A0EB410508BF5FEA88
:103DE0000A603FF479AF04EB440136230BEB41004A
:103DF0004F31490080B28AB22B2101F0FBFD45F022
:103E000010004FF0000800EB400009EB800500BFF8
:103E100015F8086016F0010F0CBF4FF6FF7047F65B
:103E20000F0001F0D9F8B00754BF4FF6FF7047F606
:103E30000F0001F0D1F8700754BF4FF6FF7047F63E
:103E40000F0001F0C9F8300754BF4FF6FF7047F676
:103E50000F0001F0C1F8F00654BF4FF6FF7047F6AF
:103E60000F0001F0B9F8B00654BF4FF6FF7047F6E7
:103E70000F0001F0B1F808F10108B8F10C0FC7D13B
:103E80000134022C7FF46EAF00244FF0AB0B42F2F2
:103E900010774FF0000A45E015B14FF0010A82E0BB
:103EA000AB202B21B022362301F0A4FD002500BF5A
:103EB00019F8056016F0010F0CBF4FF6FF7047F6BA
:103EC0000F0001F089F8B00754BF4FF6FF7047F6B6
:103ED0000F0001F081F8700754BF4FF6FF7047F6EE
:103EE0000F0001F079F8300754BF4FF6FF7047F626
:103EF0000F0001F071F8F00654BF4FF6FF7047F65F
:103F00000F0001F069F8B00654BF4FF6FF7047F696
:103F10000F0001F061F801350C2DC9D14FF0000AF6
:103F20008EE000BFE0B2012802D1012026E000BFF0
:103F30006242C4F10100D2B200F00301032A03D2AD
:103F4000012049B91AE000BF421A0120043A78431F
:103F500012F0FF0FFAD189B1012903D100EB8000E3
:103F600040000BE04FF47A7202294FF0640100FB2D
:103F700002F208BF00FB01F2104600BF0399002CBB
:103F8000B1FBF0F04CF6CD41CCF6CC41A0FB0112D8
:103F90004FEAD20101EB8101A0EB410508BF5FEAC6
:103FA0000A603FF479AF04EB440136230BEB410088
:103FB0005831490080B28AB22B2101F01BFD45F037
:103FC00010004FF0000800EB400009EB800500BF37
:103FD00015F8086016F0010F0CBF4FF6FF7047F69A
:103FE0000F0000F0F9FFB00754BF4FF6FF7047F61F
:103FF0000F0000F0F1FF700754BF4FF6FF7047F657
:104000000F0000F0E9FF300754BF4FF6FF7047F68E
:104010000F0000F0E1FFF00654BF4FF6FF7047F6C7
:104020000F0000F0D9FFB00654BF4FF6FF7047F6FF
:104030000F0000F0D1FF08F10108B8F10C0FC7D153
:104040000134022C7FF46EAFB7243A250DF14A08F3
:10405000611DA0B236238AB22B2101F0CBFCA5F161
:1040600020000026C0B200EB400009EB800700BF33
:10407000BD5D15F0010F0CBF4FF6FF7047F60F0046
:1040800000F0AAFFA80754BF4FF6FF7047F60F00D5
:1040900000F0A2FF680754BF4FF6FF7047F60F000D
:1040A00000F09AFF280754BF4FF6FF7047F60F0045
:1040B00000F092FFE80654BF4FF6FF7047F60F007E
:1040C00000F08AFFA80654BF4FF6FF7047F60F00B6
:1040D00000F082FF01360C2ECAD118F8015F0634B9
:1040E000002DB5D100244FF0BD0B42F210774FF0F8
:1040F000000A45E015B14FF0010A82E0BD202B21F6
:10410000C222362301F076FC002500BF19F80560B5
:1041100016F0010F0CBF4FF6FF7047F60F0000F0CE
:104120005BFFB00754BF4FF6FF7047F60F0000F07B
:1041300053FF700754BF4FF6FF7047F60F0000F0B3
:104140004BFF300754BF4FF6FF7047F60F0000F0EB
:1041500043FFF00654BF4FF6FF7047F60F0000F024
:104160003BFFB00654BF4FF6FF7047F60F0000F05C
:1041700033FF01350C2DC9D14FF0000A8EE000BF8E
:10418000E0B2012802D1012026E000BF6242C4F162
:104190000100D2B200F00301032A03D2012049B981
:1041A0001AE000BF421A0120043A784312F0FF0FD0
:1041B000FAD189B1012903D100EB800040000BE066
:1041C0004FF47A7202294FF0640100FB02F208BF3B
:1041D00000FB01F2104600BF0499002CB1FBF0F087
:1041E0004CF6CD41CCF6CC41A0FB01124FEAD201F6
:1041F00001EB8101A0EB410508BF5FEA0A603FF4D3
:1042000079AF04EB440136230BEB410061314900E7
:1042100080B28AB22B2101F0EDFB45F010004FF087
:10422000000800EB400009EB800500BF15F80860AE
:1042300016F0010F0CBF4FF6FF7047F60F0000F0AD
:10424000CBFEB00754BF4FF6FF7047F60F0000F0EB
:10425000C3FE700754BF4FF6FF7047F60F0000F023
:10426000BBFE300754BF4FF6FF7047F60F0000F05B
:10427000B3FEF00654BF4FF6FF7047F60F0000F094
:10428000ABFEB00654BF4FF6FF7047F60F0000F0CC
:10429000A3FE08F10108B8F10C0FC7D10134022CBC
:1042A0007FF46EAFC9243A250DF14A08611DA0B212
:1042B00036238AB22B2101F09DFBA5F120000026B8
:1042C000C0B200EB400009EB800700BFBD5D15F0F8
:1042D000010F0CBF4FF6FF7047F60F0000F07CFE99
:1042E000A80754BF4FF6FF7047F60F0000F074FEAA
:1042F000680754BF4FF6FF7047F60F0000F06CFEE2
:10430000280754BF4FF6FF7047F60F0000F064FE19
:10431000E80654BF4FF6FF7047F60F0000F05CFE52
:10432000A80654BF4FF6FF7047F60F0000F054FE8A
:1043300001360C2ECAD118F8015F0634002DB5D114
:1043400000244FF0CF0B42F210774FF0000A45E007
:1043500015B14FF0010A82E0CF202B21D422362361
:1043600001F048FB002500BF19F8056016F0010FA9
:104370000CBF4FF6FF7047F60F0000F02DFEB007A0
:1043800054BF4FF6FF7047F60F0000F025FE700790
:1043900054BF4FF6FF7047F60F0000F01DFE3007C8
:1043A00054BF4FF6FF7047F60F0000F015FEF00601
:1043B00054BF4FF6FF7047F60F0000F00DFEB00639
:1043C00054BF4FF6FF7047F60F0000F005FE0135B1
:1043D0000C2DC9D14FF0000A8EE000BFE0B20128D9
:1043E00002D1012026E000BF6242C4F10100D2B236
:1043F00000F00301032A03D2012049B91AE000BFEB
:10440000421A0120043A784312F0FF0FFAD189B121
:10441000012903D100EB800040000BE04FF47A72D9
:1044200002294FF0640100FB02F208BF00FB01F219
:10443000104600BF0599002CB1FBF0F04CF6CD41C1
:10444000CCF6CC41A0FB01124FEAD20101EB810175
:10445000A0EB410508BF5FEA0A603FF479AF04EBC7
:10446000440136230BEB41006A31490080B28AB225
:104470002B2101F0BFFA45F010004FF0000800EBCF
:10448000400009EB800500BF15F8086016F0010F29
:104490000CBF4FF6FF7047F60F0000F09DFDB00710
:1044A00054BF4FF6FF7047F60F0000F095FD700700
:1044B00054BF4FF6FF7047F60F0000F08DFD300738
:1044C00054BF4FF6FF7047F60F0000F085FDF00671
:1044D00054BF4FF6FF7047F60F0000F07DFDB006A9
:1044E00054BF4FF6FF7047F60F0000F075FD08F15E
:1044F0000108B8F10C0FC7D10134022C7FF46EAF64
:1045000040F22410C2F20000006807F00FFB0B46D7
:1045100041F25D71024606A8C0F60101FBF7BAFE42
:104520009DF81850002D5FD04CF6C82886240DF158
:104530001809C0F6000800BFE11DA0B25B238AB2D3
:104540004C2101F057FAA5F120000026C0B208EB7B
:10455000001700BFBD5D15F0010F0CBF4FF6FF70D7
:104560004FF4784000F038FDA80754BF4FF6FF70B5
:104570004FF4784000F030FD680754BF4FF6FF70ED
:104580004FF4784000F028FD280754BF4FF6FF7025
:104590004FF4784000F020FDE80654BF4FF6FF705E
:1045A0004FF4784000F018FDA80654BF4FF6FF7096
:1045B0004FF4784000F010FD680654BF4FF6FF70CE
:1045C0004FF4784000F008FD280654BF4FF6FF7006
:1045D0004FF4784000F000FD0136102EBAD119F8E2
:1045E000015F0834002DA7D140F23C10C2F2000058
:1045F000006807F09BFA0B4641F25D71024606A87F
:10460000C0F60101FBF746FE9DF81850002D5FD063
:104610004CF6C82886240DF11809C0F6000800BF22
:10462000E11DA0B26B238AB25C2101F0E3F9A5F190
:1046300020000026C0B208EB001700BFBD5D15F0DA
:10464000010F0CBF4FF6FF704FF4784000F0C4FC30
:10465000A80754BF4FF6FF704FF4784000F0BCFC41
:10466000680754BF4FF6FF704FF4784000F0B4FC79
:10467000280754BF4FF6FF704FF4784000F0ACFCB1
:10468000E80654BF4FF6FF704FF4784000F0A4FCEA
:10469000A80654BF4FF6FF704FF4784000F09CFC22
:1046A000680654BF4FF6FF704FF4784000F094FC5A
:1046B000280654BF4FF6FF704FF4784000F08CFC92
:1046C0000136102EBAD119F8015F0834002DA7D198
:1046D00040F26010C2F20000006807F027FA0B46B3
:1046E00041F25D71024606A8C0F60101FBF7D2FD5A
:1046F0009DF81850002D5FD04CF6C82886240DF187
:104700001809C0F6000800BFE11DA0B27B238AB2E1
:104710006C2101F06FF9A5F120000026C0B208EB72
:10472000001700BFBD5D15F0010F0CBF4FF6FF7005
:104730004FF4784000F050FCA80754BF4FF6FF70CC
:104740004FF4784000F048FC680754BF4FF6FF7004
:104750004FF4784000F040FC280754BF4FF6FF703C
:104760004FF4784000F038FCE80654BF4FF6FF7075
:104770004FF4784000F030FCA80654BF4FF6FF70AD
:104780004FF4784000F028FC680654BF4FF6FF70E5
:104790004FF4784000F020FC280654BF4FF6FF701D
:1047A0004FF4784000F018FC0136102EBAD119F8F9
:1047B000015F0834002DA7D140F2DC0041F25971AD
:1047C000C2F20000C0F60101026806A8FBF762FD14
:1047D0009DF81850002D5FD04CF6C82886240DF1A6
:1047E0001809C0F6000800BFE11DA0B28B238AB2F1
:1047F0007C2101F0FFF8A5F120000026C0B208EBF3
:10480000001700BFBD5D15F0010F0CBF4FF6FF7024
:104810004FF4784000F0E0FBA80754BF4FF6FF705C
:104820004FF4784000F0D8FB680754BF4FF6FF7094
:104830004FF4784000F0D0FB280754BF4FF6FF70CC
:104840004FF4784000F0C8FBE80654BF4FF6FF7005
:104850004FF4784000F0C0FBA80654BF4FF6FF703D
:104860004FF4784000F0B8FB680654BF4FF6FF7075
:104870004FF4784000F0B0FB280654BF4FF6FF70AD
:104880004FF4784000F0A8FB0136102EBAD119F889
:10489000015F0834002DA7D140F2E00041F25971C8
:1048A000C2F20000C0F60101026806A8FBF7F2FCA4
:1048B0009DF81850002D5FD04CF6C82886240DF1C5
:1048C0001809C0F6000800BFE11DA0B29B238AB200
:1048D0008C2101F08FF8A5F120000026C0B208EB72
:1048E000001700BFBD5D15F0010F0CBF4FF6FF7044
:1048F0004FF4784000F070FBA80754BF4FF6FF70EC
:104900004FF4784000F068FB680754BF4FF6FF7023
:104910004FF4784000F060FB280754BF4FF6FF705B
:104920004FF4784000F058FBE80654BF4FF6FF7094
:104930004FF4784000F050FBA80654BF4FF6FF70CC
:104940004FF4784000F048FB680654BF4FF6FF7004
:104950004FF4784000F040FB280654BF4FF6FF703C
:104960004FF4784000F038FB0136102EBAD119F818
:10497000015F0834002DA7D140F25010C2F20000B0
:10498000006807F0D3F80B4641F26371024606A8AF
:10499000C0F60101FBF77EFC9DF81850002D5FD09A
:1049A0004CF6C82886240DF11809C0F6000800BF8F
:1049B000E11DA0B2AB238AB29C2101F01BF8A5F146
:1049C00020000026C0B208EB001700BFBD5D15F047
:1049D000010F0CBF4FF6FF704FF4784000F0FCFA67
:1049E000A80754BF4FF6FF704FF4784000F0F4FA78
:1049F000680754BF4FF6FF704FF4784000F0ECFAB0
:104A0000280754BF4FF6FF704FF4784000F0E4FAE7
:104A1000E80654BF4FF6FF704FF4784000F0DCFA20
:104A2000A80654BF4FF6FF704FF4784000F0D4FA58
:104A3000680654BF4FF6FF704FF4784000F0CCFA90
:104A4000280654BF4FF6FF704FF4784000F0C4FAC8
:104A50000136102EBAD119F8015F0834002DA7D104
:104A600040F25810C2F20000006807F05FF80B46F1
:104A700041F26371024606A8C0F60101FBF70AFC89
:104A80009DF81850002D5FD04CF6C82886240DF1F3
:104A90001809C0F6000800BFE11DA0B2BB238AB20E
:104AA000AC2100F0A7FFA5F120000026C0B208EB62
:104AB000001700BFBD5D15F0010F0CBF4FF6FF7072
:104AC0004FF4784000F088FAA80754BF4FF6FF7003
:104AD0004FF4784000F080FA680754BF4FF6FF703B
:104AE0004FF4784000F078FA280754BF4FF6FF7073
:104AF0004FF4784000F070FAE80654BF4FF6FF70AC
:104B00004FF4784000F068FAA80654BF4FF6FF70E3
:104B10004FF4784000F060FA680654BF4FF6FF701B
:104B20004FF4784000F058FA280654BF4FF6FF7053
:104B30004FF4784000F050FA0136102EBAD119F82F
:104B4000015F0834002DA7D140F21C1041F25971C9
:104B5000C2F20000C0F60101026806A8FBF79AFB4A
:104B60009DF81850002D5FD04CF6C82886240DF112
:104B70001809C0F6000800BFE11DA0B2CB238AB21D
:104B8000BC2100F037FFA5F120000026C0B208EBE1
:104B9000001700BFBD5D15F0010F0CBF4FF6FF7091
:104BA0004FF4784000F018FAA80754BF4FF6FF7092
:104BB0004FF4784000F010FA680754BF4FF6FF70CA
:104BC0004FF4784000F008FA280754BF4FF6FF7002
:104BD0004FF4784000F000FAE80654BF4FF6FF703B
:104BE0004FF4784000F0F8F9A80654BF4FF6FF7074
:104BF0004FF4784000F0F0F9680654BF4FF6FF70AC
:104C00004FF4784000F0E8F9280654BF4FF6FF70E3
:104C10004FF4784000F0E0F90136102EBAD119F8BF
:104C2000015F0834002DA7D140F2201041F25971E4
:104C3000C2F20000C0F60101026806A8FBF72AFBD9
:104C40009DF81850002D5FD04CF6C82886240DF131
:104C50001809C0F6000800BFE11DA0B2DB238AB22C
:104C6000CC2100F0C7FEA5F120000026C0B208EB61
:104C7000001700BFBD5D15F0010F0CBF4FF6FF70B0
:104C80004FF4784000F0A8F9A80754BF4FF6FF7022
:104C90004FF4784000F0A0F9680754BF4FF6FF705A
:104CA0004FF4784000F098F9280754BF4FF6FF7092
:104CB0004FF4784000F090F9E80654BF4FF6FF70CB
:104CC0004FF4784000F088F9A80654BF4FF6FF7003
:104CD0004FF4784000F080F9680654BF4FF6FF703B
:104CE0004FF4784000F078F9280654BF4FF6FF7073
:104CF0004FF4784000F070F90136102EBAD119F84F
:104D0000015F0834002DA7D140F2F400C2F2000088
:104D1000006806F00BFF0B4641F26371024606A8DD
:104D2000C0F60101FBF7B6FA9DF81850002D5FD0D0
:104D30004CF6C82886240DF11809C0F6000800BFFB
:104D4000E11DA0B2EB238AB2DC2100F053FEA5F1F5
:104D500020000026C0B208EB001700BFBD5D15F0B3
:104D6000010F0CBF4FF6FF704FF4784000F034F99C
:104D7000A80754BF4FF6FF704FF4784000F02CF9AD
:104D8000680754BF4FF6FF704FF4784000F024F9E5
:104D9000280754BF4FF6FF704FF4784000F01CF91D
:104DA000E80654BF4FF6FF704FF4784000F014F956
:104DB000A80654BF4FF6FF704FF4784000F00CF98E
:104DC000680654BF4FF6FF704FF4784000F004F9C6
:104DD000280654BF4FF6FF704FF4784000F0FCF8FF
:104DE0000136102EBAD119F8015F0834002DA7D171
:104DF00040F25C10C2F20000006807F0BDF800212C
:104E0000C4F2C82106F086FF06F090FE02460B466B
:104E100006A867A1FBF73EFA9DF81850002D5FD059
:104E20004CF6C82886240DF11809C0F6000800BF0A
:104E3000E11DA0B24B238AB23C2100F0DBFDA5F1BD
:104E400020000026C0B208EB001700BFBD5D15F0C2
:104E5000010F0CBF4FF6FF704FF4784000F0BCF824
:104E6000A80754BF4FF6FF704FF4784000F0B4F835
:104E7000680754BF4FF6FF704FF4784000F0ACF86D
:104E8000280754BF4FF6FF704FF4784000F0A4F8A5
:104E9000E80654BF4FF6FF704FF4784000F09CF8DE
:104EA000A80654BF4FF6FF704FF4784000F094F816
:104EB000680654BF4FF6FF704FF4784000F08CF84E
:104EC000280654BF4FF6FF704FF4784000F084F886
:104ED0000136102EBAD119F8015F0834002DA7D180
:104EE0004CF6C8285625AE240DF11809C0F6000866
:104EF000ADF8185008E000BF19F8015F0834002D24
:104F000004BF13B0BDE8F08FE11DA0B24B238AB2FD
:104F10003C2100F06FFDA5F120000026C0B208EB97
:104F2000001700BFBD5D15F0010F0CBF4FF6FF70FD
:104F30004FF4784000F050F8A80754BF4FF6FF70C8
:104F40004FF4784000F048F8680754BF4FF6FF7000
:104F50004FF4784000F040F8280754BF4FF6FF7038
:104F60004FF4784000F038F8E80654BF4FF6FF7071
:104F70004FF4784000F030F8A80654BF4FF6FF70A9
:104F80004FF4784000F028F8680654BF4FF6FF70E1
:104F90004FF4784000F020F8280654BF4FF6FF7019
:104FA0004FF4784000F018F80136102EBAD1A3E77C
:104FB00025342E326600000080B5FDF7F5FB02F0C7
:104FC000FDF90120FCF792FE4FF44070FDF7D2F896
:104FD000BDE8804003F082B810B50446000A00F036
:104FE00007F8E0B2BDE8104000F002B8AFF300806F
:104FF000B0B541F6000405460221C4F20104204682
:10500000FCF716FA20460821FCF712FA68B2B0F154
:10501000FF3F04DD20462021FCF70AFA03E020468A
:105020002021FCF707FA20460821FCF703FA204666
:105030000821FCF7FDF9680604D420462021FCF77E
:10504000F7F903E020462021FCF7F4F92046082177
:10505000FCF7F0F920460821FCF7EAF9A80604D489
:1050600020462021FCF7E4F903E020462021FCF74C
:10507000E1F920460821FCF7DDF920460821FCF77C
:10508000D7F9E80604D420462021FCF7D1F903E043
:1050900020462021FCF7CEF920460821FCF7CAF96A
:1050A00020460821FCF7C4F9280704D42046202113
:1050B000FCF7BEF903E020462021FCF7BBF92046AF
:1050C0000821FCF7B7F920460821FCF7B1F9680779
:1050D00004D420462021FCF7ABF903E02046202130
:1050E000FCF7A8F920460821FCF7A4F9204608217E
:1050F000FCF79EF9A80704D420462021FCF798F974
:1051000003E020462021FCF795F920460821FCF712
:1051100091F920460821FCF78BF9E80704D12046D5
:105120002021FCF785F903E020462021FCF782F9D5
:1051300020460821FCF77EF920460221BDE8B04058
:10514000FCF778B9242200210228C4F200020BD017
:10515000042807D003284FF0000018BF704702F55D
:10516000806201E002F50062B2F900001180704730
:1051700070B58AB04FF4047001210125FDF71AF8CB
:105180004FF40040FDF700F842F2004400260420EE
:1051900001A9C4F201040396ADF80400A4F5A050DF
:1051A000FBF79EFF2046FBF795FE4FF46020CDE90C
:1051B0000466069604A9CDE9070620468DF824501A
:1051C000FBF7CAFE20460121FBF77AFE2046FBF7DB
:1051D00021FF00BF2046FBF7BBFE0028FAD1204686
:1051E000FBF728FF2046FBF7A5FE0028FAD10AB0FE
:1051F00070BD000010B584B041F218000124C4F263
:105200000200016841F011010160012002F016F96D
:1052100010200121FCF7CEFF4820ADF8044001A981
:1052200003900320029041F20000C4F20100FBF75A
:1052300057FF04B010BD000010B500F0B3F941F6FF
:1052400000041021C4F201042046FCF7F1F86420A8
:1052500002F0C8F820461021FCF7ECF8642002F0B8
:10526000C1F820464021FCF7E5F8642002F0BAF8C6
:1052700020460421FCF7DCF81120FFF7B9FE204698
:105280000421FCF7D7F8782002F0ACF8204604217E
:10529000FCF7CEF83620FFF7ABFE20460421FCF7E2
:1052A000C9F80020FFF7A4FE20460421FCF7C0F84F
:1052B0003A20FFF79DFE20460421FCF7BBF80520AD
:1052C000FFF796FE20460421FCF7B2F8B220FFF764
:1052D0008FFE20460421FCF7ADF80C20FFF788FE76
:1052E0000C20FFF785FE0020FFF782FE3320FFF73A
:1052F0007FFE3320FFF77CFE20460421FCF798F860
:10530000B720FFF775FE20460421FCF793F83520FF
:10531000FFF76EFE20460421FCF78AF8BB20FFF75A
:1053200067FE20460421FCF785F83220FFF760FE77
:1053300020460421FCF77CF8C220FFF759FE2046E6
:105340000421FCF777F80120FFF752FE20460421E4
:10535000FCF76EF8C320FFF74BFE20460421FCF754
:1053600069F81520FFF744FE20460421FCF760F899
:10537000C420FFF73DFE20460421FCF75BF8202007
:10538000FFF736FE20460421FCF752F8C620FFF74F
:105390002FFE20460421FCF74DF80F20FFF728FED2
:1053A00020460421FCF744F8D020FFF721FE2046D8
:1053B0000421FCF73FF8A420FFF71AFEA120FFF715
:1053C00017FE20460421FCF733F8E020FFF710FE1B
:1053D00020460421FCF72EF8D020FFF709FE082014
:1053E000FFF706FE0E20FFF703FE0920FFF700FE81
:1053F0000920FFF7FDFD0520FFF7FAFD3120FFF73B
:10540000F7FD3320FFF7F4FD4820FFF7F1FD1720EB
:10541000FFF7EEFD1420FFF7EBFD1520FFF7E8FD89
:105420003120FFF7E5FD3420FFF7E2FD204604219F
:10543000FBF7FEFFE120FFF7DBFD20460421FBF731
:10544000F9FFD020FFF7D4FD0820FFF7D1FD0E2093
:10545000FFF7CEFD0920FFF7CBFD0920FFF7C8FDC0
:105460001520FFF7C5FD3120FFF7C2FD3320FFF700
:10547000BFFD4820FFF7BCFD1720FFF7B9FD142042
:10548000FFF7B6FD1520FFF7B3FD3120FFF7B0FDA4
:105490003420FFF7ADFD20460421FBF7C9FF212092
:1054A000FFF7A6FD20460421FBF7C4FF2046042198
:1054B000FBF7BEFF2920FFF79BFD20460421BDE836
:1054C0001040FBF7B7BF0000F0B58BB001200124FE
:1054D00001F0B4FF08200121FCF760FE4520012106
:1054E000FCF768FE40200121FCF764FE102008AEA6
:1054F00003270A90ADF8204040F600443146099752
:10550000C4F2000404F586352846FBF7E9FD284679
:105510000121FBF78FFF04200121FCF74BFE18202F
:1055200031460A900F20ADF8200004F57C40099721
:10553000FBF7D6FD4FF47A7005A906904720059039
:105540002046FDF7D5FE002001ADADF80C0060202F
:105550002946C0F2010001902046FDF7BFFD20461C
:105560000821FDF7F5FD20462946FDF7F7FD204609
:105570000821FDF731FE20462946FDF735FE20467D
:105580000821FDF76FFE20462946FDF771FE2046F3
:105590000821FDF79DFE20460121FDF70FFC0BB011
:1055A000F0BD000070B584B040200121FCF702FE80
:1055B00041F600041026022001AD0396ADF8040068
:1055C0000320C4F20104294602902046FBF788FD1F
:1055D00020460221FBF72EFF28202946ADF80400C3
:1055E0002046FBF77DFD20462821FBF723FF4420C2
:1055F0002946ADF804002046FBF772FD204648F22C
:105600002001FBF717FF20462946ADF80460FBF7A1
:1056100067FD20461021FBF70DFF04B070BD0000B0
:1056200040F29411C2F20001086040F22C00002107
:10563000C2F2000001607047B0B540F2001540F2C0
:10564000A0120021C4F22225C2F200022B681488A5
:10565000002B08BF611C11802A6842B940F2A213D6
:10566000C2F200031A78002A04BF01221A7040F225
:10567000A41EC2F2000E9EF8002002BB40F2A2124D
:1056800040F29C1CC2F20002C2F2000C1278BCF87C
:105690000030012A05D1013301228EF80020ACF838
:1056A00000309AB2022A0AD140F29E100021C2F2C2
:1056B0000000ACF8001001800221C8B2B0BD2A6819
:1056C000012A07D140F2A2130022C2F200038EF891
:1056D00000201A7040F29C1EC2F2000EBEF800209C
:1056E000012A1EBF0021C8B2B0BD40F29E1C8BB281
:1056F000C2F2000C8342BCF8002002F10102ACF8B7
:1057000000200AD291B2814207D900200121ACF8D1
:105710000000AEF80000C8B2B0BD00218342C8B29C
:1057200084BFACF80010AEF80010B0BDB0B584B0C6
:1057300070200121FCF73EFD102041F6000401AD70
:1057400003904FF44160C4F201042946ADF804000F
:1057500003200290A4F58060FBF7C2FC4FF4805058
:105760002946ADF80400A4F50060FBF7B9FC4FF43E
:1057700080602946ADF804002046FBF7B1FC2046C6
:105780004FF48061FBF756FE04B0B0BDF0B587B0B2
:1057900004464FF400300121FCF700FD20200121D8
:1057A0002025FCF707FD08200121FBF709FE032057
:1057B00004AF0590ADF8105044F20045182039466A
:1057C000C4F20005069005F550463046FBF788FC0C
:1057D0000420394606904020ADF810003046FBF713
:1057E0007FFC0020009469460190ADF80C004FF456
:1057F000402002902846FDF7CBFE28460121FDF708
:1058000083FE07B0F0BD0000F0B587B004464FF44A
:1058100080200121FCF7C2FC20200121FCF7CAFCFA
:1058200030200121C0F21400FBF7CAFD44F6000548
:10583000032004AF05904FF48070C4F20005394690
:10584000ADF81000182005F54C4606903046FBF7E1
:1058500047FC0420394606904FF40070ADF8100064
:105860003046FBF73DFC0020009469460190ADF8FE
:105870000C004FF4402002902846FDF789FE284690
:105880000121FDF741FE07B0F0BD0000F0B587B083
:1058900004464FF400200121FCF780FC1020012178
:1058A000FCF788FC44F60045032004AF05904FF454
:1058B0008060C4F200053946ADF81000182005F5E7
:1058C000444606903046FBF70BFC04203946069010
:1058D0004FF40060ADF810003046FBF701FC0020EB
:1058E000009469460190ADF80C004FF440200290FE
:1058F0002846FDF74DFE28460121FDF705FE07B0BD
:10590000F0BD00002DE9F04140F62C480746C4F2F6
:105910000008B8F8080006F047FB0446B8F8000095
:1059200006F042FB0146204606F0F4F90446B8F8BA
:105930000C0006F039FB0546B8F8000006F034FB11
:105940000146284606F0E6F90546B8F8100006F0CC
:105950002BFB0646B8F8000006F026FB0146304651
:1059600006F0D8F90646C82F38BFBDE8F081B7F574
:105970007A7F3CD0384605F073FD0B4648F28041F3
:1059800002460020C4F22E1105F062FB05F024FD52
:10599000A8F80000B8F8140000281EBFB8F80000EE
:1059A0004008A8F81400B8F8000006F0FDFA014617
:1059B000204606F075FB06F0BFFAA8F80800B8F814
:1059C000000006F0F1FA0146284606F069FB06F0F1
:1059D000B3FAA8F80C00B8F8000006F0E5FA0146A2
:1059E000304606F05DFB06F0A7FAA8F81000BDE807
:1059F000F08100002DE9F04141F600040E46054615
:105A0000042198461746C4F201042046FBF710FD16
:105A10002A20FFF7EDFA20460421FBF70BFD280AA8
:105A2000FFF7E6FAE8B2FFF7E3FA380AFFF7E0FA21
:105A3000F8B2FFF7DDFA20460421FBF7F9FC2B2032
:105A4000FFF7D6FA20460421FBF7F4FC300AFFF7F3
:105A5000CFFAF0B2FFF7CCFA4FEA1820FFF7C8FAF6
:105A60005FFA88F0FFF7C4FA20460421FBF7E0FC58
:105A70002C20FFF7BDFA20460421BDE8F041FBF7DA
:105A8000D9BC0000F0B58BB041F21800C4F202009E
:105A9000016841F400610160012001F0CFFC42F691
:105AA0003C4601200027C4F201063780B78001F090
:105AB000C5FCC0200121C0F21600FBF781FC4FF4A9
:105AC00000600121FCF776FB41200121FCF772FB0D
:105AD000032042F6004408A909901820C4F20104EA
