:020000040800F2
:10000000501C0020FD010008B9240008E10200088E
:10001000B52400088D130008A53700080000000073
:100020000000000000000000000000000F020008B7
:1000300029140008000000006B0200089D2700083A
:10004000170200081702000817020008170200082C
:10005000170200081702000817020008170200081C
:10006000170200081702000817020008170200080C
:1000700017020008170200081702000817020008FC
:1000800017020008170200081702000817020008EC
:1000900017020008170200081702000817020008DC
:1000A00017020008170200081702000817020008CC
:1000B000452D00086D2D0008812D0008170200084D
:1000C00017020008170200081702000817020008AC
:1000D00017020008C53400088D3500081702000813
:1000E000170200081702000817020008170200088C
:1000F000952D0008170200081702000817020008D3
:10010000170200081702000817020008170200086B
:10011000170200081702000817020008170200085B
:10012000170200081702000817020008170200084B
:1001300000F002F800F053F80AA090E8000C8244A6
:100140008344AAF10107DA4501D100F048F8AFF283
:10015000090EBAE80F0013F0010F18BFFB1A43F0A5
:10016000010318477029010090290100103A24BFAB
:1001700078C878C1FAD8520724BF30C830C144BF0C
:1001800004680C607047000000230024002500264E
:10019000103A28BF78C1FBD8520728BF30C148BFEA
:1001A0000B60704766290DF0AE81642900F02E8146
:1001B000782900F06781002070471FB500F032FEFB
:1001C0000400002000210BF027FF401C606000208D
:1001D00000210BF00BFFE0601FBD10B510BD00F05B
:1001E00071FF1146FFF7E9FF00F0E8FF00F09DFF07
:1001F00003B4FFF7F2FF03BC07F06EF8094880472D
:1002000009480047FEE7FEE7FEE7FEE7FEE7FEE7F8
:10021000FEE7FEE7FEE7FEE704480549054A064B10
:1002200070470000ED2B0008310100085016002037
:10023000501C00205018002050180020EFF31080B0
:1002400072B6704780F310887047324A1368012BEA
:1002500004D04FF0010313602F4A10602F4A116041
:100260002F484FF0805101607047EFF3108272B653
:100270002848016891B14FF00001016026480168EB
:1002800029B1EFF3098121E9F00F006801602349EA
:1002900009680968B1E8F00F81F3098882F31088D2
:1002A0004EF0040E70471D4908601B494FF00000D6
:1002B000086018494FF0010008601A481A49D0F840
:1002C000002041EA0201016015484FF080510160B1
:1002D00016480068006880F3088861B662B6704707
:1002E0001EF0040F0CBFEFF30880EFF3098020E944
:1002F000F00F40F804ED1EF0040F0CBF80F30888E7
:1003000080F3098800B509F0E3FC5DF804EB4EF0DA
:10031000040E704730160020141400201C14002016
:1003200004ED00E020ED00E00000FFFF08ED00E03C
:10033000704710B54C1084EA530404D54042C1F113
:10034000000138BF491E1B4204D55242C3F10003CD
:1003500038BF5B1E00F008FA14F0804F04D0404212
:10036000C1F1000138BF491E14F0004F04D05242C1
:10037000C3F1000338BF5B1E10BD00000FB4044979
:1003800010B503AA029800F0F7FC10BC5DF814FB4E
:10039000D80200200FB41CB5074B06AA7B4469465F
:1003A0000090059800F0CFFC0020694600F0DEFCCC
:1003B0001CBC5DF814FB0000CD09000070B50446BC
:1003C00085690068C10601D5302600E02026C007F7
:1003D00007D070BDD4E9012130469047206A401C07
:1003E00020626D1EF6D570BD70B504468569007833
:1003F000C00707D170BDD4E9012120209047206AB1
:10040000401C20626D1EF6D570BD00002DE9F04144
:100410000646002410687529314616A510D0AFF3A2
:100420000080002802DA404213A507E031688A07FD
:1004300001D512A502E0490704D511A5012401E068
:10044000AFF3008000210A2206F1240709E0B0FB87
:10045000F2FCB0FBF2F302FB1C003030785418467B
:10046000491C0028F3D123462A463046BDE8F04116
:1004700000F0FCB9000000002D0000002B0000007F
:100480002000000070B504460D4621461068AFF309
:1004900000802188090502D50F4A7A4402E00E4AFD
:1004A0007A440E32002104F1240305E000F00F0627
:1004B0000009965D5E54491C0028F7D1207800237E
:1004C000000704D5702D02D009B102231132204655
:1004D000BDE8704000F0CAB9A8D100002DE9F05F76
:1004E000894604464FF0000ADFF824B1FB44C0F807
:1004F00020A02046E168884700287DD0252806D026
:10050000D4E901219047206A401C2062F1E70025D0
:100510005F462046E16888472028064607DB312EE3
:1005200005D2B81910F8200C08B10543F1E7A80767
:1005300001D525F00405C4F81CA00027C4F818A0B4
:100540002A2E09D030460BF0C8F838B304EB8708E0
:10055000303EC8F8186019E059F8041B204604EB37
:1005600087029161E1688847012F064618D1E0694A
:10057000002820DA25F020051DE0D8F8180000EB4F
:10058000800006EB40003038C8F818002046E168CB
:10059000884706460BF0A1F80028EED1012F0AD0BB
:1005A0002E2E08D12046E16888477F1C0646022F80
:1005B00045F02005C4DBA069002803DA404245F07D
:1005C0000105A061E80701D025F01005A6B1A6F14C
:1005D0004100192802D8203645F400654A463146C4
:1005E000204625604D46FFF7DDFD60B1012807D0AC
:1005F000ED1D25F0070000E007E000F1080978E7AD
:1006000005F1040975E730467AE7206ABDE8F09FF6
:100610007ED1000070B5064600F0A2F804680546D9
:1006200030460A22002100F0B9FB2C6070BD0000AA
:1006300010B5044603E007F01FFB401C09D014F876
:10064000010B05490028F6D1BDE810400A2007F04B
:1006500013BB4FF0FF3010BDD802002040EA010369
:1006600010B59B070FD1042A0DD310C808C9121F5B
:100670009C42F8D020BA19BA884201D9012010BD95
:100680004FF0FF3010BD1AB1D30703D0521C07E062
:10069000002010BD10F8013B11F8014B1B1B07D1C6
:1006A00010F8013B11F8014B1B1B01D1921EF1D137
:1006B000184610BD02F0FF0343EA032242EA024259
:1006C00000F002B84FF000020429C0F0128010F0D0
:1006D000030C00F01B80CCF1040CBCF1020F18BF1E
:1006E00000F8012BA8BF20F8022BA1EB0C0100F0B1
:1006F0000DB85FEAC17C24BF00F8012B00F8012B84
:1007000048BF00F8012B70474FF0000200B51346B8
:1007100094469646203922BFA0E80C50A0E80C5021
:10072000B1F12001BFF4F7AF090728BFA0E80C50D2
:1007300048BF0CC05DF804EB890028BF40F8042BCB
:1007400008BF704748BF20F8022B11F0804F18BF38
:1007500000F8012B704770477047704770470000E2
:1007600000487047A800002053EA020C00F069809E
:100770002DE9F04B4FF00006002B1FBFB3FA83F5B5
:1007800003FA05F424FA05F65E4012BF1643B2FAE6
:1007900082F502FA05F4C5F120051EBF22FA05FC18
:1007A00044EA0C04203556EA044C4FEA144418BFBE
:1007B000641C4FF000084FF00009904271EB030CED
:1007C00039D3002919BFB1FA81F701FA07F6B0FA57
:1007D00080F700FA07F6C7F120071EBF20FA07FCD2
:1007E00046EA0C062037B6FBF4FCA7EB0507103FE2
:1007F00007F01F0BCBF120062CFA06F60CFA0BFBC8
:1008000044BFB3460026202FA4BF5E464FF0000B26
:100810005BEA060C08BF4FF0010B19EB0B0948EB24
:100820000608ABFB027C06FB02CC0BFB03CCC01B17
:1008300071EB0C01C1E70B46024641464846BDE854
:10084000F08B13B54FF000004FF00001AFF30080C4
:10085000BDE81C40704710B5FFF782FF006810BD6F
:1008600010B50446FFF77CFF046010BD2DE9F0478A
:100870000D4699469246044600F124080168880610
:1008800004D5E06921F01001216000E00120A842B8
:1008900001DD471B00E00027A1697A1902EB09007E
:1008A000081AA0612078C00602D42046FFF786FD12
:1008B000002608E0D4E901211AF806009047206AD2
:1008C000401C761C20624E45F4DB2078C0060AD519
:1008D0002046FFF773FD06E0D4E901213020904760
:1008E000206A401C2062381EA7F10107F4DC07E0F3
:1008F000D4E9012118F805009047206A401C2062C5
:10090000281EA5F10105F3DC2046FFF76DFD2078D8
:10091000000602D50220BDE8F0870120FBE72DE9A3
:10092000FF4F0C461E464FF0FF378BB0D2E9000157
:10093000DDF860800A908A46C1F30A5505B93D4644
:10094000002108464FF00000BAF1000F00F440000B
:1009500005DA00EB80004FF4400101EA50004FEA55
:100960009059B9F1010F00DDB9460A9850EA4A00E2
:100970000ED044F61050A5F2FF3545432F14B8F1C0
:10098000000F1ED07542291E1EDDC9F100021CE0B9
:10099000B8F1010F4FF0000001D0302103E0F24325
:1009A00005E02154401CB042FBDB30460022002110
:1009B00021540B99C1F80880C1E900200FB0BDE8AF
:1009C000F08FBD1B6D1CDEE74A4600DA694206A8BF
:1009D00000F002FB06AB93E8070003AB83E80700D7
:1009E00050460A990AF01AFA8DE80700A0F500505F
:1009F0001F3800900398002D0ADD42F21F014A467D
:100A00000844002303A9039068460AF083FC09E028
:100A1000A0F500504A461F38002303A903906846FA
:100A20000AF08DFC8DE807000004000C03D04FF0A5
:100A3000FF30410800E01046B8F1000F03D000225B
:100A4000009215461EE0751E05D400F0EFF9303215
:100A500062556D1EF9D5B3460122084302D000222B
:100A60007F1C04E02078302801D100227F1E002A5C
:100A7000099784D01DE0112D07DA00F0D7F9303244
:100A800062556D1C50EA0102F5D1084302D000986E
:100A9000C8B10EE00021681E05E0235C625C63546F
:100AA0002254401E491C8142F7DBAB46A81B401E66
:100AB0000990002004F80B000B98099AC0F80880F0
:100AC000C0E9002B7AE711264FF0000857E72DE91F
:100AD000F04F88460446D21D22F0070191B0D1E9BB
:100AE0000001CDE90A010AF061FD02460B98C00F32
:100AF00001D02D2007E02068810701D52B2002E0DE
:100B0000202101EAC000032A099001D0072A05DB51
:100B100003464146204600F0CFF90BE120788006DD
:100B200001D5E06900E00620B8F1650F814606D0E6
:100B3000B8F1660F18D0B8F1670F70D131E000201E
:100B4000B9F1110F009001DB112301E009F101035C
:100B50000AAA01A90CA8FFF7E2FEDDE90C70002645
:100B600009F10105834647E001204B4600904FF014
:100B700000470AAA01A90CA8FFF7D1FEDDE90DB0D4
:100B80000C995D46002610B909F101000D18B9EB6A
:100B9000050003D4C0F1FF3609F10105A5EB0900FA
:100BA0002BE0B9F1010F01DA4FF001090020B9F192
:100BB000110F0090484601DD112300E003460AAA08
:100BC00001A90CA8FFF7ABFEDDE90C704D4600262D
:100BD0008346207800070AD4AB4500DA5D4601A8B9
:100BE000012D04DD411911F8011C302907D04F45B2
:100BF00002DA17F1040F04DA012082460FE06D1EBD
:100C0000EEE7002F02DCED1B3E4403E0781CA84217
:100C100000DD7D1CB81B00F1010A4FF00047207871
:100C2000000703D4AA4501DB4FF0FF3A0021B7F1DA
:100C3000004F0DF143088DF8431024D002202B23E0
:100C4000002F01DA7F422D230A21021EA0F10100AC
:100C500000DC5FB197FBF1FC97FBF1F201FB1C7C20
:100C600017460CF1300C08F801CDEEE7A8F10100B1
:100C700003702188090501D5452100E06521A0F117
:100C8000010800F8011C09980FA9A1EB0807FF1D36
:100C900000B10120411901EBEA70A1693844081A3A
:100CA000401EA0612078C00602D42046FFF786FBD4
:100CB000099828B1D4E901219047206A401C20629C
:100CC0002078C00622D52046FFF778FB1EE0002ED4
:100CD00004DBB34502DD01A8805D00E03020D4E9EB
:100CE00001219047206A401C2062761CAAF1010075
:100CF0005FEA000A0AD100F095F8C0680168405C1C
:100D0000D4E901219047206A401C2062281EA5F1E9
:100D10000105DCDC07E0D4E9012118F8010B90475C
:100D2000206A401C2062381EA7F10107F3DC204630
:100D3000FFF75AFB032011B041E6000001694A1C8D
:100D400002610878704700B58FB0CDE9013100210C
:100D5000059105497944CDE9031011466846FFF72E
:100D6000BDFB0FB000BD0000E5FFFFFF0A6802F801
:100D7000010B0A6070470000074B70B50D467B44BD
:100D8000FFF7E1FF0446284600F098F910B14FF054
:100D9000FF3070BD204670BDF76E00002DE9F047B2
:100DA00091460F4680460446002614F8015B2DB19B
:100DB00000F030F80068405DC007F6D12B2D02D05E
:100DC0002D2D18D0641E4A463946204600F0B4F84E
:100DD00027B13968A14201D1C7F800804FF0020461
:100DE00071050BD54042002803DDFFF7B9FC046014
:100DF000A007BDE8F08746F48066E4E70028F8DA4B
:100E0000FFF7AEFC04606FF00040F2E70048704767
:100E1000A800002010B500F005F8001D10BD00BFAF
:100E2000F9B1000000487047C800002030B5B0F1AB
:100E30000A0271F100034FEA900E4EEA817EB0EB98
:100E40000E0061EB91014FEA101E4EEA017E10EB9D
:100E50000E0041EB11114FEA102E4EEA016E10EB1D
:100E60000E0041EB11214FEA104E4EEA014E10EBFD
:100E70000E0041EB1141401841F100014FEAD00052
:100E800040EA41704FEAD1014FEA810444EA90748C
:100E900010EB800544EB01046D1944EB0404521B74
:100EA000A3414FF0000348BF0A3200D530BD401CBB
:100EB00041F1000130BD00002DE9F0411F4604461C
:100EC00003260168072A01F4006004DB08B116A5B7
:100ED00005E016A503E008B115A500E015A521F071
:100EE00010002060A069C01EA0610FB1401EA0616B
:100EF0002046FFF763FA4FB1D4E901213846904705
:100F0000206A401C2062C01C206206E0206AFAE7CA
:100F1000D4E9012115F8010B9047761EF8D220463E
:100F2000FFF762FABDE8F0814E414E006E616E003F
:100F3000494E4600696E66002DE9F05F824615460F
:100F40008B4600270AF10104B9460078302801D009
:100F50009DB113E014F8010B0127782803D058281D
:100F600001D045B10AE00DB1102D07D1002714F8CA
:100F7000010B102502E0082500E00A250026B046F6
:100F80000EE005FB080005FB06F101271FFA80F8BB
:100F900001EB1046B6F5803F00D3B94614F8010BBB
:100FA000294600F0B4F80028EBDABBF1000F05D0B9
:100FB0000FB1641E00E05446CBF80040B9F1000FB9
:100FC00006D0FFF7CDFB02210160C81EBDE8F09FEF
:100FD00048EA0640FAE700002DE9F0478146164648
:100FE0008AB0354878440DC88DE80D003248784401
:100FF000801C03AC0DC884E80D0041F69B3008440A
:10100000372190FBF1F290FBF1F5A5F1800501FB92
:1010100012041B3C02D56442012000E00020DFF8EE
:1010200098A080460027FA44AAF1BE0A0EE0E00725
:101030000AD03246684607EB470101230AEB8101DB
:101040000AF07DF98DE8070064107F1C002CEED1BA
:10105000194F7F44AE3F19E0E80715D007EB0410A5
:101060000DF1180A90E80E008AE80E00C068F04200
:1010700001D1981908903246012306A903A80AF065
:101080005EF903AB83E807006D10641C002DE3D10B
:101090004FF0010332466946B8F1000F03A802D0B1
:1010A0000AF038F901E00AF04AF9C9E90001C9F883
:1010B00008200AB0BDE8F08704C80000007B00F0FB
:1010C000800070477546FFF7A1FEAE4605006946F1
:1010D000534620F00700854618B020B5FFF79CF86E
:1010E000BDE820404FF000064FF000074FF0000829
:1010F0004FF0000BAC46ACE8C009ACE8C009ACE866
:10110000C009ACE8C00921F007018D4670473A28B4
:1011100000D2303820F02002412A01D3A2F137005A
:10112000884201D34FF0FF30704710B50446AFF34B
:1011300000802046BDE81040FFF75AB84FF0013C50
:1011400050F8042B51F8043B9A4221D1A2EB0C0336
:10115000934313EACC1317D150F8042B51F8043BF6
:101160009A4215D1A2EB0C03934313EACC130BD193
:1011700050F8042B51F8043B9A4209D1A2EB0C031E
:10118000934313EACC13DBD04FF00000704700BF4D
:10119000D01A01BAB1FA81F101F0180122FA01F076
:1011A000CB40DBB2C0B2C01AC1F120012CFA01F36E
:1011B000D11A914311EAC311E6D1704780B582B0CC
:1011C000FFF73CF808F052FD09F058F909F068FA09
:1011D00009F0E0F914200A2100224FF48073CDE9D0
:1011E000001042F6492048F2A911C0F60100C0F6ED
:1011F000000109F05FFA09F0A3FB09F059FA09F0C0
:101200000FFB09F031FA002002B080BD826800298E
:1012100042F0010308BF22F0010383607047000021
:1012200080B543F60041C4F20101884214D042F671
:101230000001C4F20101884216D042F20041C4F21A
:101240000101884218BF80BD4FF40070012101F0F8
:101250009DF94FF400700EE04FF40040012101F0C1
:1012600095F94FF4004006E04FF48060012101F051
:101270008DF94FF480600021BDE8804001F086B90F
:101280008068C0F380007047C06C80B27047000077
:101290000068084018BF0120704700008068C0F354
:1012A000C000704780B54FF6FF634268CFF6F07319
:1012B00002EA030CD1E9003243EA0C0343EA0222BA
:1012C0004FF2FD734260CFF6F173826802EA030EBB
:1012D000D1E902C30A6942EA0E021A4342EA4C0209
:1012E0008260C26A097D013922F47002C9B242EA01
:1012F0000151C16280BD000010B501EB410C09290C
:1013000088BFACF11E0C092903FA0CFE4FF007034D
:1013100003FA0CFC4FF0100388BF0C23062AC458B4
:1013200024EA0C0444EA0E04C45003D834306FF0AD
:10133000040307E00C2A87BF2C306FF040033030E5
:101340006FF0220302EB82021A441F23914003FA3A
:1013500002F2036823EA02021143016010BD00009B
:10136000816841F0080181607047000082680029AF
:1013700042F4A00308BF22F4A0038360704700007A
:10138000816841F00401816070470000FEE70000C1
:10139000B0B50C464DF20A71C3F6A3410BF068FFDD
:1013A000054640F238002146C2F2000000680BF00A
:1013B0005FFF40F218140146C2F2000420680BF0EF
:1013C000C9FC4EF24811C3F67A710BF051FF014689
:1013D00028460BF0BFFC2060B0BD0000B0B50C4645
:1013E0004DF20A71C3F6A3410BF042FF054640F2ED
:1013F00038002146C2F2000000680BF039FF40F2CD
:101400001C140146C2F2000420680BF0A3FC4EF24B
:101410004811C3F67A710BF02BFF014628460BF0FA
:1014200099FC2060B0BD00007047000080B5D1F885
:1014300008E00EF00F0C1EF0100F1CBF4B684CEABA
:10144000030C098811F0FF0F00F0A4800368CA079D
:101450000BD023F00F02BEF1480F42EA0C0315D067
:10146000BEF1280F01D1012242618A0712D523F073
:10147000F002BEF1280F42EA0C131CD0BEF1480F57
:1014800008D1022202614A0706D418E00122026153
:101490008A07ECD44A0712D523F47062BEF1280FF4
:1014A00042EA0C231CD0BEF1480F08D1042202618D
:1014B0000A0719D505E0022242614A07ECD40A075F
:1014C00012D523F47042BEF1280F42EA0C331CD02F
:1014D000BEF1480F08D108220261CA0606D418E0FE
:1014E000042242610A07ECD4CA0612D523F4702202
:1014F000BEF1280F42EA0C431CD0BEF1480F08D1C0
:10150000102202618A0619D505E008224261CA0646
:10151000ECD48A0612D523F47002BEF1280F42EAF9
:101520000C531CD0BEF1480F08D1202202614A069C
:1015300006D418E0102242618A06ECD44A0612D57D
:1015400023F07062BEF1280F42EA0C631AD0BEF19C
:10155000480F08D1402202610A061AD505E0202270
:1015600042614A06ECD40A0613D523F07042BEF15C
:10157000280F42EA0C730AD0BEF1480F09D180222D
:10158000026106E0402242610A06EED401E08022B8
:1015900042610360B1F5807F38BF80BD4368CA05F2
:1015A0000CD523F00F02BEF1480F42EA0C0317D00E
:1015B000BEF1280F02D14FF4807242618A0514D522
:1015C00023F0F002BEF1280F42EA0C131FD0BEF147
:1015D000480F0AD14FF4007202614A0507D41BE09C
:1015E0004FF4807202618A05EAD44A0514D523F4C7
:1015F0007062BEF1280F42EA0C231FD0BEF1480FE3
:101600000AD14FF4806202610A051CD506E04FF44E
:10161000007242614A05EAD40A0514D523F47042E7
:10162000BEF1280F42EA0C331FD0BEF1480F0AD199
:101630004FF400620261CA0407D41BE04FF48062D9
:1016400042610A05EAD4CA0414D523F47022BEF11B
:10165000280F42EA0C431FD0BEF1480F0AD14FF4C5
:10166000805202618A041CD506E04FF40062426198
:10167000CA04EAD48A0414D523F47002BEF1280FF8
:1016800042EA0C531FD0BEF1480F0AD14FF400526A
:1016900002614A0407D41BE04FF4805242618A047D
:1016A000EAD44A0414D523F07062BEF1280F42EA4E
:1016B0000C631ED0BEF1480F0AD14FF48042026184
:1016C00009041BD506E04FF4005242614A04EAD4F3
:1016D000090413D523F07041BEF1280F41EA0C73C1
:1016E0000ED0BEF1480F09D14FF4004101614360B3
:1016F00080BD4FF4804242610904EBD4436080BD59
:101700004FF400414161436080BD000010B50422E8
:10171000002800F440141FFA80FCC4F201021346B2
:10172000B8BF43F01803B4F5401F1B68C0F3034E65
:1017300007D1146823F0706324F07064146081B9D9
:1017400016E0C40206D447F6F07404EA50440CFADA
:1017500004F402E0032404FA0EF4A34343F070639C
:1017600031B147F6F07101EA50410CFA01F10B4337
:101770000028B8BF1832136010BD000041617047E7
:10178000016170472DE9F04F87B0054600F0E2FD9A
:1017900040F28811012DC2F20001086012D140F21E
:1017A000681440F2841040F27022C2F20004C2F2C7
:1017B0000000C2F20002214606F072FD60B107B0DF
:1017C000BDE8F08F0DF10E0369203B210E2200F0E1
:1017D00041FF00286DD091E00DF10E0369203B21FF
:1017E000062200F037FFD0B9BDF80E0040F22C31D0
:1017F000C2F2000100BA000C0880BDF8100040F2EF
:101800002E31C2F2000100BA000C0880BDF81200AF
:1018100040F23031C2F2000100BA000C08800DF134
:101820000E0369204321062200F014FFD0B9BDF851
:101830000E0040F25431C2F2000100BA000C0880E0
:10184000BDF8100040F25631C2F2000100BA000C9F
:101850000880BDF8120040F25831C2F2000100BA0F
:10186000000C088040F20C112068C2F200010860F0
:1018700040F24E31C2F20001B1F90000B1F904406A
:101880000BF062FC40F23811C2F200010860204601
:101890000BF05AFC40F23C11C2F20001086040F229
:1018A0003230C2F20000B0F904000BF04DFC80466B
:1018B00092E0BDF80E00C0BA0BF046FC0290BDF8F5
:1018C0001000C0BA0BF040FC8246BDF81200C0BA4E
:1018D0000BF03AFC8046BDF81600C0BA0BF034FCA1
:1018E0000646BDF81A00C0BA0BF02EFC0190BDF8F8
:1018F0001800C0BA0BF028FC0BF000FA40F23812C6
:1019000046F26664C2F20002C4F2300416604FF080
:10191000663223460AF084FC0AF094FB8346304684
:101920000BF0ECF94FF0663223460AF079FC0AF02E
:1019300089FB8146504641460AF0ECF90024C4F286
:10194000343421460BF094FC40F6DB76C4F24906B1
:1019500031460BF0C7FA0746029841460AF0DAF919
:1019600021460BF085FC31460BF0BCFA0446032DF2
:1019700010D0022D019D20D13846494600F06EFB63
:1019800040F26811C2F2000108602046594600F09A
:1019900023FC0DE038464946FFF7FAFC40F2681197
:1019A000C2F20001086020465946FFF717FD019D6D
:1019B00040F28411C2F20001086040F23C1040F293
:1019C0000C11C2F20000C2F20001056040F2681082
:1019D000C2F200000068086040F20810C2F2000085
:1019E000C0F8008007B0BDE8F08F00002DE9F04797
:1019F00042F6040CC4F2000CBCF8001011F0080F01
:101A000000F00C81BCF81410BCF8182042EA01491F
:101A100044F20751CCF22E21A9FB011240F2AA2177
:101A20004FEA124EC2F200010B88B3EB124F08D1FD
:101A300040F28821C2F200018D7891F803A0098854
:101A40007BE0A1F800E043F28031C0F2E11189456A
:101A500029D348F21F544FF6926840F2B2714FF00A
:101A6000640A4FF4C8767346C5F2EB14CFF6FF78DC
:101A700011F0030F0AD18AB2A2FB0457FD0905FB3E
:101A800016255DB17D0905FB1A223AB96FF4B672CD
:101A900013440131B3F5B67FEAD807E0B3F5B77F59
:101AA0004246F5D202E040F2B271734640F2882815
:101AB0001C2BC2F20008A8F8001034D348F21F54BF
:101AC0008AB2642642F6122A01F00307C5F2EB142B
:101AD000C0F6010AA2FB04456C09ED0904FB1624BB
:101AE0004FF4C87605FB1622002C4FF00005B2FA21
:101AF00082F218BF0124520944EA0206AAB24FB981
:101B0000541EB4FA84F46409344003D01D2B0CD362
:101B10001D3B04E01AF80220934207D39B1A0135BB
:101B20001B2BEBD802E0002500E0012503F1010AA0
:101B3000013588F803A088F8025040F2A3224FF440
:101B4000616489B20EFB02F2A9EBC2174BF2C532F7
:101B5000C9F2A212A7FB022640F28822F60AC2F2BC
:101B6000000206FB1477567148F68906C8F6880607
:101B7000A7FB0664660996713601A6EB5416642429
:101B8000A7EB8607D77148F21F57C5F2EB17A1FBE9
:101B90000776FC2707EA5617760906FB1411132F60
:101BA00044F6251688BF6431C2F2924601EB9107D4
:101BB00011F0030FA7FB0643A7EB030403EB540349
:101BC0004FEA93044FEAC404A4EB93035FFA8AF448
:101BD000A7EB0303EFB24DF62805C0F600053D4420
:101BE00015F8015C25442B444FF6FF75194608BFD4
:101BF0002944032F28BF194689B2A1FB0637CB1B06
:101C000007EB53039F08FF00A7EB9303C91A117159
:101C1000BCF8001021F00801ACF8001040F2882157
:101C2000C2F2000191E88C00D1E90365496980E8BE
:101C30008C00C0E903654161BDE8F087022005F032
:101C40008DBB000010B584B008200121012400F0F4
:101C500091FC102001A903904FF44060ADF80400FE
:101C60000320029040F60040C4F20100FFF7DEFBC3
:101C700048F2A810C4F221200460446004B010BDF2
:101C80002DE9F04F83B040F60441029048F2A815C8
:101C90004FF0000BC4F20101C4F22125086820F4C2
:101CA00070400860086840F4004008600020286028
:101CB000022005F053FB01262E6055F87C0C0190A4
:101CC000012005F04BFB0220C5F800B005F046FBF3
:101CD0002E60012055F87C7C05F040FB0220C5F801
:101CE00000B005F03BFB2E60012055F87C4C05F060
:101CF00035FB0220C5F800B005F030FB2E60012056
:101D000055F87C8C05F02AFB0220C5F800B005F0E0
:101D100025FB2E60012055F87C9C05F01FFB02205E
:101D2000C5F800B005F01AFB2E60012055F87CAC18
:101D300005F014FB0220C5F800B005F00FFB2E6083
:101D4000012055F87CBC05F009FB0020286002202A
:101D500005F004FB2E60012055F87C6C05F0FEFABE
:101D600040F6044200212960C4F20102106820F408
:101D700070401060106840F44050106001980028D6
:101D800018BF0120002F18BF0127002C18BF012405
:101D900047EA4000B8F1000F18BF4FF0010844EACD
:101DA0004000B9F1000F18BF4FF0010948EA4000A8
:101DB000BAF1000F18BF4FF0010A49EA4000BBF129
:101DC000000F18BF4FF0010B4AEA4000002E4BEA0B
:101DD000400018BF012646EA4004029848B102209C
:101DE000696005F0BBFA01202860022005F0B6FA10
:101DF00008E0012602206E6005F0B0FA02202E6095
:101E000005F0ACFA00202860E0B203B0BDE8F08F26
:101E1000F0B581B0044640F6044048F2A81500260B
:101E2000C4F20100C4F22125016821F4704101606F
:101E3000016841F440510160E0092E6068600220B1
:101E400005F08CFA012702202F6005F087FA0220A6
:101E50002E6005F083FAC4F380106860022005F05C
:101E60007DFA02202F6005F079FA02202E6005F03D
:101E700075FAC4F340106860022005F06FFA022082
:101E80002F6005F06BFA02202E6005F067FAC4F3AC
:101E900000106860022005F061FA02202F6005F052
:101EA0005DFA02202E6005F059FAC4F3C0006860A4
:101EB000022005F053FA02202F6005F04FFA0220AD
:101EC0002E6005F04BFAC4F380006860022005F034
:101ED00045FA02202F6005F041FA02202E6005F03D
:101EE0003DFAC4F340006860022005F037FA022092
:101EF0002F6005F033FA02202E6005F02FFA04F06F
:101F000001006860022005F029FA02202F6005F028
:101F100025FA2E60022001B0BDE8F04005F01EBA9F
:101F2000B0B540F6044048F2A814C4F20100C4F26F
:101F30002124016821F470410160016841F440519D
:101F40000160012060602060042005F007FA002590
:101F50000420656005F002FA2560B0BD10B540F6BA
:101F6000044048F2A814C4F20100C4F2212401681C
:101F700021F470410160016841F44051016000208A
:101F800020606060042005F0E9F9012020606060B5
:101F90000420BDE8104005F0E1B9000070B540F63E
:101FA000044448F22C150126C4F20104C4F2212590
:101FB000206820F470402060206840F400402060D9
:101FC0000120C5F8806005F0C9F90120EE6705F031
:101FD000C5F9286888B10020296871B1296861B104
:101FE00040F00201C9B2F9290BD82A682AB1F929AF
:101FF00007D8296804300029EED100242046EC6778
:1020000070BD206820F470402060206840F440508B
:1020100020600020E867C5F88000042005F09EF9E4
:1020200001240420EC67C5F8804005F097F92046AC
:1020300070BD000041F21801C4F202010A6842F0CA
:1020400001020A600421C4F201010A6822F0E06280
:102050000A600A6842EA4060086070472DE9F04F64
:1020600083B0CDE9011040F24010C2F200000768D1
:1020700041F26F20C3F6832039460BF0CFF940F2CE
:102080004411C2F200010C6821460BF0C7F9014669
:1020900040F23800C2F20000D0F800B058460BF011
:1020A000E7F840F20C09C2F20009D9F800100AF072
:1020B00051FE4FF07C5105460AF04CFE8046284602
:1020C00041460AF00FFF2946064600900BF0D0F873
:1020D000014628460BF0A2F9C9F8000040F21000B2
:1020E0005946C2F20000D0F800A050460BF0C0F8EC
:1020F0008146384649460BF091F907463046394645
:102100000BF0B6F8014638460BF088F940F2401162
:10211000C2F200010860204649460BF07FF94146B3
:1021200006460AF0DFFE294604460BF0A1F80146F8
:1021300030460BF073F940F24411C2F2000108601E
:1021400049F6A6315846C3F644310BF091F8514692
:102150000AF000FE0546204639460BF089F8014694
:1021600028460BF05BF940F2481840F21001C2F229
:102170000008C2F20001D8F8005008600198294612
:102180000BF04CF959460BF073F840F24C1901462C
:10219000C2F20009D9F800000AF0DCFD06460298F8
:1021A00031460BF03BF9009907460BF061F8014608
:1021B00030460AF0CFFD0646C9F8000038462146F1
:1021C0000BF056F8014628460AF0C4FDC8F8000096
:1021D000304603B0BDE8F08F2DE9F04F83B0CDE974
:1021E000011040F25010C2F20000076841F26F2067
:1021F000C3F6832039460BF011F940F25411C2F2B4
:1022000000010C6821460BF009F9014640F2380044
:10221000C2F20000D0F800B058460BF029F840F2A6
:102220001409C2F20009D9F800100AF093FD4FF02A
:102230007C5105460AF08EFD8046284641460AF04C
:1022400051FE2946064600900BF012F8014628463A
:102250000BF0E4F8C9F8000040F218005946C2F249
:102260000000D0F800A050460BF002F88146384636
:1022700049460BF0D3F80746304639460AF0F8FFD6
:10228000014638460BF0CAF840F25011C2F2000184
:102290000860204649460BF0C1F8414606460AF060
:1022A00021FE294604460AF0E3FF014630460BF0C2
:1022B000B5F840F25411C2F20001086049F6A631A7
:1022C0005846C3F644310AF0D3FF51460AF042FDA6
:1022D0000546204639460AF0CBFF014628460BF05A
:1022E0009DF840F2581840F21801C2F20008C2F2FC
:1022F0000001D8F800500860019829460BF08EF8CC
:1023000059460AF0B5FF40F25C190146C2F20009D5
:10231000D9F800000AF01EFD0646029831460BF07F
:102320007DF8009907460AF0A3FF014630460AF0FF
:1023300011FD0646C9F80000384621460AF098FF0C
:10234000014628460AF006FDC8F80000304603B0F2
:10235000BDE8F08FB0B5FFF7E3FDD220FFF758FDE1
:10236000FFF71CFE4120FFF753FDFFF717FEFFF7B5
:10237000D7FDD320FFF74CFDFFF710FE0020FFF73D
:102380007FFC0446FFF7EAFDFFF7CAFDD220FFF706
:102390003FFDFFF703FE4220FFF73AFDFFF7FEFD8A
:1023A000FFF7BEFDD320FFF733FDFFF7F7FD002059
:1023B000FFF766FC40EA042420460AF0C5FE00212F
:1023C0000546CCF280710AF0C5FC0021B4F5004F3F
:1023D00098BF2846C4F2AA310AF084FD0AF08EFCA8
:1023E00047F2A40244F2D733C0F63D22C4F24203BE
:1023F00009F05AFE00230022C4F224030AF0A4F9D3
:1024000009F020FE0AF064FE0446FFF7A7FD20460F
:10241000B0BD000080B5FFF715FC6B20802101F0F6
:10242000C3F9642004F06EFF6B20002101F0BCF9B9
:102430001B20182101F0B8F91C20102101F0B4F97B
:102440001920012101F0B0F91A20012101F0ACF9A5
:102450003820002101F0A8F96A20002101F0A4F938
:102460002320002101F0A0F93720802101F09CF900
:10247000FFF756FDD220FFF7CBFCFFF78FFD75204D
:10248000FFF7C6FCFFF78AFDFFF74AFDD320FFF7F1
:10249000BFFCFFF783FD0020FFF7F2FBFFF75EFDB7
:1024A0006B20032101F080F96C20002101F07CF900
:1024B000002080BDFEE700007047000042684EF239
:1024C0000011CEF20001EAB110B54EF60C5207230E
:1024D000CEF20002126890F801E0847890F800C013
:1024E00023EA12220F23D340C2F1040223400EFA42
:1024F00002F21A4301EB0C03120183F80023BDE83A
:10250000104000E080310078012300F01F02C0F38A
:10251000421003FA02F241F82020704740F0806038
:102520004EF60C5140F0FD70CEF20001086070478D
:1025300041F20401C4F202010A6822F4404210434D
:102540000860704741F21C020029C4F202021168BF
:102550000CBF21EA000008431060704741F21002EE
:102560000029C4F2020211680CBF21EA00000843EE
:102570001060704741F218020029C4F2020211688B
:102580000CBF21EA000008431060704741F20C02C2
:102590000029C4F2020211680CBF21EA00000843BE
:1025A0001060704780B541F2040EC4F2020EDEF8EE
:1025B000002002F00C0341F20022C0F27A02082B44
:1025C0001FD1DEF80030C3F3834303F1020CDEF8C1
:1025D000003013F4803F06D140F60012C0F23D02F5
:1025E0000CFB02F20DE0DEF8003013F4003F02D1E4
:1025F0000CFB02F205E040F60012C0F23D020CFBBB
:1026000002F202604DF61801DEF80030C0F600015B
:10261000C3F30313CB5CDA404260DEF80030C3F34F
:102620000223CB5C22FA03F38360DEF80030C3F3AD
:10263000C223C95C4DF60403C0F6000322FA01F17F
:10264000C160DEF80020C2F381329A5CB1FBF2F186
:10265000016180BD2DE9F04F81B040F6044A074684
:1026600048F2A81901261C4615468846C4F2010AFC
:10267000C4F22129DAF8000020F47040CAF8000002
:10268000DAF8000040F44050CAF800000420C9F80D
:102690000460C9F8006004F061FE4FF0000B0420F4
:1026A000C9F804B004F05AFE7F00C9F800B0F8B2CF
:1026B000FFF7AEFBFFF772FCD0B1DAF8000020F4B0
:1026C0007040CAF80000DAF8000040F44050CAF840
:1026D00000000420C9F800B0C9F804B004F03EFEC0
:1026E0000420C9F80060C9F8046004F037FE51E026
:1026F0004046FFF78DFBFFF751FCDAF8000020F4AD
:102700007040CAF80000DAF8000040F44050CAF8FF
:1027100000000420C9F80460C9F8006004F01EFE3F
:102720000420C9F804B004F019FE47F00100C9F80C
:1027300000B0C0B2FFF76CFBFFF730FC05E000BF54
:10274000FFF79EFA04F8010B013DE8B2012803D01F
:1027500020B10120F4E700BF0020F1E7DAF8000023
:10276000002620F47040CAF80000DAF8000040F4B7
:102770004050CAF800000420C9F80060C9F804609D
:1027800004F0ECFD0120C9F80000C9F804000420A1
:1027900004F0E4FD304601B0BDE8F08F80B507F0ED
:1027A000C5FA08F06DF9BDE8804007F0CDBA000029
:1027B00041F2240CC4F2020C5CF8080C40F080508A
:1027C0004CF8080C5CF8080C40F000604CF8080C61
:1027D000DCF8000040F00100CCF80000DCF800005C
:1027E00010F0020F0ED1DCF8000010F0020F09D13A
:1027F000DCF8000010F0020F04D1DCF8000010F04B
:10280000020FEBD02DE9F04F42F6040943F2803875
:10281000C4F20009C0F2E118B9F81400B9F81810B0
:1028200041EA004044F20751CCF22E21A0FB0121E5
:1028300040F2B622C2F200021388B3EB114F40F00F
:102840001E814FF4884039F8000047F20001C4F2BD
:102850000001086840F4807008605CF8040C40F4E3
:1028600080304CF8040C5CF8040C20F480304CF8F8
:10287000040CDCF8000040F00100CCF8000000BFC0
:10288000DCF8000010F0020F0ED1DCF8000010F0B0
:10289000020F09D1DCF8000010F0020F04D1DCF8BF
:1028A000000010F0020FEBD0DCF8000040F0807068
:1028B000CCF800005CF8040C40F400704CF8040CF8
:1028C0005CF8040C40F400404CF8040CB9F800002B
:1028D00010F0200F0ED1B9F8000010F0200F09D130
:1028E000B9F8000010F0200F04D1B9F8000010F082
:1028F000200FEBD0B9F8000010F0080F0ED1B9F896
:10290000000010F0080F09D1B9F8000010F0080F0E
:1029100004D1B9F8000010F0080FEBD0B9F80000AE
:1029200010F0200F0ED1B9F8000010F0200F09D1DF
:10293000B9F8000010F0200F04D1B9F8000010F031
:10294000200FEBD0B9F8000048F21F5A48F20053AC
:10295000002140F2B4764FF0640B4FF4C8720027A8
:10296000C5F2EB1AC0F2E21340F01000A9F8000023
:1029700047F6FF70A9F80410A9F8080040F2B470F7
:10298000A0FB0A544744043065094744E40905FBA9
:102990001B6507EB030E04FB12648D42754608BFEE
:1029A00007EB08058C42A1F1040108BF754605EB51
:1029B000080711F13405E3D15CF8080C40F08050B1
:1029C0004CF8080C5CF8080C40F000604CF8080C5F
:1029D00047F20000C4F200000146006840F4807035
:1029E0000860B9F8000040F01000A9F8000046F2B5
:1029F0007A10C0F2DC103844A9F81800000CA9F8CD
:102A00001400B9F8000020F01000A9F8000000BF81
:102A1000B9F8000010F0200F0ED1B9F8000010F046
:102A2000200F09D1B9F8000010F0200F04D1B9F837
:102A3000000010F0200FEBD0B9F8000020F01000DB
:102A4000A9F80000B9F8000010F0200F0ED1B9F875
:102A5000000010F0200F09D1B9F8000010F0200F8D
:102A600004D1B9F8000010F0200FEBD04FF48840EB
:102A700045F2500129F800100020BDE8F08F0B0C42
:102A8000A8F10101884213805CD948F21F5E4FF61D
:102A9000926640F2B27164244FF4C875C5F2EB1E21
:102AA000CFF6FF7611F0030F0AD188B2A0FB0E72A9
:102AB000D70907FB15075FB1520902FB140038B9AB
:102AC0006FF4B67003440131B3F5B67FEAD803E082
:102AD000B3F5B77F3046F5D21C2B37D348F21F52DF
:102AE00088B2642642F6122401F003050021C5F2E3
:102AF000EB12C0F60104A0FB02277A09FF0902FBD2
:102B000016024FF4C87607FB1600002AB0FA80F0D0
:102B100018BF0122400942EA000600BF88B24DB941
:102B2000421EB2FA82F25209324003D01D2B0FD35B
:102B30001D3B03E0205C83420BD31B1A01311B2B8E
:102B4000ECD806E040F2B2711C2BC7D2002100E0A5
:102B500001214FF48840DAB239F80000FF2A3FF42F
:102B600074AEC9B2FF293FF470AE45F250018842FD
:102B70007FF46BAE0020BDE8F08F000041F204004E
:102B8000C4F20200016801F00C0241F20021C0F21F
:102B90007A01082A18D10268C2F38342036802321C
:102BA00013F4803F05D140F60011C0F23D015143BE
:102BB0000AE0036813F4003F01D1514304E040F6FA
:102BC0000011C0F23D01514340F21C024DF60803D2
:102BD000C2F20002C0F6000311600068C0F30310E7
:102BE000185C21FA00F010607047000082B041F2DA
:102BF00004000022C4F20200CFF6FF0250F8041CC9
:102C000041F0010140F8041C016811404FF6FF72C9
:102C10000160CFF6F66250F8041C114040F8041C25
:102C200050F8041C21F4802140F8041C016821F4B0
:102C3000FE0101604FF41F014160002101910091EC
:102C400050F8041C41F4803140F8041C50F8041C76
:102C500001F400310091019901310191009919B9F4
:102C60000199B1F5A06FF1D150F8041C11F4003FA7
:102C70000CBF0021012100910099012958D1D0F801
:102C8000FC1F41F01001C0F8FC1FD0F8FC1F21F020
:102C90000301C0F8FC1FD0F8FC1F41F00201C0F88E
:102CA000FC1F0168016001680160016841F48061F6
:102CB0000160016821F47C110160016841F4E811B0
:102CC000016050F8041C41F0807140F8041C00BF02
:102CD00050F8041C11F0007F0ED150F8041C11F0C4
:102CE000007F09D150F8041C11F0007F04D150F886
:102CF000041C11F0007FEBD0016821F0030101609A
:102D0000016841F002010160016801F00C0108292D
:102D10000ED0016801F00C01082909D0016801F00A
:102D20000C01082904D0016801F00C010829EBD13D
:102D30004EF608504FF00061CEF20000016002B084
:102D4000704700001020C4F20000018811F0010F4C
:102D500006D040F2A821C2F200010A8801320A809E
:102D600000210180BFF34F8F7047000040F21040F8
:102D7000C4F200000188018821F001010180704740
:102D800040F61000C4F200000188018821F0010122
:102D9000018070472DE9F04F81B042F600400121DB
:102DA000C4F2010000F50065284600F025FA01286C
:102DB00040F010822846012100F010FA03F070FB69
:102DC000002800F0078240F22C00C2F200000078D8
:102DD000FEF7D8FC042002F077FA40F220174042B8
:102DE000C2F200073860032002F06EFA40F22418A5
:102DF0004042C2F20008C8F80000322002F0DEFCB7
:102E000040F208010128C2F20001097807D1B1FAA5
:102E100081F0410940F20800C2F20000017000296F
:102E20000CBF6420002004F01FFA40F270204FF025
:102E30008041C2F20000056828460AF02BF840F2F3
:102E400035140028C2F20004204609D128464FF06C
:102E500040410AF026F828B940F23410C2F20000CE
:102E60000121017040F234162178C2F20006307858
:102E700008430AD028460AF02BF9002848BF4042F0
:102E80000128DEBF002030702070D8F800103868AC
:102E900003F0AAFA40F20C194FF04041C2F20009C7
:102EA000D9F8000009F056FF054640F2040000265C
:102EB000C2F20000C4F2C826006831460AF012F8D7
:102EC000014628460AF0D4F940F20001054640F2D6
:102ED0003810C2F20000C2F20001006809680AF06E
:102EE000C7F9314609F0FEFF0146284609F032FFD6
:102EF0000AF0EEF840F21014D8F80010C2F2000404
:102F00002060386803F046FB40F26425C2F20005F9
:102F1000286040F23C10C2F20000006803F0D6FACC
:102F200040F290112A6840F2601640F2641AC2F230
:102F30000001C2F20006C2F2000A086021681144D2
:102F40000A18081A3260CAF8000003F04DF9014669
:102F50004EF20C5540F26C22009041F6F42441F6FA
:102F6000F42B4146D6F80080CFF6FF75C2F200027E
:102F7000106040F2B822A845C2F20002D8BFA846AD
:102F8000A045B8BFC346DAF80000C6F800B0A842B2
:102F9000C8BF0546A542B8BF2C4610880B683E68DE
:102FA000CAF80040D9F800A0022851D040F2081118
:102FB0000128C2F20001D1F800901AD0002868D18F
:102FC000002E3046194648BF7042002B48BF594278
:102FD00008441E2857DA40F2BA20C2F200000188E5
:102FE0000131018089B20B2953D3002101800120D6
:102FF000108040F2BC201F46C2F20000018801315F
:10300000018089B2C92922BF002111800180504668
:103010000021C4F2B01109F044FF00283B4638D12A
:1030200042F200014846C4F2CB6109F041FF3B4641
:1030300078BB00215046CCF2901109F039FF40F2E4
:10304000B8223B460028C2F2000222D102201080A2
:1030500040F2BE20C2F2000001880131018089B235
:10306000C92922BF002111800180981948BF404220
:1030700047280EDB40F208000127C2F2000007706B
:10308000002010800BE040F2BA200021C2F20000C4
:10309000018040F20800C2F200000778DFB3B146B9
:1030A00040F2C026C2F200063078C0B950464FF058
:1030B00041411E4609F0FCFE70BB00215046C4F29F
:1030C000401109F0F5FE002804BF334656EA090016
:1030D00022D140F2C0260120C2F20006307040F238
:1030E000C420C2F2000001684A1C32290260A2BF5B
:1030F000002131700160A9F1040123290CD8191FA6
:10310000232909D80027076040F208003770C2F26F
:103110000000077000E0002700215046CCF220217B
:1031200009F0CDFE002848D100215046C4F22021EC
:1031300009F0B0FE002840D1009940F2924081424F
:103140003BDB012F39D048F29017B8F1010F4FF057
:1031500000004FF00006B8BF0120C4F22227B8F1EA
:10316000000F42F60048F8614FF00000C4F2010879
:10317000C8BF0120BBF1000FB86148BFCBF1000B05
:1031800040461FFA8BF100F041F9012D4FF000008D
:10319000B8BF0120002D386040F2B010C8BF012632
:1031A000002CC4F22220066048BF64424046A1B20F
:1031B00001B0BDE8F04F00F02BB948F2901040F29A
:1031C000B0120021C4F22220C4F222220160116058
:1031D000C161816101B0BDE8F08F0000C943018287
:1031E000704700000288002942F0010308BF22F066
:1031F0000103038070470000008A084018BF0120C7
:103200007047000010B5028C22F001020284048C89
:10321000B0F804E0038B0A8823F0730343EA020C3E
:103220000B8924F002021A434B881A43A0F1804311
:10323000A3F596334FEAB323072B14D8012404FADD
:1032400003F313F0E50F0ED08C892EF4407322F0B7
:103250000C022343CC8943EA040E4B8923F0040378
:103260001A438B881A43A0F804E0A0F818C0C98854
:103270008186028410BD0000028B22F008021143F7
:103280000183704710B5028C22F010020284048C76
:10329000B0F804E0038B0A8823F4E64343EA022CE7
:1032A0000B8924F0200242EA03124B8842EA0312FF
:1032B00043F20043C4F20103984205D042F60043B2
:1032C000C4F20103984212D18B892EF4406422F09B
:1032D000C00244EA8303CC8943EA840E4B896FF031
:1032E0004F0404EA03131A438B8842EA0312A0F83E
:1032F00004E0A0F818C0C9880187028410BD00004E
:10330000028B22F4006242EA01210183704700002F
:1033100010B5028C22F480720284048CB0F804E0B0
:10332000838B0A8823F0730343EA020C0B8924F48D
:10333000007242EA03224B8842EA032243F200432E
:10334000C4F20103984205D042F60043C4F20103DF
:10335000984212D18B892EF4405422F4406244EA00
:103360000313CC8943EA041E4B8940F2FF441B023D
:10337000A3431A438B8842EA0322A0F804E0A0F892
:103380001CC0C9888187028410BD0000828B22F096
:10339000080211438183704710B5028C22F48052D9
:1033A0000284048CB0F804E0828B0B8822F4E6429D
:1033B00042EA032C0B8924F4005242EA03324B8880
:1033C00042EA033343F20042C4F20102904205D0C4
:1033D00042F60042C4F20102904204D18A892EF4DE
:1033E000804444EA821EA0F804E0A0F81CC0C9880A
:1033F000A0F84010038410BD828B22F4006242EAE0
:103400000121818370470000818670478187704762
:10341000A0F840107047000040F6FF33B0F800C03D
:10342000C4F2000398420FDCB0F1804F1ED040F28E
:103430000043C4F20003984218D040F60003C4F2DF
:103440000003984212D016E040F60043C4F2000395
:1034500098420BD043F20043C4F20103984205D0D6
:1034600042F60043C4F20103984204D14B882CF089
:10347000700243EA020C41F2004240F48063C4F25D
:103480000002934204D0CB882CF4407243EA020C31
:10349000A0F800C08A8882850A880285A0F180424F
:1034A000A2F596324FEAB222072A07D8012303FA7F
:1034B00002F212F0E50F1CBF097A01860121818218
:1034C00070470000F0B581B043F6000440F225518A
:1034D000C4F20104204600F0CDF8002850D0204668
:1034E00000F058F940F28015C1B2C2F20005287010
:1034F000204600F053F9287840F21411C2F200017E
:10350000782802D101220A7001E00978C1B340F2A3
:103510005C26C2F20006348814F4004F30D16104F6
:1035200004D40D281FD144F480402CE00A2829D16E
:1035300040F2941544F40040C2F200053080284661
:10354000FDF768F801F002FE6FF39F34002728466C
:1035500021463780FDF7D8F840F21410C2F200007F
:10356000077001B0F0BD40F29412611C6FF39F34FC
:10357000C2F20002105588B2C72888BF00213180EE
:1035800001B0F0BD0020308001B0F0BD10B544F2B4
:10359000004440F22551C4F20004204600F06AF8CD
:1035A000002808BF10BD204600F0F4F810BD000050
:1035B0008289002942F4005308BF22F4005383811A
:1035C0007047000080B544F6FF31C4F20001884224
:1035D0001EDD44F60041C4F2000188422CD045F2C1
:1035E0000001C4F2000188422ED043F60001C4F26B
:1035F0000101884218BF80BD4FF480400121FEF7D1
:10360000C5FF4FF480400021BDE88040FEF7BEBFFB
:1036100044F20041C4F2000188421DD044F600018A
:10362000C4F20001884223D14FF480200121FEF72B
:1036300095FF4FF4802016E04FF400200121FEF7A3
:103640008DFF4FF400200EE04FF480100121FEF7B3
:1036500085FF4FF4801006E04FF400300121FEF7A3
:103660007DFF4FF400300021BDE88040FEF776BFBB
:1036700080BD000001F01F02012303FA02F2C1F332
:103680004213022B06D0012B14BF00F1140300F1EA
:103690000C0301E000F110031B88090A1A404FF0E7
:1036A000010318BF0122008803FA01F1084018BF86
:1036B000012010407047000001F01F0C012303FAA5
:1036C0000CFCC1F342131421022B08BF1021012B63
:1036D00008BF0C21002A42580CBF22EA0C0242EA21
:1036E0000C0242507047000070B586B00446008A54
:1036F0000D46C98801AE20F4405008434EF6F31140
:103700002082A0890840A98808432989084369893B
:103710000843A081A08AA98920F440700843A082B0
:103720003046FEF73FFF43F6000106F10800022293
:10373000C4F201018C424FF0190108BF06F10C00E0
:10374000042600684843A189A2EBD1312A6802FA15
:1037500001F1B0FBF1F048F21F51C5F2EB11A0FBF3
:1037600001235A096FF0630302FB0300A389A6EB50
:10377000D336B0403230A0FB0101072040EA1330BD
:1037800080F0080000EA511040EA0210208106B0E3
:1037900070BD000080886FF35F2070476FF35F217A
:1037A00081807047FEE70000B0B50C460546FEF785
:1037B000B7FBFEF743FAD220FEF72AFBFEF7EEFB3B
:1037C00018B1FEF7CBFB0120B0BD2846FEF720FB69
:1037D000FEF7E4FB2046FEF71BFBFEF7DFFB04468B
:1037E000002818BF0124FEF7B9FB2046B0BD000039
:1037F0002DE9F04F81B040F6044A074648F2A81977
:1038000001241D4616468846C4F2010AC4F2212945
:10381000DAF8000020F47040CAF80000DAF800007E
:1038200040F44050CAF800000420C9F80440C9F828
:10383000004003F093FD4FF0000B0420C9F804B0E2
:1038400003F08CFD7800C9F800B0C0B2FEF7E0FAD2
:10385000FEF7A4FBD0B1DAF8000020F47040CAF8FB
:103860000000DAF8000040F44050CAF800000420DC
:10387000C9F800B0C9F804B003F070FD0420C9F81D
:103880000040C9F8044003F069FD49E04046FEF7F6
:10389000BFFAFEF783FB56B1002400BF285DFEF798
:1038A000B7FAFEF77BFBF8B90134B442F6D3DAF885
:1038B0000000002420F47040CAF80000DAF800008C
:1038C00040F44050CAF800000420C9F80040C9F88C
:1038D000044003F043FD0120C9F80000C9F80400CA
:1038E000042003F03BFD1BE0DAF8000020F47040F8
:1038F000CAF80000DAF8000040F44050CAF80000AE
:103900000020C9F80000C9F80400042003F026FDD7
:1039100001240420C9F80040C9F8044003F01EFD4A
:10392000204601B0BDE8F08F2DE9F04F93B03A206A
:10393000ADF84A0006A8FEF759F89DF81F004DF6AD
:103940003419BDF818704FF0000842F210754FF0AE
:10395000000BC0F6000905909DF81A0001909DF833
:103960001B0002909DF81D0003909DF81E0004901E
:1039700048E008EB48016920362300EB410037316D
:10398000490080B28AB22B2102F0CCF8002400BF9B
:1039900019F8046016F0010F0CBF4FF6FF7047F6E0
:1039A0000F0001F0C9FBB00754BF4FF6FF7047F698
:1039B0000F0001F0C1FB700754BF4FF6FF7047F6D0
:1039C0000F0001F0B9FB300754BF4FF6FF7047F608
:1039D0000F0001F0B1FBF00654BF4FF6FF7047F641
:1039E0000F0001F0A9FBB00654BF4FF6FF7047F679
:1039F0000F0001F0A1FB01340C2CC9D14FF0000BDA
:103A000092E000BF5FFA88F0032801D1012025E091
:103A1000C8F10202C8F10300D2B200F00301032A88
:103A200002D2012041B919E0421A0120043A684348
:103A300012F0FF0FFAD189B1012903D100EB800008
:103A400040000BE04FF47A7202294FF0640100FB52
:103A500002F208BF00FB01F2104600BF4CF6CD4158
:103A6000B7FBF0F0B8F1020FCCF6CC41A0FB01128D
:103A70004FEAD20101EB8101A0EB410407D85FEAD4
:103A80000B6004D1002C3FF474AF4FF0010B08EB36
:103A900048016920362300EB41003731490080B2EC
:103AA0008AB22B2102F03EF844F010004FF0000AD9
:103AB00000EB400009EB800414F80A6016F0010FD7
:103AC0000CBF4FF6FF7047F60F0001F035FBB00753
:103AD00054BF4FF6FF7047F60F0001F02DFB700743
:103AE00054BF4FF6FF7047F60F0001F025FB30077B
:103AF00054BF4FF6FF7047F60F0001F01DFBF006B4
:103B000054BF4FF6FF7047F60F0001F015FBB006EB
:103B100054BF4FF6FF7047F60F0001F00DFB0AF19E
:103B2000010ABAF10C0FC7D108F10108B8F1040F6E
:103B30007FF468AF81253A240DF14A08691DA8B2C7
:103B400036238AB22B2101F0EDFFA4F120000026DC
:103B5000C0B200EB400009EB800400BFA75D17F086
:103B6000010F0CBF4FF6FF7047F60F0001F0E4FAAB
:103B7000B80754BF4FF6FF7047F60F0001F0DCFAAC
:103B8000780754BF4FF6FF7047F60F0001F0D4FAE4
:103B9000380754BF4FF6FF7047F60F0001F0CCFA1C
:103BA000F80654BF4FF6FF7047F60F0001F0C4FA55
:103BB000B80654BF4FF6FF7047F60F0001F0BCFA8D
:103BC00001360C2ECAD118F8014F0635002CB5D19C
:103BD00000274FF0870B42F21078002542E000BF2B
:103BE0000CB101257FE087202B218C22362301F0A8
:103BF00099FF002419F8045015F0010F0CBF4FF67F
:103C0000FF7047F60F0001F097FAA80754BF4FF670
:103C1000FF7047F60F0001F08FFA680754BF4FF6A8
:103C2000FF7047F60F0001F087FA280754BF4FF6E0
:103C3000FF7047F60F0001F07FFAE80654BF4FF619
:103C4000FF7047F60F0001F077FAA80654BF4FF651
:103C5000FF7047F60F0001F06FFA01340C2CC9D148
:103C600000258EE0F8B2012802D1012026E000BF35
:103C70007A42C7F10100D2B200F00301032A03D255
:103C8000012051B91AE000BF421A0120043A00FB9A
:103C900008F012F0FF0FF9D181B1012903D100EB37
:103CA000800040000AE04FF47A7202294FF064016C
:103CB00000FB02F208BF00FB01F210460199002F41
:103CC000B1FBF0F04CF6CD41CCF6CC41A0FB01129B
:103CD0004FEAD20101EB8101A0EB410408BF5FEA8A
:103CE00005603FF47DAF07EB470136230BEB410046
:103CF0004631490080B28AB22B2101F013FF44F013
:103D00001000002600EB400009EB800414F806A028
:103D10001AF0010F0CBF4FF6FF7047F60F0001F0CD
:103D20000BFA5FEA8A7054BF4FF6FF7047F60F0038
:103D300001F002FA5FEA4A7054BF4FF6FF7047F68F
:103D40000F0001F0F9F95FEA0A7054BF4FF6FF70F7
:103D500047F60F0001F0F0F95FEACA6054BF4FF672
:103D6000FF7047F60F0001F0E7F95FEA8A6054BF81
:103D70004FF6FF7047F60F0001F0DEF901360C2E0A
:103D8000C4D10137022F7FF46DAF93243A250DF192
:103D90004A0800BF611DA0B236238AB22B2101F070
:103DA000C1FEA5F120000026C0B200EB400009EBE7
:103DB000800700BFBD5D15F0010F0CBF4FF6FF700F
:103DC00047F60F0001F0B8F9A80754BF4FF6FF708F
:103DD00047F60F0001F0B0F9680754BF4FF6FF70C7
:103DE00047F60F0001F0A8F9280754BF4FF6FF70FF
:103DF00047F60F0001F0A0F9E80654BF4FF6FF7038
:103E000047F60F0001F098F9A80654BF4FF6FF706F
:103E100047F60F0001F090F901360C2ECAD118F8C0
:103E2000015F0634002DB5D100244FF0990B42F20A
:103E300010774FF0000A45E015B14FF0010A82E01B
:103E400099202B219E22362301F06CFE002500BF15
:103E500019F8056016F0010F0CBF4FF6FF7047F61A
:103E60000F0001F069F9B00754BF4FF6FF7047F635
:103E70000F0001F061F9700754BF4FF6FF7047F66D
:103E80000F0001F059F9300754BF4FF6FF7047F6A5
:103E90000F0001F051F9F00654BF4FF6FF7047F6DE
:103EA0000F0001F049F9B00654BF4FF6FF7047F616
:103EB0000F0001F041F901350C2DC9D14FF0000A76
:103EC0008EE000BFE0B2012802D1012026E000BF51
:103ED0006242C4F10100D2B200F00301032A03D20E
:103EE000012049B91AE000BF421A0120043A784380
:103EF00012F0FF0FFAD189B1012903D100EB800044
:103F000040000BE04FF47A7202294FF0640100FB8D
:103F100002F208BF00FB01F2104600BF0299002C1C
:103F2000B1FBF0F04CF6CD41CCF6CC41A0FB011238
:103F30004FEAD20101EB8101A0EB410508BF5FEA26
:103F40000A603FF479AF04EB440136230BEB4100E8
:103F50004F31490080B28AB22B2101F0E3FD45F0D8
:103F600010004FF0000800EB400009EB800500BF97
:103F700015F8086016F0010F0CBF4FF6FF7047F6FA
:103F80000F0001F0D9F8B00754BF4FF6FF7047F6A5
:103F90000F0001F0D1F8700754BF4FF6FF7047F6DD
:103FA0000F0001F0C9F8300754BF4FF6FF7047F615
:103FB0000F0001F0C1F8F00654BF4FF6FF7047F64E
:103FC0000F0001F0B9F8B00654BF4FF6FF7047F686
:103FD0000F0001F0B1F808F10108B8F10C0FC7D1DA
:103FE0000134022C7FF46EAF00244FF0AB0B42F291
:103FF00010774FF0000A45E015B14FF0010A82E05A
:10400000AB202B21B022362301F08CFD002500BF10
:1040100019F8056016F0010F0CBF4FF6FF7047F658
:104020000F0001F089F8B00754BF4FF6FF7047F654
:104030000F0001F081F8700754BF4FF6FF7047F68C
:104040000F0001F079F8300754BF4FF6FF7047F6C4
:104050000F0001F071F8F00654BF4FF6FF7047F6FD
:104060000F0001F069F8B00654BF4FF6FF7047F635
:104070000F0001F061F801350C2DC9D14FF0000A95
:104080008EE000BFE0B2012802D1012026E000BF8F
:104090006242C4F10100D2B200F00301032A03D24C
:1040A000012049B91AE000BF421A0120043A7843BE
:1040B00012F0FF0FFAD189B1012903D100EB800082
:1040C00040000BE04FF47A7202294FF0640100FBCC
:1040D00002F208BF00FB01F2104600BF0399002C5A
:1040E000B1FBF0F04CF6CD41CCF6CC41A0FB011277
:1040F0004FEAD20101EB8101A0EB410508BF5FEA65
:104100000A603FF479AF04EB440136230BEB410026
:104110005831490080B28AB22B2101F003FD45F0ED
:1041200010004FF0000800EB400009EB800500BFD5
:1041300015F8086016F0010F0CBF4FF6FF7047F638
:104140000F0000F0F9FFB00754BF4FF6FF7047F6BD
:104150000F0000F0F1FF700754BF4FF6FF7047F6F5
:104160000F0000F0E9FF300754BF4FF6FF7047F62D
:104170000F0000F0E1FFF00654BF4FF6FF7047F666
:104180000F0000F0D9FFB00654BF4FF6FF7047F69E
:104190000F0000F0D1FF08F10108B8F10C0FC7D1F2
:1041A0000134022C7FF46EAFB7243A250DF14A0892
:1041B000611DA0B236238AB22B2101F0B3FCA5F118
:1041C00020000026C0B200EB400009EB800700BFD2
:1041D000BD5D15F0010F0CBF4FF6FF7047F60F00E5
:1041E00000F0AAFFA80754BF4FF6FF7047F60F0074
:1041F00000F0A2FF680754BF4FF6FF7047F60F00AC
:1042000000F09AFF280754BF4FF6FF7047F60F00E3
:1042100000F092FFE80654BF4FF6FF7047F60F001C
:1042200000F08AFFA80654BF4FF6FF7047F60F0054
:1042300000F082FF01360C2ECAD118F8015F063457
:10424000002DB5D100244FF0BD0B42F210774FF096
:10425000000A45E015B14FF0010A82E0BD202B2194
:10426000C222362301F05EFC002500BF19F805606C
:1042700016F0010F0CBF4FF6FF7047F60F0000F06D
:104280005BFFB00754BF4FF6FF7047F60F0000F01A
:1042900053FF700754BF4FF6FF7047F60F0000F052
:1042A0004BFF300754BF4FF6FF7047F60F0000F08A
:1042B00043FFF00654BF4FF6FF7047F60F0000F0C3
:1042C0003BFFB00654BF4FF6FF7047F60F0000F0FB
:1042D00033FF01350C2DC9D14FF0000A8EE000BF2D
:1042E000E0B2012802D1012026E000BF6242C4F101
:1042F0000100D2B200F00301032A03D2012049B920
:104300001AE000BF421A0120043A784312F0FF0F6E
:10431000FAD189B1012903D100EB800040000BE004
:104320004FF47A7202294FF0640100FB02F208BFD9
:1043300000FB01F2104600BF0499002CB1FBF0F025
:104340004CF6CD41CCF6CC41A0FB01124FEAD20194
:1043500001EB8101A0EB410508BF5FEA0A603FF471
:1043600079AF04EB440136230BEB41006131490086
:1043700080B28AB22B2101F0D5FB45F010004FF03E
:10438000000800EB400009EB800500BF15F808604D
:1043900016F0010F0CBF4FF6FF7047F60F0000F04C
:1043A000CBFEB00754BF4FF6FF7047F60F0000F08A
:1043B000C3FE700754BF4FF6FF7047F60F0000F0C2
:1043C000BBFE300754BF4FF6FF7047F60F0000F0FA
:1043D000B3FEF00654BF4FF6FF7047F60F0000F033
:1043E000ABFEB00654BF4FF6FF7047F60F0000F06B
:1043F000A3FE08F10108B8F10C0FC7D10134022C5B
:104400007FF46EAFC9243A250DF14A08611DA0B2B0
:1044100036238AB22B2101F085FBA5F1200000266E
:10442000C0B200EB400009EB800700BFBD5D15F096
:10443000010F0CBF4FF6FF7047F60F0000F07CFE37
:10444000A80754BF4FF6FF7047F60F0000F074FE48
:10445000680754BF4FF6FF7047F60F0000F06CFE80
:10446000280754BF4FF6FF7047F60F0000F064FEB8
:10447000E80654BF4FF6FF7047F60F0000F05CFEF1
:10448000A80654BF4FF6FF7047F60F0000F054FE29
:1044900001360C2ECAD118F8015F0634002DB5D1B3
:1044A00000244FF0CF0B42F210774FF0000A45E0A6
:1044B00015B14FF0010A82E0CF202B21D422362300
:1044C00001F030FB002500BF19F8056016F0010F60
:1044D0000CBF4FF6FF7047F60F0000F02DFEB0073F
:1044E00054BF4FF6FF7047F60F0000F025FE70072F
:1044F00054BF4FF6FF7047F60F0000F01DFE300767
:1045000054BF4FF6FF7047F60F0000F015FEF0069F
:1045100054BF4FF6FF7047F60F0000F00DFEB006D7
:1045200054BF4FF6FF7047F60F0000F005FE01354F
:104530000C2DC9D14FF0000A8EE000BFE0B2012877
:1045400002D1012026E000BF6242C4F10100D2B2D4
:1045500000F00301032A03D2012049B91AE000BF89
:10456000421A0120043A784312F0FF0FFAD189B1C0
:10457000012903D100EB800040000BE04FF47A7278
:1045800002294FF0640100FB02F208BF00FB01F2B8
:10459000104600BF0599002CB1FBF0F04CF6CD4160
:1045A000CCF6CC41A0FB01124FEAD20101EB810114
:1045B000A0EB410508BF5FEA0A603FF479AF04EB66
:1045C000440136230BEB41006A31490080B28AB2C4
:1045D0002B2101F0A7FA45F010004FF0000800EB86
:1045E000400009EB800500BF15F8086016F0010FC8
:1045F0000CBF4FF6FF7047F60F0000F09DFDB007AF
:1046000054BF4FF6FF7047F60F0000F095FD70079E
:1046100054BF4FF6FF7047F60F0000F08DFD3007D6
:1046200054BF4FF6FF7047F60F0000F085FDF0060F
:1046300054BF4FF6FF7047F60F0000F07DFDB00647
:1046400054BF4FF6FF7047F60F0000F075FD08F1FC
:104650000108B8F10C0FC7D10134022C7FF46EAF02
:1046600040F26810C2F20000006808F047FB0B46F9
:1046700042F63D21024606A8C0F60101FBF78AFE7C
:104680009DF81850002D5FD04DF6A85886240DF1E6
:104690001809C0F6000800BFE11DA0B25B238AB272
:1046A0004C2101F03FFAA5F120000026C0B208EB32
:1046B000001700BFBD5D15F0010F0CBF4FF6FF7076
:1046C0004FF4784000F038FDA80754BF4FF6FF7054
:1046D0004FF4784000F030FD680754BF4FF6FF708C
:1046E0004FF4784000F028FD280754BF4FF6FF70C4
:1046F0004FF4784000F020FDE80654BF4FF6FF70FD
:104700004FF4784000F018FDA80654BF4FF6FF7034
:104710004FF4784000F010FD680654BF4FF6FF706C
:104720004FF4784000F008FD280654BF4FF6FF70A4
:104730004FF4784000F000FD0136102EBAD119F880
:10474000015F0834002DA7D140F28410C2F20000AE
:10475000006808F0D3FA0B4642F63D21024606A84F
:10476000C0F60101FBF716FE9DF81850002D5FD032
:104770004DF6A85886240DF11809C0F6000800BFB0
:10478000E11DA0B26B238AB25C2101F0CBF9A5F147
:1047900020000026C0B208EB001700BFBD5D15F079
:1047A000010F0CBF4FF6FF704FF4784000F0C4FCCF
:1047B000A80754BF4FF6FF704FF4784000F0BCFCE0
:1047C000680754BF4FF6FF704FF4784000F0B4FC18
:1047D000280754BF4FF6FF704FF4784000F0ACFC50
:1047E000E80654BF4FF6FF704FF4784000F0A4FC89
:1047F000A80654BF4FF6FF704FF4784000F09CFCC1
:10480000680654BF4FF6FF704FF4784000F094FCF8
:10481000280654BF4FF6FF704FF4784000F08CFC30
:104820000136102EBAD119F8015F0834002DA7D136
:1048300040F27020C2F20000006808F05FFA0B46F8
:1048400042F63D21024606A8C0F60101FBF7A2FD93
:104850009DF81850002D5FD04DF6A85886240DF114
:104860001809C0F6000800BFE11DA0B27B238AB280
:104870006C2101F057F9A5F120000026C0B208EB29
:10488000001700BFBD5D15F0010F0CBF4FF6FF70A4
:104890004FF4784000F050FCA80754BF4FF6FF706B
:1048A0004FF4784000F048FC680754BF4FF6FF70A3
:1048B0004FF4784000F040FC280754BF4FF6FF70DB
:1048C0004FF4784000F038FCE80654BF4FF6FF7014
:1048D0004FF4784000F030FCA80654BF4FF6FF704C
:1048E0004FF4784000F028FC680654BF4FF6FF7084
:1048F0004FF4784000F020FC280654BF4FF6FF70BC
:104900004FF4784000F018FC0136102EBAD119F897
:10491000015F0834002DA7D140F2201042F6392162
:10492000C2F20000C0F60101026806A8FBF732FDE2
:104930009DF81850002D5FD04DF6A85886240DF133
:104940001809C0F6000800BFE11DA0B28B238AB28F
:104950007C2101F0E7F8A5F120000026C0B208EBA9
:10496000001700BFBD5D15F0010F0CBF4FF6FF70C3
:104970004FF4784000F0E0FBA80754BF4FF6FF70FB
:104980004FF4784000F0D8FB680754BF4FF6FF7033
:104990004FF4784000F0D0FB280754BF4FF6FF706B
:1049A0004FF4784000F0C8FBE80654BF4FF6FF70A4
:1049B0004FF4784000F0C0FBA80654BF4FF6FF70DC
:1049C0004FF4784000F0B8FB680654BF4FF6FF7014
:1049D0004FF4784000F0B0FB280654BF4FF6FF704C
:1049E0004FF4784000F0A8FB0136102EBAD119F828
:1049F000015F0834002DA7D140F2241042F639217E
:104A0000C2F20000C0F60101026806A8FBF7C2FC72
:104A10009DF81850002D5FD04DF6A85886240DF152
:104A20001809C0F6000800BFE11DA0B29B238AB29E
:104A30008C2101F077F8A5F120000026C0B208EB28
:104A4000001700BFBD5D15F0010F0CBF4FF6FF70E2
:104A50004FF4784000F070FBA80754BF4FF6FF708A
:104A60004FF4784000F068FB680754BF4FF6FF70C2
:104A70004FF4784000F060FB280754BF4FF6FF70FA
:104A80004FF4784000F058FBE80654BF4FF6FF7033
:104A90004FF4784000F050FBA80654BF4FF6FF706B
:104AA0004FF4784000F048FB680654BF4FF6FF70A3
:104AB0004FF4784000F040FB280654BF4FF6FF70DB
:104AC0004FF4784000F038FB0136102EBAD119F8B7
:104AD000015F0834002DA7D140F26020C2F200002F
:104AE000006808F00BF90B4642F64321024606A87F
:104AF000C0F60101FBF74EFC9DF81850002D5FD069
:104B00004DF6A85886240DF11809C0F6000800BF1C
:104B1000E11DA0B2AB238AB29C2101F003F8A5F1FC
:104B200020000026C0B208EB001700BFBD5D15F0E5
:104B3000010F0CBF4FF6FF704FF4784000F0FCFA05
:104B4000A80754BF4FF6FF704FF4784000F0F4FA16
:104B5000680754BF4FF6FF704FF4784000F0ECFA4E
:104B6000280754BF4FF6FF704FF4784000F0E4FA86
:104B7000E80654BF4FF6FF704FF4784000F0DCFABF
:104B8000A80654BF4FF6FF704FF4784000F0D4FAF7
:104B9000680654BF4FF6FF704FF4784000F0CCFA2F
:104BA000280654BF4FF6FF704FF4784000F0C4FA67
:104BB0000136102EBAD119F8015F0834002DA7D1A3
:104BC00040F26820C2F20000006808F097F80B4637
:104BD00042F64321024606A8C0F60101FBF7DAFBC4
:104BE0009DF81850002D5FD04DF6A85886240DF181
:104BF0001809C0F6000800BFE11DA0B2BB238AB2AD
:104C0000AC2100F08FFFA5F120000026C0B208EB18
:104C1000001700BFBD5D15F0010F0CBF4FF6FF7010
:104C20004FF4784000F088FAA80754BF4FF6FF70A1
:104C30004FF4784000F080FA680754BF4FF6FF70D9
:104C40004FF4784000F078FA280754BF4FF6FF7011
:104C50004FF4784000F070FAE80654BF4FF6FF704A
:104C60004FF4784000F068FAA80654BF4FF6FF7082
:104C70004FF4784000F060FA680654BF4FF6FF70BA
:104C80004FF4784000F058FA280654BF4FF6FF70F2
:104C90004FF4784000F050FA0136102EBAD119F8CE
:104CA000015F0834002DA7D140F2601042F639218F
:104CB000C2F20000C0F60101026806A8FBF76AFB19
:104CC0009DF81850002D5FD04DF6A85886240DF1A0
:104CD0001809C0F6000800BFE11DA0B2CB238AB2BC
:104CE000BC2100F01FFFA5F120000026C0B208EB98
:104CF000001700BFBD5D15F0010F0CBF4FF6FF7030
:104D00004FF4784000F018FAA80754BF4FF6FF7030
:104D10004FF4784000F010FA680754BF4FF6FF7068
:104D20004FF4784000F008FA280754BF4FF6FF70A0
:104D30004FF4784000F000FAE80654BF4FF6FF70D9
:104D40004FF4784000F0F8F9A80654BF4FF6FF7012
:104D50004FF4784000F0F0F9680654BF4FF6FF704A
:104D60004FF4784000F0E8F9280654BF4FF6FF7082
:104D70004FF4784000F0E0F90136102EBAD119F85E
:104D8000015F0834002DA7D140F2641042F63921AA
:104D9000C2F20000C0F60101026806A8FBF7FAFAA9
:104DA0009DF81850002D5FD04DF6A85886240DF1BF
:104DB0001809C0F6000800BFE11DA0B2DB238AB2CB
:104DC000CC2100F0AFFEA5F120000026C0B208EB18
:104DD000001700BFBD5D15F0010F0CBF4FF6FF704F
:104DE0004FF4784000F0A8F9A80754BF4FF6FF70C1
:104DF0004FF4784000F0A0F9680754BF4FF6FF70F9
:104E00004FF4784000F098F9280754BF4FF6FF7030
:104E10004FF4784000F090F9E80654BF4FF6FF7069
:104E20004FF4784000F088F9A80654BF4FF6FF70A1
:104E30004FF4784000F080F9680654BF4FF6FF70D9
:104E40004FF4784000F078F9280654BF4FF6FF7011
:104E50004FF4784000F070F90136102EBAD119F8ED
:104E6000015F0834002DA7D140F23810C2F20000D3
:104E7000006807F043FF0B4642F64321024606A8AE
:104E8000C0F60101FBF786FA9DF81850002D5FD09F
:104E90004DF6A85886240DF11809C0F6000800BF89
:104EA000E11DA0B2EB238AB2DC2100F03BFEA5F1AC
:104EB00020000026C0B208EB001700BFBD5D15F052
:104EC000010F0CBF4FF6FF704FF4784000F034F93B
:104ED000A80754BF4FF6FF704FF4784000F02CF94C
:104EE000680754BF4FF6FF704FF4784000F024F984
:104EF000280754BF4FF6FF704FF4784000F01CF9BC
:104F0000E80654BF4FF6FF704FF4784000F014F9F4
:104F1000A80654BF4FF6FF704FF4784000F00CF92C
:104F2000680654BF4FF6FF704FF4784000F004F964
:104F3000280654BF4FF6FF704FF4784000F0FCF89D
:104F40000136102EBAD119F8015F0834002DA7D10F
:104F500040F26C20C2F20000006808F0F5F8002171
:104F6000C4F2C82107F0BEFF07F0C8FE02460B4698
:104F700006A867A1FBF70EFA9DF81850002D5FD028
:104F80004DF6A85886240DF11809C0F6000800BF98
:104F9000E11DA0B24B238AB23C2100F0C3FDA5F174
:104FA00020000026C0B208EB001700BFBD5D15F061
:104FB000010F0CBF4FF6FF704FF4784000F0BCF8C3
:104FC000A80754BF4FF6FF704FF4784000F0B4F8D4
:104FD000680754BF4FF6FF704FF4784000F0ACF80C
:104FE000280754BF4FF6FF704FF4784000F0A4F844
:104FF000E80654BF4FF6FF704FF4784000F09CF87D
:10500000A80654BF4FF6FF704FF4784000F094F8B4
:10501000680654BF4FF6FF704FF4784000F08CF8EC
:10502000280654BF4FF6FF704FF4784000F084F824
:105030000136102EBAD119F8015F0834002DA7D11E
:105040004DF6A8585625AE240DF11809C0F60008F3
:10505000ADF8185008E000BF19F8015F0834002DC2
:1050600004BF13B0BDE8F08FE11DA0B24B238AB29C
:105070003C2100F057FDA5F120000026C0B208EB4E
:10508000001700BFBD5D15F0010F0CBF4FF6FF709C
:105090004FF4784000F050F8A80754BF4FF6FF7067
:1050A0004FF4784000F048F8680754BF4FF6FF709F
:1050B0004FF4784000F040F8280754BF4FF6FF70D7
:1050C0004FF4784000F038F8E80654BF4FF6FF7010
:1050D0004FF4784000F030F8A80654BF4FF6FF7048
:1050E0004FF4784000F028F8680654BF4FF6FF7080
:1050F0004FF4784000F020F8280654BF4FF6FF70B8
:105100004FF4784000F018F80136102EBAD1A3E71A
:1051100025342E326600000080B5FDF767FD02F0F1
:10512000DDF80120FCF786FF4FF44070FDF7F6F93B
:10513000BDE8804002F062BF10B50446000A00F0EE
:1051400019F8E0B2BDE8104000F014B848F6396133
:10515000C3F6E30180FB0101480800EBD170053084
:1051600081B240F60000C4F20000FEF74DB9000025
:10517000AFF30080B0B541F6000405460221C4F249
:1051800001042046FCF7FAFA20460821FCF7F6FA5B
:1051900068B2B0F1FF3F04DD20462021FCF7EEFAB3
:1051A00003E020462021FCF7EBFA20460821FCF71B
:1051B000E7FA20460821FCF7E1FA680604D4204605
:1051C0002021FCF7DBFA03E020462021FCF7D8FA87
:1051D00020460821FCF7D4FA20460821FCF7CEFA35
:1051E000A80604D420462021FCF7C8FA03E0204694
:1051F0002021FCF7C5FA20460821FCF7C1FA204619
:105200000821FCF7BBFAE80604D420462021FCF76D
:10521000B5FA03E020462021FCF7B2FA2046082127
:10522000FCF7AEFA20460821FCF7A8FA280704D4B8
:1052300020462021FCF7A2FA03E020462021FCF7BB
:105240009FFA20460821FCF79BFA20460821FCF72C
:1052500095FA680704D420462021FCF78FFA03E072
:1052600020462021FCF78CFA20460821FCF788FA1A
:1052700020460821FCF782FAA80704D42046202102
:10528000FCF77CFA03E020462021FCF779FA20465F
:105290000821FCF775FA20460821FCF76FFAE807A9
:1052A00004D120462021FCF769FA03E020462021A2
:1052B000FCF766FA20460821FCF762FA2046022134
:1052C000BDE8B040FCF75CBA242200210228C4F2F9
:1052D00000020BD0042807D003284FF0000018BFAD
:1052E000704702F5806201E002F50062B2F9000049
:1052F0001180704770B58AB04FF404700121012508
:10530000FDF738F94FF40040FDF712F942F200447E
:105310000026042001A9C4F201040396ADF804009C
:10532000A4F5A050FCF782F82046FBF779FF4FF474
:105330006020CDE90466069604A9CDE9070620465B
:105340008DF82450FBF7AEFF20460121FBF75EFFEE
:105350002046FCF705F800BF2046FBF79FFF00281A
:10536000FAD12046FCF70CF82046FBF789FF00280D
:10537000FAD10AB070BD000010B584B041F2180037
:105380000124C4F20200016841F011010160012012
:1053900001F0E4FF10200121FDF7ECF84820ADF802
:1053A000044001A903900320029041F20000C4F2DE
:1053B0000100FCF73BF804B010BD000010B500F090
:1053C000B3F941F600041021C4F201042046FCF7B1
:1053D000D5F9642001F096FF20461021FCF7D0F9A2
:1053E000642001F08FFF20464021FCF7C9F96420BA
:1053F00001F088FF20460421FCF7C0F91120FFF7D7
:10540000B9FE20460421FCF7BBF9782001F07AFFB1
:1054100020460421FCF7B2F93620FFF7ABFE204608
:105420000421FCF7ADF90020FFF7A4FE204604217B
:10543000FCF7A4F93A20FFF79DFE20460421FCF773
:105440009FF90520FFF796FE20460421FCF796F908
:10545000B220FFF78FFE20460421FCF791F90C20C3
:10546000FFF788FE0C20FFF785FE0020FFF782FE85
:105470003320FFF77FFE3320FFF77CFE2046042118
:10548000FCF77CF9B720FFF775FE20460421FCF7F6
:1054900077F93520FFF76EFE20460421FCF76EF900
:1054A000BB20FFF767FE20460421FCF769F9322094
:1054B000FFF760FE20460421FCF760F9C220FFF7E9
:1054C00059FE20460421FCF75BF90120FFF752FE4C
:1054D00020460421FCF752F9C320FFF74BFE20467B
:1054E0000421FCF74DF91520FFF744FE2046042166
:1054F000FCF744F9C420FFF73DFE20460421FCF7E9
:105500003FF92020FFF736FE20460421FCF736F94C
:10551000C620FFF72FFE20460421FCF731F90F20AB
:10552000FFF728FE20460421FCF728F9D020FFF7DA
:1055300021FE20460421FCF723F9A420FFF71AFEE0
:10554000A120FFF717FE20460421FCF717F9E02001
:10555000FFF710FE20460421FCF712F9D020FFF7D8
:1055600009FE0820FFF706FE0E20FFF703FE0920C4
:10557000FFF700FE0920FFF7FDFD0520FFF7FAFD0C
:105580003120FFF7F7FD3320FFF7F4FD4820FFF748
:10559000F1FD1720FFF7EEFD1420FFF7EBFD1520BE
:1055A000FFF7E8FD3120FFF7E5FD3420FFF7E2FDCE
:1055B00020460421FCF7E2F8E120FFF7DBFD20465E
:1055C0000421FCF7DDF8D020FFF7D4FD0820FFF719
:1055D000D1FD0E20FFF7CEFD0920FFF7CBFD0920FE
:1055E000FFF7C8FD1520FFF7C5FD3120FFF7C2FD0D
:1055F0003320FFF7BFFD4820FFF7BCFD1720FFF762
:10560000B9FD1420FFF7B6FD1520FFF7B3FD3120DB
:10561000FFF7B0FD3420FFF7ADFD20460421FCF775
:10562000ADF82120FFF7A6FD20460421FCF7A8F8DD
:1056300020460421FCF7A2F82920FFF79BFD204615
:105640000421BDE81040FCF79BB80000F0B58BB01A
:105650000120012401F082FE08200121FCF772FFE5
:1056600045200121FCF786FF40200121FCF782FF45
:10567000102008AE03270A90ADF8204040F6004401
:1056800031460997C4F2000404F586352846FBF735
:10569000CDFE28460121FCF773F804200121FCF718
:1056A00069FF182031460A900F20ADF8200004F55C
:1056B0007C400997FBF7BAFE4FF47A7005A9069073
:1056C000472005902046FDF7A7FE002001ADADF86C
:1056D0000C0060202946C0F2010001902046FDF731
:1056E00091FD20460821FDF7C7FD20462946FDF71C
:1056F000C9FD20460821FDF703FE20462946FDF797
:1057000007FE20460821FDF741FE20462946FDF709
:1057100043FE20460821FDF76FFE20460121FDF7DC
:1057200061FD0BB0F0BD000070B584B040200121D8
:10573000FCF720FF41F600041026022001AD03967D
:10574000ADF804000320C4F201042946029020466B
:10575000FBF76CFE20460221FCF712F828202946B0
:10576000ADF804002046FBF761FE20462821FCF737
:1057700007F844202946ADF804002046FBF756FE02
:10578000204648F22001FBF7FBFF20462946ADF8F2
:105790000460FBF74BFE20461021FBF7F1FF04B03D
:1057A00070BD000040F2A421C2F20001086040F286
:1057B00030000021C2F2000001607047B0B540F235
:1057C000001540F2B0220021C4F22225C2F20002EC
:1057D0002B681488002B08BF611C11802A6842B90D
:1057E00040F2B223C2F200031A78002A04BF012259
:1057F0001A7040F2B42EC2F2000E9EF8002002BBD6
:1058000040F2B22240F2AC2CC2F20002C2F2000C12
:105810001278BCF80030012A05D1013301228EF83C
:105820000020ACF800309AB2022A0AD140F2AE2031
:105830000021C2F20000ACF8001001800221C8B2C1
:10584000B0BD2A68012A07D140F2B2230022C2F279
:1058500000038EF800201A7040F2AC2EC2F2000E47
:10586000BEF80020012A1EBF0021C8B2B0BD40F220
:10587000AE2C8BB2C2F2000C8342BCF8002002F1C5
:105880000102ACF800200AD291B2814207D900206F
:105890000121ACF80000AEF80000C8B2B0BD002194
:1058A0008342C8B284BFACF80010AEF80010B0BD9F
:1058B000F0B587B004464FF400300121FCF742FEFA
:1058C000202001212025FCF755FE08200121FBF7AF
:1058D0001DFF032004AF0590ADF8105044F20045C1
:1058E00018203946C4F20005069005F550463046AA
:1058F000FBF79CFD0420394606904020ADF81000CF
:105900003046FBF793FD0020009469460190ADF806
:105910000C004FF4402002902846FDF7E5FE284693
:1059200040F225510022FDF7C7FE28460121FDF770
:105930003FFE07B0F0BD0000F0B587B004464FF45D
:1059400080200121FCF7FEFD20200121FCF712FE42
:1059500030200121C0F21400FBF7D8FE44F6000508
:10596000032004AF05904FF48070C4F2000539465F
:10597000ADF81000182005F54C4606903046FBF7B0
:1059800055FD0420394606904FF40070ADF8100024
:105990003046FBF74BFD0020009469460190ADF8BE
:1059A0000C004FF4402002902846FDF79DFE28464B
:1059B0000121FDF7FDFD07B0F0BD0000F0B587B097
:1059C00004464FF400200121FCF7BCFD102001210A
:1059D000FCF7D0FD44F60045032004AF05904FF4DA
:1059E0008060C4F200053946ADF81000182005F5B6
:1059F000444606903046FBF719FD042039460690D0
:105A00004FF40060ADF810003046FBF70FFD0020AA
:105A1000009469460190ADF80C004FF440200290CC
:105A20002846FDF761FE28460121FDF7C1FD07B0BC
:105A3000F0BD00002DE9F04140F62C480746C4F2C5
:105A40000008B8F8080007F097FB0446B8F8000013
:105A500007F092FB0146204607F044FA0446B8F8E6
:105A60000C0007F089FB0546B8F8000007F084FB3E
:105A70000146284607F036FA0546B8F8100007F048
:105A80007BFB0646B8F8000007F076FB014630467F
:105A900007F028FA0646C82F38BFBDE8F081B7F5F1
:105AA0007A7F3CD0384606F0C3FD0B4648F2804171
:105AB00002460020C4F22E1106F0B2FB06F074FD7F
:105AC000A8F80000B8F8140000281EBFB8F80000BD
:105AD0004008A8F81400B8F8000007F04DFB014694
