:020000040800F2
:1000000070080020F101000871210008F1180008B3
:100010006D21000841100008713700080000000041
:1000200000000000000000000000000003020008C3
:10003000DD100008000000000702000809020008A7
:100040000B0200080B0200080B0200080B0200085C
:100050000B0200080B0200080B0200080B0200084C
:100060000B0200080B0200080B0200080B0200083C
:100070000B0200080B0200080B0200080B0200082C
:100080000B0200080B0200080B0200080B0200081C
:100090000B0200080B0200080B0200080B0200080C
:1000A0000B0200080B0200080B0200080B020008FC
:1000B00079290008A1290008B52900080B020008C9
:1000C0000B0200080B0200080B0200080B020008DC
:1000D0000B0200080B020008E13300080B020008C5
:1000E0000B0200080B0200080B0200080B020008BC
:1000F000C92900080B0200080B0200080B020008C7
:100100000B0200080B0200080B0200080B0200089B
:100110000B0200080B0200080B0200080B0200088B
:100120000B0200080B0200080B0200080B0200087B
:1001300000F002F800F04DF80AA090E8000C8244AC
:100140008344AAF10107DA4501D100F042F8AFF289
:10015000090EBAE80F0013F0010F18BFFB1A43F0A5
:10016000010318471013010030130100103A24BF97
:1001700078C878C1FAD8520724BF30C830C144BF0C
:1001800004680C607047000000230024002500264E
:10019000103A28BF78C1FBD8520728BF30C148BFEA
:1001A0000B60704766290BF00E87642900F0AE8063
:1001B000782900F0E780002070471FB500F00AFDA5
:1001C0000400002000210AF087FCE0601FBD10B58C
:1001D00010BD00F007FE1146FFF7EFFF07F074FEB9
:1001E00000F025FE03B4FFF7F2FF03BC06F01AFF90
:1001F0000948804709480047FEE7FEE7FEE7FEE7BB
:10020000FEE7FEE7FEE7FEE7FEE7FEE704480549F6
:10021000054A064B704700002128000831010008FC
:10022000700200207008002070040020700400207C
:10023000704710B54C1084EA530404D54042C1F114
:10024000000138BF491E1B4204D55242C3F10003CE
:1002500038BF5B1E00F0A4F914F0804F04D0404278
:10026000C1F1000138BF491E14F0004F04D05242C2
:10027000C3F1000338BF5B1E10BD00000FB404497A
:1002800010B503AA029800F093FC10BC5DF814FBB3
:10029000EC0100200FB41CB5074B06AA7B4469464D
:1002A0000090059800F06BFC0020694600F07AFC95
:1002B0001CBC5DF814FB00000509000070B5044685
:1002C00085690068C10601D5302600E02026C007F8
:1002D00007D070BDD4E9012130469047206A401C08
:1002E00020626D1EF6D570BD70B504468569007834
:1002F000C00707D170BDD4E9012120209047206AB2
:10030000401C20626D1EF6D570BD00002DE9F04145
:100310000646002410687529314616A510D0AFF3A3
:100320000080002802DA404213A507E031688A07FE
:1003300001D512A502E0490704D511A5012401E069
:10034000AFF3008000210A2206F1240709E0B0FB88
:10035000F2FCB0FBF2F302FB1C003030785418467C
:10036000491C0028F3D123462A463046BDE8F04117
:1003700000F098B9000000002D0000002B000000E4
:100380002000000070B504460D4621461068AFF30A
:1003900000802188090502D50F4A7A4402E00E4AFE
:1003A0007A440E32002104F1240305E000F00F0628
:1003B0000009965D5E54491C0028F7D1207800237F
:1003C000000704D5702D02D009B102231132204656
:1003D000BDE8704000F066B968BD00002DE9F05F2F
:1003E000894604464FF0000ADFF824B1FB44C0F808
:1003F00020A02046E168884700287DD0252806D027
:10040000D4E901219047206A401C2062F1E70025D1
:100410005F462046E16888472028064607DB312EE4
:1004200005D2B81910F8200C08B10543F1E7A80768
:1004300001D525F00405C4F81CA00027C4F818A0B5
:100440002A2E09D0304609F0BEFE38B304EB8708E7
:10045000303EC8F8186019E059F8041B204604EB38
:1004600087029161E1688847012F064618D1E0694B
:10047000002820DA25F020051DE0D8F8180000EB50
:10048000800006EB40003038C8F818002046E168CC
:100490008847064609F097FE0028EED1012F0AD0C2
:1004A0002E2E08D12046E16888477F1C0646022F81
:1004B00045F02005C4DBA069002803DA404245F07E
:1004C0000105A061E80701D025F01005A6B1A6F14D
:1004D0004100192802D8203645F400654A463146C5
:1004E000204625604D46FFF75DFE60B1012807D02C
:1004F000ED1D25F0070000E007E000F1080978E7AE
:1005000005F1040975E730467AE7206ABDE8F09FF7
:100510003EBD000010B5044603E007F053FA401C4E
:1005200009D014F8010B05490028F6D1BDE81040A8
:100530000A2007F047BA4FF0FF3010BDEC01002051
:1005400040EA010310B59B070FD1042A0DD310C850
:1005500008C9121F9C42F8D020BA19BA884201D9A2
:10056000012010BD4FF0FF3010BD1AB1D30703D0EA
:10057000521C07E0002010BD10F8013B11F8014BA0
:100580001B1B07D110F8013B11F8014B1B1B01D1BC
:10059000921EF1D1184610BD7047704770477047E2
:1005A00053EA020C00F069802DE9F04B4FF0000691
:1005B000002B1FBFB3FA83F503FA05F424FA05F6FE
:1005C0005E4012BF1643B2FA82F502FA05F4C5F195
:1005D00020051EBF22FA05FC44EA0C04203556EA29
:1005E000044C4FEA144418BF641C4FF000084FF04D
:1005F0000009904271EB030C39D3002919BFB1FAFD
:1006000081F701FA07F6B0FA80F700FA07F6C7F1AA
:1006100020071EBF20FA07FC46EA0C062037B6FB6F
:10062000F4FCA7EB0507103F07F01F0BCBF12006EA
:100630002CFA06F60CFA0BFB44BFB3460026202F1B
:10064000A4BF5E464FF0000B5BEA060C08BF4FF0FC
:10065000010B19EB0B0948EB0608ABFB027C06FB10
:1006600002CC0BFB03CCC01B71EB0C01C1E70B46AA
:10067000024641464846BDE8F08B13B54FF00000F6
:100680004FF00001AFF30080BDE81C40704710B58B
:1006900000F0A4FA006810BD10B5044600F09EFA00
:1006A000046010BD2DE9F0470D4699469246044678
:1006B00000F124080168880604D5E06921F01001E2
:1006C000216000E00120A84201DD471B00E0002777
:1006D000A1697A1902EB0900081AA0612078C00606
:1006E00002D42046FFF7EAFD002608E0D4E9012104
:1006F0001AF806009047206A401C761C20624E457E
:10070000F4DB2078C0060AD52046FFF7D7FD06E0C7
:10071000D4E9012130209047206A401C2062381E15
:10072000A7F10107F4DC07E0D4E9012118F805007E
:100730009047206A401C2062281EA5F10105F3DCC9
:100740002046FFF7D1FD2078000602D50220BDE843
:10075000F0870120FBE72DE9FF4F0C461E464FF0C6
:10076000FF378BB0D2E90001DDF860800A908A463D
:10077000C1F30A5505B93D46002108464FF0000077
:10078000BAF1000F00F4400005DA00EB80004FF4EE
:10079000400101EA50004FEA9059B9F1010F00DD24
:1007A000B9460A9850EA4A000ED044F61050A5F215
:1007B000FF3545432F14B8F1000F1ED07542291E96
:1007C0001EDDC9F100021CE0B8F1010F4FF000007E
:1007D00001D0302103E0F24305E02154401CB04237
:1007E000FBDB30460022002121540B99C1F8088020
:1007F000C1E900200FB0BDE8F08FBD1B6D1CDEE726
:100800004A4600DA694206A800F072FA06AB93E89D
:10081000070003AB83E8070050460A9909F074F813
:100820008DE80700A0F500501F3800900398002DB8
:100830000ADD42F21F014A460844002303A903903F
:10084000684609F0DDFA09E0A0F500504A461F3875
:10085000002303A90390684609F0E7FA8DE8070032
:100860000004000C03D04FF0FF30410800E01046B8
:10087000B8F1000F03D00022009215461EE0751E4D
:1008800005D400F0AFF9303262556D1EF9D5B3468C
:100890000122084302D000227F1C04E02078302887
:1008A00001D100227F1E002A099784D01DE0112D5E
:1008B00007DA00F097F9303262556D1C50EA0102F8
:1008C000F5D1084302D00098C8B10EE00021681E9F
:1008D00005E0235C625C63542254401E491C814243
:1008E000F7DBAB46A81B401E0990002004F80B0064
:1008F0000B98099AC0F80880C0E9002B7AE7112606
:100900004FF0000857E72DE9F04F88460446D21D06
:1009100022F0070191B0D1E90001CDE90A0109F007
:10092000BBFB02460B98C00F01D02D2007E02068CA
:10093000810701D52B2002E0202101EAC000032A13
:10094000099001D0072A05DB03464146204600F006
:100950008FF90BE12078800601D5E06900E00620E0
:10096000B8F1650F814606D0B8F1660F18D0B8F11E
:10097000670F70D131E00020B9F1110F009001DB59
:10098000112301E009F101030AAA01A90CA8FFF74C
:10099000E2FEDDE90C70002609F10105834647E01F
:1009A00001204B4600904FF000470AAA01A90CA86D
:1009B000FFF7D1FEDDE90DB00C995D46002610B9B8
:1009C00009F101000D18B9EB050003D4C0F1FF36A1
:1009D00009F10105A5EB09002BE0B9F1010F01DADE
:1009E0004FF001090020B9F1110F0090484601DDD8
:1009F000112300E003460AAA01A90CA8FFF7ABFEE9
:100A0000DDE90C704D4600268346207800070AD4A5
:100A1000AB4500DA5D4601A8012D04DD411911F84E
:100A2000011C302907D04F4502DA17F1040F04DA10
:100A3000012082460FE06D1EEEE7002F02DCED1B69
:100A40003E4403E0781CA84200DD7D1CB81B00F189
:100A5000010A4FF000472078000703D4AA4501DBC4
:100A60004FF0FF3A0021B7F1004F0DF143088DF828
:100A7000431024D002202B23002F01DA7F422D23A4
:100A80000A21021EA0F1010000DC5FB197FBF1FC1E
:100A900097FBF1F201FB1C7C17460CF1300C08F8B7
:100AA00001CDEEE7A8F1010003702188090501D509
:100AB000452100E06521A0F1010800F8011C09981A
:100AC0000FA9A1EB0807FF1D00B10120411901EB9F
:100AD000EA70A1693844081A401EA0612078C00657
:100AE00002D42046FFF7EAFB099828B1D4E9012196
:100AF0009047206A401C20622078C00622D52046FC
:100B0000FFF7DCFB1EE0002E04DBB34502DD01A88D
:100B1000805D00E03020D4E901219047206A401C2C
:100B20002062761CAAF101005FEA000A0AD100F0F7
:100B300051F8C0680168405CD4E901219047206AFF
:100B4000401C2062281EA5F10105DCDC07E0D4E989
:100B5000012118F8010B9047206A401C2062381EC2
:100B6000A7F10107F3DC2046FFF7BEFB032011B01D
:100B700041E6000001694A1C02610878704700B52F
:100B80008FB0CDE901310021059105497944CDE9C6
:100B9000031011466846FFF721FC0FB000BD0000AE
:100BA000E5FFFFFF0A6802F8010B0A6070470000CA
:100BB000074B70B50D467B44FFF7E1FF044628461E
:100BC00000F008F910B14FF0FF3070BD204670BD45
:100BD0000B6E0000004870478800002000487047F6
:100BE0006800002030B5B0F10A0271F100034FEA4D
:100BF000900E4EEA817EB0EB0E0061EB91014FEA60
:100C0000101E4EEA017E10EB0E0041EB11114FEA6F
:100C1000102E4EEA016E10EB0E0041EB11214FEA4F
:100C2000104E4EEA014E10EB0E0041EB1141401800
:100C300041F100014FEAD00040EA41704FEAD10192
:100C40004FEA810444EA907410EB800544EB010400
:100C50006D1944EB0404521BA3414FF0000348BF3D
:100C60000A3200D530BD401C41F1000130BD00000A
:100C70002DE9F0411F46044603260168072A01F4C6
:100C8000006004DB08B116A505E016A503E008B175
:100C900015A500E015A521F010002060A069C01E78
:100CA000A0610FB1401EA0612046FFF707FB4FB1C6
:100CB000D4E9012138469047206A401C2062C01CBC
:100CC000206206E0206AFAE7D4E9012115F8010B59
:100CD0009047761EF8D22046FFF706FBBDE8F0816C
:100CE0004E414E006E616E00494E4600696E6600D0
:100CF0002DE9F047814616468AB0354878440DC83C
:100D00008DE80D0032487844801C03AC0DC884E89F
:100D10000D0041F69B300844372190FBF1F290FB27
:100D2000F1F5A5F1800501FB12041B3C02D56442DC
:100D3000012000E00020DFF898A080460027FA4458
:100D4000AAF1BE0A0EE0E0070AD03246684607EB79
:100D5000470101230AEB810109F067F88DE80700DC
:100D600064107F1C002CEED1194F7F44AE3F19E078
:100D7000E80715D007EB04100DF1180A90E80E00F3
:100D80008AE80E00C068F04201D1981908903246F6
:100D9000012306A903A809F048F803AB83E807007C
:100DA0006D10641C002DE3D14FF0010332466946FB
:100DB000B8F1000F03A802D009F022F801E009F011
:100DC00034F8C9E90001C9F808200AB0BDE8F08785
:100DD000ACB50000007B00F0800070470048704711
:100DE000680000207546FFF7F9FFAE46050069462A
:100DF000534620F00700854618B020B5FFF706FAE5
:100E0000BDE820404FF000064FF000074FF000080B
:100E10004FF0000BAC46ACE8C009ACE8C009ACE848
:100E2000C009ACE8C00921F007018D46704710B534
:100E30000446AFF300802046BDE81040FFF7D2B96A
:100E40004FF0013C50F8042B51F8043B9A4221D159
:100E5000A2EB0C03934313EACC1317D150F8042BE5
:100E600051F8043B9A4215D1A2EB0C03934313EAC9
:100E7000CC130BD150F8042B51F8043B9A4209D102
:100E8000A2EB0C03934313EACC13DBD04FF000002A
:100E9000704700BFD01A01BAB1FA81F101F0180110
:100EA00022FA01F0CB40DBB2C0B2C01AC1F120017E
:100EB0002CFA01F3D11A914311EAC311E6D170471C
:100EC0008268002942F0010308BF22F00103836019
:100ED0007047000080B543F60041C4F2010188422A
:100EE00014D042F60001C4F20101884216D042F249
:100EF0000041C4F20101884218BF80BD4FF4007068
:100F0000012101F09FF94FF400700EE04FF4004012
:100F1000012101F097F94FF4004006E04FF48060A2
:100F2000012101F08FF94FF480600021BDE880407D
:100F300001F088B98068C0F380007047C06C80B24F
:100F4000704700000068084018BF0120704700008B
:100F50008068C0F3C000704780B54FF6FF634268F9
:100F6000CFF6F07302EA030CD1E9003243EA0C0336
:100F700043EA02224FF2FD734260CFF6F1738268BA
:100F800002EA030ED1E902C30A6942EA0E021A43D9
:100F900042EA4C028260C26A097D013922F4700281
:100FA000C9B242EA0151C16280BD000010B501EB37
:100FB000410C092988BFACF11E0C092903FA0CFE6B
:100FC0004FF0070303FA0CFC4FF0100388BF0C230B
:100FD000062AC45824EA0C0444EA0E04C45003D878
:100FE00034306FF0040307E00C2A87BF2C306FF019
:100FF000400330306FF0220302EB82021A441F23B9
:10100000914003FA02F2036823EA020211430160ED
:1010100010BD0000816841F0080181607047000048
:101020008268002942F4A00308BF22F4A003836071
:1010300070470000816841F0040181607047000042
:10104000FEE70000B0B50C464DF20A71C3F6A341AD
:101050000AF06EFE054640F234002146C2F200005E
:1010600000680AF065FE40F2D4040146C2F20004B2
:1010700020680AF0CFFB4EF24811C3F67A710AF0ED
:1010800057FE014628460AF0C5FB2060B0BD0000AF
:10109000B0B50C464DF20A71C3F6A3410AF048FE02
:1010A000054640F234002146C2F2000000680AF012
:1010B0003FFE40F2D8040146C2F2000420680AF064
:1010C000A9FB4EF24811C3F67A710AF031FE0146CF
:1010D00028460AF09FFB2060B0BD0000704700006A
:1010E00080B5D1F808E00EF00F0C1EF0100F1CBFF9
:1010F0004B684CEA030C098811F0FF0F00F0A48044
:101100000368CA070BD023F00F02BEF1480F42EA72
:101110000C0315D0BEF1280F01D1012242618A07CC
:1011200012D523F0F002BEF1280F42EA0C131CD0B6
:10113000BEF1480F08D1022202614A0706D418E026
:10114000012202618A07ECD44A0712D523F47062A7
:10115000BEF1280F42EA0C231CD0BEF1480F08D183
:10116000042202610A0719D505E0022242614A07FA
:10117000ECD40A0712D523F47042BEF1280F42EADC
:101180000C331CD0BEF1480F08D108220261CA06F8
:1011900006D418E0042242610A07ECD4CA0612D52C
:1011A00023F47022BEF1280F42EA0C431CD0BEF19A
:1011B000480F08D1102202618A0619D505E00822DD
:1011C0004261CA06ECD48A0612D523F47002BEF13D
:1011D000280F42EA0C531CD0BEF1480F08D1202240
:1011E00002614A0606D418E0102242618A06ECD455
:1011F0004A0612D523F07062BEF1280F42EA0C6352
:101200001AD0BEF1480F08D1402202610A061AD551
:1012100005E0202242614A06ECD40A0613D523F0E9
:101220007042BEF1280F42EA0C730AD0BEF1480F9B
:1012300009D18022026106E0402242610A06EED412
:1012400001E0802242610360B1F5807F38BF80BD3C
:101250004368CA050CD523F00F02BEF1480F42EADD
:101260000C0317D0BEF1280F02D14FF480724261F7
:101270008A0514D523F0F002BEF1280F42EA0C13C0
:101280001FD0BEF1480F0AD14FF4007202614A0527
:1012900007D41BE04FF4807202618A05EAD44A0544
:1012A00014D523F47062BEF1280F42EA0C231FD03C
:1012B000BEF1480F0AD14FF4806202610A051CD5C5
:1012C00006E04FF4007242614A05EAD40A0514D5DB
:1012D00023F47042BEF1280F42EA0C331FD0BEF156
:1012E000480F0AD14FF400620261CA0407D41BE020
:1012F0004FF4806242610A05EAD4CA0414D523F48B
:101300007022BEF1280F42EA0C431FD0BEF1480FF5
:101310000AD14FF4805202618A041CD506E04FF4D2
:1013200000624261CA04EAD48A0414D523F470022C
:10133000BEF1280F42EA0C531FD0BEF1480F0AD16C
:101340004FF4005202614A0407D41BE04FF480526C
:1013500042618A04EAD44A0414D523F07062BEF1D3
:10136000280F42EA0C631ED0BEF1480F0AD14FF499
:101370008042026109041BD506E04FF4005242612D
:101380004A04EAD4090413D523F07041BEF1280FB2
:1013900041EA0C730ED0BEF1480F09D14FF4004161
:1013A0000161436080BD4FF4804242610904EBD487
:1013B000436080BD4FF400414161436080BD000047
:1013C00010B50422002800F440141FFA80FCC4F277
:1013D00001021346B8BF43F01803B4F5401F1B6861
:1013E000C0F3034E07D1146823F0706324F07064D7
:1013F000146081B916E0C40206D447F6F07404EA1A
:1014000050440CFA04F402E0032404FA0EF4A3435B
:1014100043F0706331B147F6F07101EA50410CFAC4
:1014200001F10B430028B8BF1832136010BD000053
:1014300041617047016170472DE9F04F87B0054663
:1014400000F0E4FD40F24C11012DC2F200010860F1
:1014500012D140F2281440F2401040F26812C2F259
:101460000004C2F20000C2F20002214606F0ACFD08
:1014700060B107B0BDE8F08F0DF10E0369203B218C
:101480000E2200F043FF00286DD091E00DF10E0315
:1014900069203B21062200F039FFD0B9BDF80E00CB
:1014A00040F24021C2F2000100BA000C0880BDF8F1
:1014B000100040F24221C2F2000100BA000C088084
:1014C000BDF8120040F24421C2F2000100BA000C43
:1014D00008800DF10E0369204321062200F016FF5B
:1014E000D0B9BDF80E0040F26821C2F2000100BA86
:1014F000000C0880BDF8100040F26A21C2F2000121
:1015000000BA000C0880BDF8120040F26C21C2F253
:10151000000100BA000C088040F2CC012068C2F241
:101520000001086040F26221C2F20001B1F900003E
:10153000B1F904400AF068FB40F2F801C2F2000180
:10154000086020460AF060FB40F2FC01C2F2000194
:10155000086040F24620C2F20000B0F904000AF030
:1015600053FB804692E0BDF80E00C0BA0AF04CFB77
:101570000290BDF81000C0BA0AF046FB8246BDF8E2
:101580001200C0BA0AF040FB8046BDF81600C0BA8F
:101590000AF03AFB0646BDF81A00C0BA0AF034FB5E
:1015A0000190BDF81800C0BA0AF02EFB0AF006F947
:1015B00040F2F80246F26664C2F20002C4F230045D
:1015C00016604FF06632234609F08AFB09F09AFA5A
:1015D000834630460AF0F2F84FF06632234609F0AF
:1015E0007FFB09F08FFA81465046414609F008F921
:1015F0000024C4F2343421460AF09AFB40F6DB762C
:10160000C4F2490631460AF0CDF907460298414630
:1016100009F0F6F821460AF08BFB31460AF0C2F9D0
:101620000446032D10D0022D019D20D13846494695
:1016300000F070FB40F22811C2F200010860204661
:10164000594600F025FC0DE038464946FFF7FAFC04
:1016500040F22811C2F20001086020465946FFF707
:1016600017FD019D40F24011C2F20001086040F2F6
:10167000FC0040F2CC01C2F20000C2F200010560A1
:1016800040F22810C2F200000068086040F2C80072
:10169000C2F20000C0F8008007B0BDE8F08F000083
:1016A0002DE9F04742F6040CC4F2000CBCF800101F
:1016B00011F0080F00F00C81BCF81410BCF81820D1
:1016C00042EA014944F20751CCF22E21A9FB011252
:1016D00040F2A2114FEA124EC2F200010B88B3EBA6
:1016E000124F08D140F28011C2F200018D7891F8BA
:1016F00003A009887BE0A1F800E043F28031C0F24A
:10170000E111894529D348F21F544FF6926840F2FF
:10171000B2714FF0640A4FF4C8767346C5F2EB1409
:10172000CFF6FF7811F0030F0AD18AB2A2FB04575B
:10173000FD0905FB16255DB17D0905FB1A223AB9A5
:101740006FF4B67213440131B3F5B67FEAD807E0FF
:10175000B3F5B77F4246F5D202E040F2B27173466C
:1017600040F280181C2BC2F20008A8F8001034D3F5
:1017700048F21F548AB2642641F2C23A01F00307CC
:10178000C5F2EB14C0F6010AA2FB04456C09ED0991
:1017900004FB16244FF4C87605FB1622002C4FF0EC
:1017A0000005B2FA82F218BF0124520944EA020687
:1017B000AAB24FB9541EB4FA84F46409344003D079
:1017C0001D2B0CD31D3B04E01AF80220934207D3D3
:1017D0009B1A01351B2BEBD802E0002500E0012508
:1017E00003F1010A013588F803A088F8025040F29D
:1017F000A3224FF4616489B20EFB02F2A9EBC21777
:101800004BF2C532C9F2A212A7FB022640F28012A7
:10181000F60AC2F2000206FB1477567148F68906F2
:10182000C8F68806A7FB0664660996713601A6EB22
:1018300054166424A7EB8607D77148F21F57C5F2E8
:10184000EB17A1FB0776FC2707EA5617760906FB7C
:101850001411132F44F6251688BF6431C2F2924644
:1018600001EB910711F0030FA7FB0643A7EB03045D
:1018700003EB54034FEA93044FEAC404A4EB93032D
:101880005FFA8AF4A7EB0303EFB24CF2D825C0F657
:1018900000053D4415F8015C25442B444FF6FF75C7
:1018A000194608BF2944032F28BF194689B2A1FB56
:1018B0000637CB1B07EB53039F08FF00A7EB9303EF
:1018C000C91A1171BCF8001021F00801ACF8001021
:1018D00040F28011C2F2000191E88C00D1E9036569
:1018E000496980E88C00C0E903654161BDE8F08783
:1018F000FEE70000022005F0D7BB000010B584B061
:1019000008200121012400F091FC102001A903907E
:101910004FF44060ADF804000320029040F6004010
:10192000C4F20100FFF7DCFB48F2A810C4F221204A
:101930000460446004B010BD2DE9F04F83B040F660
:101940000441029048F2A8154FF0000BC4F20101C7
:10195000C4F22125086820F470400860086840F44B
:101960000040086000202860022005F09DFB012651
:101970002E6055F87C0C0190012005F095FB0220AB
:10198000C5F800B005F090FB2E60012055F87C7C76
:1019900005F08AFB0220C5F800B005F085FB2E603B
:1019A000012055F87C4C05F07FFB0220C5F800B003
:1019B00005F07AFB2E60012055F87C8C05F074FB55
:1019C0000220C5F800B005F06FFB2E60012055F82D
:1019D0007C9C05F069FB0220C5F800B005F064FBB3
:1019E0002E60012055F87CAC05F05EFB0220C5F8A6
:1019F00000B005F059FB2E60012055F87CBC05F0C5
:101A000053FB00202860022005F04EFB2E600120D1
:101A100055F87C6C05F048FB40F604420021296033
:101A2000C4F20102106820F470401060106840F4A5
:101A3000405010600198002818BF0120002F18BFE7
:101A40000127002C18BF012447EA4000B8F1000F1D
:101A500018BF4FF0010844EA4000B9F1000F18BF69
:101A60004FF0010948EA4000BAF1000F18BF4FF0EB
:101A7000010A49EA4000BBF1000F18BF4FF0010B0B
:101A80004AEA4000002E4BEA400018BF012646EA11
:101A90004004029848B10220696005F005FB01206E
:101AA0002860022005F000FB08E0012602206E609D
:101AB00005F0FAFA02202E6005F0F6FA0020286000
:101AC000E0B203B0BDE8F08FF0B581B0044640F657
:101AD000044048F2A8150026C4F20100C4F22125F2
:101AE000016821F470410160016841F440510160D6
:101AF000E0092E606860022005F0D6FA0127022076
:101B00002F6005F0D1FA02202E6005F0CDFAC4F363
:101B100080106860022005F0C7FA02202F6005F0EF
:101B2000C3FA02202E6005F0BFFAC4F340106860CB
:101B3000022005F0B9FA02202F6005F0B5FA022064
:101B40002E6005F0B1FAC4F300106860022005F0C1
:101B5000ABFA02202F6005F0A7FA02202E6005F0F4
:101B6000A3FAC4F3C0006860022005F09DFA0220C9
:101B70002F6005F099FA02202E6005F095FAC4F363
:101B800080006860022005F08FFA02202F6005F0C7
:101B90008BFA02202E6005F087FAC4F340006860DB
:101BA000022005F081FA02202F6005F07DFA022064
:101BB0002E6005F079FA04F001006860022005F05B
:101BC00073FA02202F6005F06FFA2E60022001B038
:101BD000BDE8F04005F068BAB0B540F6044048F200
:101BE000A814C4F20100C4F22124016821F4704158
:101BF0000160016841F44051016001206060206093
:101C0000042005F051FA00250420656005F04CFA27
:101C10002560B0BD10B540F6044048F2A814C4F2E7
:101C20000100C4F22124016821F4704101600168BF
:101C300041F440510160002020606060042005F004
:101C400033FA0120206060600420BDE8104005F0F8
:101C50002BBA000070B540F6044448F22C1501265A
:101C6000C4F20104C4F22125206820F470402060F1
:101C7000206840F4004020600120C5F8806005F035
:101C800013FA0120EE6705F00FFA286888B10020EA
:101C9000296871B1296861B140F00201C9B2F9291E
:101CA0000BD82A682AB1F92907D8296804300029F5
:101CB000EED100242046EC6770BD206820F470400F
:101CC0002060206840F4405020600020E867C5F89C
:101CD0008000042005F0E8F901240420EC67C5F831
:101CE000804005F0E1F9204670BD000041F2180186
:101CF000C4F202010A6842F001020A600421C4F23F
:101D000001010A6822F0E0620A600A6842EA406063
:101D1000086070472DE9F04F83B0CDE9011040F223
:101D20000010C2F20000076841F26F20C3F6832062
:101D300039460AF0D3F840F20411C2F200010C68EF
:101D400021460AF0CBF8014640F23400C2F200000E
:101D5000D0F800B0584609F0EBFF40F20409C2F297
:101D60000009D9F8001009F055FD4FF07C510546E7
:101D700009F050FD80462846414609F013FE2946E9
:101D80000646009009F0D4FF014628460AF0A6F85E
:101D9000C9F8000040F208005946C2F20000D0F82D
:101DA00000A0504609F0C4FF8146384649460AF073
:101DB00095F807463046394609F0BAFF01463846DD
:101DC0000AF08CF840F20011C2F2000108602046CF
:101DD00049460AF083F84146064609F0E3FD2946E4
:101DE000044609F0A5FF014630460AF077F840F2B4
:101DF0000411C2F20001086049F6A6315846C3F644
:101E0000443109F095FF514609F004FD054620468E
:101E1000394609F08DFF014628460AF05FF840F286
:101E2000081840F20801C2F20008C2F20001D8F816
:101E300000500860019829460AF050F8594609F008
:101E400077FF40F20C190146C2F20009D9F80000F0
:101E500009F0E0FC0646029831460AF03FF8009986
:101E6000074609F065FF0146304609F0D3FC0646F7
:101E7000C9F800003846214609F05AFF01462846B5
:101E800009F0C8FCC8F80000304603B0BDE8F08F88
:101E90002DE9F04F83B0CDE9011040F21010C2F2ED
:101EA0000000076841F26F20C3F6832039460AF02C
:101EB00015F840F21411C2F200010C6821460AF034
:101EC0000DF8014640F23400C2F20000D0F800B034
:101ED000584609F02DFF40F20C09C2F20009D9F86A
:101EE000001009F097FC4FF07C51054609F092FC78
:101EF00080462846414609F055FD29460646009091
:101F000009F016FF0146284609F0E8FFC9F800006D
:101F100040F210005946C2F20000D0F800A050462E
:101F200009F006FF81463846494609F0D7FF0746C3
:101F30003046394609F0FCFE0146384609F0CEFF2E
:101F400040F21011C2F2000108602046494609F033
:101F5000C5FF4146064609F025FD2946044609F01D
:101F6000E7FE0146304609F0B9FF40F21411C2F213
:101F70000001086049F6A6315846C3F6443109F01D
:101F8000D7FE514609F046FC05462046394609F081
:101F9000CFFE0146284609F0A1FF40F2181840F292
:101FA0001001C2F20008C2F20001D8F80050086027
:101FB0000198294609F092FF594609F0B9FE40F20E
:101FC0001C190146C2F20009D9F8000009F022FCF0
:101FD00006460298314609F081FF0099074609F04C
:101FE000A7FE0146304609F015FC0646C9F8000078
:101FF0003846214609F09CFE0146284609F00AFCB5
:10200000C8F80000304603B0BDE8F08FB0B5FFF768
:10201000E3FDD220FFF758FDFFF71CFE4120FFF73C
:1020200053FDFFF717FEFFF7D7FDD320FFF74CFD59
:10203000FFF710FE0020FFF77FFC0446FFF7EAFDE4
:10204000FFF7CAFDD220FFF73FFDFFF703FE422056
:10205000FFF73AFDFFF7FEFDFFF7BEFDD320FFF7C8
:1020600033FDFFF7F7FD0020FFF766FC40EA04248C
:10207000204609F0C9FD00210546CCF2807109F027
:10208000C9FB0021B4F5004F98BF2846C4F2AA311D
:1020900009F088FC09F092FB47F2A40244F2D7331E
:1020A000C0F63D22C4F2420308F05EFD0023002288
:1020B000C4F2240309F0A8F808F024FD09F068FD33
:1020C0000446FFF7A7FD2046B0BD000080B5FFF72E
:1020D00015FC6B20802101F04DFB642004F0B8FF5B
:1020E0006B20002101F046FB1B20182101F042FB70
:1020F0001C20102101F03EFB1920012101F03AFBC8
:102100001A20012101F036FB3820002101F032FBBA
:102110006A20002101F02EFB2320002101F02AFB80
:102120003720802101F026FBFFF756FDD220FFF774
:10213000CBFCFFF78FFD7520FFF7C6FCFFF78AFD8C
:10214000FFF74AFDD320FFF7BFFCFFF783FD002018
:10215000FFF7F2FBFFF75EFD6B20032101F00AFBA6
:102160006C20002101F006FB002080BDFEE700008E
:102170007047000042684EF20011CEF20001EAB151
:1021800010B54EF60C520723CEF20002126890F8FA
:1021900001E0847890F800C023EA12220F23D34094
:1021A000C2F1040223400EFA02F21A4301EB0C03BF
:1021B000120183F80023BDE8104000E08031007870
:1021C000012300F01F02C0F3421003FA02F241F8AB
:1021D0002020704740F080604EF60C5140F0FD70BA
:1021E000CEF200010860704741F20401C4F202011E
:1021F0000A6822F4404210430860704741F21C0212
:102200000029C4F2020211680CBF21EA0000084351
:102210001060704741F210020029C4F202021168F6
:102220000CBF21EA000008431060704741F2180219
:102230000029C4F2020211680CBF21EA0000084321
:102240001060704741F20C020029C4F202021168CA
:102250000CBF21EA000008431060704780B541F2CE
:10226000040EC4F2020EDEF8002002F00C0341F26C
:102270000022C0F27A02082B1FD1DEF80030C3F32F
:10228000834303F1020CDEF8003013F4803F06D1E3
:1022900040F60012C0F23D020CFB02F20DE0DEF847
:1022A000003013F4003F02D10CFB02F205E040F6CF
:1022B0000012C0F23D020CFB02F202604CF2C82197
:1022C000DEF80030C0F60001C3F30313CB5CDA4044
:1022D0004260DEF80030C3F30223CB5C22FA03F342
:1022E0008360DEF80030C3F3C223C95C4CF2C42320
:1022F000C0F6000322FA01F1C160DEF80020C2F34B
:1023000081329A5CB1FBF2F1016180BD2DE9F04FA1
:1023100081B040F6044A074648F2A81901261C4637
:1023200015468846C4F2010AC4F22129DAF80000F1
:1023300020F47040CAF80000DAF8000040F4405081
:10234000CAF800000420C9F80460C9F8006004F06D
:10235000ABFE4FF0000B0420C9F804B004F0A4FE5B
:102360007F00C9F800B0F8B2FFF7AEFBFFF772FCD0
:10237000D0B1DAF8000020F47040CAF80000DAF8B2
:10238000000040F44050CAF800000420C9F800B032
:10239000C9F804B004F088FE0420C9F80060C9F848
:1023A000046004F081FE51E04046FFF78DFBFFF72B
:1023B00051FCDAF8000020F47040CAF80000DAF8A6
:1023C000000040F44050CAF800000420C9F804603E
:1023D000C9F8006004F068FE0420C9F804B004F0F5
:1023E00063FE47F00100C9F800B0C0B2FFF76CFB14
:1023F000FFF730FC05E000BFFFF79EFA04F8010B81
:10240000013DE8B2012803D020B10120F4E700BF6C
:102410000020F1E7DAF80000002620F47040CAF846
:102420000000DAF8000040F44050CAF80000042030
:10243000C9F80060C9F8046004F036FE0120C9F84C
:102440000000C9F80400042004F02EFE304601B05C
:10245000BDE8F08F41F2240CC4F2020C5CF8080CC9
:1024600040F080504CF8080C5CF8080C40F000601C
:102470004CF8080CDCF8000040F00100CCF800003B
:10248000DCF8000010F0020F0ED1DCF8000010F0B4
:10249000020F09D1DCF8000010F0020F04D1DCF8C3
:1024A000000010F0020FEBD02DE9F04F42F60409C6
:1024B00043F28038C4F20009C0F2E118B9F8140000
:1024C000B9F8181041EA004044F20751CCF22E212D
:1024D000A0FB012140F2C612C2F200021388B3EB46
:1024E000114F40F01E814FF4884039F8000047F248
:1024F0000001C4F20001086840F4807008605CF8D4
:10250000040C40F480304CF8040C5CF8040C20F40B
:1025100080304CF8040CDCF8000040F00100CCF8EE
:10252000000000BFDCF8000010F0020F0ED1DCF854
:10253000000010F0020F09D1DCF8000010F0020FCB
:1025400004D1DCF8000010F0020FEBD0DCF8000042
:1025500040F08070CCF800005CF8040C40F400708F
:102560004CF8040C5CF8040C40F400404CF8040CEB
:10257000B9F8000010F0200F0ED1B9F8000010F0EB
:10258000200F09D1B9F8000010F0200F04D1B9F8DC
:10259000000010F0200FEBD0B9F8000010F0080F89
:1025A0000ED1B9F8000010F0080F09D1B9F80000F9
:1025B00010F0080F04D1B9F8000010F0080FEBD0AC
:1025C000B9F8000010F0200F0ED1B9F8000010F09B
:1025D000200F09D1B9F8000010F0200F04D1B9F88C
:1025E000000010F0200FEBD0B9F8000048F21F5A9D
:1025F00048F20053002140F2B4764FF0640B4FF4E0
:10260000C8720027C5F2EB1AC0F2E21340F01000C6
:10261000A9F8000047F6FF70A9F80410A9F808000F
:1026200040F2B470A0FB0A544744043065094744A3
:10263000E40905FB1B6507EB030E04FB12648D42E6
:10264000754608BF07EB08058C42A1F1040108BFDD
:10265000754605EB080711F13405E3D15CF8080C69
:1026600040F080504CF8080C5CF8080C40F000601A
:102670004CF8080C47F20000C4F200000146006864
:1026800040F480700860B9F8000040F01000A9F82C
:10269000000046F27A10C0F2DC103844A9F81800A5
:1026A000000CA9F81400B9F8000020F01000A9F8F7
:1026B000000000BFB9F8000010F0200F0ED1B9F8EB
:1026C000000010F0200F09D1B9F8000010F0200F21
:1026D00004D1B9F8000010F0200FEBD0B9F80000D9
:1026E00020F01000A9F80000B9F8000010F0200F49
:1026F0000ED1B9F8000010F0200F09D1B9F8000090
:1027000010F0200F04D1B9F8000010F0200FEBD02A
:102710004FF4884045F2500129F800100020BDE830
:10272000F08F0B0CA8F10101884213805CD948F2AC
:102730001F5E4FF6926640F2B27164244FF4C87582
:10274000C5F2EB1ECFF6FF7611F0030F0AD188B267
:10275000A0FB0E72D70907FB15075FB1520902FBF8
:10276000140038B96FF4B67003440131B3F5B67F85
:10277000EAD803E0B3F5B77F3046F5D21C2B37D348
:1027800048F21F5288B2642641F2C23401F00305B8
:102790000021C5F2EB12C0F60104A0FB02277A0962
:1027A000FF0902FB16024FF4C87607FB1600002A49
:1027B000B0FA80F018BF0122400942EA000600BFCB
:1027C00088B24DB9421EB2FA82F25209324003D0A9
:1027D0001D2B0FD31D3B03E0205C83420BD31B1A40
:1027E00001311B2BECD806E040F2B2711C2BC7D292
:1027F000002100E001214FF48840DAB239F80000EE
:10280000FF2A3FF474AEC9B2FF293FF470AE45F21F
:10281000500188427FF46BAE0020BDE8F08F0000CD
:1028200082B041F204000022C4F20200CFF6FF029F
:1028300050F8041C41F0010140F8041C01681140EB
:102840004FF6FF720160CFF6F66250F8041C11409B
:1028500040F8041C50F8041C21F4802140F8041CAA
:10286000016821F4FE0101604FF41F014160002165
:102870000191009150F8041C41F4803140F8041C8F
:1028800050F8041C01F400310091019901310191CB
:10289000009919B90199B1F5A06FF1D150F8041C54
:1028A00011F4003F0CBF0021012100910099012982
:1028B00058D1D0F8FC1F41F01001C0F8FC1FD0F82F
:1028C000FC1F21F00301C0F8FC1FD0F8FC1F41F0F1
:1028D0000201C0F8FC1F0168016001680160016825
:1028E00041F480610160016821F47C11016001689C
:1028F00041F4E811016050F8041C41F0807140F887
:10290000041C00BF50F8041C11F0007F0ED150F8D9
:10291000041C11F0007F09D150F8041C11F0007F55
:1029200004D150F8041C11F0007FEBD0016821F0B5
:1029300003010160016841F002010160016801F0DA
:102940000C0108290ED0016801F00C01082909D0FA
:10295000016801F00C01082904D0016801F00C01A4
:102960000829EBD14EF608504FF00061CEF200007E
:10297000016002B0704700001020C4F2000001881E
:1029800011F0010F06D040F2A011C2F200010A8836
:1029900001320A8000210180BFF34F8F7047000091
:1029A00040F21040C4F200000188018821F00101CA
:1029B0000180704740F61000C4F2000001880188D1
:1029C00021F00101018070472DE9F04F81B042F6FE
:1029D00000400121C4F2010000F50065284600F026
:1029E00039FA012840F0EF812846012100F0FCF976
:1029F00003F062FE002800F0E68140F22800C2F2F7
:102A000000000078FEF718FD042002F007FC40F2F9
:102A1000E00A4042C2F2000ACAF80000032002F0B5
:102A2000FDFB40F2E4084042C2F20008C8F8000092
:102A3000322002F06DFE40F200010128C2F20001D6
:102A4000097807D1B1FA81F0410940F20000C2F2E1
:102A50000000017000290CBF6420002004F0C6FAB9
:102A6000D8F80010DAF8000003F0CAFDD8F800101A
:102A7000DAF8000003F036FE40F25C19C2F20009F9
:102A8000C9F8000040F2FC00C2F20000006802F049
:102A90009BFA054640F2481040F2E411C2F20000F1
:102AA000C2F20001056040F250100E68C2F2000050
:102AB0000068086008F082FE47F6E1224EF24713F4
:102AC000CAF61462C3F6EA7308F09EFB0746304666
:102AD0000C4608F073FE41F27B4247F6E123C4F254
:102AE000AE72C3F6C47308F08FFB02460B4638463D
:102AF000214608F039F808F005F8014640F21C00BC
:102B0000C2F20000006809F013F90021C4F2C821E4
:102B100008F048FF09F03CF840F2541140F220164A
:102B200040F22417C2F20001C2F20006C2F200070E
:102B30000860D9F800104A19491B0244081A32608B
:102B4000386003F09FFB4EF20C55D6F8009040F22F
:102B50006412009041F6F42441F6F42B0146CFF6BE
:102B6000FF75C2F2000240F2CC01A945106040F2AC
:102B7000C812C2F20001D8BFA946C2F20002A145A4
:102B8000B8BFCB463868C6F800B0A842C8BF0546F3
:102B9000A542B8BF2C461088D8F80060DAF800A02B
:102BA000D1F800803C6002284DD040F2C8010128D5
:102BB000C2F200010F681CD0002866D1BAF1000FE4
:102BC0005046314648BFCAF10000002E48BF71424E
:102BD00008441E2853DA40F2CA10C2F200000188ED
:102BE0000131018089B20B294FD3002101800120DE
:102BF000108040F2CC10C2F2000001880131018047
:102C000089B2C92922BF00211180018040460021DC
:102C1000C4F2B01108F0A5FEB8BB42F2000138467C
:102C2000C4F2CB6108F0A4FE78BB00214046CCF290
:102C3000901108F09DFE40F2C8120028C2F2000276
:102C400023D10220108040F2CE10C2F20000018891
:102C50000131018089B2C92922BF00211180018080
:102C600016EB0A0048BF404247280EDB40F2000046
:102C70000127C2F200000770002010800BE040F234
:102C8000CA100021C2F20000018040F20000C2F22E
:102C900000000778C7B340F2D013C2F200031878DF
:102CA000B0B940464FF0414108F062FE68BB0021D8
:102CB0004046C4F2401108F05BFE002808BF56EA07
:102CC0000A0022D140F2D0130120C2F20003187092
:102CD00040F2D410C2F2000001684A1C322902609E
:102CE000A2BF002119700160AAF1040123290CD8A8
:102CF000311F232909D80027076040F200001F7008
:102D0000C2F20000077000E0002700214046CCF22C
:102D1000202108F034FE002848D100214046C4F2AA
:102D2000202108F017FE002840D1009940F292407F
:102D300081423BDB012F39D048F29017B9F1010FE6
:102D40004FF0000042F600484FF00006B8BF0120E7
:102D5000C4F22227B9F1000FC4F20108F8614FF064
:102D60000000C8BF0120BBF1000FB86148BFCBF124
:102D7000000B40461FFA8BF100F0CCFA012D4FF00A
:102D80000000B8BF0120002D386040F2B010C8BF6D
:102D90000126002CC4F22220066048BF644240464F
:102DA000A1B201B0BDE8F04F00F0B6BA48F2901001
:102DB00040F2B0120021C4F22220C4F222220160AB
:102DC0001160C161816101B0BDE8F08F0288002906
:102DD00042F0800308BF22F08003038070470000A8
:102DE000C943018270470000C94301827047000057
:102DF0000288002942F0010308BF22F0010303808A
:102E000070470000B0F84420002913466FF3DF3309
:102E100018BF42F40043A0F84430704780B5B0F8C2
:102E200008C02CF0070C41EA0C01B0F818C0B0F84B
:102E300020E001814FF6FC410CEA010C40F2011147
:102E400041EA0C01018342EA03112EF022021143F0
:102E5000018480BD008A084018BF0120704700002F
:102E600070B50B88042B2AD0002B56D1B1F802C0C4
:102E70000A898B88068C40F6FF354FF6FC74C4F245
:102E8000000526F0010643EA02130246A842068422
:102E900032F8186FB0F820E026F0F30643EA060394
:102EA0006DDCB0F1804F7DD040F20045C4F20005EA
:102EB000A84277D040F60005C4F200056FE00E8905
:102EC0004B888A88058C40F6FF44360325F01005B0
:102ED00046EA02260584024632F8185FB0F820E080
:102EE000254046EA050C40F6FF356FF00306C4F2B4
:102EF0000005A6F1AD04A84262DCB0F1804F71D0AC
:102F000040F20045C4F20005A8426BD040F600052F
:102F1000C4F20005A84265D068E00A898C884E8812
:102F2000058C082B71D125F48073038444EA0213C5
:102F3000024632F81C5FB0F820E025F0F30543EAC2
:102F4000050C6FF4405303F5145440F6FF33C4F2FC
:102F50000003984200F38180B0F1804F00F08F8031
:102F600040F20043C4F20003984200F0888040F62B
:102F70000003C4F20003984200F0818084E040F630
:102F80000045C4F20005A8420CD042F60045C4F248
:102F90000105A84206D043F20045C4F20105A8424B
:102FA00018BF083C03830EEA040343EA0C0343F012
:102FB00001030384C988038B23F00C03038394E08B
:102FC00040F60045C4F20005A8420BD043F200458C
:102FD000C4F20105A84205D042F60045C4F201053D
:102FE000A84203D14FF6FC741B012D3C0EEA0406E7
:102FF000A0F818C0334343F010030384C988038B3F
:1030000023F44063090203836FE025F48053120325
:10301000038442EA0423024640F6FF4432F81C5F70
:10302000B0F820C0254046F6FF5443EA050E40F6AE
:10303000FF33C4F20003984234DCB0F1804F43D038
:1030400040F20043C4F2000398423DD040F6000332
:10305000C4F20003984237D039E040F60043C4F28E
:10306000000398420BD043F20043C4F2010398429C
:1030700005D042F60043C4F20103984204D14CF655
:10308000FF73360203F534540EEA0403A0F81CC0A3
:10309000334343F480730384C988838B23F00C0388
:1030A000838322E040F60043C4F2000398420BD031
:1030B00043F20043C4F20103984205D042F60043B4
:1030C000C4F20103984202D136034CF6FF740CEAB5
:1030D0000403A0F81CE0334343F480530384C988FD
:1030E000838B23F440630902838310880843108094
:1030F00070BD000000210122016042600181704723
:10310000002A82890CBF22EA0101114381817047A4
:1031100010B5028C22F001020284048CB0F804E0A5
:10312000038B0A8823F0730343EA020C0B8924F013
:1031300002021A434B881A43A0F18043A3F5963349
:103140004FEAB323072B14D8012404FA03F313F036
:10315000E50F0ED08C892EF4407322F00C0223432D
:10316000CC8943EA040E4B8923F004031A438B886D
:103170001A43A0F804E0A0F818C0C9888186028428
:1031800010BD0000028B22F008021143018370473A
:1031900010B5028C22F010020284048CB0F804E016
:1031A000038B0A8823F4E64343EA022C0B8924F0BC
:1031B000200242EA03124B8842EA031243F2004320
:1031C000C4F20103984205D042F60043C4F2010361
:1031D000984212D18B892EF4406422F0C00244EA56
:1031E0008303CC8943EA840E4B896FF04F0404EAD1
:1031F00003131A438B8842EA0312A0F804E0A0F8F4
:1032000018C0C9880187028410BD0000028B22F417
:10321000006242EA012101837047000010B5028C70
:1032200022F480720284048CB0F804E0838B0A8854
:1032300023F0730343EA020C0B8924F4007242EA80
:1032400003224B8842EA032243F20043C4F2010303
:10325000984205D042F60043C4F20103984212D1CD
:103260008B892EF4405422F4406244EA0313CC8943
:1032700043EA041E4B8940F2FF441B02A3431A4356
:103280008B8842EA0322A0F804E0A0F81CC0C98899
:103290008187028410BD0000828B22F00802114356
:1032A0008183704710B5028C22F480520284048C12
:1032B000B0F804E0828B0B8822F4E64242EA032C49
:1032C0000B8924F4005242EA03324B8842EA03336A
:1032D00043F20042C4F20102904205D042F600429D
:1032E000C4F20102904204D18A892EF4804444EA57
:1032F000821EA0F804E0A0F81CC0C988A0F8401005
:10330000038410BD828B22F4006242EA0121818392
:103310007047000081877047A0F840107047000098
:103320008184704740F6FF33B0F800C0C4F2000358
:1033300098420FDCB0F1804F1ED040F20043C4F23F
:103340000003984218D040F60003C4F200039842EC
:1033500012D016E040F60043C4F2000398420BD0AE
:1033600043F20043C4F20103984205D042F6004301
:10337000C4F20103984204D14B882CF0700243EA56
:10338000020C41F2004240F48063C4F20002934216
:1033900004D0CB882CF4407243EA020CA0F800C0A1
:1033A0008A8882850A880285A0F18042A2F5963239
:1033B0004FEAB222072A07D8012303FA02F212F0D9
:1033C000E50F1CBF097A0186012181827047000048
:1033D0004FF6FF71416000210160017270470000EB
:1033E000F0B581B043F6000440F22551C4F2010467
:1033F000A4F57445284600F027F9002804BF01B061
:10340000F0BD204640F225510022002600F03EF992
:10341000284640F2255100F0ADF8284600F0A4F906
:1034200040F2AE15C2F200052978032900F280802F
:10343000DFE801F0026A164BC0B22C2878D10120D7
:10344000287040F2AD10C2F2000001784A1C0270F0
:1034500040F2B0102C22C2F2000020F811207FE0D0
:1034600040F2AD12C2F200021378591C1170C2B2C0
:1034700040F2B010C2F200005B2A20F8132002D004
:10348000CAB20A2A6CD3C9B2032200EB41002A70E7
:1034900040F2DD0210F80A1CC2F20002117040F284
:1034A000DE0210F8081CC2F20002117040F2DC02C9
:1034B00010F8061C10F8040CC2F20002117040F261
:1034C000D001C2F2000108704AE040F2AD1640F2AD
:1034D000B010C2F20006C2F20000317800EB4101E8
:1034E00031F8021C5B2933D1204640F225510022DD
:1034F000002700F0CBF8204640F2255101222F7022
:10350000377000F0C3F82BE0C0B2122810D10220AF
:10351000287040F2AD10C2F2000001784A1C02701F
:1035200040F2B0101222C2F2000020F8112017E081
:1035300040F2AD102E70C2F20000067040F2B010E2
:10354000C2F20000C0E90066C0E90266066107E059
:10355000002131702970C0E90011C0E90211016138
:10356000204640F22551012201B0BDE8F04000F0B4
:103570008DB80000090A012202FA01F1C943018055
:10358000704700008289002942F4005308BF22F4EA
:10359000005383817047000080B544F6FF31C4F2C8
:1035A000000188421EDD44F60041C4F20001884259
:1035B0002CD045F20001C4F2000188422ED043F61F
:1035C0000001C4F20101884218BF80BD4FF4804061
:1035D0000121FEF737FE4FF480400021BDE8804016
:1035E000FEF730BE44F20041C4F2000188421DD013
:1035F00044F60001C4F20001884223D14FF4802038
:103600000121FEF707FE4FF4802016E04FF4002062
:103610000121FEF7FFFD4FF400200EE04FF4801073
:103620000121FEF7F7FD4FF4801006E04FF4003063
:103630000121FEF7EFFD4FF400300021BDE880408E
:10364000FEF7E8BD80BD000001F01F02012303FA70
:1036500002F2C1F34213022B06D0012B14BF00F17A
:10366000140300F10C0301E000F110031B88090AA8
:103670001A404FF0010318BF0122008803FA01F13C
:10368000084018BF012010407047000001F01F0CD7
:10369000012303FA0CFCC1F342131421022B08BFCF
:1036A0001021012B08BF0C21002A42580CBF22EA2E
:1036B0000C0242EA0C0242507047000070B586B01E
:1036C0000446008A0D46C98801AE20F440500843E4
:1036D0004EF6F3112082A0890840A9880843298961
:1036E000084369890843A081A08AA98920F4407011
:1036F0000843A0823046FEF7B1FD43F6000106F113
:1037000008000222C4F201018C424FF0190108BFE7
:1037100006F10C00042600684843A189A2EBD131D0
:103720002A6802FA01F1B0FBF1F048F21F51C5F22C
:10373000EB11A0FB01235A096FF0630302FB0300A6
:10374000A389A6EBD336B0403230A0FB010107209D
:1037500040EA133080F0080000EA511040EA0210FD
:10376000208106B070BD000080886FF35F20704735
:10377000FEE70000B0B50C460546FEF72DFAFEF751
:10378000B9F8D220FEF7A0F9FEF764FA18B1FEF7F7
:1037900041FA0120B0BD2846FEF796F9FEF75AFA25
:1037A0002046FEF791F9FEF755FA0446002818BFA7
:1037B0000124FEF72FFA2046B0BD00002DE9F04F9E
:1037C00081B040F6044A074648F2A81901241D4674
:1037D00016468846C4F2010AC4F22129DAF800002C
:1037E00020F47040CAF80000DAF8000040F44050BD
:1037F000CAF800000420C9F80440C9F8004003F0EA
:1038000053FC4FF0000B0420C9F804B003F04CFC4B
:103810007800C9F800B0C0B2FEF756F9FEF71AFA00
:10382000D0B1DAF8000020F47040CAF80000DAF8ED
:10383000000040F44050CAF800000420C9F800B06D
:10384000C9F804B003F030FC0420C9F80040C9F8FE
:10385000044003F029FC49E04046FEF735F9FEF745
:10386000F9F956B1002400BF285DFEF72DF9FEF7E7
:10387000F1F9F8B90134B442F6D3DAF800000024C3
:1038800020F47040CAF80000DAF8000040F440501C
:10389000CAF800000420C9F80040C9F8044003F049
:1038A00003FC0120C9F80000C9F80400042003F05B
:1038B000FBFB1BE0DAF8000020F47040CAF80000BF
:1038C000DAF8000040F44050CAF800000020C9F8BF
:1038D0000000C9F80400042003F0E6FB01240420E2
:1038E000C9F80040C9F8044003F0DEFB204601B0EF
:1038F000BDE8F08F2DE9F04F93B03A20ADF84A00C3
:1039000006A8FDF7CDFE9DF81F004CF2E429BDF896
:1039100018704FF0000842F210754FF0000BC0F61F
:10392000000905909DF81A0001909DF81B00029077
:103930009DF81D0003909DF81E00049048E008EBE0
:1039400048016920362300EB41003731490080B23D
:103950008AB22B2102F0CEF8002400BF19F80460CF
:1039600016F0010F0CBF4FF6FF7047F60F0001F085
:103970009FFBB00754BF4FF6FF7047F60F0001F0F2
:1039800097FB700754BF4FF6FF7047F60F0001F02A
:103990008FFB300754BF4FF6FF7047F60F0001F062
:1039A00087FBF00654BF4FF6FF7047F60F0001F09B
:1039B0007FFBB00654BF4FF6FF7047F60F0001F0D3
:1039C00077FB01340C2CC9D14FF0000B92E000BF03
:1039D0005FFA88F0032801D1012025E0C8F1020236
:1039E000C8F10300D2B200F00301032A02D2012081
:1039F00041B919E0421A0120043A684312F0FF0F5E
:103A0000FAD189B1012903D100EB800040000BE01D
:103A10004FF47A7202294FF0640100FB02F208BFF2
:103A200000FB01F2104600BF4CF6CD41B7FBF0F0B1
:103A3000B8F1020FCCF6CC41A0FB01124FEAD20143
:103A400001EB8101A0EB410407D85FEA0B6004D1D0
:103A5000002C3FF474AF4FF0010B08EB48016920D4
:103A6000362300EB41003731490080B28AB22B2166
:103A700002F040F844F010004FF0000A00EB400064
:103A800009EB800414F80A6016F0010F0CBF4FF622
:103A9000FF7047F60F0001F00BFBB00754BF4FF665
:103AA000FF7047F60F0001F003FB700754BF4FF69D
:103AB000FF7047F60F0001F0FBFA300754BF4FF6D6
:103AC000FF7047F60F0001F0F3FAF00654BF4FF60F
:103AD000FF7047F60F0001F0EBFAB00654BF4FF647
:103AE000FF7047F60F0001F0E3FA0AF1010ABAF19C
:103AF0000C0FC7D108F10108B8F1040F7FF468AFCB
:103B000081253A240DF14A08691DA8B236238AB2EC
:103B10002B2101F0EFFFA4F120000026C0B200EB42
:103B2000400009EB800400BFA75D17F0010F0CBF38
:103B30004FF6FF7047F60F0001F0BAFAB80754BF0E
:103B40004FF6FF7047F60F0001F0B2FA780754BF46
:103B50004FF6FF7047F60F0001F0AAFA380754BF7E
:103B60004FF6FF7047F60F0001F0A2FAF80654BFB7
:103B70004FF6FF7047F60F0001F09AFAB80654BFEF
:103B80004FF6FF7047F60F0001F092FA01360C2E47
:103B9000CAD118F8014F0635002CB5D100274FF0D7
:103BA000870B42F21078002542E000BF0CB10125DE
:103BB0007FE087202B218C22362301F09BFF0024FD
:103BC00019F8045015F0010F0CBF4FF6FF7047F6BF
:103BD0000F0001F06DFAA80754BF4FF6FF7047F6CB
:103BE0000F0001F065FA680754BF4FF6FF7047F603
:103BF0000F0001F05DFA280754BF4FF6FF7047F63B
:103C00000F0001F055FAE80654BF4FF6FF7047F673
:103C10000F0001F04DFAA80654BF4FF6FF7047F6AB
:103C20000F0001F045FA01340C2CC9D100258EE0BB
:103C3000F8B2012802D1012026E000BF7A42C7F184
:103C40000100D2B200F00301032A03D2012051B9CE
:103C50001AE000BF421A0120043A00FB08F012F0FB
:103C6000FF0FF9D181B1012903D100EB80004000A1
:103C70000AE04FF47A7202294FF0640100FB02F26D
:103C800008BF00FB01F210460199002FB1FBF0F0D4
:103C90004CF6CD41CCF6CC41A0FB01124FEAD2014B
:103CA00001EB8101A0EB410408BF5FEA05603FF42E
:103CB0007DAF07EB470136230BEB4100463149004E
:103CC00080B28AB22B2101F015FF44F010000026CB
:103CD00000EB400009EB800414F806A01AF0010F75
:103CE0000CBF4FF6FF7047F60F0001F0E1F95FEAF5
:103CF0008A7054BF4FF6FF7047F60F0001F0D8F9F5
:103D00005FEA4A7054BF4FF6FF7047F60F0001F0AC
:103D1000CFF95FEA0A7054BF4FF6FF7047F60F0005
:103D200001F0C6F95FEACA6054BF4FF6FF7047F66C
:103D30000F0001F0BDF95FEA8A6054BF4FF6FF70D3
:103D400047F60F0001F0B4F901360C2EC4D101374B
:103D5000022F7FF46DAF93243A250DF14A0800BF7E
:103D6000611DA0B236238AB22B2101F0C3FEA5F15A
:103D700020000026C0B200EB400009EB800700BF26
:103D8000BD5D15F0010F0CBF4FF6FF7047F60F0039
:103D900001F08EF9A80754BF4FF6FF7047F60F00E9
:103DA00001F086F9680754BF4FF6FF7047F60F0021
:103DB00001F07EF9280754BF4FF6FF7047F60F0059
:103DC00001F076F9E80654BF4FF6FF7047F60F0092
:103DD00001F06EF9A80654BF4FF6FF7047F60F00CA
:103DE00001F066F901360C2ECAD118F8015F0634CD
:103DF000002DB5D100244FF0990B42F210774FF00F
:103E0000000A45E015B14FF0010A82E099202B210C
:103E10009E22362301F06EFE002500BF19F80560D2
:103E200016F0010F0CBF4FF6FF7047F60F0001F0C0
:103E30003FF9B00754BF4FF6FF7047F60F0001F08F
:103E400037F9700754BF4FF6FF7047F60F0001F0C7
:103E50002FF9300754BF4FF6FF7047F60F0001F0FF
:103E600027F9F00654BF4FF6FF7047F60F0001F038
:103E70001FF9B00654BF4FF6FF7047F60F0001F070
:103E800017F901350C2DC9D14FF0000A8EE000BFA3
:103E9000E0B2012802D1012026E000BF6242C4F155
:103EA0000100D2B200F00301032A03D2012049B974
:103EB0001AE000BF421A0120043A784312F0FF0FC3
:103EC000FAD189B1012903D100EB800040000BE059
:103ED0004FF47A7202294FF0640100FB02F208BF2E
:103EE00000FB01F2104600BF0299002CB1FBF0F07C
:103EF0004CF6CD41CCF6CC41A0FB01124FEAD201E9
:103F000001EB8101A0EB410508BF5FEA0A603FF4C5
:103F100079AF04EB440136230BEB41004F314900EC
:103F200080B28AB22B2101F0E5FD45F010004FF080
:103F3000000800EB400009EB800500BF15F80860A1
:103F400016F0010F0CBF4FF6FF7047F60F0001F09F
:103F5000AFF8B00754BF4FF6FF7047F60F0001F0FF
:103F6000A7F8700754BF4FF6FF7047F60F0001F037
:103F70009FF8300754BF4FF6FF7047F60F0001F06F
:103F800097F8F00654BF4FF6FF7047F60F0001F0A8
:103F90008FF8B00654BF4FF6FF7047F60F0001F0E0
:103FA00087F808F10108B8F10C0FC7D10134022CD1
:103FB0007FF46EAF00244FF0AB0B42F210774FF05E
:103FC000000A45E015B14FF0010A82E0AB202B2139
:103FD000B022362301F08EFD002500BF19F80560E0
:103FE00016F0010F0CBF4FF6FF7047F60F0001F0FF
:103FF0005FF8B00754BF4FF6FF7047F60F0001F0AF
:1040000057F8700754BF4FF6FF7047F60F0001F0E6
:104010004FF8300754BF4FF6FF7047F60F0001F01E
:1040200047F8F00654BF4FF6FF7047F60F0001F057
:104030003FF8B00654BF4FF6FF7047F60F0001F08F
:1040400037F801350C2DC9D14FF0000A8EE000BFC2
:10405000E0B2012802D1012026E000BF6242C4F193
:104060000100D2B200F00301032A03D2012049B9B2
:104070001AE000BF421A0120043A784312F0FF0F01
:10408000FAD189B1012903D100EB800040000BE097
:104090004FF47A7202294FF0640100FB02F208BF6C
:1040A00000FB01F2104600BF0399002CB1FBF0F0B9
:1040B0004CF6CD41CCF6CC41A0FB01124FEAD20127
:1040C00001EB8101A0EB410508BF5FEA0A603FF404
:1040D00079AF04EB440136230BEB41005831490022
:1040E00080B28AB22B2101F005FD45F010004FF09F
:1040F000000800EB400009EB800500BF15F80860E0
:1041000016F0010F0CBF4FF6FF7047F60F0000F0DE
:10411000CFFFB00754BF4FF6FF7047F60F0000F017
:10412000C7FF700754BF4FF6FF7047F60F0000F04F
:10413000BFFF300754BF4FF6FF7047F60F0000F087
:10414000B7FFF00654BF4FF6FF7047F60F0000F0C0
:10415000AFFFB00654BF4FF6FF7047F60F0000F0F8
:10416000A7FF08F10108B8F10C0FC7D10134022CE8
:104170007FF46EAFB7243A250DF14A08611DA0B255
:1041800036238AB22B2101F0B5FCA5F120000026D0
:10419000C0B200EB400009EB800700BFBD5D15F029
:1041A000010F0CBF4FF6FF7047F60F0000F080FFC5
:1041B000A80754BF4FF6FF7047F60F0000F078FFD6
:1041C000680754BF4FF6FF7047F60F0000F070FF0E
:1041D000280754BF4FF6FF7047F60F0000F068FF46
:1041E000E80654BF4FF6FF7047F60F0000F060FF7F
:1041F000A80654BF4FF6FF7047F60F0000F058FFB7
:1042000001360C2ECAD118F8015F0634002DB5D145
:1042100000244FF0BD0B42F210774FF0000A45E04A
:1042200015B14FF0010A82E0BD202B21C2223623B6
:1042300001F060FC002500BF19F8056016F0010FC1
:104240000CBF4FF6FF7047F60F0000F031FFB007CC
:1042500054BF4FF6FF7047F60F0000F029FF7007BC
:1042600054BF4FF6FF7047F60F0000F021FF3007F4
:1042700054BF4FF6FF7047F60F0000F019FFF0062D
:1042800054BF4FF6FF7047F60F0000F011FFB00665
:1042900054BF4FF6FF7047F60F0000F009FF0135DD
:1042A0000C2DC9D14FF0000A8EE000BFE0B201280A
:1042B00002D1012026E000BF6242C4F10100D2B267
:1042C00000F00301032A03D2012049B91AE000BF1C
:1042D000421A0120043A784312F0FF0FFAD189B153
:1042E000012903D100EB800040000BE04FF47A720B
:1042F00002294FF0640100FB02F208BF00FB01F24B
:10430000104600BF0499002CB1FBF0F04CF6CD41F3
:10431000CCF6CC41A0FB01124FEAD20101EB8101A6
:10432000A0EB410508BF5FEA0A603FF479AF04EBF8
:10433000440136230BEB41006131490080B28AB25F
:104340002B2101F0D7FB45F010004FF0000800EBE7
:10435000400009EB800500BF15F8086016F0010F5A
:104360000CBF4FF6FF7047F60F0000F0A1FEB0073C
:1043700054BF4FF6FF7047F60F0000F099FE70072C
:1043800054BF4FF6FF7047F60F0000F091FE300764
:1043900054BF4FF6FF7047F60F0000F089FEF0069D
:1043A00054BF4FF6FF7047F60F0000F081FEB006D5
:1043B00054BF4FF6FF7047F60F0000F079FE08F18A
:1043C0000108B8F10C0FC7D10134022C7FF46EAF95
:1043D000C9243A250DF14A08611DA0B236238AB2DC
:1043E0002B2101F087FBA5F120000026C0B200EBD5
:1043F000400009EB800700BFBD5D15F0010F0CBF49
:104400004FF6FF7047F60F0000F052FEA80754BFAA
:104410004FF6FF7047F60F0000F04AFE680754BFE2
:104420004FF6FF7047F60F0000F042FE280754BF1A
:104430004FF6FF7047F60F0000F03AFEE80654BF53
:104440004FF6FF7047F60F0000F032FEA80654BF8B
:104450004FF6FF7047F60F0000F02AFE01360C2ED3
:10446000CAD118F8015F0634002DB5D100244FF0F1
:10447000CF0B42F210774FF0000A45E015B14FF034
:10448000010A82E0CF202B21D422362301F032FB17
:10449000002500BF19F8056016F0010F0CBF4FF69C
:1044A000FF7047F60F0000F003FEB00754BF4FF651
:1044B000FF7047F60F0000F0FBFD700754BF4FF68A
:1044C000FF7047F60F0000F0F3FD300754BF4FF6C2
:1044D000FF7047F60F0000F0EBFDF00654BF4FF6FB
:1044E000FF7047F60F0000F0E3FDB00654BF4FF633
:1044F000FF7047F60F0000F0DBFD01350C2DC9D130
:104500004FF0000A8EE000BFE0B2012802D1012086
:1045100026E000BF6242C4F10100D2B200F0030104
:10452000032A03D2012049B91AE000BF421A012030
:10453000043A784312F0FF0FFAD189B1012903D16F
:1045400000EB800040000BE04FF47A7202294FF03C
:10455000640100FB02F208BF00FB01F2104600BF3D
:104560000599002CB1FBF0F04CF6CD41CCF6CC41D6
:10457000A0FB01124FEAD20101EB8101A0EB410542
:1045800008BF5FEA0A603FF479AF04EB44013623C9
:104590000BEB41006A31490080B28AB22B2101F055
:1045A000A9FA45F010004FF0000800EB400009EBBD
:1045B000800500BF15F8086016F0010F0CBF4FF61C
:1045C000FF7047F60F0000F073FDB00754BF4FF6C1
:1045D000FF7047F60F0000F06BFD700754BF4FF6F9
:1045E000FF7047F60F0000F063FD300754BF4FF631
:1045F000FF7047F60F0000F05BFDF00654BF4FF66A
:10460000FF7047F60F0000F053FDB00654BF4FF6A1
:10461000FF7047F60F0000F04BFD08F10108B8F1FC
:104620000C0FC7D10134022C7FF46EAF40F228107A
:10463000C2F20000006807F0C1F80B4641F2ED310C
:10464000024606A8C0F60101FBF724FE9DF81850AB
:10465000002D5FD04CF2587886240DF11809C0F671
:10466000000800BFE11DA0B25B238AB24C2101F01B
:1046700041FAA5F120000026C0B208EB001700BFE8
:10468000BD5D15F0010F0CBF4FF6FF704FF4784081
:1046900000F00EFDA80754BF4FF6FF704FF47840AE
:1046A00000F006FD680754BF4FF6FF704FF47840E6
:1046B00000F0FEFC280754BF4FF6FF704FF478401F
:1046C00000F0F6FCE80654BF4FF6FF704FF4784058
:1046D00000F0EEFCA80654BF4FF6FF704FF4784090
:1046E00000F0E6FC680654BF4FF6FF704FF47840C8
:1046F00000F0DEFC280654BF4FF6FF704FF4784000
:1047000000F0D6FC0136102EBAD119F8015F08343A
:10471000002DA7D140F24010C2F20000006807F05F
:104720004DF80B4641F2ED31024606A8C0F60101F4
:10473000FBF7B0FD9DF81850002D5FD04CF2587873
:1047400086240DF11809C0F6000800BFE11DA0B2D3
:104750006B238AB25C2101F0CDF9A5F1200000267F
:10476000C0B208EB001700BFBD5D15F0010F0CBF14
:104770004FF6FF704FF4784000F09AFCA80754BF42
:104780004FF6FF704FF4784000F092FC680754BF7A
:104790004FF6FF704FF4784000F08AFC280754BFB2
:1047A0004FF6FF704FF4784000F082FCE80654BFEB
:1047B0004FF6FF704FF4784000F07AFCA80654BF23
:1047C0004FF6FF704FF4784000F072FC680654BF5B
:1047D0004FF6FF704FF4784000F06AFC280654BF93
:1047E0004FF6FF704FF4784000F062FC0136102E57
:1047F000BAD119F8015F0834002DA7D140F2681032
:10480000C2F20000006806F0D9FF0B4641F2ED311C
:10481000024606A8C0F60101FBF73CFD9DF81850C2
:10482000002D5FD04CF2587886240DF11809C0F69F
:10483000000800BFE11DA0B27B238AB26C2101F009
:1048400059F9A5F120000026C0B208EB001700BFFF
:10485000BD5D15F0010F0CBF4FF6FF704FF47840AF
:1048600000F026FCA80754BF4FF6FF704FF47840C5
:1048700000F01EFC680754BF4FF6FF704FF47840FD
:1048800000F016FC280754BF4FF6FF704FF4784035
:1048900000F00EFCE80654BF4FF6FF704FF478406E
:1048A00000F006FCA80654BF4FF6FF704FF47840A6
:1048B00000F0FEFB680654BF4FF6FF704FF47840DF
:1048C00000F0F6FB280654BF4FF6FF704FF4784017
:1048D00000F0EEFB0136102EBAD119F8015F083452
:1048E000002DA7D140F2E00041F2E931C2F2000010
:1048F000C0F60101026806A8FBF7CCFC9DF8185031
:10490000002D5FD04CF2587886240DF11809C0F6BE
:10491000000800BFE11DA0B28B238AB27C2101F008
:10492000E9F8A5F120000026C0B208EB001700BF8F
:10493000BD5D15F0010F0CBF4FF6FF704FF47840CE
:1049400000F0B6FBA80754BF4FF6FF704FF4784055
:1049500000F0AEFB680754BF4FF6FF704FF478408D
:1049600000F0A6FB280754BF4FF6FF704FF47840C5
:1049700000F09EFBE80654BF4FF6FF704FF47840FE
:1049800000F096FBA80654BF4FF6FF704FF4784036
:1049900000F08EFB680654BF4FF6FF704FF478406E
:1049A00000F086FB280654BF4FF6FF704FF47840A6
:1049B00000F07EFB0136102EBAD119F8015F0834E1
:1049C000002DA7D140F2E40041F2E931C2F200002B
:1049D000C0F60101026806A8FBF75CFC9DF81850C0
:1049E000002D5FD04CF2587886240DF11809C0F6DE
:1049F000000800BFE11DA0B29B238AB28C2101F008
:104A000079F8A5F120000026C0B208EB001700BF1E
:104A1000BD5D15F0010F0CBF4FF6FF704FF47840ED
:104A200000F046FBA80754BF4FF6FF704FF47840E4
:104A300000F03EFB680754BF4FF6FF704FF478401C
:104A400000F036FB280754BF4FF6FF704FF4784054
:104A500000F02EFBE80654BF4FF6FF704FF478408D
:104A600000F026FBA80654BF4FF6FF704FF47840C5
:104A700000F01EFB680654BF4FF6FF704FF47840FD
:104A800000F016FB280654BF4FF6FF704FF4784035
:104A900000F00EFB0136102EBAD119F8015F083470
:104AA000002DA7D140F26410C2F20000006807F0A8
:104AB000ABF80021C4F2C82106F074FF06F07EFEB8
:104AC00002460B4606A80FF2D841FBF7E3FB9DF820
:104AD0001850002D5ED04CF2587886240DF118093C
:104AE000C0F60008E11DA0B24B238AB23C2101F0C0
:104AF00001F8A5F120000026C0B208EB001700BFA6
:104B0000BD5D15F0010F0CBF4FF6FF704FF47840FC
:104B100000F0CEFAA80754BF4FF6FF704FF478406C
:104B200000F0C6FA680754BF4FF6FF704FF47840A4
:104B300000F0BEFA280754BF4FF6FF704FF47840DC
:104B400000F0B6FAE80654BF4FF6FF704FF4784015
:104B500000F0AEFAA80654BF4FF6FF704FF478404D
:104B600000F0A6FA680654BF4FF6FF704FF4784085
:104B700000F09EFA280654BF4FF6FF704FF47840BD
:104B800000F096FA0136102EBAD119F8015F0834F8
:104B9000002DA7D14CF258785624AE250DF11809F6
:104BA000C0F60008ADF81840E91DA8B24B238AB240
:104BB0003C2100F09FFFA4F120000024C0B208EBCC
:104BC000001700BF3E5D16F0010F0CBF4FF6FF70DF
:104BD0004FF4784000F06CFAB00754BF4FF6FF7006
:104BE0004FF4784000F064FA700754BF4FF6FF703E
:104BF0004FF4784000F05CFA300754BF4FF6FF7076
:104C00004FF4784000F054FAF00654BF4FF6FF70AE
:104C10004FF4784000F04CFAB00654BF4FF6FF70E6
:104C20004FF4784000F044FA700654BF4FF6FF701E
:104C30004FF4784000F03CFA300654BF4FF6FF7056
:104C40004FF4784000F034FA0134102CBAD119F83E
:104C5000014F0835002CA7D140F2DD00D2A1C2F2ED
:104C60000000027806A8FBF715FB9DF81840002C01
:104C70005AD05E250DF11809E91DA8B2AB238AB2FE
:104C80009C2100F037FFA4F120000024C0B208EB03
:104C9000001700BF3E5D16F0010F0CBF4FF6FF700E
:104CA0004FF4784000F004FAB00754BF4FF6FF709D
:104CB0004FF4784000F0FCF9700754BF4FF6FF70D6
:104CC0004FF4784000F0F4F9300754BF4FF6FF700E
:104CD0004FF4784000F0ECF9F00654BF4FF6FF7047
:104CE0004FF4784000F0E4F9B00654BF4FF6FF707F
:104CF0004FF4784000F0DCF9700654BF4FF6FF70B7
:104D00004FF4784000F0D4F9300654BF4FF6FF70EE
:104D10004FF4784000F0CCF90134102CBAD119F8D6
:104D2000014F0835002CA7D140F2DE00A0A1C2F24D
:104D30000000027806A8FBF7ADFA9DF81840002C99
:104D40005AD05E250DF11809E91DA8B2BB238AB21D
:104D5000AC2100F0CFFEA4F120000024C0B208EB8B
:104D6000001700BF3E5D16F0010F0CBF4FF6FF703D
:104D70004FF4784000F09CF9B00754BF4FF6FF7035
:104D80004FF4784000F094F9700754BF4FF6FF706D
:104D90004FF4784000F08CF9300754BF4FF6FF70A5
:104DA0004FF4784000F084F9F00654BF4FF6FF70DE
:104DB0004FF4784000F07CF9B00654BF4FF6FF7016
:104DC0004FF4784000F074F9700654BF4FF6FF704E
:104DD0004FF4784000F06CF9300654BF4FF6FF7086
:104DE0004FF4784000F064F90134102CBAD119F86E
:104DF000014F0835002CA7D140F2DC006EA1C2F2B1
:104E00000000027806A8FBF745FA9DF81840002C30
:104E10005AD05E250DF11809E91DA8B2CB238AB23C
:104E2000BC2100F067FEA4F120000024C0B208EB12
:104E3000001700BF3E5D16F0010F0CBF4FF6FF706C
:104E40004FF4784000F034F9B00754BF4FF6FF70CC
:104E50004FF4784000F02CF9700754BF4FF6FF7004
:104E60004FF4784000F024F9300754BF4FF6FF703C
:104E70004FF4784000F01CF9F00654BF4FF6FF7075
:104E80004FF4784000F014F9B00654BF4FF6FF70AD
:104E90004FF4784000F00CF9700654BF4FF6FF70E5
:104EA0004FF4784000F004F9300654BF4FF6FF701D
:104EB0004FF4784000F0FCF80134102CBAD119F806
:104EC000014F0835002CA7D140F2D0003CA1C2F21E
:104ED0000000027806A8FBF7DDF99DF81840002CC9
:104EE0005AD05E250DF11809E91DA8B2DB238AB25C
:104EF000CC2100F0FFFDA4F120000024C0B208EB9B
:104F0000001700BF3E5D16F0010F0CBF4FF6FF709B
:104F10004FF4784000F0CCF8B00754BF4FF6FF7064
:104F20004FF4784000F0C4F8700754BF4FF6FF709C
:104F30004FF4784000F0BCF8300754BF4FF6FF70D4
:104F40004FF4784000F0B4F8F00654BF4FF6FF700D
:104F50004FF4784000F0ACF8B00654BF4FF6FF7045
:104F60004FF4784000F0A4F8700654BF4FF6FF707D
:104F70004FF4784000F09CF8300654BF4FF6FF70B5
:104F80004FF4784000F094F80134102CBAD119F89D
:104F9000014F0835002CA7D113B0BDE8F08F00BF3A
:104FA00025342E326600000063783A256420000024
:104FB00063793A256420000063773A256420000075
:104FC00063683A2564200000F0B581B0044640F2E1
:104FD0001400C2F20000056840F2F400C2F20000C2
:104FE000007801280ED140F20100C2F200000078E2
:104FF00006F022FE01460020CCF2582006F0D2FC3A
:10500000014616E040F2F500C2F2000000780128E7
:105010000ED140F20100C2F20000007806F00CFE52
:1050200001460020C4F2582006F0BCFC014600E016
:10503000002140F2F60040F24412C2F20000C2F237
:10504000000200781268012840F2F7001646C2F20A
:10505000000018BF002600780128284608BF164621
:1050600006F066FE0025C4F2C825294606F09AFC23
:1050700007463046214606F05BFE294606F092FCC4
:105080000146384606F0C6FB06F082FD01B0F0BDD1
:1050900080B5FDF7C5FB01F0C7FF0120FCF726FE38
:1050A0004FF44070FDF796F8BDE8804002F04CBE2A
:1050B00010B50446000A00F007F8E0B2BDE8104061
:1050C00000F002B8AFF30080B0B541F60004054629
:1050D0000221C4F201042046FCF7AAF92046082167
:1050E000FCF7A6F968B2B0F1FF3F04DD20462021AD
:1050F000FCF79EF903E020462021FCF79BF92046AF
:105100000821FCF797F920460821FCF791F9680679
:1051100004D420462021FCF78BF903E0204620210F
:10512000FCF788F920460821FCF784F9204608217D
:10513000FCF77EF9A80604D420462021FCF778F974
:1051400003E020462021FCF775F920460821FCF7F2
:1051500071F920460821FCF76BF9E80604D42046D3
:105160002021FCF765F903E020462021FCF762F9D5
:1051700020460821FCF75EF920460821FCF758F983
:10518000280704D420462021FCF752F903E02046EA
:105190002021FCF74FF920460821FCF74BF9204667
:1051A0000821FCF745F9680704D420462021FCF7C4
:1051B0003FF903E020462021FCF73CF92046082176
:1051C000FCF738F920460821FCF732F9A80704D487
:1051D00020462021FCF72CF903E020462021FCF793
:1051E00029F920460821FCF725F920460821FCF77B
:1051F0001FF9E80704D120462021FCF719F903E044
:1052000020462021FCF716F920460821FCF712F968
:1052100020460221BDE8B040FCF70CB92422002151
:105220000228C4F200020BD0042807D003284FF054
:10523000000018BF704702F5806201E002F50062CD
:10524000B2F900001180704770B58AB04FF4047055
:1052500001210125FCF7EAFF4FF40040FCF7C4FFF1
:1052600042F200440026042001A9C4F2010403967E
:10527000ADF80400A4F5A050FBF732FF2046FBF781
:1052800029FE4FF46020CDE90466069604A9CDE915
:10529000070620468DF82450FBF75EFE20460121CC
:1052A000FBF70EFE2046FBF7B5FE00BF2046FBF7DE
:1052B0004FFE0028FAD12046FBF7BCFE2046FBF744
:1052C00039FE0028FAD10AB070BD000010B584B0D4
:1052D00041F218000124C4F20200016841F01101FA
:1052E0000160012001F0E0FE10200121FCF79EFF8B
:1052F0004820ADF8044001A903900320029041F238
:105300000000C4F20100FBF7EBFE04B010BD00008A
:1053100010B500F0B3F941F600041021C4F2010405
:105320002046FCF785F8642001F092FE204610210B
:10533000FCF780F8642001F08BFE20464021FCF74A
:1053400079F8642001F084FE20460421FCF770F80F
:105350001120FFF7B9FE20460421FCF76BF87820F6
:1053600001F076FE20460421FCF762F83620FFF7B4
:10537000ABFE20460421FCF75DF80020FFF7A4FEF9
:1053800020460421FCF754F83A20FFF79DFE204602
:105390000421FCF74FF80520FFF796FE2046042174
:1053A000FCF746F8B220FFF78FFE20460421FCF7F9
:1053B00041F80C20FFF788FE0C20FFF785FE002047
:1053C000FFF782FE3320FFF77FFE3320FFF77CFEDE
:1053D00020460421FCF72CF8B720FFF775FE204685
:1053E0000421FCF727F83520FFF76EFE2046042144
:1053F000FCF71EF8BB20FFF767FE20460421FCF7F0
:1054000019F83220FFF760FE20460421FCF710F85F
:10541000C220FFF759FE20460421FCF70BF80120BB
:10542000FFF752FE20460421FCF702F8C320FFF7E5
:105430004BFE20460421FBF7FDFF1520FFF744FE3D
:1054400020460421FBF7F4FFC420FFF73DFE204671
:105450000421FBF7EFFF2020FFF736FE2046042152
:10546000FBF7E6FFC620FFF72FFE20460421FBF7DF
:10547000E1FF0F20FFF728FE20460421FBF7D8FFAD
:10548000D020FFF721FE20460421FBF7D3FFA42004
:10549000FFF71AFEA120FFF717FE20460421FBF7B5
:1054A000C7FFE020FFF710FE20460421FBF7C2FFF4
:1054B000D020FFF709FE0820FFF706FE0E20FFF7B9
:1054C00003FE0920FFF700FE0920FFF7FDFD052080
:1054D000FFF7FAFD3120FFF7F7FD3320FFF7F4FD6A
:1054E0004820FFF7F1FD1720FFF7EEFD1420FFF72E
:1054F000EBFD1520FFF7E8FD3120FFF7E5FD342037
:10550000FFF7E2FD20460421FBF792FFE120FFF7C1
:10551000DBFD20460421FBF78DFFD020FFF7D4FDF3
:105520000820FFF7D1FD0E20FFF7CEFD0920FFF781
:10553000CBFD0920FFF7C8FD1520FFF7C5FD312081
:10554000FFF7C2FD3320FFF7BFFD4820FFF7BCFD8A
:105550001720FFF7B9FD1420FFF7B6FD1520FFF760
:10556000B3FD3120FFF7B0FD3420FFF7ADFD20463D
:105570000421FBF75DFF2120FFF7A6FD2046042153
:10558000FBF758FF20460421FBF752FF2920FFF7C5
:105590009BFD20460421BDE81040FBF74BBF0000F7
:1055A000F0B58BB00120012401F07EFD082001211F
:1055B000FCF724FE45200121FCF738FE40200121A4
:1055C000FCF734FE102008AE03270A90ADF8204007
:1055D00040F6004431460997C4F2000404F58635CC
:1055E0002846FBF77DFD28460121FBF723FF042019
:1055F0000121FCF71BFE182031460A900F20ADF860
:10560000200004F57C400997FBF76AFD4FF47A709F
:1056100005A90690472005902046FDF783FE00204F
:1056200001ADADF80C0060202946C0F201000190E8
:105630002046FDF76DFD20460821FDF7A3FD20461D
:105640002946FDF7A5FD20460821FDF7DFFD204690
:105650002946FDF7E3FD20460821FDF71DFE204603
:105660002946FDF71FFE20460821FDF74BFE204688
:105670000121FDF7BDFB0BB0F0BD000070B584B09B
:1056800040200121FCF7D2FD41F600041026022043
:1056900001AD0396ADF804000320C4F201042946CD
:1056A00002902046FBF71CFD20460221FBF7C2FEBC
:1056B00028202946ADF804002046FBF711FD2046BE
:1056C0002821FBF7B7FE44202946ADF80400204608
:1056D000FBF706FD204648F22001FBF7ABFE204613
:1056E0002946ADF80460FBF7FBFC20461021FBF7D0
:1056F000A1FE04B070BD000040F29C11C2F2000196
:10570000086040F22C000021C2F2000001607047E6
:10571000B0B540F2001540F2A8120021C4F22225D3
:10572000C2F200022B681488002B08BF611C118094
:105730002A6842B940F2AA13C2F200031A78002A7A
:1057400004BF01221A7040F2AC1EC2F2000E9EF895
:10575000002002BB40F2AA1240F2A41CC2F20002D6
:10576000C2F2000C1278BCF80030012A05D10133D6
:1057700001228EF80020ACF800309AB2022A0AD139
:1057800040F2A6100021C2F20000ACF80010018027
:105790000221C8B2B0BD2A68012A07D140F2AA137B
:1057A0000022C2F200038EF800201A7040F2A41EFC
:1057B000C2F2000EBEF80020012A1EBF0021C8B2AE
:1057C000B0BD40F2A61C8BB2C2F2000C8342BCF802
:1057D000002002F10102ACF800200AD291B281420D
:1057E00007D900200121ACF80000AEF80000C8B2D3
:1057F000B0BD00218342C8B284BFACF80010AEF83F
:105800000010B0BDB0B584B070200121FCF70EFDD2
:10581000102041F6000401AD03904FF44160C4F242
:1058200001042946ADF8040003200290A4F580602D
:10583000FBF756FC4FF480502946ADF80400A4F560
:105840000060FBF74DFC4FF480602946ADF8040082
:105850002046FBF745FC20464FF48061FBF7EAFD4C
:1058600004B0B0BD2DE9F0418AB004464FF40030D9
:1058700001214FF00108FCF7C1FC20200121202567
:10588000FCF7D4FC08200121FBF79AFD032007AFA9
:105890000890ADF81C5044F2004518203946C4F277
:1058A0000005099005F550463046FBF719FC042029
:1058B000394609904020ADF81C003046FBF710FC3B
:1058C0004FF49370CDF81880ADF8140005A88DF84A
:1058D0001680FCF74FFC0020019401A90290ADF85E
:1058E00010004FF4402003902846FDF7E7FE2846BD
:1058F00040F225510122FDF7C9FE28460121FDF79E
:1059000041FE0AB0BDE8F081F0B587B004464FF41F
:1059100080200121FCF772FC20200121FCF786FC8D
:1059200030200121C0F21400FBF74AFD44F60005C7
:10593000032004AF05904FF48070C4F2000539468F
:10594000ADF81000182005F54C4606903046FBF7E0
:10595000C7FB0420394606904FF40070ADF81000E4
:105960003046FBF7BDFB0020009469460190ADF87E
:105970000C004FF4402002902846FDF79FFE284679
:105980000121FDF7FFFD07B0F0BD0000F0B587B0C5
:1059900004464FF400200121FCF730FC10200121C7
:1059A000FCF744FC44F60045032004AF05904FF497
:1059B0008060C4F200053946ADF81000182005F5E6
:1059C000444606903046FBF78BFB04203946069090
:1059D0004FF40060ADF810003046FBF781FB00206B
:1059E000009469460190ADF80C004FF440200290FD
:1059F0002846FDF763FE28460121FDF7C3FD07B0E9
:105A0000F0BD00002DE9F04140F62C480746C4F2F5
:105A10000008B8F8080006F00FF90446B8F80000CE
:105A200006F00AF90146204605F0BCFF0446B8F826
:105A30000C0006F001F90546B8F8000006F0FCF885
:105A40000146284605F0AEFF0546B8F8100006F0FE
:105A5000F3F80646B8F8000006F0EEF801463046C6
:105A600005F0A0FF0646C82F38BFBDE8F081B7F5A6
:105A70007A7F3CD0384605F03BFB0B4648F280412C
:105A800002460020C4F22E1105F02AF905F0ECFAC6
:105A9000A8F80000B8F8140000281EBFB8F80000ED
:105AA0004008A8F81400B8F8000006F0C5F8014650
:105AB000204606F03DF906F087F8A8F80800B8F887
:105AC000000006F0B9F80146284606F031F906F064
:105AD0007BF8A8F80C00B8F8000006F0ADF8014615
