:020000040800F2
:100000005806002045010008651F0008E516000895
:10001000611F0008350E0008CD39000800000000FF
:100020000000000000000000000000005701000870
:10003000D10E0008000000005B0100085D0100080F
:100040005F0100085F0100085F0100085F01000810
:100050005F0100085F0100085F0100085F01000800
:100060005F0100085F0100085F0100085F010008F0
:100070005F0100085F0100085F0100085F010008E0
:100080005F0100085F0100085F0100085F010008D0
:100090005F0100085F0100085F0100085F010008C0
:1000A0005F0100085F0100085F0100085F010008B0
:1000B0006D27000895270008A92700085F010008A0
:1000C0005F0100085F0100085F0100085F01000890
:1000D0005F0100085F010008193500085F01000892
:1000E0005F0100085F0100085F0100085F01000870
:1000F000BD2700085F0100085F0100085F010008DC
:100100005F0100085F0100085F0100085F0100084F
:100110005F0100085F0100085F0100085F0100083F
:100120005F0100085F0100085F0100085F0100082F
:10013000DFF80CD000F04EFD004800474580000875
:10014000580600200648804706480047FEE7FEE7BD
:10015000FEE7FEE7FEE7FEE7FEE7FEE7FEE7FEE777
:1001600015260008310100082DE9F0410024061B86
:10017000254671F1000605DA01240027D0EB0700BF
:1001800067EB0101161E73F1000605DA0027D2EBBA
:100190000702012567EB030300F0C6FB86460E4607
:1001A00017469C46AC4204D00025D0EB050E65EB0B
:1001B000010624B10020D2EB000760EB030C70466F
:1001C00031463A466346BDE8F08130B5044600202A
:1001D000034600E05B1C934203D2E05CCD5C401B15
:1001E000F8D030BDF0B480EA0102D40F4200B2EB87
:1001F000410F02D20246084611464A0042D0C30DC2
:10020000DDB2C1F3C752AD1A202D35DAC1F31601A4
:1002100041F4000204B15242C5F1200602FA06F18F
:100220002A411044B3EBD05F23D0C4B1012DA0EB21
:10023000C35009DCF0BC4FF0004202EAC352DBB20B
:1002400000F5000000F0DBBB400000F1807000EB27
:10025000C350A0F1807040EAD170490009E049081C
:1002600041EAC071A0EBC35000F50000400800EB6C
:10027000C350F0BC00F0BABB6142012202EB410165
:10028000001BF6E7F0BC704781F00041AAE780F060
:100290000040A7E780EA010210B502F000434000E9
:1002A00022D04A001FD0010E01EB1261C0F35600AC
:1002B000C2F3560240F4000042F40002A0FB022008
:1002C00000047F39140400D0401C50EA124001D4CD
:1002D0004000491EC2B20C0604EBD010401C40087E
:1002E000802A02D003E0002010BD20F00100002988
:1002F00000DA0020184310BD30B480EA010202F099
:10030000004530F0004221F0004013D090B1C30D01
:10031000D40DC2F31601C0F31600E41A41F4000133
:1003200040F400027D34914201D3641C00E0490096
:10033000002C02DA30BC002070474FF4000000238C
:10034000914201D3891A034340084FEA4101F7D192
:1003500051B1914202D14FF0004105E002D24FF07D
:10036000010101E06FF0010103EBC450284430BCEF
:1003700000F03CBB2DE9FE4F804681EA0300C00F30
:100380000C46009021F0004123F00045B8EB02003C
:10039000A94105D24046214690461C460B460246DE
:1003A00023F00040104347D0270DC7F30A00C3F3E2
:1003B0000A510290401A019040286BDAC3F31300EF
:1003C00040F4801B0098924620B10023D2EB030A30
:1003D00063EB0B0B01985946C0F14002504600F008
:1003E000D4FA06460D4650465946019A00F0ECFAFA
:1003F00010EB08006141002487EA115284EAE77398
:100400001A4340D0009A62B3019A012A4FEA075278
:1004100015DC001B61EB02014FF0004202EA0752BB
:10042000CDE90042001C41F5801132462B4600F018
:1004300023FB03B0BDE8F08F40462146F9E7001BDF
:1004400061EB0201001C41F5801300185B4120188C
:10045000A2F5001747EB030140EAD570B6196D41CC
:1004600011E06D084FEA360645EAC0754FEA0752BB
:10047000001B61EB0201001C41F5801149084FEAA5
:1004800030000019514132462B4603B0BDE8F04F11
:1004900000F0E3BA0098012240000023D0EB0202F2
:1004A00063EBE073009821464FEAE074B8EB00007C
:1004B00061EB0401E9E783F000435BE781F0004171
:1004C00058E72DE9FE4F81EA030404F0004421F0CF
:1004D000004100944FF0000B23F0004350EA010468
:1004E0005ED052EA03045BD0C3F30A54C1F30A5549
:1004F0002C44A4F2F3340194A0FB0254C1F3130181
:1005000041F48011C3F3130343F4801301FB02444D
:1005100000FB034E840A970A44EA815447EA835752
:10052000A4FB076802958D0A05FB07854FEA932C0B
:1005300004FB0C542705029D4FEA065847EA16377C
:10054000B5EB08056EEB070C870E920E47EA811794
:1005500042EA8312A7FB0201B6EB0B0164EB000435
:100560002B0D43EA0C335E1844EB1C50DA4651461F
:10057000E7FB0201C5F313044FEA0B3343EA1453BC
:100580004FEA0432019C43EA0603A4F10C040294EE
:10059000009CCDE900B400F06FFA03B0BDE8F08F25
:1005A00000200146F9E72DE9F04D81EA030404F04B
:1005B000004B21F0004514464FF0000A23F00041A3
:1005C00050EA050220D054EA01021DD0C5F30A57B3
:1005D0000246C5F31303C1F31300C1F30A5640F4F6
:1005E000801543F48013A7EB0608101BD64608F2CB
:1005F000FD3873EB050002D308F1010801E0921801
:100600005B41B8F1000F03DA00200146BDE8F08D30
:1006100000204FF48011064684460EE0171B73EB52
:10062000050705D3121B63EB050306434CEA010CD7
:1006300049084FEA300092185B4150EA0107EDD1BA
:1006400052EA030012D082EA040083EA050108435B
:1006500005D0101BAB4106D20122002306E0002288
:100660004FF0004302E06FF0010253101AEB060056
:100670004CEB085110EB0A0041EB0B01BDE8F04DCB
:1006800000F0EBB9002801DBC0F10040002901DBDC
:10069000C1F10041814201D801207047002070471C
:1006A000002801DBC0F10040002901DBC1F100415D
:1006B000814201D20120704700207047002801DBF1
:1006C000C0F10040002901DBC1F10041814201D3AA
:1006D0000120704700207047002801DBC0F1004076
:1006E000002901DBC1F10041814201D9012070479D
:1006F00000207047002801DBC0F10040002901DB29
:10070000C1F10041814201D10120704700207047B2
:1007100030B5041E71F1000404DB4FF00044404288
:1007200064EB0101141E73F1000405DB1C464FF05D
:100730000043524263EB0403801A994101D3012024
:1007400030BD002030BD30B5041E71F1000404DB63
:100750004FF00044404264EB0101141E73F10004A9
:1007600005DB1C464FF00043524263EB0403101AB2
:100770008B4101D3012030BD002030BDC10F80EA84
:10078000E0700844CA079623002100F038B9962388
:100790000022114600F033B90EB5C10F80EAE070B7
:1007A0000844CA07002140F233438DE80E000A4690
:1007B0000B4600F061F903B000BD0EB540F23341C5
:1007C00002910021CDE900110A460B4600F054F9D0
:1007D00003B000BD00F0004220F00040C10DC0F3A6
:1007E000160040F400007F2901DA002070479629A6
:1007F00003DCC1F19601C84001E096398840002A27
:10080000F4D04042704720F00040C10DC0F3160004
:1008100040F400007F2901DA00207047962903DCAC
:10082000C1F19601C840704796398840704770B54D
:10083000C1F30A5201F000450024C1F3130140F254
:10084000FF3341F480119A4201DA002070BD40F27A
:1008500033439A42A2F2334203DC524200F0A4F83E
:1008600000E090402C43F1D0404270BDC1F30A52E9
:1008700010B5C1F3130140F2FF3341F480119A42E5
:1008800001DA002010BD40F233439A42A2F2334213
:1008900003DC524200F088F810BD904010BD00F01B
:1008A000004230F000400AD0C10D01F56071C0F384
:1008B000160042EA0151C208400711437047002068
:1008C0000146704701F0004330B421F0004150EA86
:1008D000010206D00A0DA2F56072C1F31301002ACD
:1008E00002DC30BC00207047440F44EAC104C10060
:1008F000E01830BC00EBC25000F078B830B50B46C1
:10090000014600202022012409E021FA02F59D423F
:1009100005D303FA02F5491B04FA02F52844151E13
:10092000A2F10102F1DC30BD2DE9F05F05460020A7
:1009300092469B4688460646814640241BE0284650
:1009400041464746224600F02FF853465A46C01A01
:10095000914110D311461846224600F016F82D1A80
:1009600067EB01084F4622460120002100F00DF8F8
:1009700017EB00094E41201EA4F10104DFDC4846BC
:1009800031462A464346BDE8F09F202A04DB203A40
:1009900000FA02F1002070479140C2F1200320FAD2
:1009A00003F3194390407047202A04DB203A21FAD0
:1009B00002F00021704721FA02F3D040C2F1200278
:1009C0009140084319467047202A06DBCB17203A8E
:1009D00041FA02F043EAE07306E041FA02F3D04044
:1009E000C2F1200291400843194670470029A8BF70
:1009F0007047401C490008BF20F00100704710B448
:100A0000B0FA80FC00FA0CF050EA010404BF10BCFC
:100A1000704749B1CCF1200421FA04F411FA0CF129
:100A200018BF012121430843A3EB0C01CB1D4FEA62
:100A300000614FEA102042BF002010BC704700EB5D
:100A4000C35010440029A4BF10BC7047401C49008B
:100A500008BF20F0010010BC704710B5141E73F1E0
:100A6000000408DA401C41F1000192185B411A436E
:100A700001D120F0010010BD2DE9F04D92469B46BA
:100A800011B1B1FA81F202E0B0FA80F22032904660
:100A9000FFF77BFF04460F4640EA0A0041EA0B01DC
:100AA00053465A46084313D0114653EA010019D061
:100AB000C8F140025046FFF777FF05460E46504604
:100AC00059464246FFF761FF084305D0012004E084
:100AD00020463946BDE8F08D0020054346EAE07621
:100AE0002C4337430A986305E40AA0EB0800002270
:100AF000FD0A44EA47540A3002D500200146E9E7DE
:100B0000010510196941DDE9084500196941BDE891
:100B1000F04DA2E770B521F0004303430CD0C1F3C0
:100B20000A550024D5EB040564EB0403D617AD1A6F
:100B3000B34102DB0020014670BD201841EB025199
:100B400070BDC1F30A52C1F3130140F2FF3341F407
:100B500080119A4202DA00200146704740F2334386
:100B60009A42A2F2334202DC5242FFF71DBFFFF766
:100B70000CBF000030B5041E71F1000404DB4FF01F
:100B80000044404264EB0101141E73F1000405DBD4
:100B90001C464FF00043524263EB04038B4208BFF4
:100BA000824230BD30B5041E71F1000404DB4FF009
:100BB0000044404264EB0101141E73F1000405DBA4
:100BC0001C464FF00043524263EB0403994208BFB6
:100BD000904230BD064C074D06E0E06840F001034E
:100BE00094E8070098471034AC42F6D3FFF7A4FA14
:100BF000A4000108C4000108420005D0C0F3C75298
:100C00005242914201DC0020704700EBC150704716
:100C10002DE9F04D00231A461B1A8A4103DB002000
:100C20000146BDE8F08DC1F30A52C1F3130141F44E
:100C300080154FF0000BD10702D100186D41521EF4
:100C40000027044640F2FF11384601EB620A3E4697
:100C50008046024600204FF48011FFF7A5FEC2191E
:100C60007141BB1846EB0100B4EB030C75EB000CB3
:100C700004D3E41A65EB000517460E46241908F163
:100C800001006D4180463428E3DDF91946EB06008A
:100C9000091BA84103D24FF0FF32134601E00022A6
:100CA00013461BEB070046EB0A51BDE8F04DFFF77A
:100CB000D4BE00008268002942F0010308BF22F080
:100CC000010383607047000080B543F60041C4F221
:100CD0000101884214D042F60001C4F201018842A9
:100CE00016D042F20041C4F20101884218BF80BD13
:100CF0004FF40070012101F09FF94FF400700EE0F5
:100D00004FF40040012101F097F94FF4004006E054
:100D10004FF48060012101F08FF94FF480600021D1
:100D2000BDE8804001F088B98068C0F3800070475A
:100D3000C06C80B2704700000068084018BF0120F6
:100D4000704700008068C0F3C000704780B54FF660
:100D5000FF634268CFF6F07302EA030CD1E9003278
:100D600043EA0C0343EA02224FF2FD734260CFF6DE
:100D7000F173826802EA030ED1E902C30A6942EA0A
:100D80000E021A4342EA4C028260C26A097D0139AE
:100D900022F47002C9B242EA0151C16280BD000072
:100DA00010B501EB410C092988BFACF11E0C0929D3
:100DB00003FA0CFE4FF0070303FA0CFC4FF010038C
:100DC00088BF0C23062AC45824EA0C0444EA0E0403
:100DD000C45003D834306FF0040307E00C2A87BFF7
:100DE0002C306FF0400330306FF0220302EB8202B0
:100DF0001A441F23914003FA02F2036823EA020215
:100E00001143016010BD0000816841F0080181605C
:100E1000704700008268002942F4A00308BF22F452
:100E2000A003836070470000816841F00401816085
:100E300070470000FEE70000B0B50C464DF20A71A5
:100E4000C3F6A341FFF726FA054640F248002146C3
:100E5000C2F200000068FFF71DFA40F2900401465C
:100E6000C2F200042068FFF7BDF94EF24811C3F644
:100E70007A71FFF70FFA01462846FFF7B3F92060B1
:100E8000B0BD0000B0B50C464DF20A71C3F6A341E7
:100E9000FFF700FA054640F248002146C2F2000082
:100EA0000068FFF7F7F940F294040146C2F200042B
:100EB0002068FFF797F94EF24811C3F67A71FFF7F1
:100EC000E9F901462846FFF78DF92060B0BD000022
:100ED0007047000080B5D1F808E00EF00F0C1EF04E
:100EE000100F1CBF4B684CEA030C098811F0FF0F70
:100EF00000F0A4800368CA070BD023F00F02BEF1F4
:100F0000480F42EA0C0315D0BEF1280F01D101228F
:100F100042618A0712D523F0F002BEF1280F42EA9F
:100F20000C131CD0BEF1480F08D1022202614A07FF
:100F300006D418E0012202618A07ECD44A0712D5D0
:100F400023F47062BEF1280F42EA0C231CD0BEF1DC
:100F5000480F08D1042202610A0719D505E00222D0
:100F600042614A07ECD40A0712D523F47042BEF15D
:100F7000280F42EA0C331CD0BEF1480F08D10822DA
:100F80000261CA0606D418E0042242610A07ECD4C2
:100F9000CA0612D523F47022BEF1280F42EA0C4390
:100FA0001CD0BEF1480F08D1102202618A0619D563
:100FB00005E008224261CA06ECD48A0612D523F461
:100FC0007002BEF1280F42EA0C531CD0BEF1480F4C
:100FD00008D1202202614A0606D418E0102242619C
:100FE0008A06ECD44A0612D523F07062BEF1280FAF
:100FF00042EA0C631AD0BEF1480F08D140220261C8
:101000000A061AD505E0202242614A06ECD40A06F7
:1010100013D523F07042BEF1280F42EA0C730AD0B8
:10102000BEF1480F09D18022026106E040224261F0
:101030000A06EED401E0802242610360B1F5807FB0
:1010400038BF80BD4368CA050CD523F00F02BEF13E
:10105000480F42EA0C0317D0BEF1280F02D14FF41B
:10106000807242618A0514D523F0F002BEF1280F88
:1010700042EA0C131FD0BEF1480F0AD14FF40072A0
:1010800002614A0507D41BE04FF4807202618A05B1
:10109000EAD44A0514D523F47062BEF1280F42EA5F
:1010A0000C231FD0BEF1480F0AD14FF480620261B9
:1010B0000A051CD506E04FF4007242614A05EAD4E5
:1010C0000A0514D523F47042BEF1280F42EA0C330E
:1010D0001FD0BEF1480F0AD14FF400620261CA046A
:1010E00007D41BE04FF4806242610A05EAD4CA04C7
:1010F00014D523F47022BEF1280F42EA0C431FD00E
:10110000BEF1480F0AD14FF4805202618A041CD507
:1011100006E04FF400624261CA04EAD48A0414D59E
:1011200023F47002BEF1280F42EA0C531FD0BEF127
:10113000480F0AD14FF4005202614A0407D41BE061
:101140004FF4805242618A04EAD44A0414D523F051
:101150007062BEF1280F42EA0C631ED0BEF1480F48
:101160000AD14FF48042026109041BD506E04FF416
:10117000005242614A04EAD4090413D523F07041B5
:10118000BEF1280F41EA0C730ED0BEF1480F09D111
:101190004FF400410161436080BD4FF480424261E1
:1011A0000904EBD4436080BD4FF4004141614360CA
:1011B00080BD000010B50422002800F440141FFA7E
:1011C00080FCC4F201021346B8BF43F01803B4F523
:1011D000401F1B68C0F3034E07D1146823F07063EF
:1011E00024F07064146081B916E0C40206D447F696
:1011F000F07404EA50440CFA04F402E0032404FA04
:101200000EF4A34343F0706331B147F6F07101EA85
:1012100050410CFA01F10B430028B8BF183213609B
:1012200010BD000041617047016170472DE9F04F2A
:1012300087B0054600F0E4FD40F22411012DC2F212
:101240000001086012D140F2F40440F2101040F2A4
:101250004812C2F20004C2F20000C2F200022146AB
:1012600006F070FF60B107B0BDE8F08F0DF10E031E
:1012700069203B210E2200F043FF00286DD091E051
:101280000DF10E0369203B21062200F039FFD0B991
:10129000BDF80E0040F22421C2F2000100BA000C99
:1012A0000880BDF8100040F22621C2F2000100BA09
:1012B000000C0880BDF8120040F22821C2F20001A3
:1012C00000BA000C08800DF10E03692043210622AC
:1012D00000F016FFD0B9BDF80E0040F24C21C2F26A
:1012E000000100BA000C0880BDF8100040F24E2149
:1012F000C2F2000100BA000C0880BDF8120040F2F2
:101300005021C2F2000100BA000C088040F27C01BA
:101310002068C2F20001086040F24621C2F20001DA
:10132000B1F90000B1F90440FFF728FA40F2BC011E
:10133000C2F2000108602046FFF720FA40F2C00127
:10134000C2F20001086040F22A20C2F20000B0F9A7
:101350000400FFF713FA804692E0BDF80E00C0BA11
:10136000FFF70CFA0290BDF81000C0BAFFF706FABA
:101370008246BDF81200C0BAFFF700FA8046BDF8F9
:101380001600C0BAFFF7FAF90646BDF81A00C0BA4F
:10139000FFF7F4F90190BDF81800C0BAFFF7EEF9B5
:1013A000FFF77DFA40F2BC0246F26664C2F2000228
:1013B000C4F2300416604FF066322346FFF7F3F8AC
:1013C000FFF780FA83463046FFF769FA4FF066323E
:1013D0002346FFF7E8F8FFF775FA81465046414685
:1013E00009F094FB0024C4F234342146FEF752FF86
:1013F00040F6DB76C4F249063146FEF77DFF07462C
:101400000298414609F082FB2146FEF743FF314630
:10141000FEF772FF0446032D10D0022D019D20D14E
:101420003846494600F070FB40F2F401C2F2000178
:1014300008602046594600F025FC0DE03846494634
:10144000FFF7FAFC40F2F401C2F200010860204606
:101450005946FFF717FD019D40F21011C2F200013D
:10146000086040F2C00040F27C01C2F20000C2F20B
:101470000001056040F2F400C2F20000006808605C
:1014800040F27800C2F20000C0F8008007B0BDE86A
:10149000F08F00002DE9F04742F6040CC4F2000C76
:1014A000BCF8001011F0080F00F00C81BCF814100B
:1014B000BCF8182042EA014944F20751CCF22E212F
:1014C000A9FB011240F282114FEA124EC2F2000152
:1014D0000B88B3EB124F08D140F26011C2F2000149
:1014E0008D7891F803A009887BE0A1F800E043F231
:1014F0008031C0F2E111894529D348F21F544FF6DB
:10150000926840F2B2714FF0640A4FF4C8767346A5
:10151000C5F2EB14CFF6FF7811F0030F0AD18AB2AF
:10152000A2FB0457FD0905FB16255DB17D0905FBEE
:101530001A223AB96FF4B67213440131B3F5B67F8B
:10154000EAD807E0B3F5B77F4246F5D202E040F2B1
:10155000B271734640F260181C2BC2F20008A8F862
:10156000001034D348F21F548AB264264FF6F67A3C
:1015700001F00307C5F2EB14C0F6000AA2FB044514
:101580006C09ED0904FB16244FF4C87605FB1622FE
:10159000002C4FF00005B2FA82F218BF0124520964
:1015A00044EA0206AAB24FB9541EB4FA84F464099C
:1015B000344003D01D2B0CD31D3B04E01AF802204D
:1015C000934207D39B1A01351B2BEBD802E0002571
:1015D00000E0012503F1010A013588F803A088F82D
:1015E000025040F2A3224FF4616489B20EFB02F272
:1015F000A9EBC2174BF2C532C9F2A212A7FB022611
:1016000040F26012F60AC2F2000206FB147756712D
:1016100048F68906C8F68806A7FB0664660996712F
:101620003601A6EB54166424A7EB8607D77148F25F
:101630001F57C5F2EB17A1FB0776FC2707EA5617E1
:10164000760906FB1411132F44F6251688BF643162
:10165000C2F2924601EB910711F0030FA7FB06437C
:10166000A7EB030403EB54034FEA93044FEAC404CB
:10167000A4EB93035FFA8AF4A7EB0303EFB24AF6F5
:101680000C75C0F600053D4415F8015C25442B445B
:101690004FF6FF75194608BF2944032F28BF194686
:1016A00089B2A1FB0637CB1B07EB53039F08FF0052
:1016B000A7EB9303C91A1171BCF8001021F00801BF
:1016C000ACF8001040F26011C2F2000191E88C0009
:1016D000D1E90365496980E88C00C0E9036541618F
:1016E000BDE8F087FEE70000022005F09BBD00008A
:1016F00010B584B008200121012400F091FC1020D5
:1017000001A903904FF44060ADF80400032002905B
:1017100040F60040C4F20100FFF7DCFB48F2A810DD
:10172000C4F221200460446004B010BD2DE9F04FE4
:1017300083B040F60441029048F2A8154FF0000B28
:10174000C4F20101C4F22125086820F47040086049
:10175000086840F40040086000202860022005F07E
:1017600061FD01262E6055F87C0C0190012005F0EA
:1017700059FD0220C5F800B005F054FD2E6001208F
:1017800055F87C7C05F04EFD0220C5F800B005F050
:1017900049FD2E60012055F87C4C05F043FD0220E8
:1017A000C5F800B005F03EFD2E60012055F87C8C98
:1017B00005F038FD0220C5F800B005F033FD2E60BD
:1017C000012055F87C9C05F02DFD0220C5F800B0E5
:1017D00005F028FD2E60012055F87CAC05F022FDB7
:1017E0000220C5F800B005F01DFD2E60012055F85F
:1017F0007CBC05F017FD00202860022005F012FDDA
:101800002E60012055F87C6C05F00CFD40F604427A
:1018100000212960C4F20102106820F470401060B9
:10182000106840F4405010600198002818BF012053
:10183000002F18BF0127002C18BF012447EA4000E1
:10184000B8F1000F18BF4FF0010844EA4000B9F1A9
:10185000000F18BF4FF0010948EA4000BAF1000F2D
:1018600018BF4FF0010A49EA4000BBF1000F18BF52
:101870004FF0010B4AEA4000002E4BEA400018BF2F
:10188000012646EA4004029848B10220696005F04A
:10189000C9FC01202860022005F0C4FC08E00126F4
:1018A00002206E6005F0BEFC02202E6005F0BAFC3E
:1018B00000202860E0B203B0BDE8F08FF0B581B041
:1018C000044640F6044048F2A8150026C4F2010080
:1018D000C4F22125016821F470410160016841F4DE
:1018E00040510160E0092E606860022005F09AFC1A
:1018F000012702202F6005F095FC02202E6005F0E4
:1019000091FCC4F380106860022005F08BFC02207B
:101910002F6005F087FC02202E6005F083FCC4F3E5
:1019200040106860022005F07DFC02202F6005F069
:1019300079FC02202E6005F075FCC4F3001068608D
:10194000022005F06FFC02202F6005F06BFC0220E6
:101950002E6005F067FCC4F3C0006860022005F04B
:1019600061FC02202F6005F05DFC02202E6005F076
:1019700059FCC4F380006860022005F053FC02208B
:101980002F6005F04FFC02202E6005F04BFCC4F3E5
:1019900040006860022005F045FC02202F6005F041
:1019A00041FC02202E6005F03DFC04F0010068605F
:1019B000022005F037FC02202F6005F033FC2E607A
:1019C000022001B0BDE8F04005F02CBCB0B540F6F7
:1019D000044048F2A814C4F20100C4F221240168B2
:1019E00021F470410160016841F44051016001201F
:1019F00060602060042005F015FC0025042065606F
:101A000005F010FC2560B0BD10B540F6044048F26A
:101A1000A814C4F20100C4F22124016821F4704129
:101A20000160016841F44051016000202060606065
:101A3000042005F0F7FB0120206060600420BDE871
:101A4000104005F0EFBB000070B540F6044448F2CA
:101A50002C150126C4F20104C4F22125206820F4CB
:101A600070402060206840F4004020600120C5F8EC
:101A7000806005F0D7FB0120EE6705F0D3FB2868F6
:101A800088B10020296871B1296861B140F0020174
:101A9000C9B2F9290BD82A682AB1F92907D82968C7
:101AA00004300029EED100242046EC6770BD206888
:101AB00020F470402060206840F4405020600020F6
:101AC000E867C5F88000042005F0ACFB0124042081
:101AD000EC67C5F8804005F0A5FB204670BD00000E
:101AE00041F21801C4F202010A6842F001020A60E0
:101AF0000421C4F201010A6822F0E0620A600A6867
:101B000042EA4060086070472DE9F04F83B0CDE9AC
:101B1000011040F2C400C2F20000076841F26F20D9
:101B2000C3F683203946FEF7AFFB40F2C801C2F28C
:101B300000010C682146FEF7A7FB014640F2480071
:101B4000C2F20000D0F800B05846FEF7A3FB40F206
:101B50000C09C2F20009D9F80010FEF743FB4FF060
:101B60007C510546FEF73EFB804628464146FEF77F
:101B7000C3FB294606460090FEF78CFB014628462B
:101B8000FEF782FBC9F8000040F210005946C2F28D
:101B90000000D0F800A05046FEF77CFB8146384696
:101BA0004946FEF771FB074630463946FEF772FBA1
:101BB00001463846FEF768FB40F2C401C2F200015C
:101BC000086020464946FEF75FFB41460646FEF7A1
:101BD00093FB29460446FEF75DFB01463046FEF7BF
:101BE00053FB40F2C801C2F20001086049F6A63179
:101BF0005846C3F64431FEF74DFB5146FEF7F2FA64
:101C0000054620463946FEF745FB01462846FEF7C5
:101C10003BFB40F2CC0840F21001C2F20008C2F2D5
:101C20000001D8F80050086001982946FEF72CFB07
:101C30005946FEF72FFB40F2D0090146C2F20009D7
:101C4000D9F80000FEF7CEFA064602983146FEF7B4
:101C50001BFB00990746FEF71DFB01463046FEF7C9
:101C6000C1FA0646C9F8000038462146FEF712FBC5
:101C700001462846FEF7B6FAC8F80000304603B021
:101C8000BDE8F08F2DE9F04F83B0CDE9011040F2AF
:101C9000D400C2F20000076841F26F20C3F683202F
:101CA0003946FEF7F1FA40F2D801C2F200010C68A1
:101CB0002146FEF7E9FA014640F24800C2F2000070
:101CC000D0F800B05846FEF7E5FA40F21409C2F227
:101CD0000009D9F80010FEF785FA4FF07C5105464F
:101CE000FEF780FA804628464146FEF705FB294666
:101CF00006460090FEF7CEFA01462846FEF7C4FAE3
:101D0000C9F8000040F218005946C2F20000D0F8AD
:101D100000A05046FEF7BEFA814638464946FEF717
:101D2000B3FA074630463946FEF7B4FA014638465C
:101D3000FEF7AAFA40F2D401C2F200010860204680
:101D40004946FEF7A1FA41460646FEF7D5FA29466E
:101D50000446FEF79FFA01463046FEF795FA40F238
:101D6000D801C2F20001086049F6A6315846C3F610
:101D70004431FEF78FFA5146FEF734FA0546204605
:101D80003946FEF787FA01462846FEF77DFA40F20B
:101D9000DC0840F21801C2F20008C2F20001D8F8D3
:101DA0000050086001982946FEF76EFA5946FEF782
:101DB00071FA40F2E0090146C2F20009D9F80000C8
:101DC000FEF710FA064602983146FEF75DFA0099D2
:101DD0000746FEF75FFA01463046FEF703FA06466D
:101DE000C9F8000038462146FEF754FA0146284655
:101DF000FEF7F8F9C8F80000304603B0BDE8F08FF0
:101E0000B0B5FFF7E3FDD220FFF758FDFFF71CFE4A
:101E10004120FFF753FDFFF717FEFFF7D7FDD32053
:101E2000FFF74CFDFFF710FE0020FFF77FFC044694
:101E3000FFF7EAFDFFF7CAFDD220FFF73FFDFFF7EE
:101E400003FE4220FFF73AFDFFF7FEFDFFF7BEFD60
:101E5000D320FFF733FDFFF7F7FD0020FFF766FC07
:101E600040EA04242046FEF789FC00210546CCF216
:101E70008071FEF7B7F90021B4F5004F98BF2846EE
:101E8000C4F2AA31FEF738FAFEF709FD47F2A402C0
:101E900044F2D733C0F63D22C4F24203FEF76AFA99
:101EA00000230022C4F22403FEF70BFBFEF70AFD19
:101EB000FEF790FC0446FFF7A7FD2046B0BD0000EA
:101EC00080B5FFF715FC6B20802101F081FD6420B7
:101ED00005F07CF96B20002101F07AFD1B20182110
:101EE00001F076FD1C20102101F072FD1920012166
:101EF00001F06EFD1A20012101F06AFD3820002159
:101F000001F066FD6A20002101F062FD232000211E
:101F100001F05EFD3720802101F05AFDFFF756FDEC
:101F2000D220FFF7CBFCFFF78FFD7520FFF7C6FC33
:101F3000FFF78AFDFFF74AFDD320FFF7BFFCFFF74D
:101F400083FD0020FFF7F2FBFFF75EFD6B2003210E
:101F500001F03EFD6C20002101F03AFD002080BD23
:101F6000FEE700007047000042684EF20011CEF21A
:101F70000001EAB110B54EF60C520723CEF2000272
:101F8000126890F801E0847890F800C023EA1222E9
:101F90000F23D340C2F1040223400EFA02F21A4387
:101FA00001EB0C03120183F80023BDE8104000E0B0
:101FB00080310078012300F01F02C0F3421003FAC1
:101FC00002F241F82020704740F080604EF60C513C
:101FD00040F0FD70CEF200010860704741F204014C
:101FE000C4F202010A6822F44042104308607047BC
:101FF00041F21C020029C4F2020211680CBF21EA5E
:10200000000008431060704741F210020029C4F23A
:10201000020211680CBF21EA0000084310607047FB
:1020200041F218020029C4F2020211680CBF21EA31
:10203000000008431060704741F20C020029C4F20E
:10204000020211680CBF21EA0000084310607047CB
:1020500080B541F2040EC4F2020EDEF8002002F058
:102060000C0341F20022C0F27A02082B1FD1DEF8E5
:102070000030C3F3834303F1020CDEF8003013F4A5
:10208000803F06D140F60012C0F23D020CFB02F286
:102090000DE0DEF8003013F4003F02D10CFB02F239
:1020A00005E040F60012C0F23D020CFB02F20260B5
:1020B0004AF6FC61DEF80030C0F60001C3F30313FA
:1020C000CB5CDA404260DEF80030C3F30223CB5C25
:1020D00022FA03F38360DEF80030C3F3C223C95C45
:1020E0004AF6F863C0F6000322FA01F1C160DEF897
:1020F0000020C2F381329A5CB1FBF2F1016180BD34
:102100002DE9F04F81B040F6044A074648F2A8197D
:1021100001261C4615468846C4F2010AC4F221294C
:10212000DAF8000020F47040CAF80000DAF8000085
:1021300040F44050CAF800000420C9F80460C9F80F
:10214000006005F06FF84FF0000B0420C9F804B0F0
:1021500005F068F87F00C9F800B0F8B2FFF7AEFBF1
:10216000FFF772FCD0B1DAF8000020F47040CAF832
:102170000000DAF8000040F44050CAF800000420E3
:10218000C9F800B0C9F804B005F04CF80420C9F84B
:102190000060C9F8046005F045F851E04046FFF7DB
:1021A0008DFBFFF751FCDAF8000020F47040CAF80C
:1021B0000000DAF8000040F44050CAF800000420A3
:1021C000C9F80460C9F8006005F02CF80420C9F8CB
:1021D00004B005F027F847F00100C9F800B0C0B21C
:1021E000FFF76CFBFFF730FC05E000BFFFF79EFA3E
:1021F00004F8010B013DE8B2012803D020B1012011
:10220000F4E700BF0020F1E7DAF80000002620F430
:102210007040CAF80000DAF8000040F44050CAF8F4
:1022200000000420C9F80060C9F8046004F0FAFF57
:102230000120C9F80000C9F80400042004F0F2FFEE
:10224000304601B0BDE8F08F41F2240CC4F2020C1C
:102250005CF8080C40F080504CF8080C5CF8080C56
:1022600040F000604CF8080CDCF8000040F0010081
:10227000CCF80000DCF8000010F0020F0ED1DCF802
:10228000000010F0020F09D1DCF8000010F0020F7E
:1022900004D1DCF8000010F0020FEBD02DE9F04F74
:1022A00042F6040943F28038C4F20009C0F2E11892
:1022B000B9F81400B9F8181041EA004044F2075187
:1022C000CCF22E21A0FB012140F2A812C2F20002A2
:1022D0001388B3EB114F40F01E814FF4884039F85A
:1022E000000047F20001C4F20001086840F4807069
:1022F00008605CF8040C40F480304CF8040C5CF886
:10230000040C20F480304CF8040CDCF8000040F0A1
:102310000100CCF8000000BFDCF8000010F0020F54
:102320000ED1DCF8000010F0020F09D1DCF800003B
:1023300010F0020F04D1DCF8000010F0020FEBD017
:10234000DCF8000040F08070CCF800005CF8040C71
:1023500040F400704CF8040C5CF8040C40F40040AD
:102360004CF8040CB9F8000010F0200F0ED1B9F8A9
:10237000000010F0200F09D1B9F8000010F0200F74
:1023800004D1B9F8000010F0200FEBD0B9F800002C
:1023900010F0080F0ED1B9F8000010F0080F09D1A5
:1023A000B9F8000010F0080F04D1B9F8000010F0DF
:1023B000080FEBD0B9F8000010F0200F0ED1B9F8DB
:1023C000000010F0200F09D1B9F8000010F0200F24
:1023D00004D1B9F8000010F0200FEBD0B9F80000DC
:1023E00048F21F5A48F20053002140F2B4764FF0F1
:1023F000640B4FF4C8720027C5F2EB1AC0F2E21367
:1024000040F01000A9F8000047F6FF70A9F804108A
:10241000A9F8080040F2B470A0FB0A544744043005
:1024200065094744E40905FB1B6507EB030E04FB44
:1024300012648D42754608BF07EB08058C42A1F176
:10244000040108BF754605EB080711F13405E3D117
:102450005CF8080C40F080504CF8080C5CF8080C54
:1024600040F000604CF8080C47F20000C4F2000095
:102470000146006840F480700860B9F8000040F040
:102480001000A9F8000046F27A10C0F2DC103844BF
:10249000A9F81800000CA9F81400B9F8000020F001
:1024A0001000A9F8000000BFB9F8000010F0200FDC
:1024B0000ED1B9F8000010F0200F09D1B9F80000D2
:1024C00010F0200F04D1B9F8000010F0200FEBD06D
:1024D000B9F8000020F01000A9F80000B9F80000D9
:1024E00010F0200F0ED1B9F8000010F0200F09D124
:1024F000B9F8000010F0200F04D1B9F8000010F076
:10250000200FEBD04FF4884045F2500129F800101D
:102510000020BDE8F08F0B0CA8F101018842138068
:102520005CD948F21F5E4FF6926640F2B2716424A5
:102530004FF4C875C5F2EB1ECFF6FF7611F0030F0E
:102540000AD188B2A0FB0E72D70907FB15075FB14D
:10255000520902FB140038B96FF4B670034401311C
:10256000B3F5B67FEAD803E0B3F5B77F3046F5D2CE
:102570001C2B37D348F21F5288B264264FF6F674EC
:1025800001F003050021C5F2EB12C0F60004A0FB28
:1025900002277A09FF0902FB16024FF4C87607FBEF
:1025A0001600002AB0FA80F018BF0122400942EA62
:1025B000000600BF88B24DB9421EB2FA82F252093B
:1025C000324003D01D2B0FD31D3B03E0205C834220
:1025D0000BD31B1A01311B2BECD806E040F2B27171
:1025E0001C2BC7D2002100E001214FF48840DAB251
:1025F00039F80000FF2A3FF474AEC9B2FF293FF456
:1026000070AE45F2500188427FF46BAE0020BDE809
:10261000F08F000082B041F204000022C4F20200F8
:10262000CFF6FF0250F8041C41F0010140F8041CF1
:10263000016811404FF6FF720160CFF6F66250F864
:10264000041C114040F8041C50F8041C21F48021A3
:1026500040F8041C016821F4FE0101604FF41F01E1
:10266000416000210191009150F8041C41F4803137
:1026700040F8041C50F8041C01F400310091019949
:1026800001310191009919B90199B1F5A06FF1D10A
:1026900050F8041C11F4003F0CBF002101210091EF
:1026A0000099012958D1D0F8FC1F41F01001C0F861
:1026B000FC1FD0F8FC1F21F00301C0F8FC1FD0F86C
:1026C000FC1F41F00201C0F8FC1F016801600168B5
:1026D0000160016841F480610160016821F47C11AE
:1026E0000160016841F4E811016050F8041C41F0F8
:1026F000807140F8041C00BF50F8041C11F0007FEA
:102700000ED150F8041C11F0007F09D150F8041CC0
:1027100011F0007F04D150F8041C11F0007FEBD0C1
:10272000016821F003010160016841F002010160CC
:10273000016801F00C0108290ED0016801F00C01BC
:10274000082909D0016801F00C01082904D00168AA
:1027500001F00C010829EBD14EF608504FF0006152
:10276000CEF20000016002B0704700001020C4F2F9
:102770000000018811F0010F06D040F28011C2F272
:1027800000010A8801320A8000210180BFF34F8FC7
:102790007047000040F21040C4F200000188018838
:1027A00021F001010180704740F61000C4F20000E2
:1027B0000188018821F00101018070472DE9F04F67
:1027C00081B042F600460121C4F2010606F500651B
:1027D000284600F0DBFB012840F08A8328460121CF
:1027E00000F09EFB04F042F8002800F0818340F2E4
:1027F0003C00C2F200000078FEF718FD042002F051
:10280000E7FD40F2A40A4042C2F2000ACAF8000002
:10281000032002F0DDFD40F2A80B4042C2F2000BA3
:10282000CBF80000322003F04DF8012811D140F21E
:102830008400C2F200000178002900F0A68040F276
:1028400028010022C2F20001C4F2A0120A60002195
:10285000017040F20500C2F20000007800280CBFB1
:102860006420002004F03EFC40F29800C2F2000018
:10287000017829B140F22C000022C2F2000002705F
:1028800040F22400C2F20000026840F29C00C2F252
:102890000000036893421CD171B340F20D11C2F2E3
:1028A00000010978E1B940F20401C2F2000109789F
:1028B000002900F0208340F22C0100220123C2F203
:1028C000000102600A7040F20C11C2F200010B70AC
:1028D00012E089B140F20D10C2F20000007858B148
:1028E00040F20C100121C2F20000017040F22C00F5
:1028F0000021C2F20000017040F2F000C2F20000BC
:10290000017889B140F2EC0140F21C03C2F20003ED
:10291000C2F200010A681B689A4203DD00220270BD
:102920000A6001E0501C086040F20C10C2F2000086
:10293000017800295ED040F21C11C2F200010A6841
:102940000132AA2A0A6055D10022027040F22C00FE
:102950000A6040F22801C2F20000C2F200010270D7
:1029600040F20D100A60C2F200000078B8B140F2E7
:102970002810C2F200000068012865D140F236102C
:102980000121C2F20000017034E040F20501C2F200
:1029900000010878B0FA80F0400908705EE740F264
:1029A0000400C2F20000007820B340F20800C2F236
:1029B000000000680228E1D001281BD140F2351048
:1029C0000021C2F20000017040F2B8000121C2F201
:1029D0000000017040F248100021C2F20000C4F271
:1029E000B4210068FDF7FEFB40F22011C2F20001A5
:1029F000086022E040F23510C2F200000178F1B325
:102A00000021017040F2B8000121C2F20000017003
:102A100040F248100021C2F20000C4F2B421006864
:102A2000FDF7E0FB40F22011C2F20001086040F225
:102A30000D10C2F20000007808BB40F228100121FE
:102A4000C2F2000001601AE040F235100021C2F22B
:102A50000000017040F2B8000121C2F200000170D4
:102A600040F248100021C2F20000C4F2B421006814
:102A7000FDF7B8FB40F22011C2F20001086040F2FD
:102A80003610C2F20000017811B30021017040F24B
:102A9000B9000121C2F20000017040F2481000218B
:102AA000C2F20000CCF2B4210068FDF79BFB40F2BB
:102AB0002011C2F20001086040F20D10C2F20000C5
:102AC000007828B940F228100221C2F2000001600B
:102AD00040F2341040F2B01848F29017C2F20000F1
:102AE000C4F22228C4F22227017841B340F28001C7
:102AF000C2F200010A680132322A0A601FD140F294
:102B000028020023C2F20002037040F2B8000B60FA
:102B100000211360C2F200000122C4F234310270BD
:102B200040F24810C2F2000005682846FDF75AFB43
:102B3000014640F22010C2F20000016017E040F2AE
:102B4000B800C2F200000078012806D040F2B900B7
:102B5000C2F200000078012846D140F22010C2F2F3
:102B60000000016840F24810C2F2000005682846E3
:102B7000FDF78AFBFDF72EFE002848BF40420928DA
:102B800032DC40F2B900002401250021C2F200002D
:102B9000047040F2B800C2F20000047040F22C1041
:102BA000C2F2000004603046FD61BC6100F04EFCE2
:102BB000304600213D60C8F8004000F049FC40F27A
:102BC0002C000021C2F20000C4F2A011057040F2F6
:102BD0002800C2F20000016040F28401C2F200014C
:102BE0000978002918BF0460DBF80010DAF800004B
:102BF00003F0E0FDDBF80010DAF8000003F050FE0F
:102C000040F23C14C2F20004206040F2C000C2F264
:102C10000000006802F0B2FA40F21815C2F2000596
:102C2000286040F22C10C2F20000006804F076FA2E
:102C300040F230112B6840F2E40640F2E807C2F29D
:102C40000001C2F20006C2F20007086021680A18FB
:102C5000081AD21A18443260386003F0EDFB4EF2C5
:102C60000C55D6F8009040F24412009041F6F4243E
:102C700041F6F4280146CFF6FF75C2F2000240F299
:102C80007C01A945106040F2AA12C2F20001D8BF2F
:102C9000A946C2F20002A145B8BFC8463868C6F8C6
:102CA0000080A842C8BF0546A542B8BF2C46108880
:102CB000DBF80030DAF80060D1F800B03C600228A0
:102CC00051D040F278010128C2F20001D1F800A0F1
:102CD0001AD0002868D1002E3046194648BF7042ED
:102CE000002B48BF594208441E2857DA40F2AC1066
:102CF000C2F2000001880131018089B20B2953D34F
:102D0000002101800120108040F2AE101F46C2F267
:102D1000000001880131018089B2C92922BF002148
:102D20001180018058460021C4F2B011FDF7C6FCA5
:102D300000283B4638D142F200015046C4F2CB6134
:102D4000FDF7A0FC3B4678BB00215846CCF2901121
:102D5000FDF798FC40F2AA123B460028C2F200029E
:102D600022D10220108040F2B010C2F2000001888F
:102D70000131018089B2C92922BF0021118001805F
:102D8000981948BF404247280EDB40F20500012752
:102D9000C2F200000770002010800BE040F2AC107F
:102DA0000021C2F20000018040F20500C2F20000E2
:102DB0000778DFB3B24640F2B416C2F200063078AC
:102DC000C0B958464FF041411E46FDF75BFC70BB51
:102DD00000215846C4F24011FDF754FC002804BFFE
:102DE000334656EA0A0022D140F2B4160120C2F25C
:102DF0000006307040F2B810C2F2000001684A1CB0
:102E000032290260A2BF002131700160AAF10401E1
:102E100023290CD8191F232909D80027076040F25D
:102E200005003770C2F20000077000E000270021A3
:102E30005846CCF22021FDF733FC00284AD100216E
:102E40005846C4F22021FDF747FC002842D10099E2
:102E500040F2924081423DDB012F3BD048F290117D
:102E6000B9F1010F4FF0000042F600474FF00006A5
:102E7000B8BF0120C4F22221B9F1000FC4F201074A
:102E8000C8614FF000008946C8BF0120B8F1000FAB
:102E9000886148BFC8F1000838461FFA88F100F081
:102EA000D5FA012D4FF00000B8BF0120002DC9F860
:102EB000000040F2B010C8BF0126002CC4F222204E
:102EC000066048BF64423846A1B201B0BDE8F04F89
:102ED00000F0BEBA48F290110020C4F222210A4646
:102EE000086040F2B011C4F222210860D061906104
:102EF00001B0BDE8F08F40F205000121C2F20000F0
:102F0000F9E400000288002942F0800308BF22F0A3
:102F10008003038070470000C943018270470000AE
:102F2000C9430182704700000288002942F0010372
:102F300008BF22F00103038070470000B0F844206E
:102F4000002913466FF3DF3318BF42F40043A0F8A3
:102F50004430704780B5B0F808C02CF0070C41EA47
:102F60000C01B0F818C0B0F820E001814FF6FC4128
:102F70000CEA010C40F2011141EA0C01018342EA22
:102F800003112EF022021143018480BD008A084003
:102F900018BF01207047000070B50B88042B2AD0A1
:102FA000002B56D1B1F802C00A898B88068C40F6F6
:102FB000FF354FF6FC74C4F2000526F0010643EA23
:102FC00002130246A842068432F8186FB0F820E0D7
:102FD00026F0F30643EA06036DDCB0F1804F7DD0A6
:102FE00040F20045C4F20005A84277D040F6000543
:102FF000C4F200056FE00E894B888A88058C40F684
:10300000FF44360325F0100546EA022605840246F1
:1030100032F8185FB0F820E0254046EA050C40F68B
:10302000FF356FF00306C4F20005A6F1AD04A84217
:1030300062DCB0F1804F71D040F20045C4F200056F
:10304000A8426BD040F60005C4F20005A84265D046
:1030500068E00A898C884E88058C082B71D125F48C
:103060008073038444EA0213024632F81C5FB0F80E
:1030700020E025F0F30543EA050C6FF4405303F517
:10308000145440F6FF33C4F20003984200F38180E9
:10309000B0F1804F00F08F8040F20043C4F2000393
:1030A000984200F0888040F60003C4F20003984282
:1030B00000F0818084E040F60045C4F20005A8429B
:1030C0000CD042F60045C4F20105A84206D043F2F6
:1030D0000045C4F20105A84218BF083C03830EEA6C
:1030E000040343EA0C0343F001030384C988038B00
:1030F00023F00C03038394E040F60045C4F200057E
:10310000A8420BD043F20045C4F20105A84205D005
:1031100042F60045C4F20105A84203D14FF6FC7403
:103120001B012D3C0EEA0406A0F818C0334343F0FF
:1031300010030384C988038B23F4406309020383CB
:103140006FE025F480531203038442EA042302460D
:1031500040F6FF4432F81C5FB0F820C0254046F628
:10316000FF5443EA050E40F6FF33C4F200039842D1
:1031700034DCB0F1804F43D040F20043C4F200038E
:1031800098423DD040F60003C4F20003984237D085
:1031900039E040F60043C4F2000398420BD043F2FA
:1031A0000043C4F20103984205D042F60043C4F242
:1031B0000103984204D14CF6FF73360203F53454F0
:1031C0000EEA0403A0F81CC0334343F48073038465
:1031D000C988838B23F00C03838322E040F60043ED
:1031E000C4F2000398420BD043F20043C4F201033F
:1031F000984205D042F60043C4F20103984202D13E
:1032000036034CF6FF740CEA0403A0F81CE03343C9
:1032100043F480530384C988838B23F440630902F9
:10322000838310880843108070BD000000210122B4
:103230000160426001817047002A82890CBF22EA46
:10324000010111438181704710B5028C22F0010207
:103250000284048CB0F804E0038B0A8823F0730323
:1032600043EA020C0B8924F002021A434B881A43EA
:10327000A0F18043A3F596334FEAB323072B14D86C
:10328000012404FA03F313F0E50F0ED08C892EF419
:10329000407322F00C022343CC8943EA040E4B898D
:1032A00023F004031A438B881A43A0F804E0A0F823
:1032B00018C0C9888186028410BD0000028B22F0EC
:1032C000080211430183704710B5028C22F01002EE
:1032D0000284048CB0F804E0038B0A8823F4E643EC
:1032E00043EA022C0B8924F0200242EA03124B88A5
:1032F00042EA031243F20043C4F20103984205D0AC
:1033000042F60043C4F20103984212D18B892EF495
:10331000406422F0C00244EA8303CC8943EA840E6D
:103320004B896FF04F0404EA03131A438B8842EA77
:103330000312A0F804E0A0F818C0C988018702842D
:1033400010BD0000028B22F4006242EA01210183D9
:103350007047000010B5028C22F480720284048C45
:10336000B0F804E0838B0A8823F0730343EA020C6D
:103370000B8924F4007242EA03224B8842EA0322BA
:1033800043F20043C4F20103984205D042F60043E1
:10339000C4F20103984212D18B892EF4405422F4D6
:1033A000406244EA0313CC8943EA041E4B8940F28D
:1033B000FF441B02A3431A438B8842EA0322A0F86E
:1033C00004E0A0F81CC0C9888187028410BD0000F9
:1033D000828B22F0080211438183704710B5028C62
:1033E00022F480520284048CB0F804E0828B0B88B3
:1033F00022F4E64242EA032C0B8924F4005242EA0A
:1034000003324B8842EA033343F20042C4F2010222
:10341000904205D042F60042C4F20102904204D12B
:103420008A892EF4804444EA821EA0F804E0A0F8C1
:103430001CC0C988A0F84010038410BD828B22F400
:10344000006242EA01218183704700008187704752
:10345000A0F84010704700008184704740F6FF33A9
:10346000B0F800C0C4F2000398420FDCB0F1804F06
:103470001ED040F20043C4F20003984218D040F638
:103480000003C4F20003984212D016E040F6004355
:10349000C4F2000398420BD043F20043C4F201038C
:1034A000984205D042F60043C4F20103984204D189
:1034B0004B882CF0700243EA020C41F2004240F4C7
:1034C0008063C4F20002934204D0CB882CF4407293
:1034D00043EA020CA0F800C08A8882850A88028527
:1034E000A0F18042A2F596324FEAB222072A07D80D
:1034F000012303FA02F212F0E50F1CBF097A0186DC
:1035000001218182704700004FF6FF714160002168
:1035100001600172704700002DE9F04F81B043F661
:10352000000440F22551C4F20104A4F57445284674
:1035300000F0B8F9002804BF01B0BDE8F08F2046C4
:1035400040F225510022002600F0CEF9284640F234
:10355000255100F03DF9284600F034FA40F28F176B
:10356000C2F200073978032900F2D280DFE801F0C7
:1035700002BC175AC0B22C2840F0CA800120387013
:1035800040F28D10C2F2000001784A1C027040F235
:1035900090102C22C2F2000020F811200FE140F21E
:1035A0008D12C2F200021378591C1170C2B240F29F
:1035B0009010C2F200005B2A20F8132003D0CAB298
:1035C0000A2AC0F0FC8040F28E12C9B20123C2F276
:1035D000000200EB41001370032210F80C1C3A703B
:1035E00040F2A102C2F20002117040F2A20210F8F1
:1035F0000A1CC2F20002117040F2A00210F8081C6E
:10360000C2F20002117040F28C0210F8061C10F891
:10361000040CC2F20002117040F28D01C2F20001EE
:103620000870CCE040F28D1840F29010C2F2000811
:10363000C2F2000098F8001000EB410131F8021CC2
:103640005B2975D1204640F2255100224FF0000938
:1036500000F04AF940F28E1AC2F2000A9AF800000D
:10366000012840F0A08040F2A000C2F2000090F8D3
:1036700000B040F2A100C2F2000005786842FDF7F8
:103680007DF806462846FDF782F840F22C15BBF17E
:10369000000F08BF3046C2F200052860FDF79AF817
:1036A00003F0FAF8C928A4BF0020286040F28D007A
:1036B000C2F200000078411E032943D240F2F0001C
:1036C000C2F20000017800296DD10121017040F2A1
:1036D0009800C2F20000017040F29C00C2F20000AB
:1036E0000168013101605EE0C0B2122810D10220F1
:1036F000387040F28D10C2F2000001784A1C02704E
:1037000040F290101222C2F2000020F8112056E080
:1037100040F28D103E70C2F20000067040F2901030
:10372000C2F20000C0E90066C0E90266066146E038
:10373000002188F800103970C0E90011C0E90211B9
:1037400001613CE048B304282DD140F28401C2F26B
:103750000001087838BB40F22C000022C2F20000C1
:103760002A6002700120087040F23411C2F2000198
:10377000087040F20D11C2F20001087040F2880199
:10378000C2F200010A680132022A0A600BD140F23B
:103790000501C2F20001087005E040F29800002126
:1037A000C2F200000170204640F22551012288F843
:1037B00000908AF8009087F8009000F095F8204675
:1037C00040F22551012201B0BDE8F04F00F08CB865
:1037D000090A012202FA01F1C94301807047000081
:1037E0008289002942F4005308BF22F400538381E8
:1037F0007047000080B544F6FF31C4F200018842F2
:103800001EDD44F60041C4F2000188422CD045F28E
:103810000001C4F2000188422ED043F60001C4F238
:103820000101884218BF80BD4FF480400121FEF79E
:1038300003FC4FF480400021BDE88040FEF7FCBB54
:1038400044F20041C4F2000188421DD044F6000158
:10385000C4F20001884223D14FF480200121FEF7F9
:10386000D3FB4FF4802016E04FF400200121FEF737
:10387000CBFB4FF400200EE04FF480100121FEF747
:10388000C3FB4FF4801006E04FF400300121FEF737
:10389000BBFB4FF400300021BDE88040FEF7B4BB15
:1038A00080BD000001F01F02012303FA02F2C1F300
:1038B0004213022B06D0012B14BF00F1140300F1B8
:1038C0000C0301E000F110031B88090A1A404FF0B5
:1038D000010318BF0122008803FA01F1084018BF54
:1038E000012010407047000001F01F0C012303FA73
:1038F0000CFCC1F342131421022B08BF1021012B31
:1039000008BF0C21002A42580CBF22EA0C0242EAEE
:103910000C0242507047000070B586B00446008A21
:103920000D46C98801AE20F4405008434EF6F3110D
:103930002082A0890840A988084329890843698909
:103940000843A081A08AA98920F440700843A0827E
:103950003046FEF77DFB43F6000106F10800022227
:10396000C4F201018C424FF0190108BF06F10C00AE
:10397000042600684843A189A2EBD1312A6802FAE3
:1039800001F1B0FBF1F048F21F51C5F2EB11A0FBC1
:1039900001235A096FF0630302FB0300A389A6EB1E
:1039A000D336B0403230A0FB0101072040EA13308B
:1039B00080F0080000EA511040EA0210208106B0B1
:1039C00070BD000080886FF35F207047FEE7000045
:1039D000B0B50C460546FDF7F9FFFDF785FED22090
:1039E000FDF76CFFFEF730F818B1FEF70DF8012077
:1039F000B0BD2846FDF762FFFEF726F82046FDF72A
:103A00005DFFFEF721F80446002818BF0124FDF7EA
:103A1000FBFF2046B0BD00002DE9F04F81B040F61D
:103A2000044A074648F2A81901241D46164688464E
:103A3000C4F2010AC4F22129DAF8000020F470402F
:103A4000CAF80000DAF8000040F44050CAF800005C
:103A50000420C9F80440C9F8004003F0E3FB4FF02C
:103A6000000B0420C9F804B003F0DCFB7800C9F8AF
:103A700000B0C0B2FDF722FFFDF7E6FFD0B1DAF8E3
:103A8000000020F47040CAF80000DAF8000040F4AA
:103A90004050CAF800000420C9F800B0C9F804B0CA
:103AA00003F0C0FB0420C9F80040C9F8044003F04B
:103AB000B9FB49E04046FDF701FFFDF7C5FF56B1F0
:103AC000002400BF285DFDF7F9FEFDF7BDFFF8B942
:103AD0000134B442F6D3DAF80000002420F4704038
:103AE000CAF80000DAF8000040F44050CAF80000BC
:103AF0000420C9F80040C9F8044003F093FB0120FA
:103B0000C9F80000C9F80400042003F08BFB1BE097
:103B1000DAF8000020F47040CAF80000DAF800007B
:103B200040F44050CAF800000020C9F80000C9F86D
:103B30000400042003F076FB01240420C9F80040AF
:103B4000C9F8044003F06EFB204601B0BDE8F08FD9
:103B50002DE9F04F93B03A20ADF84A0006A8FDF7E2
:103B600099FC9DF81F004AF61879BDF818704FF0BF
:103B7000000842F210754FF0000BC0F600090590E6
:103B80009DF81A0001909DF81B0002909DF81D0001
:103B900003909DF81E00049048E008EB480169205E
:103BA000362300EB41003731490080B28AB22B2125
:103BB00002F07AF8002400BF19F8046016F0010F33
:103BC0000CBF4FF6FF7047F60F0001F04BFBB0073C
:103BD00054BF4FF6FF7047F60F0001F043FB70072C
:103BE00054BF4FF6FF7047F60F0001F03BFB300764
:103BF00054BF4FF6FF7047F60F0001F033FBF0069D
:103C000054BF4FF6FF7047F60F0001F02BFBB006D4
:103C100054BF4FF6FF7047F60F0001F023FB01344D
:103C20000C2CC9D14FF0000B92E000BF5FFA88F076
:103C3000032801D1012025E0C8F10202C8F10300E8
:103C4000D2B200F00301032A02D2012041B919E0E7
:103C5000421A0120043A684312F0FF0FFAD189B1E9
:103C6000012903D100EB800040000BE04FF47A7291
:103C700002294FF0640100FB02F208BF00FB01F2D1
:103C8000104600BF4CF6CD41B7FBF0F0B8F1020F83
:103C9000CCF6CC41A0FB01124FEAD20101EB81012D
:103CA000A0EB410407D85FEA0B6004D1002C3FF47D
:103CB00074AF4FF0010B08EB48016920362300EB8D
:103CC00041003731490080B28AB22B2101F0ECFF6C
:103CD00044F010004FF0000A00EB400009EB8004B4
:103CE00014F80A6016F0010F0CBF4FF6FF7047F68C
:103CF0000F0001F0B7FAB00754BF4FF6FF7047F658
:103D00000F0001F0AFFA700754BF4FF6FF7047F68F
:103D10000F0001F0A7FA300754BF4FF6FF7047F6C7
:103D20000F0001F09FFAF00654BF4FF6FF7047F600
:103D30000F0001F097FAB00654BF4FF6FF7047F638
:103D40000F0001F08FFA0AF1010ABAF10C0FC7D186
:103D500008F10108B8F1040F7FF468AF81253A2417
:103D60000DF14A08691DA8B236238AB22B2101F051
:103D70009BFFA4F120000026C0B200EB400009EB3D
:103D8000800400BFA75D17F0010F0CBF4FF6FF7056
:103D900047F60F0001F066FAB80754BF4FF6FF7000
:103DA00047F60F0001F05EFA780754BF4FF6FF7038
:103DB00047F60F0001F056FA380754BF4FF6FF7070
:103DC00047F60F0001F04EFAF80654BF4FF6FF70A9
:103DD00047F60F0001F046FAB80654BF4FF6FF70E1
:103DE00047F60F0001F03EFA01360C2ECAD118F842
:103DF000014F0635002CB5D100274FF0870B42F25A
:103E00001078002542E000BF0CB101257FE087203B
:103E10002B218C22362301F047FF002419F804508F
:103E200015F0010F0CBF4FF6FF7047F60F0001F0C1
:103E300019FAA80754BF4FF6FF7047F60F0001F0BC
:103E400011FA680754BF4FF6FF7047F60F0001F0F4
:103E500009FA280754BF4FF6FF7047F60F0001F02C
:103E600001FAE80654BF4FF6FF7047F60F0001F065
:103E7000F9F9A80654BF4FF6FF7047F60F0001F09E
:103E8000F1F901340C2CC9D100258EE0F8B20128DB
:103E900002D1012026E000BF7A42C7F10100D2B270
:103EA00000F00301032A03D2012051B91AE000BF38
:103EB000421A0120043A00FB08F012F0FF0FF9D17A
:103EC00081B1012903D100EB800040000AE04FF4EA
:103ED0007A7202294FF0640100FB02F208BF00FB76
:103EE00001F210460199002FB1FBF0F04CF6CD41E4
:103EF000CCF6CC41A0FB01124FEAD20101EB8101CB
:103F0000A0EB410408BF5FEA05603FF47DAF07EB1B
:103F1000470136230BEB41004631490080B28AB29B
:103F20002B2101F0C1FE44F01000002600EB400000
:103F300009EB800414F806A01AF0010F0CBF4FF62D
:103F4000FF7047F60F0001F08DF95FEA8A7054BFE9
:103F50004FF6FF7047F60F0001F084F95FEA4A70F0
:103F600054BF4FF6FF7047F60F0001F07BF95FEA90
:103F70000A7054BF4FF6FF7047F60F0001F072F958
:103F80005FEACA6054BF4FF6FF7047F60F0001F0BA
:103F900069F95FEA8A6054BF4FF6FF7047F60F0079
:103FA00001F060F901360C2EC4D10137022F7FF4E5
:103FB0006DAF93243A250DF14A0800BF611DA0B2F0
:103FC00036238AB22B2101F06FFEA5F120000026D6
:103FD000C0B200EB400009EB800700BFBD5D15F0EB
:103FE000010F0CBF4FF6FF7047F60F0001F03AF9D2
:103FF000A80754BF4FF6FF7047F60F0001F032F9E3
:10400000680754BF4FF6FF7047F60F0001F02AF91A
:10401000280754BF4FF6FF7047F60F0001F022F952
:10402000E80654BF4FF6FF7047F60F0001F01AF98B
:10403000A80654BF4FF6FF7047F60F0001F012F9C3
:1040400001360C2ECAD118F8015F0634002DB5D107
:1040500000244FF0990B42F210774FF0000A45E030
:1040600015B14FF0010A82E099202B219E223623C0
:1040700001F01AFE002500BF19F8056016F0010FC7
:104080000CBF4FF6FF7047F60F0001F0EBF8B007DA
:1040900054BF4FF6FF7047F60F0001F0E3F87007CA
:1040A00054BF4FF6FF7047F60F0001F0DBF8300702
:1040B00054BF4FF6FF7047F60F0001F0D3F8F0063B
:1040C00054BF4FF6FF7047F60F0001F0CBF8B00673
:1040D00054BF4FF6FF7047F60F0001F0C3F80135EB
:1040E0000C2DC9D14FF0000A8EE000BFE0B20128CC
:1040F00002D1012026E000BF6242C4F10100D2B229
:1041000000F00301032A03D2012049B91AE000BFDD
:10411000421A0120043A784312F0FF0FFAD189B114
:10412000012903D100EB800040000BE04FF47A72CC
:1041300002294FF0640100FB02F208BF00FB01F20C
:10414000104600BF0299002CB1FBF0F04CF6CD41B7
:10415000CCF6CC41A0FB01124FEAD20101EB810168
:10416000A0EB410508BF5FEA0A603FF479AF04EBBA
:10417000440136230BEB41004F31490080B28AB233
:104180002B2101F091FD45F010004FF0000800EBED
:10419000400009EB800500BF15F8086016F0010F1C
:1041A0000CBF4FF6FF7047F60F0001F05BF8B00749
:1041B00054BF4FF6FF7047F60F0001F053F8700739
:1041C00054BF4FF6FF7047F60F0001F04BF8300771
:1041D00054BF4FF6FF7047F60F0001F043F8F006AA
:1041E00054BF4FF6FF7047F60F0001F03BF8B006E2
:1041F00054BF4FF6FF7047F60F0001F033F808F197
:104200000108B8F10C0FC7D10134022C7FF46EAF56
:1042100000244FF0AB0B42F210774FF0000A45E05C
:1042200015B14FF0010A82E0AB202B21B0223623DA
:1042300001F03AFD002500BF19F8056016F0010FE6
:104240000CBF4FF6FF7047F60F0001F00BF8B007F8
:1042500054BF4FF6FF7047F60F0001F003F87007E8
:1042600054BF4FF6FF7047F60F0000F0FBFF30071A
:1042700054BF4FF6FF7047F60F0000F0F3FFF00653
:1042800054BF4FF6FF7047F60F0000F0EBFFB0068B
:1042900054BF4FF6FF7047F60F0000F0E3FF013503
:1042A0000C2DC9D14FF0000A8EE000BFE0B201280A
:1042B00002D1012026E000BF6242C4F10100D2B267
:1042C00000F00301032A03D2012049B91AE000BF1C
:1042D000421A0120043A784312F0FF0FFAD189B153
:1042E000012903D100EB800040000BE04FF47A720B
:1042F00002294FF0640100FB02F208BF00FB01F24B
:10430000104600BF0399002CB1FBF0F04CF6CD41F4
:10431000CCF6CC41A0FB01124FEAD20101EB8101A6
:10432000A0EB410508BF5FEA0A603FF479AF04EBF8
:10433000440136230BEB41005831490080B28AB268
:104340002B2101F0B1FC45F010004FF0000800EB0C
:10435000400009EB800500BF15F8086016F0010F5A
:104360000CBF4FF6FF7047F60F0000F07BFFB00761
:1043700054BF4FF6FF7047F60F0000F073FF700751
:1043800054BF4FF6FF7047F60F0000F06BFF300789
:1043900054BF4FF6FF7047F60F0000F063FFF006C2
:1043A00054BF4FF6FF7047F60F0000F05BFFB006FA
:1043B00054BF4FF6FF7047F60F0000F053FF08F1AF
:1043C0000108B8F10C0FC7D10134022C7FF46EAF95
:1043D000B7243A250DF14A08611DA0B236238AB2EE
:1043E0002B2101F061FCA5F120000026C0B200EBFA
:1043F000400009EB800700BFBD5D15F0010F0CBF49
:104400004FF6FF7047F60F0000F02CFFA80754BFCF
:104410004FF6FF7047F60F0000F024FF680754BF07
:104420004FF6FF7047F60F0000F01CFF280754BF3F
:104430004FF6FF7047F60F0000F014FFE80654BF78
:104440004FF6FF7047F60F0000F00CFFA80654BFB0
:104450004FF6FF7047F60F0000F004FF01360C2EF8
:10446000CAD118F8015F0634002DB5D100244FF0F1
:10447000BD0B42F210774FF0000A45E015B14FF046
:10448000010A82E0BD202B21C222362301F00CFC60
:10449000002500BF19F8056016F0010F0CBF4FF69C
:1044A000FF7047F60F0000F0DDFEB00754BF4FF677
:1044B000FF7047F60F0000F0D5FE700754BF4FF6AF
:1044C000FF7047F60F0000F0CDFE300754BF4FF6E7
:1044D000FF7047F60F0000F0C5FEF00654BF4FF620
:1044E000FF7047F60F0000F0BDFEB00654BF4FF658
:1044F000FF7047F60F0000F0B5FE01350C2DC9D155
:104500004FF0000A8EE000BFE0B2012802D1012086
:1045100026E000BF6242C4F10100D2B200F0030104
:10452000032A03D2012049B91AE000BF421A012030
:10453000043A784312F0FF0FFAD189B1012903D16F
:1045400000EB800040000BE04FF47A7202294FF03C
:10455000640100FB02F208BF00FB01F2104600BF3D
:104560000499002CB1FBF0F04CF6CD41CCF6CC41D7
:10457000A0FB01124FEAD20101EB8101A0EB410542
:1045800008BF5FEA0A603FF479AF04EB44013623C9
:104590000BEB41006131490080B28AB22B2101F05E
:1045A00083FB45F010004FF0000800EB400009EBE2
:1045B000800500BF15F8086016F0010F0CBF4FF61C
:1045C000FF7047F60F0000F04DFEB00754BF4FF6E6
:1045D000FF7047F60F0000F045FE700754BF4FF61E
:1045E000FF7047F60F0000F03DFE300754BF4FF656
:1045F000FF7047F60F0000F035FEF00654BF4FF68F
:10460000FF7047F60F0000F02DFEB00654BF4FF6C6
:10461000FF7047F60F0000F025FE08F10108B8F121
:104620000C0FC7D10134022C7FF46EAFC9243A2598
:104630000DF14A08611DA0B236238AB22B2101F088
:1046400033FBA5F120000026C0B200EB400009EBCF
:10465000800700BFBD5D15F0010F0CBF4FF6FF7066
:1046600047F60F0000F0FEFDA80754BF4FF6FF709D
:1046700047F60F0000F0F6FD680754BF4FF6FF70D5
:1046800047F60F0000F0EEFD280754BF4FF6FF700D
:1046900047F60F0000F0E6FDE80654BF4FF6FF7046
:1046A00047F60F0000F0DEFDA80654BF4FF6FF707E
:1046B00047F60F0000F0D6FD01360C2ECAD118F8CF
:1046C000015F0634002DB5D100244FF0CF0B42F22C
:1046D00010774FF0000A45E015B14FF0010A82E073
:1046E000CF202B21D422362301F0DEFA002500BF93
:1046F00019F8056016F0010F0CBF4FF6FF7047F672
:104700000F0000F0AFFDB00754BF4FF6FF7047F643
:104710000F0000F0A7FD700754BF4FF6FF7047F67B
:104720000F0000F09FFD300754BF4FF6FF7047F6B3
:104730000F0000F097FDF00654BF4FF6FF7047F6EC
:104740000F0000F08FFDB00654BF4FF6FF7047F624
:104750000F0000F087FD01350C2DC9D14FF0000A84
:104760008EE000BFE0B2012802D1012026E000BFA8
:104770006242C4F10100D2B200F00301032A03D265
:10478000012049B91AE000BF421A0120043A7843D7
:1047900012F0FF0FFAD189B1012903D100EB80009B
:1047A00040000BE04FF47A7202294FF0640100FBE5
:1047B00002F208BF00FB01F2104600BF0599002C71
:1047C000B1FBF0F04CF6CD41CCF6CC41A0FB011290
:1047D0004FEAD20101EB8101A0EB410508BF5FEA7E
:1047E0000A603FF479AF04EB440136230BEB410040
:1047F0006A31490080B28AB22B2101F055FA45F0A6
:1048000010004FF0000800EB400009EB800500BFEE
:1048100015F8086016F0010F0CBF4FF6FF7047F651
:104820000F0000F01FFDB00754BF4FF6FF7047F6B2
:104830000F0000F017FD700754BF4FF6FF7047F6EA
:104840000F0000F00FFD300754BF4FF6FF7047F622
:104850000F0000F007FDF00654BF4FF6FF7047F65B
:104860000F0000F0FFFCB00654BF4FF6FF7047F694
:104870000F0000F0F7FC08F10108B8F10C0FC7D1E8
:104880000134022C7FF46EAF40F2F400C2F200005B
:104890000068FCF704F80B4640F22101024606A826
:1048A000C0F6010105F0FEF89DF81850002D57D014
:1048B0004BF28C3886240DF11809C0F6000800BFB1
:1048C000E11DA0B25B238AB24C2101F0EDF9A5F104
:1048D00020000026C0B208EB001700BFBD5D15F038
:1048E000010F0CBF00204FF6FF7000F0BBFCA807C3
:1048F00054BF00204FF6FF7000F0B4FC680754BFAF
:1049000000204FF6FF7000F0ADFC280754BF0020D8
:104910004FF6FF7000F0A6FCE80654BF00204FF6EB
:10492000FF7000F09FFCA80654BF00204FF6FF70F8
:1049300000F098FC680654BF00204FF6FF7000F0AE
:1049400091FC280654BF00204FF6FF7000F08AFC4F
:104950000136102EC2D119F8015F0834002DAFD1F5
:1049600040F21010C2F200000068FBF798FF0B46FF
:1049700040F22101024606A8C0F6010105F092F8B6
:104980009DF81850002D57D04BF28C3886240DF12D
:104990001809C0F6000800BFE11DA0B26B238AB25F
:1049A0005C2101F081F9A5F120000026C0B208EBDE
:1049B000001700BFBD5D15F0010F0CBF00204FF6C2
:1049C000FF7000F04FFCA80754BF00204FF6FF70A7
:1049D00000F048FC680754BF00204FF6FF7000F05D
:1049E00041FC280754BF00204FF6FF7000F03AFC4E
:1049F000E80654BF00204FF6FF7000F033FCA80615
:104A000054BF00204FF6FF7000F02CFC680654BF26
:104A100000204FF6FF7000F025FC280654BF002050
:104A20004FF6FF7000F01EFC0136102EC2D119F8AF
:104A3000015F0834002DAFD140F24810C2F20000EF
:104A40000068FBF72CFF0B4640F22101024606A846
:104A5000C0F6010105F026F89DF81850002D57D03A
:104A60004BF28C3886240DF11809C0F6000800BFFF
:104A7000E11DA0B27B238AB26C2101F015F9A5F1EA
:104A800020000026C0B208EB001700BFBD5D15F086
:104A9000010F0CBF00204FF6FF7000F0E3FBA807EA
:104AA00054BF00204FF6FF7000F0DCFB680754BFD6
:104AB00000204FF6FF7000F0D5FB280754BF002000
:104AC0004FF6FF7000F0CEFBE80654BF00204FF613
:104AD000FF7000F0C7FBA80654BF00204FF6FF7020
:104AE00000F0C0FB680654BF00204FF6FF7000F0D6
:104AF000B9FB280654BF00204FF6FF7000F0B2FB50
:104B00000136102EC2D119F8015F0834002DAFD143
:104B100040F2A40040F21D01C2F20000C0F6010103
:104B2000026806A804F0BEFF9DF81850002D57D06B
:104B30004BF28C3886240DF11809C0F6000800BF2E
:104B4000E11DA0B28B238AB27C2101F0ADF8A5F162
:104B500020000026C0B208EB001700BFBD5D15F0B5
:104B6000010F0CBF00204FF6FF7000F07BFBA80781
:104B700054BF00204FF6FF7000F074FB680754BF6D
:104B800000204FF6FF7000F06DFB280754BF002097
:104B90004FF6FF7000F066FBE80654BF00204FF6AA
:104BA000FF7000F05FFBA80654BF00204FF6FF70B7
:104BB00000F058FB680654BF00204FF6FF7000F06D
:104BC00051FB280654BF00204FF6FF7000F04AFB4F
:104BD0000136102EC2D119F8015F0834002DAFD173
:104BE00040F2A80040F21D01C2F20000C0F601012F
:104BF000026806A804F056FF9DF81850002D57D003
:104C00004BF28C3886240DF11809C0F6000800BF5D
:104C1000E11DA0B29B238AB28C2101F045F8A5F1D9
:104C200020000026C0B208EB001700BFBD5D15F0E4
:104C3000010F0CBF00204FF6FF7000F013FBA80718
:104C400054BF00204FF6FF7000F00CFB680754BF04
:104C500000204FF6FF7000F005FB280754BF00202E
:104C60004FF6FF7000F0FEFAE80654BF00204FF642
:104C7000FF7000F0F7FAA80654BF00204FF6FF704F
:104C800000F0F0FA680654BF00204FF6FF7000F005
:104C9000E9FA280654BF00204FF6FF7000F0E2FA50
:104CA0000136102EC2D119F8015F0834002DAFD1A2
:104CB00040F24410C2F200000068FBF75FFD0021E3
:104CC000C4F2C821FBF718FBFBF7E9FD02460B46CF
:104CD00006A80FF2784104F0E5FE9DF81850002D6B
:104CE00056D04BF28C3886240DF11809C0F6000816
:104CF000E11DA0B24B238AB23C2100F0D5FFA5F103
:104D000020000026C0B208EB001700BFBD5D15F003
:104D1000010F0CBF00204FF6FF7000F0A3FAA807A8
:104D200054BF00204FF6FF7000F09CFA680754BF94
:104D300000204FF6FF7000F095FA280754BF0020BE
:104D40004FF6FF7000F08EFAE80654BF00204FF6D1
:104D5000FF7000F087FAA80654BF00204FF6FF70DE
:104D600000F080FA680654BF00204FF6FF7000F094
:104D700079FA280654BF00204FF6FF7000F072FA4F
:104D80000136102EC2D119F8015F0834002DAFD1C1
:104D90004BF28C385624AE250DF11809C0F60008E8
:104DA000ADF81840E91DA8B24B238AB23C2100F0AF
:104DB0007BFFA4F120000024C0B208EB001700BF65
:104DC0003E5D16F0010F0CBF00204FF6FF7000F0A3
:104DD00049FAB00754BF00204FF6FF7000F042FAC6
:104DE000700754BF00204FF6FF7000F03BFA300709
:104DF00054BF00204FF6FF7000F034FAF00654BFA5
:104E000000204FF6FF7000F02DFAB00654BF0020CE
:104E10004FF6FF7000F026FA700654BF00204FF6E0
:104E2000FF7000F01FFA300654BF00204FF6FF70ED
:104E300000F018FA0134102CC2D119F8014F0835CE
:104E4000002CAFD140F2A100C2A1C2F20000027852
:104E500006A804F027FE9DF81840002C52D05E25CD
:104E60000DF11809E91DA8B2AB238AB29C2100F00C
:104E70001BFFA4F120000024C0B208EB001700BF04
:104E80003E5D16F0010F0CBF00204FF6FF7000F0E2
:104E9000E9F9B00754BF00204FF6FF7000F0E2F9C7
:104EA000700754BF00204FF6FF7000F0DBF93007A9
:104EB00054BF00204FF6FF7000F0D4F9F00654BF45
:104EC00000204FF6FF7000F0CDF9B00654BF00206F
:104ED0004FF6FF7000F0C6F9700654BF00204FF681
:104EE000FF7000F0BFF9300654BF00204FF6FF708E
:104EF00000F0B8F90134102CC2D119F8014F08356F
:104F0000002CAFD140F2A00094A1C2F200000278C0
:104F100006A804F0C7FD9DF81840002C52D05E256D
:104F20000DF11809E91DA8B2BB238AB2AC2100F02B
:104F3000BBFEA4F120000024C0B208EB001700BFA4
:104F40003E5D16F0010F0CBF00204FF6FF7000F021
:104F500089F9B00754BF00204FF6FF7000F082F9C6
:104F6000700754BF00204FF6FF7000F07BF9300748
:104F700054BF00204FF6FF7000F074F9F00654BFE4
:104F800000204FF6FF7000F06DF9B00654BF00200E
:104F90004FF6FF7000F066F9700654BF00204FF620
:104FA000FF7000F05FF9300654BF00204FF6FF702D
:104FB00000F058F90134102CC2D119F8014F08350E
:104FC000002CAFD140F29C0066A1C2F20000026842
:104FD00006A804F067FD9DF81840002C52D05E250D
:104FE0000DF11809E91DA8B2CB238AB2BC2100F04B
:104FF0005BFEA4F120000024C0B208EB001700BF44
:105000003E5D16F0010F0CBF00204FF6FF7000F060
:1050100029F9B00754BF00204FF6FF7000F022F9C5
:10502000700754BF00204FF6FF7000F01BF93007E7
:1050300054BF00204FF6FF7000F014F9F00654BF83
:1050400000204FF6FF7000F00DF9B00654BF0020AD
:105050004FF6FF7000F006F9700654BF00204FF6BF
:10506000FF7000F0FFF8300654BF00204FF6FF70CD
:1050700000F0F8F80134102CC2D119F8014F0835AE
:10508000002CAFD140F284003AA1C2F200000278B5
:1050900006A804F007FD9DF81840002C52D05E25AC
:1050A0000DF11809E91DA8B2DB238AB2CC2100F06A
:1050B000FBFDA4F120000024C0B208EB001700BFE4
:1050C0003E5D16F0010F0CBF00204FF6FF7000F0A0
:1050D000C9F8B00754BF00204FF6FF7000F0C2F8C7
:1050E000700754BF00204FF6FF7000F0BBF8300788
:1050F00054BF00204FF6FF7000F0B4F8F00654BF24
:1051000000204FF6FF7000F0ADF8B00654BF00204D
:105110004FF6FF7000F0A6F8700654BF00204FF65F
:10512000FF7000F09FF8300654BF00204FF6FF706C
:1051300000F098F80134102CC2D119F8014F08354D
:10514000002CAFD113B0BDE8F08F00BF25342E3254
:105150006600000063783A256420000063773A25F2
:105160006420000043726F73734E756D3A2564209E
:105170000000000063693A2564200000F0B581B0AA
:10518000044640F22000C2F20000056840F2B80078
:10519000C2F20000007801280ED140F20600C2F2EF
:1051A00000000078FBF7F3FA01460020CCF258200B
:1051B000FBF7A2F8014616E040F2B900C2F2000087
:1051C000007801280ED140F20600C2F200000078FB
:1051D000FBF7DDFA01460020C4F25820FBF78CF8FB
:1051E000014600E0002140F2BA0040F21412C2F27F
:1051F0000000C2F2000200781268012840F2BB00F1
:105200001646C2F2000018BF002600780128284682
:1052100008BF1646FBF73EF80025C4F2C82529460C
:10522000FBF76AF8074630462146FBF733F8294674
:10523000FBF762F801463846FAF7D4FFFBF7CAFAE3
:1052400001B0F0BD80B5FDF7E5F901F0ABFF01203D
:10525000FCF746FC4FF44070FCF7B6FEBDE880401A
:1052600002F030BE10B50446000A00F007F8E0B2C4
:10527000BDE8104000F002B8AFF30080B0B541F6D1
:10528000000405460221C4F201042046FBF7CAFFD0
:1052900020460821FBF7C6FF68B2B0F1FF3F04DDEE
:1052A00020462021FBF7BEFF03E020462021FBF72C
:1052B000BBFF20460821FBF7B7FF20460821FBF77C
:1052C000B1FF680604D420462021FBF7ABFF03E0C2
:1052D00020462021FBF7A8FF20460821FBF7A4FF6A
:1052E00020460821FBF79EFFA80604D42046202173
:1052F000FBF798FF03E020462021FBF795FF2046AF
:105300000821FBF791FF20460821FBF78BFFE806F9
:1053100004D420462021FBF785FF03E0204620210E
:10532000FBF782FF20460821FBF77EFF204608217D
:10533000FBF778FF280704D420462021FBF772FFF3
:1053400003E020462021FBF76FFF20460821FBF7F2
:105350006BFF20460821FBF765FF680704D4204651
:105360002021FBF75FFF03E020462021FBF75CFFD5
:1053700020460821FBF758FF20460821FBF752FF83
:10538000A80704D420462021FBF74CFF03E0204669
:105390002021FBF749FF20460821FBF745FF204667
:1053A0000821FBF73FFFE80704D120462021FBF747
:1053B00039FF03E020462021FBF736FF2046082175
:1053C000FBF732FF20460221BDE8B040FBF72CBFBF
:1053D000242200210228C4F200020BD0042807D0A6
:1053E00003284FF0000018BF704702F5806201E00B
:1053F00002F50062B2F900001180704770B58AB002
:105400004FF4047001210125FCF70AFE4FF400401F
:10541000FCF7E4FD42F200440026042001A9C4F296
:1054200001040396ADF80400A4F5A050FBF752FD6B
:105430002046FBF749FC4FF46020CDE90466069650
:1054400004A9CDE9070620468DF82450FBF77EFC21
:1054500020460121FBF72EFC2046FBF7D5FC00BFC0
:105460002046FBF76FFC0028FAD12046FBF7DCFC56
:105470002046FBF759FC0028FAD10AB070BD0000A5
:1054800010B584B041F218000124C4F20200016892
:1054900041F011010160012001F0C4FE1020012142
:1054A000FCF7BEFD4820ADF8044001A9039003209D
:1054B000029041F20000C4F20100FBF70BFD04B0C2
:1054C00010BD000010B500F0B3F941F60004102142
:1054D000C4F201042046FBF7A5FE642001F076FE2D
:1054E00020461021FBF7A0FE642001F06FFE20464D
:1054F0004021FBF799FE642001F068FE204604215C
:10550000FBF790FE1120FFF7B9FE20460421FBF7C0
:105510008BFE782001F05AFE20460421FBF782FE24
:105520003620FFF7ABFE20460421FBF77DFE00206E
:10553000FFF7A4FE20460421FBF774FE3A20FFF794
:105540009DFE20460421FBF76FFE0520FFF796FE27
:1055500020460421FBF766FEB220FFF78FFE2046AF
:105560000421FBF761FE0C20FFF788FE0C20FFF7FB
:1055700085FE0020FFF782FE3320FFF77FFE3320F9
:10558000FFF77CFE20460421FBF74CFEB720FFF717
:1055900075FE20460421FBF747FE3520FFF76EFE1F
:1055A00020460421FBF73EFEBB20FFF767FE2046A6
:1055B0000421FBF739FE3220FFF760FE204604216C
:1055C000FBF730FEC220FFF759FE20460421FBF70F
:1055D0002BFE0120FFF752FE20460421FBF722FE9E
:1055E000C320FFF74BFE20460421FBF71DFE1520CC
:1055F000FFF744FE20460421FBF714FEC420FFF70A
:105600003DFE20460421FBF70FFE2020FFF736FE6B
:1056100020460421FBF706FEC620FFF72FFE20469A
:105620000421FBF701FE0F20FFF728FE204604218E
:10563000FBF7F8FDD020FFF721FE20460421FBF701
:10564000F3FDA420FFF71AFEA120FFF717FE204666
:105650000421FBF7E7FDE020FFF710FE20460421C0
:10566000FBF7E2FDD020FFF709FE0820FFF706FE5A
:105670000E20FFF703FE0920FFF700FE0920FFF7C9
:10568000FDFD0520FFF7FAFD3120FFF7F7FD332080
:10569000FFF7F4FD4820FFF7F1FD1720FFF7EEFDBF
:1056A0001420FFF7EBFD1520FFF7E8FD3120FFF791
:1056B000E5FD3420FFF7E2FD20460421FBF7B2FDB3
:1056C000E120FFF7DBFD20460421FBF7ADFDD020F4
:1056D000FFF7D4FD0820FFF7D1FD0E20FFF7CEFD28
:1056E0000920FFF7CBFD0920FFF7C8FD1520FFF7C4
:1056F000C5FD3120FFF7C2FD3320FFF7BFFD482075
:10570000FFF7BCFD1720FFF7B9FD1420FFF7B6FD2A
:105710001520FFF7B3FD3120FFF7B0FD3420FFF770
:10572000ADFD20460421FBF77DFD2120FFF7A6FDFE
:1057300020460421FBF778FD20460421FBF772FD8B
:105740002920FFF79BFD20460421BDE81040FBF710
:105750006BBD0000F0B58BB00120012401F062FDAB
:1057600008200121FCF744FC45200121FCF758FCEE
:1057700040200121FCF754FC102008AE03270A90BA
:10578000ADF8204040F6004431460997C4F20004C9
:1057900004F586352846FBF79DFB28460121FBF7DB
:1057A00043FD04200121FCF73BFC182031460A9000
:1057B0000F20ADF8200004F57C400997FBF78AFB29
:1057C0004FF47A7005A90690472005902046FDF712
:1057D00045FE002001ADADF80C0060202946C0F266
:1057E000010001902046FDF72FFD20460821FDF71E
:1057F00065FD20462946FDF767FD20460821FDF797
:10580000A1FD20462946FDF7A5FD20460821FDF70C
:10581000DFFD20462946FDF7E1FD20460821FDF782
:105820000DFE20460121FDF77FFB0BB0F0BD00000F
:1058300070B584B040200121FCF7F2FB41F6000472
:105840001026022001AD0396ADF804000320C4F237
:105850000104294602902046FBF73CFB204602212A
:10586000FBF7E2FC28202946ADF804002046FBF7B0
:1058700031FB20462821FBF7D7FC44202946ADF810
:1058800004002046FBF726FB204648F22001FBF7E8
:10589000CBFC20462946ADF80460FBF71BFB2046F5
:1058A0001021FBF7C1FC04B070BD000040F27C1178
:1058B000C2F20001086040F240000021C2F2000084
:1058C00001607047B0B540F2001540F28812002127
:1058D000C4F22225C2F200022B681488002B08BFF4
:1058E000611C11802A6842B940F28A13C2F2000397
:1058F0001A78002A04BF01221A7040F28C1EC2F2EC
:10590000000E9EF8002002BB40F28A1240F2841C76
:10591000C2F20002C2F2000C1278BCF80030012A78
:1059200005D1013301228EF80020ACF800309AB284
:10593000022A0AD140F286100021C2F20000ACF81F
:10594000001001800221C8B2B0BD2A68012A07D127
:1059500040F28A130022C2F200038EF800201A706F
:1059600040F2841EC2F2000EBEF80020012A1EBFC3
:105970000021C8B2B0BD40F2861C8BB2C2F2000C4E
:105980008342BCF8002002F10102ACF800200AD2E8
:1059900091B2814207D900200121ACF80000AEF895
:1059A0000000C8B2B0BD00218342C8B284BFACF8C9
:1059B0000010AEF80010B0BDB0B584B07020012169
:1059C000FCF72EFB102041F6000401AD03904FF4CC
:1059D0004160C4F201042946ADF80400032002909E
:1059E000A4F58060FBF776FA4FF480502946ADF8B5
:1059F0000400A4F50060FBF76DFA4FF480602946BF
:105A0000ADF804002046FBF765FA20464FF48061AC
:105A1000FBF70AFC04B0B0BD2DE9F0418AB00446A2
:105A20004FF4003001214FF00108FCF7E1FA20208B
:105A300001212025FCF7F4FA08200121FBF7BAFB2D
:105A4000032007AF0890ADF81C5044F20045182021
:105A50003946C4F20005099005F550463046FBF77B
:105A600039FA0420394609904020ADF81C00304630
:105A7000FBF730FA4FF49370CDF81880ADF81400AE
:105A800005A88DF81680FCF76FFA0020019401A993
:105A90000290ADF810004FF4402003902846FDF727
:105AA0003BFF284640F225510122FDF71DFF284605
:105AB0000121FDF795FE0AB0BDE8F081F0B587B091
:105AC00004464FF480200121FCF792FA20200121A6
:105AD000FCF7A6FA30200121C0F21400FBF76AFBA4
